:020000040800F2
:10000000D8060020CD010008BF390008D10C000837
:10001000BD390008CF020008293A0008000000009E
:10002000000000000000000000000000C3390008CC
:10003000D102000800000000C1390008C5390008DD
:10004000E7010008E7010008E7010008E7010008F0
:10005000E7010008E7010008E7010008E7010008E0
:10006000E7010008E7010008E7010008E7010008D0
:10007000E7010008E7010008E7010008E7010008C0
:10008000E7010008E7010008E7010008E7010008B0
:10009000E7010008E7010008E7010008E7010008A0
:1000A000E7010008E7010008E7010008E701000890
:1000B000E7010008E7010008E7010008E701000880
:1000C000E7010008E7010008E7010008E701000870
:1000D000E7010008E7010008E7010008E701000860
:1000E000E7010008E7010008E7010008E701000850
:1000F000E7010008E7010008E7010008E701000840
:10010000E7010008E7010008E7010008E70100082F
:10011000E7010008E7010008E7010008E70100081F
:10012000E7010008E7010008E7010008E70100080F
:1001300000F002F800F03AF80AA090E8000C8244BF
:100140008344AAF10107DA4501D100F02FF8AFF29C
:10015000090EBAE80F0013F0010F18BFFB1A43F0A5
:100160000103184788830000A8830000103A24BFC9
:1001700078C878C1FAD8520724BF30C830C144BF0C
:1001800004680C607047000000230024002500264E
:10019000103A28BF78C1FBD8520728BF30C148BFEA
:1001A0000B6070471FB51FBD10B510BD00F058F8AB
:1001B0001146FFF7F7FF03F071FC00F076F803B487
:1001C000FFF7F2FF03BC00F07BF80000094880470E
:1001D00009480047FEE7FEE7FEE7FEE7FEE7FEE729
:1001E000FEE7FEE7FEE7FEE704480549054A064B41
:1001F00070470000273A000831010008D8000020AD
:10020000D8060020D8020020D80200204FF00002BB
:1002100000B5134694469646203922BFA0E80C50FC
:10022000A0E80C50B1F12001BFF4F7AF090728BFD7
:10023000A0E80C5048BF0CC05DF804EB890028BF53
:1002400040F8042B08BF704748BF20F8022B11F07C
:10025000804F18BF00F8012B7047704770477047F8
:10026000754600F029F8AE4605006946534620F071
:100270000700854618B020B5FFF7B6FFBDE820405F
:100280004FF000064FF000074FF000084FF0000B52
:1002900021F00701AC46ACE8C009ACE8C009ACE805
:1002A000C009ACE8C0098D4670470446AFF3008032
:1002B0002046FFF784FF00000048704774000020CC
:1002C00001491820ABBEFEE7260002007047FEE79A
:1002D000704772B6FEE7000030B5B3F5804F05D029
:1002E0006FF0704140F82210002030BD8C690B681F
:1002F0008D6823434C688989240144EA05242343FB
:1003000043EA014150F82230014C23401943E9E708
:100310000000F0CF10B50A6850F8223023F0010336
:1003200040F822308C68082C23D000234A682243EE
:10033000CC681C430B6922431A434B690E4C1A4389
:10034000CB691A430B6A1A434B6A1A438B6A1A43E6
:10035000CB6A1A430B6B1A438B6913434A6B0968C8
:100360001A4350F82130A343134340F821300020B2
:1003700010BD4023DAE700007FFF0F0030B5D1E960
:10038000003443EA04138C688D89240244EA05444E
:1003900023430C8A094D00EB820005EB04542343F0
:1003A0000C7D6D0105EB0464896923430B434168AF
:1003B00001F040410B434360002030BD0000F0FFDE
:1003C00070B5044600F050F90546601C02D00448A0
:1003D0000078044400F048F9401BA042FAD370BDF5
:1003E0000800002030B585B00020009001900290F8
:1003F000039017480168002927D1012101601548A1
:10040000416941F4807141614069022400F48070C7
:10041000049041F20100CDE90004032569460395EB
:100420000D4800F01FF84FF68070CDE900046946D2
:1004300003950A4800F016F84CF23370CDE9000439
:1004400069460395064800F00DF805B030BD000080
:100450000000002000100240002001400018014070
:10046000001401402DE9F84FDFF8C891002409F18C
:10047000040A0AF1040B23460F270BF1040ED1E006
:100480000125A54006EA0502AA4276D1DFF8A8C1F7
:100490004E68A6EB0C0866452BD00DDC032E34D03D
:1004A00005DC36B3012E19D0022E2FD11BE0112E00
:1004B00016D0122E2AD119E0B8F5881F19D006DC03
:1004C000B8F5803F15D0B8F5801F1FD111E0B8F501
:1004D000001F0ED0B8F5041F18D10AE0CB6815E054
:1004E000CB681B1D12E0CB6808330FE0CB680C33E0
:1004F0000CE08B682BB1012B4FF0080303D0456152
:1005000004E0042302E0056100E00023FF2A01D893
:10051000064601E000F104064FEA840501D9A5F181
:100520002005D6F8008007FA05FC28EA0C0803FA33
:1005300005F548EA0508C6F800804D68ED0070D55D
:100540003E4DAE6946F00106AE61AD6924F003068A
:1005500005F0010500953A4D06EB050CDCF8085056
:10056000A607360F07FA06F825EA0805DFF8D48053
:10057000404503D14FF0000825E052E0DFF8C88085
:10058000404502D14FF001081DE0DFF8C080404532
:1005900002D14FF0020816E0DFF8B480404502D1E6
:1005A0004FF003080FE0DFF8AC80404502D14FF078
:1005B000040808E0DFF8A080404502D14FF00508AC
:1005C00001E04FF0060808FA06F848EA0508CCF8FA
:1005D00008804D68D9F80060ED034D4601D51643FB
:1005E00000E096432E604D68DAF80060AD03554692
:1005F00001D5164300E096432E604D68DBF800609D
:10060000ED025D4601D5164300E096432E604D682D
:10061000DEF80060AD02754601D5164300E0964352
:100620002E60641C0A681646E2407FF429AFBDE8DC
:10063000F88F00000004014000001110001002407B
:100640000000014000080140000C01400010014082
:100650000014014000180140001C01400AB1016172
:1006600070470904FBE700000148806870470000FC
:1006700008000020024881680278114481607047B8
:1006800008000020074810B5016841F01001016022
:10069000032000F067F80F2000F006F800F024F8BF
:1006A000002010BD0020024070B50D4D04464FF4EF
:1006B0007A712878B1FBF0F00A490968B1FBF0F0D3
:1006C00000F0F2FA48B9102C07D200222146501E41
:1006D00000F028F800206C6070BD012070BD0000A3
:1006E00008000020140000200C4808B5816941F082
:1006F00001018161816901F001010091C16941F04D
:100700008051C161C06900F0805000900448416888
:1007100021F0E06141F00071416008BD001002402D
:1007200000000140F0B40E4B1B680C46C3F30223DB
:10073000C3F10705042D00D90425191D072901D28D
:10074000002300E0DB1E012606FA05F1491E2140C8
:1007500099409E40761E16403143F0BC03F065B9C7
:100760000CED00E0064900F0070208684FF6FF03B1
:10077000184040EA0220034A104308607047000016
:100780000CED00E00000FA052DE9F0470F460500EA
:1007900061D0434E306800F00700B84209D230689B
:1007A00020F0070038433060306800F00700B8429E
:1007B00051D128683B4C810712D5400703D56068AA
:1007C00040F4E06060602878000703D5606840F47A
:1007D000605060606068A96820F0F00008436060C5
:1007E0002878C00728D06868012810D0216802281E
:1007F00010D0890700292EDA616821F00301014336
:100800006160FFF731FF804641F288390DE02168D1
:100810008903EFE78901EDE7FFF726FFA0EB080169
:10082000494502D90320BDE8F0876068696800F097
:100830000C00B0EB810FEFD1306800F00700B84238
:100840000BD9306820F0070038433060306800F082
:100850000700B84201D00120E5E72878400705D518
:100860006068E96820F4E060084360602878000769
:1008700006D56068296920F4605040EAC1006060D4
:1008800000F018F86168084AC1F30311515CC840D0
:100890000649086006480068FFF706FF0020C2E727
:1008A00000200240001002409C3D0008140000207F
:1008B0000C00002012A185B00FC98DE80F0014A014
:1008C000144A006804905168134801F00C03042B8B
:1008D00010D0082B0ED1C1F38343C9031DF80300C8
:1008E0000AD5516804AAC1F34041515C0A4A5043F9
:1008F000B0FBF1F005B0704708494843FAE7000043
:1009000002030405060708090A0B0C0D0E0F101050
:10091000010200000010024000127A0000093D00B0
:100920002DE9F84F040070D02078C04DC00749D0A1
:100930006868C0F38100012807D06868C0F38100AF
:10094000022809D16868C00306D52868800339D514
:1009500060680028E7D035E06068B0F5803F0BD0D4
:1009600010B1B0F5A02F11D0286820F48030286095
:10097000286820F4802002E0286840F48030286055
:10098000606890B1FFF770FE06460AE0286840F400
:1009900080202860F0E700BFFFF766FE801B642818
:1009A00073D828688003F7D50CE0FFF75DFE064694
:1009B00005E000BFFFF758FE801B6428F0D82868C8
:1009C0008003F7D420789A4E80074FF001094FF04A
:1009D000000839D5686810F00C0F07D06868C0F3BC
:1009E0008100022809D16868C00306D428688007FE
:1009F00014D52069012808D110E02069B0B1C6F8EB
:100A00000090FFF731FE074605E00AE1FFF72CFEF4
:100A1000C01B0228C4D828688007F7D528686169F8
:100A200020F0F80040EAC10028600DE0C6F8008020
:100A3000FFF71AFE074604E0FFF716FEC01B022868
:100A400023D828688007F7D4207800072CD5794868
:100A5000A169D9B1C0F80090FFF706FE074604E08F
:100A6000FFF702FEC01B02280FD8686A8007F7D57F
:100A700071484FF4FA510068B0FBF1F0009000BFEC
:100A80000098411E0091FAD20EE080E0C0F800808C
:100A9000FFF7EAFD074604E0FFF7E6FDC01B02286A
:100AA00075D8686A8007F7D42078400760D5E86970
:100AB0000027C00008D4E86940F08050E861E86988
:100AC000012700F0805000905C480168C90513D4EC
:100AD0000168834641F480710160FFF7C5FD8246DD
:100AE00006E000BFFFF7C0FDA0EB0A0064284ED867
:100AF000DBF80000C005F5D5E06801280AD008B190
:100B0000052813D0286A20F001002862286A20F006
:100B1000040002E0286A40F001002862E06841F227
:100B2000883B98B1FFF7A0FD82460BE0286A40F0B1
:100B300004002862EEE700BFFFF796FDA0EB0A0174
:100B400059455AD8286A8007F6D50CE0FFF78CFD86
:100B5000824605E0FFF788FDA0EB0A0159454CD815
:100B6000286A8007F6D41FB1E86920F08050E86158
:100B7000E06988B36968C1F38101022944D0022881
:100B8000C6F8608004D0FFF76FFD044638E034E01B
:100B9000FFF76AFD074604E0FFF766FDC01B022869
:100BA0002BD828688001F7D4206AB0F5803F05D1A2
:100BB0006868A16820F4003008436860D4E908013F
:100BC0000843696821F4741108436860C6F86090AE
:100BD000FFF74AFD044606E025E000BFFFF744FDAD
:100BE000001B022809D828688001F7D51BE000BF48
:100BF000FFF73AFD001B022802D90320BDE8F88F59
:100C000028688001F4D40EE00128F7D06868226AD1
:100C100000F48031914204D1616A00F4701088427E
:100C200001D00120EAE70020E8E7000000100240C0
:100C30000000424280044242140000200070004044
:100C400070B515460E46040007D0A069B0F5807F48
:100C500003D094F8410010B107E0012070BD0020DE
:100C600084F84000204600F01DF804F108012068D7
:100C7000FFF750FB3146A2682068FFF77FFBD4E9FD
:100C800001022946236BFFF727FBA168206850F873
:100C9000212042F0010240F82120012084F8410087
:100CA000002070BDFFF79EBB10B5401EB0F1807FE5
:100CB00001D3012010BD4FF0E02460610F216017C7
:100CC00002F0B3FE0020A06107202061002010BDCB
:100CD000FEE7000070B509490646002408884D88E3
:100CE00021464543204602F04DFC02F0BDFD04487C
:100CF00001E00680641CAC42FBD370BD64000020A0
:100D00000008006C2DE9F04F33492C240A46887105
:100D10002A2592882B2645F2105B4FF4305E4FF463
:100D200048774FF0F00949F2413A4FF4A07845F284
:100D3000103C4FF4F07358B1A1F80080A1F8029074
:100D4000524501D0624529D10C814D818E8139E017
:100D5000A1F80090A1F80280524501D0624508D167
:100D60000C814D818E81624531D1A1F800804B808C
:100D70002DE05A4508D1A1F808E04FF428504881E9
:100D80004FF42C50888106E0A2F5C85063381ED17C
:100D90000C814E818D810B804F8018E05A4508D11F
:100DA000A1F808E04FF4285048814FF42C50888176
:100DB00006E0A2F5C850633804D10C814D818E81C4
:100DC0000F804B80624502D10B80A1F80280BDE804
:100DD000F04F002002F0FABA640000202DE9FE4F27
:100DE000161ACDE900104FF000085D1A47464FF083
:100DF000FF30002E02DD4FF0010102E003D14FF081
:100E000000018B4602E08346C6F10006002D02DD9C
:100E10004FF0010002E003D14FF00000824602E0F3
:100E20008246C5F10005AE4201DD344600E02C46A5
:100E3000601C4FF00009029018E0009881B2019800
:100E400080B200F019F8B0442F44A04504DD0198A9
:100E5000A8EB040858440190A74203DD00983F1B0B
:100E60005044009009F101001FFA80F90299894568
:100E7000E3DDBDE8FE8F000000B502F083FB02F069
:100E8000F3FC024802490088088000BD18000020D9
:100E90000008006CF0B51C4615460E4607460B468A
:100EA000FFF79CFF3A46234631461046FFF796FF70
:100EB00023462A4619463846FFF790FF2A4623461E
:100EC0003146BDE8F0401046FFF788BF2DE9FC4FE2
:100ED00080460025144603200F46A0EB440649E057
:100EE000381B81B208EB050A01901FFA8AF0FFF760
:100EF000C3FF781B81B208EB040900901FFA89F048
:100F0000FFF7BAFF07EB050B1FFA8BF11FFA89F009
:100F1000FFF7B2FF07EB04091FFA89F11FFA8AF005
:100F2000FFF7AAFFA8EB050A1FFA89F11FFA8AF05A
:100F3000FFF7A2FFA8EB04091FFA8BF11FFA89F053
:100F4000FFF79AFF019881B21FFA8AF0FFF794FF2A
:100F5000009881B21FFA89F0FFF78EFF6D1C002EFA
:100F600003DA06EB8506B61D04E0281B06EB8006B7
:100F7000641E0A36A542B3DDBDE8FC8F2DE9F041C1
:100F8000344C90460D460246060AA18820462F0A98
:100F90004089A1F51343413B0BD0A1F5A643103B7B
:100FA00007D0B3F5007310D0A1F5C853633B25D02B
:100FB00048E002F04DFC304602F03EFCD0B202F0B8
:100FC0003BFCA08902F044FC36E002F041FC3046D4
:100FD00002F032FC6089401C80B202F039FCD0B2D1
:100FE00002F02AFCA08902F033FC384602F024FC0F
:100FF000A089401C80B202F02BFC20E0A17919B935
:101000002188891A491E8AB202F022FC160A30464B
:1010100002F012FCD0B202F00FFC304602F00CFCE1
:10102000D0B202F009FCA08902F012FC384602F0AE
:1010300003FCE8B202F000FC384602F0FDFBE8B227
:1010400002F0FAFB044920890880891CA1F800807D
:10105000BDE8F08164000020FE07006C2DE9F05F20
:101060003220FFF7ADF9D32002F0F2FB02F07EF957
:10107000FE4CA08002F07AF9A08002F077F94FF6DA
:10108000FF7909EA0020A08002F070F9A18849F2F6
:1010900041360843A08045F2103745F2105541F61D
:1010A0006318B04247D0D42002F0D2FB02F05EF9C0
:1010B000A08002F05BF9A08002F058F909EA002054
:1010C0004A46A08002F052F9A1880843A080B842A5
:1010D00031D04FF45A4002F0BBFB02F047F9A08038
:1010E0004FF45B4002F0B4FB02F040F902EA00204A
:1010F000A0804FF45C4002F0ABFB02F037F9A1880E
:101100000843A080B0F5004F7DD0A84213D0A120A5
:1011100002F09EFB02F02AF9A08002F027F902EA11
:101120000020A08002F022F9A1880843A0F5AE417A
:10113000A080613968D080B2B04266D1CF2002F081
:1011400087FB002002F078FBC12002F075FB302005
:1011500002F072FBED2002F07BFB642002F06CFBDE
:10116000032002F069FB122002F066FB812002F0EE
:1011700063FBE82002F06CFB852002F05DFB102091
:1011800002F05AFB7A2002F057FBCB2002F060FB02
:10119000392002F051FB2C2002F04EFB002002F01F
:1011A0004BFB342002F048FB022002F045FBF72005
:1011B00002F04EFB202002F03FFBEA2002F048FB49
:1011C000002002F039FB002002F036FBC02002F0C4
:1011D0003FFB1B2002F030FBC12002F039FB012055
:1011E00002F02AFBC52002F033FB302002F024FB82
:1011F000302002F021FBC72002F02AFBB72002F0CA
:101200001BFB362002E0B5E0B0E0B5E002F020FBC9
:10121000482002F011FB3A2002F01AFB552002F0A0
:101220000BFBB12002F014FB002002F005FB1A209A
:1012300002F002FBB62002F00BFB0A2002F0FCFADF
:10124000A22002F0F9FAF22002F002FB002002F0E4
:10125000F3FA262002F0FCFA012002F0EDFAE02079
:1012600002F0F6FA0F2002F0E7FA2A2002F0E4FA80
:10127000282002F0E1FA082002F0DEFA0E2002F047
:10128000DBFA082002F0D8FA542002F0D5FAA9209F
:1012900002F0D2FA432002F0CFFA0A2002F0CCFA90
:1012A0000F2002F0C9FA002002F0C6FA002002F076
:1012B000C3FA002002F0C0FA002002F0BDFAE120DB
:1012C00002F0C6FA002002F0B7FA152002F0B4FAD4
:1012D000172002F0B1FA072002F0AEFA112002F056
:1012E000ABFA062002F0A8FA2B2002F0A5FA56204D
:1012F00002F0A2FA3C2002F09FFA052002F09CFACC
:10130000102002F099FA0F2002F096FA3F2002F026
:1013100093FA3F2002F090FA0F2002F08DFA2B2072
:1013200002F096FA002002F087FA002002F084FA18
:10133000012002F081FA3F2002F07EFA2A2002F01A
:1013400087FA002002F078FA002002F075FA0020F7
:1013500002F072FAEF2002F06FFA112002F078FA30
:101360007820FFF72DF8292001F008BFA4F80480A9
:1013700001F009BFA580FDE3B84276D1ED2002F06F
:1013800067FA012002F058FAFE2002F055FAEE202A
:1013900002F05EFADE2002F04FFA212002F04CFA51
:1013A000F12002F055FA012002F046FADF2002F0A7
:1013B0004FFA102002F040FAC42002F049FA8F20C0
:1013C00002F03AFAC62002F043FA002002F034FAA2
:1013D000E22002F031FAE22002F02EFAE22002F0DE
:1013E0002BFABF2002F034FAAA2002F025FAB0202E
:1013F00002F02EFA0D2002F01FFA002002F01CFA73
:101400000D2002F019FA002002F016FA112002F065
:1014100013FA002002F010FA192002F00DFA002051
:1014200002F00AFA212002F007FA002002F004FA82
:101430002D2002F001FA002002F0FEF93D2002F01A
:10144000FBF9002002F0F8F95D2002F0F5F9002028
:1014500002F0F2F95D2002F0EFF9002002F0ECF961
:10146000B12002F0F5F9802002E0FDE364000020E5
:1014700002F0E2F9002002F0DFF98B2002F0DCF943
:10148000002002F0D9F9962002F0D6F9002002F0EF
:10149000D3F9B22002F0DCF9002002F0CDF90020EF
:1014A00002F0CAF9022002F0C7F9002002F0C4F9E4
:1014B000032002F0C1F9002002F0BEF9B32002F0CF
:1014C000C7F9002002F0B8F9002002F0B5F90020B9
:1014D00002F0B2F9002002F0AFF9002002F0ACF9FE
:1014E000002002F0A9F9002002F0A6F9002002F085
:1014F000A3F9002002F0A0F9002002F09DF90020DD
:1015000002F09AF9002002F097F9002002F094F915
:10151000002002F091F9002002F08EF9002002F084
:101520008BF9002002F088F9002002F085F90020F4
:1015300002F082F9002002F07FF9002002F07CF92D
:10154000002002F079F9002002F076F9002002F084
:1015500073F9B42002F07CF98B2002F06DF90020C1
:1015600002F06AF9962002F067F9002002F064F9AF
:10157000A12002F061F9002002F05EF9B52002F02E
:1015800067F9022002F058F9002002F055F9032013
:1015900002F052F9002002F04FF9042002F04CF959
:1015A000002002F049F9B62002F052F9002002F0C2
:1015B00043F9002002F040F9B72002F049F9002079
:1015C00002F03AF9002002F037F93F2002F034F936
:1015D000002002F031F95E2002F02EF9002002F026
:1015E0002BF9642002F028F9002002F025F98C2064
:1015F00002F022F9002002F01FF9AC2002F01CF9E1
:10160000002002F019F9DC2002F016F9002002F0A7
:1016100013F9702002F010F9002002F00DF990206B
:1016200002F00AF9002002F007F9EB2002F004F9B9
:10163000002002F001F9DC2002F0FEF8002002F0A8
:10164000FBF8B82002F004F9002002F0F5F80020C1
:1016500002F0F2F8002002F0EFF8002002F0ECF8BF
:10166000002002F0E9F8002002F0E6F8002002F085
:10167000E3F8002002F0E0F8BA2002F0E9F82420B4
:1016800002F0DAF8002002F0D7F8002002F0D4F8D7
:10169000002002F0D1F8C12002F0DAF8202002F098
:1016A000CBF8002002F0C8F8542002F0C5F8002062
:1016B00002F0C2F8FF2002F0BFF8002002F0BCF8F0
:1016C000C22002F0C5F80A2002F0B6F8002002F0AD
:1016D000B3F8042002F0B0F8002002F0ADF8C32007
:1016E00002F0B6F83C2002F0A7F8002002F0A4F8BF
:1016F0003A2002F0A1F8002002F09EF8392002F012
:101700009BF8002002F098F8372002F095F80020AE
:1017100002F092F83C2002F08FF8002002F08CF8E2
:10172000362002F089F8002002F086F8322002F01C
:1017300083F8002002F080F82F2002F07DF80020CE
:1017400002F07AF82C2002F077F8002002F074F80A
:10175000292002F071F8002002F06EF8262002F035
:101760006BF8002002F068F8242002F065F80020F1
:1017700002F062F8242002F05FF8002002F05CF82A
:10178000232002F059F8002002F056F83C2002F025
:1017900053F8002002F050F8362002F04DF80020F7
:1017A00002F04AF8322002F047F8002002F044F834
:1017B0002F2002F041F8002002F03EF82C2002F029
:1017C0003BF8002002F038F8292002F035F800201C
:1017D00002F032F8262002F02FF8002002F02CF858
:1017E000242002F029F8002002F026F8242002F03C
:1017F00023F8002002F020F8232002F01DF800203A
:1018000002F01AF8C42002F023F8622002F014F863
:10181000002002F011F8052002F00EF8002002F07E
:101820000BF8842002F008F8002002F005F8F02000
:1018300002F002F8002001F0FFFF182001F0FCFF89
:10184000002001F0F9FFA42001F0F6FF002001F0D4
:10185000F3FF182001F0F0FF002001F0EDFF502011
:1018600001F0EAFF002001F0E7FF0C2001F0E4FFA7
:10187000002001F0E1FF172001F0DEFF002001F061
:10188000DBFF952001F0D8FF002001F0D5FFF32009
:1018900001F0D2FF002001F0CFFFE62001F0CCFFE5
:1018A000002001F0C9FFC52001F0D2FF322001F075
:1018B000C3FF002001F0C0FF442001F0BDFF002065
:1018C00001F0BAFF652001F0B7FF002001F0B4FF7E
:1018D000762001F0B1FF002001F0AEFF882001F07A
:1018E000ABFF002001F0A8FFC62001F0B1FF2020CF
:1018F00001F0A2FF002001F09FFF172001F09CFFE4
:10190000002001F099FF012001F096FF002001F076
:1019100093FFC72001F09CFF002001F08DFF002005
:1019200001F08AFF002001F087FF002001F084FF12
:10193000C82001F08DFF002001F07EFF002001F0A3
:101940007BFF002001F078FF002001F075FFC92027
:1019500001F07EFF002001F06FFF002001F06CFF1E
:10196000002001F069FF002001F066FF002001F077
:1019700063FF002001F060FF002001F05DFF002008
:1019800001F05AFF002001F057FF002001F054FF42
:10199000002001F051FF002001F04EFF002001F077
:1019A0004BFF002001F048FF002001F045FF002020
:1019B00001F042FFE02001F04BFF162001F03CFF58
:1019C000002001F039FF1C2001F036FF002001F05B
:1019D00033FF212001F030FF002001F02DFF3620E1
:1019E00001F02AFF002001F027FF462001F024FF2C
:1019F000002001F021FF522001F01EFF002001F025
:101A00001BFF642001F018FF002001F015FF7A2071
:101A100001F012FF002001F00FFF8B2001F00CFFFE
:101A2000002001F009FF992001F006FF002001F0DD
:101A300003FFA82001F000FF002001F0FDFEB92007
:101A400001F0FAFE002001F0F7FEC42001F0F4FEE0
:101A5000002001F0F1FECA2001F0EEFE002001F0AE
:101A6000EBFED22001F0E8FE002001F0E5FED920D7
:101A700001F0E2FE002001F0DFFEE02001F0DCFEDC
:101A8000002001F0D9FEF32001F0D6FE002001F085
:101A9000D3FEE12001F0DCFE162001F0CDFE002097
:101AA00001F0CAFE1C2001F0C7FE002001F0C4FEB8
:101AB000222001F0C1FE002001F0BEFE362001F020
:101AC000BBFE002001F0B8FE452001F0B5FE00206D
:101AD00001F0B2FE522001F0AFFE002001F0ACFE9A
:101AE000642001F0A9FE002001F0A6FE7A2001F09A
:101AF000A3FE002001F0A0FE8B2001F09DFE00203F
:101B000001F09AFE992001F097FE002001F094FE6A
:101B1000A82001F091FE002001F08EFEB92001F016
:101B20008BFE002001F088FEC42001F085FE00201D
:101B300001F082FECA2001F07FFE002001F07CFE51
:101B4000D22001F079FE002001F076FED82001F0CD
:101B500073FE002001F070FEE02001F06DFE002019
:101B600001F06AFEF32001F067FE002001F064FE40
:101B7000E22000E082E301F06BFE052001F05CFE54
:101B8000002001F059FE0B2001F056FE002001F06C
:101B900053FE1B2001F050FE002001F04DFE3420CA
:101BA00001F04AFE002001F047FE442001F044FE0F
:101BB000002001F041FE4F2001F03EFE002001F028
:101BC0003BFE612001F038FE002001F035FE792057
:101BD00001F032FE002001F02FFE882001F02CFEE3
:101BE000002001F029FE972001F026FE002001F0E0
:101BF00023FEA62001F020FE002001F01DFEB720EC
:101C000001F01AFE002001F017FEC22001F014FEC0
:101C1000002001F011FEC72001F00EFE002001F0AF
:101C20000BFED12001F008FE002001F005FED620B9
:101C300001F002FE002001F0FFFDDD2001F0FCFDBF
:101C4000002001F0F9FDF32001F0F6FD002001F085
:101C5000F3FDE32001F0FCFD052001F0EDFD002087
:101C600001F0EAFD0A2000E006E301F0E5FD0020B6
:101C700001F0E2FD1C2001F0DFFD002001F0DCFDA1
:101C8000332001F0D9FD002001F0D6FD442001F001
:101C9000D3FD002001F0D0FD502001F0CDFD00204B
:101CA00001F0CAFD622001F0C7FD002001F0C4FD73
:101CB000782001F0C1FD002001F0BEFD882001F078
:101CC000BBFD002001F0B8FD972001F0B5FD00201C
:101CD00001F0B2FDA62001F0AFFD002001F0ACFD47
:101CE000B72001F0A9FD002001F0A6FDC22001F0FF
:101CF000A3FD002001F0A0FDC72001F09DFD002004
:101D000001F09AFDD12001F097FD002001F094FD33
:101D1000D52001F091FD002001F08EFDDD2001F0C5
:101D20008BFD002001F088FDF32001F085FD0020EF
:101D300001F082FDE42001F08BFD012001F07CFD2B
:101D4000002001F079FD012001F076FD002001F076
:101D500073FD022001F070FD002001F06DFD2A20CE
:101D600001F06AFD002001F067FD3C2001F064FDF8
:101D7000002001F061FD4B2001F05EFD002001F02C
:101D80005BFD5D2001F058FD002001F055FD742041
:101D900001F052FD002001F04FFD842001F04CFDC8
:101DA000002001F049FD932001F046FD002001F0E4
:101DB00043FDA22001F040FD002001F03DFDB320D5
:101DC00001F03AFD002001F037FDBE2001F034FDA6
:101DD000002001F031FDC42001F02EFD002001F0B3
:101DE0002BFDCD2001F028FD002001F025FDD320A2
:101DF00001F022FD002001F01FFDDD2001F01CFD9F
:101E0000002001F019FDF32001F016FD002001F083
:101E100013FDE52001F01CFD002001F00DFD002068
:101E200001F00AFD002001F007FD002001F004FD93
:101E3000022001F001FD002001F0FEFC292001F04C
:101E4000FBFC002001F0F8FC3C2001F0F5FC002038
:101E500001F0F2FC4B2001F0EFFC002001F0ECFC63
:101E60005D2001F0E9FC002001F0E6FC742001F0A7
:101E7000E3FC002001F0E0FC842001F0DDFC002008
:101E800001F0DAFC932001F0D7FC002001F0D4FC33
:101E9000A22001F0D1FC002001F0CEFCB32001F023
:101EA000CBFC002001F0C8FCBE2001F0C5FC0020E6
:101EB00001F0C2FCC42001F0BFFC002001F0BCFC1A
:101EC000CD2001F0B9FC002001F0B6FCD32001F0D8
:101ED000B3FC002001F0B0FCDC2001F0ADFC0020E0
:101EE00001F0AAFCF32001F0A7FC002001F0A4FC03
:101EF000E62001F0ADFC112001F09EFC002001F075
:101F00009BFC342001F098FC002001F095FC562049
:101F100001F092FC002001F08FFC762001F08CFC97
:101F2000002001F089FC772001F086FC002001F000
:101F300083FC662001F080FC002001F07DFC8820FD
:101F400001F07AFC002001F077FC992001F074FC8C
:101F5000002001F071FCBB2001F06EFC002001F0BC
:101F60006BFC992001F068FC002001F065FC662004
:101F700001F062FC002001F05FFC552001F05CFCE8
:101F8000002001F059FC552001F056FC002001F022
:101F900053FC452001F050FC002001F04DFC432093
:101FA00001F04AFC002001F047FC442001F044FC11
:101FB000002001F041FCE72001F04AFC322001F052
:101FC0003BFC002001F038FC552001F035FC0020DE
:101FD00001F032FC762001F02FFC002001F02CFCF7
:101FE000662001F029FC002001F026FC672001F0AA
:101FF00023FC002001F020FC672001F01DFC0020E4
:1020000001F01AFC872001F017FC002001F014FCFD
:10201000992001F011FC002001F00EFCBB2001F022
:102020000BFC002001F008FC992001F005FC0020C9
:1020300001F002FC772001F0FFFB002001F0FCFB27
:10204000442001F0F9FB002001F0F6FB562001F0DE
:10205000F3FB002001F0F0FB232001F0EDFB00205A
:1020600001F0EAFB332001F0E7FB002001F0E4FB84
:10207000452001F0E1FB002001F0DEFBE82001F04B
:10208000E7FB002001F0D8FB002001F0D5FB9920F0
:1020900001F0D2FB002001F0CFFB872001F0CCFB48
:1020A000002001F0C9FB882001F0C6FB002001F0F0
:1020B000C3FB772001F0C0FB002001F0BDFB6620D0
:1020C00001F0BAFB002001F0B7FB882001F0B4FB5F
:1020D000002001F0B1FBAA2001F0AEFB002001F0CE
:1020E000ABFBBB2001F0A8FB002001F0A5FB992071
:1020F00001F0A2FB002001F09FFB662001F09CFB99
:10210000002001F099FB552001F096FB002001F022
:1021100093FB552001F090FB002001F08DFB442043
:1021200001F08AFB002001F087FB442001F084FBD2
:10213000002001F081FB552001F07EFB002001F022
:102140007BFBE92001F084FBAA2001F075FB002055
:1021500001F072FB002001F06FFB002001F06CFB2E
:10216000002001F075FBAA2001F066FBCF2001F0F2
:102170006FFB002001F060FB002001F05DFB002000
:1021800001F05AFB002001F057FB002001F054FB46
:10219000002001F051FB002001F04EFB002001F077
:1021A0004BFB002001F048FB002001F045FB002024
:1021B00001F042FB002001F03FFB002001F03CFB5E
:1021C000002001F039FB002001F036FB002001F077
:1021D00033FB002001F030FBF02001F039FB002040
:1021E00001F02AFB502001F027FB002001F024FB26
:1021F000002001F021FB002001F01EFBF32001F084
:1022000027FB002001F018FBF92001F021FB06203C
:1022100001F012FB102001F00FFB292001F00CFB54
:10222000002001F009FB3A2001F012FB552001F0DB
:1022300003FB112001F00CFB6420FEF7C1F82920FC
:1022400001F006FB352001F003FB002001F0F4FA59
:10225000512001F0FDFAFF2001F0EEFA532001F0C9
:10226000F7FA2C2001F0E8FA552001F0F1FA82206B
:1022700001F0E2FA2C20FCE3A8427CD14FF4704339
:102280005521184601F0FAFA4FF2010AAA215046E8
:1022900001F0F4FA4FF2020B5221584601F0EEFA27
:1022A00008214FF2030001F0E9FA01214FF2040086
:1022B00001F0E4FA0D214FF4304001F0DFFA0D2176
:1022C0004BF2010001F0DAFA0D214BF2020001F0AD
:1022D000D5FA34214FF4364001F0D0FA34214BF2D4
:1022E000016001F0CBFA34214BF2026001F0C6FA32
:1022F0000D214FF4314001F0C1FA0D214BF20110D4
:1023000001F0BCFA0D214BF2021001F0B7FA3421B2
:102310004FF4374001F0B2FA34214BF2017001F072
:10232000ADFA34214BF2027001F0A8FA00214FF40B
:10233000324001F0A3FA00214BF2012001F09EFA95
:1023400000214BF2022001F099FA24214FF4384089
:1023500001F094FA24214BF6010001F08FFA2421B8
:102360004BF6020001F08AFA01214FF43F4001F0E0
:1023700085FA0F2100E0FDE34FF4334001F07EFACF
:102380000F214BF2013001F079FA0F214BF20230AC
:1023900001F074FA34214FF4394001F06FFA34211E
:1023A0004BF6011001F06AFA34214BF6021001F0ED
:1023B00065FA08214FF4354001F060FA08214BF22C
:1023C000015001F05BFA08214BF2025001F056FA7D
:1023D00003214FF4424001F051FA24214FF43A40D6
:1023E00001F04CFA24214BF6012001F047FA242198
:1023F0004BF6022001F042FA00214FF43C4001F07C
:102400003DFA78214BF6014001F038FA00214BF6F5
:10241000024001F033FA00214FF43D4001F02EFA62
:1024200078214BF6015001F029FA00214BF60250B9
:1024300001F024FA00214FF43E4001F01FFA64211C
:102440004BF6016001F01AFA00214FF4514001F0FF
:1024500015FA33214DF2011001F010FA00214DF26E
:10246000021001F00BFA34214DF2031001F006FACC
:1024700000214DF2041001F001FA3A214DF205104D
:1024800001F0FCF900214DF2061001F0F7F94A21A4
:102490004DF2071001F0F2F900214DF2081001F0A1
:1024A000EDF95C214DF2091001F0E8F900214DF23F
:1024B0000A1001F0E3F981214DF20B1001F0DEF971
:1024C00000214DF20C1001F0D9F9A6214DF20D10AA
:1024D00001F0D4F900214DF20E1001F0CFF9E52101
:1024E0004DF20F1001F0CAF901214DF2101001F068
:1024F000C5F913214DF2111001F0C0F901214DF27F
:10250000121001F0BBF954214DF2131001F0B6F98D
:1025100001214DF2141001F0B1F982214DF2151094
:1025200001F0ACF901214DF2161001F0A7F9CA2112
:102530004DF2171001F0A2F902214DF2181001F02E
:102540009DF900214DF2191001F098F902214DF288
:102550001A1001F093F901214DF21B1001F08EF9D0
:1025600002214DF21C1001F089F934214DF21D10A9
:1025700001F084F902214DF21E1001F07FF967216C
:102580004DF21F1001F07AF902214DF2201001F0F6
:1025900075F984214DF2211001F070F902214DF2FC
:1025A000221001F06BF9A4214DF2231001F066F91D
:1025B00002214DF2241001F061F9B7214DF22510EE
:1025C00001F05CF902214DF2261001F057F9CF21FC
:1025D0004DF2271001F052F902214DF2281001F0BE
:1025E0004DF9DE214DF2291001F048F902214DF29A
:1025F0002A1001F043F9F2214DF22B1001F03EF9BF
:1026000002214DF22C1001F039F9FE214DF22D106E
:1026100001F034F903214DF22E1001F02FF91021B1
:102620004DF22F1001F02AF903214DF2301001F084
:1026300025F933214DF2311001F020F903214DF23B
:10264000321001F01BF96D214DF2331001F016F933
:1026500000214FF4524001F011F933214DF20120D5
:1026600001F00CF900214DF2022001F007F93421AC
:102670004DF2032001F002F900214DF2042001F097
:10268000FDF83A214DF2052001F0F8F800214DF255
:10269000062001F0F3F84A214DF2072001F0EEF890
:1026A00000214DF2082001F0E9F85C214DF20920EB
:1026B00001F0E4F800214DF20A2001F0DFF8812159
:1026C0004DF20B2001F0DAF800214DF20C2001F060
:1026D000D5F8A6214DF20D2001F0D0F800214DF2E1
:1026E0000E2001F0CBF8E5214DF20F2001F0C6F8E5
:1026F00001214DF2102001F0C1F813214DF21120FB
:1027000001F0BCF801214DF2122001F0B7F854217C
:102710004DF2132001F0B2F801214DF2142001F026
:10272000ADF882214DF2152001F0A8F801214DF2FB
:10273000162001F0A3F8CA214DF2172001F09EF8EF
:1027400002214DF2182001F099F800214DF21920D4
:1027500001F094F802214DF21A2001F08FF80121C6
:102760004DF21B2001F08AF802214DF21C2001F0ED
:1027700085F834214DF21D2001F080F802214DF240
:102780001E2001F07BF867214DF21F2001F076F842
:1027900002214DF2202001F071F884214DF2212018
:1027A00001F06CF802214DF2222001F067F8A4211B
:1027B0004DF2232001F062F802214DF2242001F0B5
:1027C0005DF8B7214DF2252001F058F802214DF2B5
:1027D000262001F053F8CF214DF2272001F04EF8CA
:1027E00002214DF2282001F049F8DE214DF2292086
:1027F00001F044F802214DF22A2001F03FF8F221C5
:102800004DF22B2001F03AF802214DF22C2001F07C
:1028100035F8FE214DF22D2001F030F803214DF264
:102820002E2001F02BF810214DF22F2001F026F878
:1028300003214DF2302001F021F833214DF23120F7
:1028400001F01CF803214DF2322001F017F86D2140
:102850004DF2332001F012F800214FF4534001F003
:102860000DF833214DF2013001F008F800214DF24E
:10287000023001F003F834214DF2033000F0FEFF86
:1028800000214DF2043000F0F9FF3A214DF20530FD
:1028900000F0F4FF00214DF2063000F0EFFF4A2176
:1028A0004DF2073000F0EAFF00214DF2083000F051
:1028B000E5FF5C214DF2093000F0E0FF00214DF210
:1028C0000A3000F0DBFF81214DF20B3000F0D6FF23
:1028D00000214DF20C3000F0D1FFA6214DF20D3059
:1028E00000F0CCFF00214DF20E3000F0C7FFE521D3
:1028F0004DF20F3000F0C2FF01214DF2103000F018
:10290000BDFF13214DF2113000F0B8FF01214DF24F
:10291000123000F0B3FF54214DF2133000F0AEFF3F
:1029200001214DF2143000F0A9FF82214DF2153043
:1029300000F0A4FF01214DF2163000F09FFFCA21E4
:102940004DF2173000F09AFF02214DF2183000F0DE
:1029500095FF00214DF2193000F090FF02214DF259
:102960001A3000F08BFF01214DF21B3000F086FF82
:1029700002214DF21C3000F081FF34214DF21D3058
:1029800000F07CFF02214DF21E3000F077FF67213E
:102990004DF21F3000F072FF02214DF2203000F0A6
:1029A0006DFF84214DF2213000F068FF02214DF2CD
:1029B000223000F063FFA4214DF2233000F05EFFCF
:1029C00002214DF2243000F059FFB7214DF225309D
:1029D00000F054FF02214DF2263000F04FFFCF21CE
:1029E0004DF2273000F04AFF02214DF2283000F06E
:1029F00045FFDE214DF2293000F040FF02214DF26B
:102A00002A3000F03BFFF2214DF22B3000F036FF70
:102A100002214DF22C3000F031FFFE214DF22D301D
:102A200000F02CFF03214DF22E3000F027FF102183
:102A30004DF22F3000F022FF03214DF2303000F034
:102A40001DFF33214DF2313000F018FF03214DF20C
:102A5000323000F013FF6D214DF2333000F00EFFE5
:102A600000214FF4544000F009FF33214DF20140A2
:102A700000E083E300F002FF00214DF2024000F08D
:102A8000FDFE34214DF2034000F0F8FE00214DF22E
:102A9000044000F0F3FE3A214DF2054000F0EEFE56
:102AA00000214DF2064000F0E9FE4A214DF20740B8
:102AB00000F0E4FE00214DF2084000F0DFFE5C2152
:102AC0004DF2094000F0DAFE00214DF20A4000F01C
:102AD000D5FE81214DF20B4000F0D0FE00214DF2D9
:102AE0000C4000F0CBFEA6214DF20D4000F0C6FEDA
:102AF00000214DF20E4000F0C1FEE5214DF20F40E5
:102B000000F0BCFE01214DF2104000F0B7FE132191
:102B10004DF2114000F0B2FE01214DF2124000F0E2
:102B2000ADFE54214DF2134000F0A8FE01214DF2FC
:102B3000144000F0A3FE82214DF2154000F09EFEED
:102B400001214DF2164000F099FECA214DF21740C6
:102B500000F094FE02214DF2184000F08FFE00219B
:102B60004DF2194000F08AFE02214DF21A4000F0A9
:102B700085FE00E005E301214DF21B4000F07EFEE2
:102B800002214DF21C4000F079FE34214DF21D402F
:102B900000F074FE02214DF21E4000F06FFE67212E
:102BA0004DF21F4000F06AFE02214DF2204000F07D
:102BB00065FE84214DF2214000F060FE02214DF2BD
:102BC000224000F05BFEA4214DF2234000F056FEAF
:102BD00002214DF2244000F051FEB7214DF2254074
:102BE00000F04CFE02214DF2264000F047FECF21BE
:102BF0004DF2274000F042FE02214DF2284000F045
:102C00003DFEDE214DF2294000F038FE02214DF25A
:102C10002A4000F033FEF2214DF22B4000F02EFE50
:102C200002214DF22C4000F029FEFE214DF22D40F4
:102C300000F024FE03214DF22E4000F01FFE102173
:102C40004DF22F4000F01AFE03214DF2304000F00B
:102C500015FE33214DF2314000F010FE03214DF2FC
:102C6000324000F00BFE6D214DF2334000F006FEC5
:102C700000214FF4554000F001FE33214DF2015088
:102C800000F0FCFD00214DF2025000F0F7FD342170
:102C90004DF2035000F0F2FD00214DF2045000F01F
:102CA000EDFD3A214DF2055000F0E8FD00214DF216
:102CB000065000F0E3FD4A214DF2075000F0DEFD22
:102CC00000214DF2085000F0D9FD5C214DF2095071
:102CD00000F0D4FD00214DF20A5000F0CFFD81211B
:102CE0004DF20B5000F0CAFD00214DF20C5000F0E7
:102CF000C5FDA6214DF20D5000F0C0FD00214DF2A2
:102D00000E5000F0BBFDE5214DF20F5000F0B6FD76
:102D100001214DF2105000F0B1FD13214DF2115080
:102D200000F0ACFD01214DF2125000F0A7FD54213E
:102D30004DF2135000F0A2FD01214DF2145000F0AD
:102D40009DFD82214DF2155000F098FD01214DF2BC
:102D5000165000F093FDCA214DF2175000F08EFD81
:102D600002214DF2185000F089FD00214DF219505A
:102D700000F084FD02214DF21A5000F07FFD012188
:102D80004DF21B5000F07AFD02214DF21C5000F074
:102D900075FD34214DF21D5000F070FD02214DF201
:102DA0001E5000F06BFD67214DF21F5000F066FDD4
:102DB00002214DF2205000F061FD84214DF221509E
:102DC00000F05CFD02214DF2225000F057FDA421DD
:102DD0004DF2235000F052FD02214DF2245000F03C
:102DE0004DFDB7214DF2255000F048FD02214DF276
:102DF000265000F043FDCF214DF2275000F03EFD5C
:102E000002214DF2285000F039FDDE214DF229500B
:102E100000F034FD02214DF22A5000F02FFDF22186
:102E20004DF22B5000F02AFD02214DF22C5000F003
:102E300025FDFE214DF22D5000F020FD03214DF225
:102E40002E5000F01BFD10214DF22F5000F016FD0A
:102E500003214DF2305000F011FD33214DF231507D
:102E600000F00CFD03214DF2325000F007FD6D2102
:102E70004DF2335000F002FD00214FF4564000F0B7
:102E8000FDFC33214DF2016000F0F8FC00214DF211
:102E9000026000F0F3FC34214DF2036000F0EEFC20
:102EA00000214DF2046000F0E9FC3A214DF205608A
:102EB00000F0E4FC00214DF2066000F0DFFC4A2146
:102EC0004DF2076000F0DAFC00214DF2086000F0DE
:102ED000D5FC5C214DF2096000F0D0FC00214DF2E0
:102EE0000A6000F0CBFC81214DF20B6000F0C6FCC3
:102EF00000214DF20C6000F0C1FCA6214DF20D60E6
:102F000000F0BCFC00214DF20E6000F0B7FCE521A2
:102F10004DF20F6000F0B2FC01214DF2106000F0A4
:102F2000ADFC13214DF2116000F0A8FC01214DF21F
:102F3000126000F0A3FC54214DF2136000F09EFCDF
:102F400001214DF2146000F099FC82214DF21560D0
:102F500000F094FC01214DF2166000F08FFCCA21B4
:102F60004DF2176000F08AFC02214DF2186000F06B
:102F700085FC00214DF2196000F080FC02214DF229
:102F80001A6000F07BFC01214DF21B6000F076FC22
:102F900002214DF21C6000F071FC34214DF21D60E5
:102FA00000F06CFC02214DF21E6000F067FC67210E
:102FB0004DF21F6000F062FC02214DF2206000F033
:102FC0005DFC84214DF2216000F058FC02214DF29D
:102FD000226000F053FCA4214DF2236000F04EFC6F
:102FE00002214DF2246000F049FCB7214DF225602A
:102FF00000F044FC02214DF2266000F03FFCCF219E
:103000004DF2276000F03AFC02214DF2286000F0FA
:1030100035FCDE214DF2296000F030FC02214DF23A
:103020002A6000F02BFCF2214DF22B6000F026FC10
:1030300002214DF22C6000F021FCFE214DF22D60AA
:1030400000F01CFC03214DF22E6000F017FC102153
:103050004DF22F6000F012FC03214DF2306000F0C1
:103060000DFC33214DF2316000F008FC03214DF2DC
:10307000326000F003FC6D214DF2336000F0FEFB86
:103080005521184600F0FAFBAA21504600F0F6FB45
:103090005221584600F0F2FB08214FF2030000F0E5
:1030A000EDFB00214FF2040000F0E8FBCC214FF4CF
:1030B000314000F0E3FB00214BF2011000F0DEFB99
:1030C00005214FF4364000F0D9FB70214FF4374012
:1030D00000F0D4FB70214BF2017000F0CFFB012116
:1030E0004FF4384000F0CAFB03214BF6010000F01A
:1030F000C5FB03214BF6020000F0C0FB03214BF699
:10310000030000F0BBFB02214FF43C4000F0B6FB93
:1031100000214BF6014000F0B1FB00214BF60240CC
:1031200000F0ACFBD0214FF4494000F0A7FB022196
:103130004CF6011000F0A2FB50214CF6021000F0FA
:103140009DFB50214CF6031000F098FB50214CF6EB
:10315000041000F093FB00214FF4545000F08EFB5C
:1031600055214FF4685000F089FB4FF4885000F06F
:103170006FFB782000F06AFC4FF4245000F068FBED
:10318000B9E04045FCD1E22000F062FB1D2000F0D8
:1031900053FB022000F050FB042000F04DFB6420A4
:1031A00000F054FCE02000F053FB012000F044FB51
:1031B0000A20FDF705F9E02000F04AFB032000F0AB
:1031C0003BFB0C20FDF7FCF8012000F041FB0A203E
:1031D000FDF7F6F8E62000F03BFB2F2000F02CFB7B
:1031E000FF2000F029FBFF2000F026FBB02000F0BC
:1031F0002FFB202000F020FB002000F01DFB03200F
:1032000000F01AFB40F21F3000F016FB012000F026
:1032100013FB40F2DF1000F00FFB002000F00CFB6E
:10322000B42000F015FB042000F006FB40F21F4024
:1032300000F002FB002000F0FFFA2E2000F0FCFA64
:10324000002000F0F9FA002000F0F6FA002000F06B
:10325000F3FA002000F0F0FAB62000F0F9FA0220AC
:1032600000F0EAFA4FF4037000F0E6FA002000F0F4
:10327000E3FA172000F0E0FA152000F0DDFA002054
:1032800000F0DAFA002000F0D7FAF02000F0E0FABF
:10329000032000F0D1FA292000F0DAFAD02000F063
:1032A000D7FA002000F0C8FABE2000F0D1FA0520BD
:1032B00000F0C2FAFE2000F0BFFA012000F0BCFAD4
:1032C000002000F0B9FA002000F0B6FA002000F06B
:1032D000B3FAB82000F0BCFA032000F0ADFA0120E8
:1032E00000F0AAFABA2000F0B3FA012000F0A4FA24
:1032F000642000F045F8A088B04205D0B84203D061
:10330000A84201D0404519D14FF02040D0F81C11FF
:1033100021F00F01C0F81C11D0F81C1121F47061CC
:10332000C0F81C11D0F81C1141F00101C0F81C11AB
:10333000D0F81C1141F48071C0F81C110020FDF779
:10334000E1FC012211460448FDF788F94846BDE832
:10335000F05FFDF7BFBC0000000C014002460120F9
:1033600000E05043491EC9B2FBD27047034808B57C
:103370000088ADF80000BDF8000008BD0008006C32
:1033800010B50246BE2000F063FA052000F054FAA2
:10339000104600F0F2FB4FF066320B4B00F000FCE1
:1033A00000F0BEFB80B200F047FA012000F044FAC2
:1033B000FF2000F041FA002000F03EFABDE8104086
:1033C000002000F039BA000066660440F0B56C4C8D
:1033D00000232146A279898841F66316012A01D08B
:1033E0001AB11BE0B14202D118E0B14216D108284F
:1033F00014D2DFE800F00406080A0C0E10120620B2
:103400000CE007200AE0042008E0052006E0012087
:1034100004E0002002E0032000E00220A1F51347B1
:1034200045F2103245F21055413F05D0914203D08C
:10343000A94201D0B14277D1082812D2DFE800F0CA
:10344000110406080A0C0E1080230AE0402308E04D
:10345000C02306E0202304E0602302E0A02300E074
:10346000E023A94202D14FF4585000E036209142A7
:1034700005D0A94203D0B14201D043F00803194658
:1034800000F0FCF9A188B1420AD098062088628831
:1034900002D5904202D303E0904201D9228060809D
:1034A0006089A94241D100F0D3F9002000F0C4F9AD
:1034B0006089401C80B200F0CBF9002000F0BCF91C
:1034C0006089801C80B200F0C3F92088401EC0F3E0
:1034D0000F2000F0B1F96089C01C80B200F0B8F98B
:1034E0002078401EC0B200F0A7F9A08900F0B0F922
:1034F000002000F0A1F9A089401C80B200F0A8F9DA
:10350000002000F099F9A089801C80B200F0A0F999
:103510006088401EC0F30F2000F08EF9A089C01C07
:1035200080B200F095F922E028E000F091F9002047
:1035300000F082F9002000F07FF92088401EC0F3DF
:103540000F2000F079F92078401EC0B200F074F925
:10355000A08900F07DF9002000F06EF9002000F055
:103560006BF96088401EC0F30F2000F065F9A07869
:10357000BDE8F040401EC0B200F05EB9F0BD0000F2
:1035800064000020F0B53F4A0D460446060A9188C3
:1035900010462F0A4089A1F51343413B28D0A1F5DD
:1035A000A643103B24D0A1F5C853633B2FD0A1F50F
:1035B000AA43103B64D100F04BF9304600F03CF9CF
:1035C0005089401C80B200F043F9E0B200F034F9B9
:1035D000908900F03DF9384600F02EF99089401CA2
:1035E00080B200F035F9E8B2BDE8F04000F024B94F
:1035F00000F02EF9304600F01FF9E0B200F01CF99F
:10360000908900F025F9384600F016F9EBE791793A
:1036100029B300F01DF9304600F00EF9E0B200F0D9
:103620000BF91088401EC0F30F2000F005F9107848
:10363000401EC0B200F000F9908900F009F9384648
:1036400000F0FAF8E8B200F0F7F85088401EC0F336
:103650000F2000F0F1F89078401EC0B2C4E7118846
:10366000091B491E8CB200F0F3F8002000F0E4F8CA
:10367000002000F0E1F8200A00F0DEF8E0B2D9E71F
:10368000F0BD0000640000202DE9FF4F1D460C46F0
:103690008A46580700D0012000EBD500690848434E
:1036A000203A00F0FF09D0B20026DFF8A8B002905F
:1036B0004BE00C2D11D0102D14D0182D17D0202D2B
:1036C00045D12549029801EBC0104FF00008875DF5
:1036D000380613D52148028814E00298204900EBEF
:1036E000400008E01F49029801EB0010EDE7029846
:1036F0001D4900EBC00001EB8000E6E70D9828B9FA
:103700001648428821460098FDF738FC7806070ED7
:10371000641CBBF80200A4B2A04218D9A4EB0A00B2
:10372000A84209D100985446401C80B20090BBF8D2
:10373000001081420BD906E008F1010000F0FF08FB
:10374000B8F1080FC4D3761CF6B24E45B1D3BDE82C
:10375000FF8F0000640000206C5500081800002056
:10376000AC3D000820420008104800082DE9FF4F3A
:1037700081B00026DDF838A01D46934681463446C8
:10378000B0464FEA5A0727E0281B401EC1B20A2064
:10379000FFF7E4FDBBFBF0F00A21B0FBF1F201FB07
:1037A000120026B9691E8C4201DA48B10126303078
:1037B000C2B207FB049080B25346CDF8008006E009
:1037C00007FB049080B253462022CDF80080029976
:1037D000FFF75AFF641CE4B2AC42D5D305B0BDE894
:1037E000F08F2DE9F84F044600F0FF0910190D463F
:1037F000DDE90AB61FFA80F8581987B24FF0000ABF
:1038000012E0444503D305EB0B004C4685B2BD42A4
:103810000FD25B4629462046CDF800A0FFF734FFC3
:1038200004EB5B0084B2761C3278A2F120005E28A3
:10383000E7D9BDE8F88F000001B5BDF80000ADF88C
:103840000000BDF800000149088008BD0008006CB8
:1038500001B5BDF80000ADF80000BDF80000014959
:10386000088008BDFE07006C0248034900890880F3
:103870007047000064000020FE07006C024A1080C0
:10388000901C018070470000FE07006C10B58EB0E0
:103890001C216846FCF7BAFC1C2107A8FCF7B6FC03
:1038A0001C484FF02041102201601B494160062155
:1038B00081600021C160C0E904128161C16113020D
:1038C0000162C0E909139302C0E90B1341638163EC
:1038D0000F20FF230090CDE901030DF10C0C112402
:1038E0008CE81500CDE90803CDE906100AAB0D916F
:1038F00083E8150007AA69460648FDF7A1F908B153
:10390000FCF7E7FC0548C16941F48061C1610EB074
:1039100010BD00001C000020040100A000000140B8
:1039200010B586B0002000900190029003902148CD
:10393000816941F010018161816901F010010491F8
:10394000816941F008018161816901F008010491F8
:10395000816941F480718161816901F48071049110
:10396000816941F040018161816901F04001049168
:10397000816941F020018161816901F02001049198
:10398000816941F00401816180690B4C00F0040001
:103990000490002201212046FCF760FE0121022054
:1039A000CDE902100091019169462046FCF75AFDCD
:1039B00006B010BD00100240000C0140FEE7FEE71B
:1039C00070477047FCF756BE30B58FB02821684667
:1039D000FCF71CFC14210AA8FCF718FC01210804C0
:1039E000CDE900100024029402250491CDE907508E
:1039F0004FF4E01009906846FCF792FF08B172B6E8
:103A0000FEE70F20CDE90A054FF48060CDE90C40B8
:103A100002210AA80E94FCF7B7FE002801D072B666
:103A2000FEE70FB030BD7047FEE70907090E00281A
:103A300004DB00F1E02080F80014704700F00F0074
:103A400000F1E02080F8141D7047000071B54FF4BC
:103A500061754FF0E023104E009819E02C46A0420B
:103A600000D804469869614201EBC10110EBC10125
:103A700005D49A69824208DA8A42FADA05E08A199C
:103A800099698142FCDD9142FADC0098001B0090AC
:103A90000028E3D178BD0000401901001CB5FCF7F7
:103AA000F1FDFFF791FFFFF73BFFFFF7EFFEFDF79B
:103AB000D5FA17494FF478401824088015A0CDE9AD
:103AC00000400021142378220846FFF78AFE0723CE
:103AD000124A182100200094FFF748FE0020182306
:103AE000412230210090FFF7CFFD642114220846C7
:103AF000FDF7ECF9282350211A460846FDF7CAF9CC
:103B000046233C211A460846FDF768F9FEE7000007
:103B10001800002048616F7A6900000087D6120003
:103B20004FEA1153A3F58063D3F11E03A8BFD3F16D
:103B3000200C08DB4FF0004242EAC12252EA505208
:103B400032FA03F0704709420BD4102BC4BF002097
:103B5000704703F5787CBCF1FF3F05D04FF0FF3094
:103B600070474FF00000704770B500F0C3F800BF19
:103B70004992248000207047F0E7B0FA80F310FAF1
:103B800003F10AD0C3F11D0303F580634FEA4150EE
:103B90004FEA035202EBD12170474FF0000070470B
:103BA000DFF848C170B51CEA111E1EBF1CEA1315D0
:103BB0009EEA0C0F95EA0C0F00F06F8081EA030477
:103BC00023EA4C134EEAD47E21EA4C1141F48011D1
:103BD00043F48013AE44A1FB024CA0FB0365AEF19D
:103BE0007F7E361955EB0C05A1FB034C4CF100030D
:103BF000A0FB021C16EB0C06654153F100030942C1
:103C000018BF46F0010613F4007F0BD14FEA0331D1
:103C10004FEA0530340341EA155140EA16506FF07F
:103C200003020AE04FEAC3214FEAC520F40241EA49
:103C3000555140EA56506FF0020202EB2E4201EB62
:103C4000025585EACE710AD05FEA440C18BF24F011
:103C5000004450F1000041F1000120EAD47040F22C
:103C6000FE7C624500D270BDA84214BF4FF0804474
:103C70004FF04044002E08BF0024BEF1806FA8BF63
:103C8000A1F1C041BDE8704080F282804FF0000099
:103C900001F1C04101F0004170479EEA0C0F0CEAAF
:103CA000131518BF95EA0C0F06D04FF0000081EAFB
:103CB000030E0EF0004170BD00F01CF88900013EBB
:103CC00000F007B800F009B84FEA430C5FEA5C5C0B
:103CD00008D081EA030100F05BB84FEA410C5FEACB
:103CE0005C5CF6D14FF00000014970470000FF070F
:103CF0000000F87F0EF1020E2EF0030E5EF8046B4A
:103D0000364205D4012A43EB030515F5001F12D8EE
:103D1000012841EB010C1CF5001F0CD80ED14FEA15
:103D2000D17C15F5001F0CEB4C0C0CF1020C08BFFC
:103D30004CEBD37C04E04FF0080C01E04FEAD37C5D
:103D40000CEB4C0526FA05F606F00706B6F1040C56
:103D500006D20EEB860CBDE870404CF0010C6047BB
:103D6000DFE80CF0090B02024FF000414FF00000B9
:103D7000A1F5002170BD19461046012851EB010440
:103D800018BFD4F5001484BF002001F0004170BDBD
:103D90000808A0F500114FEA31017047000000004B
:103DA00000000000010203040607080900000000EB
:103DB0000000000000000000000000003F40000084
:103DC0000000000000003000400030004000000013
:103DD00009000BC03D000BC03D00090018C0244085
:103DE0007FE0224031800000180024C01B000D80BD
:103DF0003240018003801C4027401C800740004067
:103E00001000600000000000000000000000000042
:103E100000001F80204040200000402020401F80E4
:103E200000000000090006001F80060009000000D5
:103E3000040004003F800400040000000010006043
:103E40000000000000000000040004000400040062
:103E5000040000000000004000000000000000001E
:103E6000002001C006003800400000001F802040F4
:103E7000204020401F800000000010403FC0004054
:103E80000000000018C021402240244018400000DB
:103E900010802040244024401B80000002000D00C0
:103EA00011003FC0014000003C80244024402440D9
:103EB000238000001F802440244034400380000001
:103EC0003000200027C03800200000001B80244064
:103ED000244024401B8000001C0022C022402240BD
:103EE0001F800000000000000840000000000000EB
:103EF000000000000460000000000000000004005A
:103F00000A00110020804040090009000900090052
:103F10000900000000004040208011000A00040059
:103F20001800200023402400180000001F802040BB
:103F3000274029401F400000004007C039000F0003
:103F400001C0004020403FC0244024401B800000AE
:103F50001F802040204020403080000020403FC093
:103F6000204020401F80000020403FC024402E40C1
:103F700030C0000020403FC024402E003000000030
:103F80000F001080204022403380020020403FC0BC
:103F9000040004003FC02040204020403FC020409B
:103FA000204000000060202020203FC02000200092
:103FB00020403FC024400B0030C0204020403FC084
:103FC00020400040004000C03FC03C0003C03C0017
:103FD0003FC0000020403FC00C4023003FC02000F5
:103FE0001F802040204020401F80000020403FC014
:103FF00024402400180000001F802140214020E0C0
:104000001FA0000020403FC02440260019C00040EF
:1040100018C024402440224031800000300020405D
:104020003FC020403000000020003F8000400040A2
:104030003F80200020003E0001C007003800200023
:10404000380007C03C0007C038000000204039C0DD
:10405000060039C0204000002000384007C038402A
:1040600020000000304021C02640384020C0000021
:10407000000000007FE040204020000000007000B1
:104080000C000380004000000000402040207FE042
:1040900000000000000020004000200000000000A0
:1040A00000100010001000100010001000000000B0
:1040B00040000000000000000000028005400540B4
:1040C00003C0004020003FC00440044003800000C3
:1040D000000003800440044006400000000003800C
:1040E000044024403FC000400000038005400540DC
:1040F00003400000000004401FC024402440200072
:10410000000002E0055005500650042020403FC04A
:104110000440040003C000400000044027C00040E9
:104120000000000000100010041027E00000000054
:1041300020403FC00140070004C004402040204010
:104140003FC000400040000007C0040007C004005A
:1041500003C00000044007C00440040003C0004046
:10416000000003800440044003800000041007F0B6
:104170000450044003800000000003800440045009
:1041800007F00010044007C00240040004000000D3
:10419000000006400540054004C000000000040087
:1041A0001F800440004000000400078000400440DD
:1041B00007C000400400070004C00180060004009E
:1041C000060001C0070001C006000000044006C050
:1041D000010006C0044000000410071004E0018044
:1041E000060004000000044005C006400440000032
:1041F0000000000004007BE0402000000000000000
:104200000000FFF000000000000040207BE0040000
:10421000000000004000800040002000200040001E
:10422000000000000000000000000000000000008E
:104230000000000000001FCC000C00000000000087
:10424000000008003000600008003000600000003E
:10425000022003FC1E20022003FC1E20022000007E
:1042600000000E1811043FFF10840C7800000000BD
:104270000F0010840F3800C0077818840078000001
:1042800000780F8410C411240E9800E40084000804
:10429000080068007000000000000000000000003E
:1042A00000000000000007E0181820044002000091
:1042B000000040022004181807E000000000000081
:1042C0000240024001800FF00180024002400000E5
:1042D0000080008000800FF80080008000800000D7
:1042E0000001000D000E00000000000000000000B2
:1042F000000000800080008000800080008000803E
:104300000000000C000C0000000000000000000095
:104310000000000600180060018006001800200060
:10432000000007F0080810041004080807F0000057
:104330000000080408041FFC000400040000000042
:1043400000000E0C10141024104411840E0C0000F8
:1043500000000C1810041104110412880C700000E5
:10436000000000E00320042408241FFC00240000B7
:1043700000001F98108411041104108810700000B0
:10438000000007F00888110411041888007000006C
:1043900000001C00100010FC13001C0010000000A6
:1043A00000000E3811441084108411440E380000AF
:1043B00000000700088C10441044088807F0000033
:1043C000000000000000030C030C000000000000CF
:1043D00000000000000101060000000000000000D5
:1043E00000000080014002200410080810040000B2
:1043F00002200220022002200220022002200000CF
:104400000000100408080410022001400080000091
:1044100000000E001200100C106C10800F00000045
:1044200003E00C1813E4142417C4082807D0000074
:104430000004003C03C41C40074000E4001C0004CE
:1044400010041FFC1104110411040E8800700000F8
:1044500003E00C1810041004100410081C100000D5
:1044600010041FFC100410041004080807F00000DA
:1044700010041FFC1104110417C4100408180000D4
:1044800010041FFC1104110017C0100008000000E8
:1044900003E00C181004100410441C7800400000C5
:1044A00010041FFC10840080008010841FFC100486
:1044B0000000100410041FFC100410040000000091
:1044C00000030001100110011FFE10001000000089
:1044D00010041FFC110403801464181C1004000055
:1044E00010041FFC1004000400040004000C000071
:1044F00010041FFC1F0000FC1F001FFC1004000024
:1045000010041FFC0C04030000E010181FFC100036
:1045100007F00808100410041004080807F0000051
:1045200010041FFC10841080108010800F00000009
:1045300007F0081810241024101C080A07F20000C5
:1045400010041FFC1104110011C011300E0C0004E6
:1045500000000E1C11041084108410441C3800004C
:104560001800100010041FFC1004100018000000B8
:1045700010001FF810040004000410041FF81000BD
:1045800010001E0011E0001C007013801C001000C1
:104590001FC0103C00E01F0000E0103C1FC00000E6
:1045A0001004180C163401C001C01634180C100485
:1045B00010001C00130400FC13041C001000000079
:1045C0000804101C1064108413041C04101800004C
:1045D0000000000000007FFE400240024002000098
:1045E000000030000C0003800060001C000300008D
:1045F00000004002400240027FFE00000000000078
:1046000000000000200040004000400020000000AA
:104610000001000100010001000100010001000192
:1046200000004000400020000000000000000000EA
:1046300000000098012401440144014400FC0004EE
:1046400010001FFC008801040104008800700000B5
:1046500000000070008801040104010400880000CB
:104660000000007000880104010411081FFC000410
:10467000000000F8014401440144014400C8000066
:104680000000010401040FFC1104110411001800C2
:10469000000000D601290129012901C901060000F5
:1046A00010041FFC008401000100010400FC000450
:1046B00000000104190419FC0004000400000000BB
:1046C0000000000300010101190119FE00000000B3
:1046D00010041FFC0024004001B4010C0104000080
:1046E0000000100410041FFC00040004000000007F
:1046F000010401FC0104010001FC0104010000FCB3
:10470000010401FC008401000100010400FC00041C
:10471000000000F8010401040104010400F8000095
:10472000010101FF00850104010400880070000000
:1047300000000070008801040104010501FF000170
:104740000104010401FC0084010401000180000057
:10475000000000CC01240124012401240198000060
:1047600000000100010007F801040104000000003E
:10477000010001F8000400040004010801FC000429
:10478000010001800170000C001001600180010037
:1047900001F0010C003001C00030010C01F00100FB
:1047A00000000104018C00740170018C0104000000
:1047B000010101810171000E0018016001800100FA
:1047C00000000184010C013401440184010C00004B
:1047D000000000000000000001003EFC400240021A
:1047E0000000000000000000FFFF000000000000CB
:1047F0000000400240023EFC0100000000000000FA
:104800000000600080008000400040002000200088
:104810000000000000000000000000000000000098
:104820000000000000000000000000000000000088
:104830000000000000000000000000000000000078
:104840000000000F80380FFE380F80380000000095
:104850000000000000000000000000000000010057
:10486000000600000C0000380000310000060000C7
:104870000C000038000030000000000000000000C4
:1048800061800067F807F980006180006180006145
:10489000800061800067F807F980006180000000F7
:1048A00000000000000001C0E003E0F00630080452
:1048B00018081FFFFE040E080787F00381E00000C0
:1048C0000000000001F000060C00040408060C7053
:1048D00001F9C0000E00003BE000EC1807080804D6
:1048E0000C180003E00000000001E00007F003F8EE
:1048F00018041C0804170807E1D003C0E00023B027
:10490000003C08002008000010000000000000012A
:1049100000003100003200001C0000000000000018
:104920000000000000000000000000000000000087
:104930000000000000000000000000000000000077
:104940007F0001FFC00780F00C0018100004200059
:10495000020000000000002000021000040C0018FB
:104960000780F001FFC0007F000000000000000091
:10497000000000000000000000000000420000668F
:1049800000006600003C0000180003FFC000180093
:10499000003C0000660000660000420000000000CD
:1049A000080000080000080000080000080001FFDF
:1049B000C00008000008000008000008000008000F
:1049C00000000000000100003100003200001C0067
:1049D00000000000000000000000000000000000D7
:1049E00000000000000000000800000800000800AF
:1049F000000800000800000800000800000800008F
:104A00000800000800000000000000000000000096
:104A100038000038000038000000000000000000EE
:104A20000000000000000000000000000000000086
:104A3000000600001C000070000180000E0000381D
:104A40000000C0000700001C000030000000000053
:104A5000000000007F8001FFE00380700600180462
:104A6000000804000806001803807001FFE0007FC2
:104A700080000000000000000000010008010008A4
:104A800001000803FFF807FFF80000080000080015
:104A9000000800000000000000000001C03802C053
:104AA00058040098040118040218040418061C187D
:104AB00003F81801E0F80000000000000000000109
:104AC000C0E003C0F0040008040808040808061841
:104AD0000803F41801E7F00001E000000000000006
:104AE000000000000300000D000011000061000044
:104AF000810803010807FFF80FFFF8000108000113
:104B0000080000000000000000E007FCD0060808D4
:104B1000061008061008061008061838060FF006DA
:104B200007C0000000000000000000003F8001FFFF
:104B3000E003843002081804100804100804100868
:104B4000071810030FF00007C0000000000000006D
:104B5000000003C0000700000600000600F806077A
:104B6000F806180006E0000700000600000000003C
:104B700000000001E1E003F7F00634100418080417
:104B80001808040C08040C0806161803F3F001C1F9
:104B9000E000000000000000F80003FC30030638CD
:104BA0000402080402080402080404100308F001C7
:104BB000FFC0007F000000000000000000000000B7
:104BC00000000000000000007038007038007038ED
:104BD00000000000000000000000000000000000D5
:104BE000000000000000000000000000301A00304B
:104BF0001C00000000000000000000000000000099
:104C00000000000000000008000014000022000066
:104C100041000080800100400200200400100800D4
:104C20000800000000000000210000210000210019
:104C300000210000210000210000210000210000CF
:104C4000210000210000000000000000000008001A
:104C50000804001002002001004000808000410094
:104C60000022000014000008000000000000000303
:104C7000C00004C000040000080038080F3808080D
:104C8000380810000C300007E00003C000000000EE
:104C9000000000003F8000FFE0038070020F10065C
:104CA000708804C088048308047F8802C0900301D0
:104CB0002000FE400000080000180001F8003E0837
:104CC00001C20007020007E20000FE00001FC8004A
:104CD00001F800003800000804000807FFF807FF8B
:104CE000F804080804080804080804080806180856
:104CF00003F41801E7F00001E000000000000000EC
:104D00003F8001FFE00380700200180400080400E7
:104D1000080400080400100600200780C0000000FE
:104D200004000807FFF807FFF8040008040008045F
:104D3000000804001802001003807001FFE0007FEB
:104D40008000000004000807FFF807FFF8040808C7
:104D5000040808040808040808043E0804000806BB
:104D6000001801006000000004000807FFF807FFBA
:104D7000F8040808040800040800040800043E00C1
:104D80000600000600000180000000000000000096
:104D90003F8001FFE0038070060018040008040251
:104DA000080402080203F00783F00002000002007A
:104DB00004000807FFF807FFF804080800080000CF
:104DC000080000080000080004080807FFF807FFB3
:104DD000F8040008000000000000040008040008B7
:104DE00004000807FFF807FFF8040008040008049F
:104DF00000080000000000000000000000060000A5
:104E00000700000104000104000104000307FFFE85
:104E100007FFFC0400000400000400000400080771
:104E2000FFF807FFF8040C08001800003E0004C754
:104E3000800503C80600F8040038040018000008C4
:104E400004000807FFF807FFF80400080000080046
:104E5000000800000800000800000800001800001A
:104E60006000000004000807FFF807800807FC0046
:104E7000007FC00003F80007C00078000780080723
:104E8000FFF807FFF804000804000807FFF8070010
:104E90000803C00000E000003800001E000007000A
:104EA0000001C00400F007FFF8040000000000004B
:104EB0007F8001FFE00380700600180400080400F2
:104EC0000806001803003001FFE0007F80000000AA
:104ED00004000807FFF807FFF804040804040004AE
:104EE0000400040400040400060C0003F80001F0B0
:104EF00000000000000000007F8001FFE0038070E0
:104F00000600880400880400C806003C03003E0137
:104F1000FFE6007F8400000004000807FFF807FF99
:104F2000F8040808040800040C00040F00040BC077
:104F30000610F003F03801E008000008000000014E
:104F4000E0F803F030063010041808041808040CC8
:104F500008040C080206180207F00781E0000000B0
:104F6000018000060000040000040000040008079F
:104F7000FFF807FFF8040008040000040000060022
:104F80000001800004000007FFE007FFF0040018A4
:104F900000000800000800000800000800000804E5
:104FA000001007FFE004000004000006000007E016
:104FB0000007FE00041FE00001F80000380001E0D7
:104FC000043E0007C00006000004000004000007C3
:104FD000E00007FFC0041FF80007C007F80007FF44
:104FE00080043FF80007C004F80007000004000038
:104FF00000000004000806001807C07805F1C8008A
:105000003E00001F800463E80780F80600180400D3
:105010000800000004000006000007800007E00808
:10502000047C08001FF80007F800180804E00807CF
:105030000000060000040000000000010008060057
:10504000380400F80403E8040F08047C0805F0089D
:1050500007C00807001804006000000000000000FE
:1050600000000000000000000000003FFFFE2000E4
:1050700002200002200002200002200002000000A6
:1050800000000000000008000007000000C0000051
:1050900038000006000001C000003000000E0000D3
:1050A00001000000000000000000200002200002BB
:1050B0002000022000022000023FFFFE000000004E
:1050C00000000000000000000000000000000000E0
:1050D0000008000010000030000020000030000038
:1050E00010000008000000000000000000000100A7
:1050F00000010000010000010000010000010000AB
:105100000100000100000100000100000100000199
:10511000000000000000000000200000200000103F
:10512000000010000000000000000000000000006F
:10513000000000000000000000F00019F8001B183B
:10514000002208002608002408002410003FF80070
:105150001FF800000800001800000004000007FF0E
:10516000F80FFFF0001818001008002008002008B1
:10517000003018001FF0000FC00000000000000009
:1051800007C0001FF0001830002008002008002091
:1051900008003C08001C1000006000000000000037
:1051A0000000000007C0001FF000381800200800B1
:1051B000200800200804101007FFF80FFFF000007F
:1051C000100000000000000000000007C0001FF0F9
:1051D00000123000221800220800220800320800C5
:1051E0001E10000E20000000000000002000002023
:1051F0000800200801FFF803FFF806200804200833
:105200000420080720000300000000000000000048
:10521000000E000E6E001FF30031B10020B100201F
:10522000B1003191001F13002E1E00200E0030002F
:1052300000000004000807FFF80FFFF80010080046
:105240002000002000002008003FF8001FF80000A8
:1052500008000000000000000000002008002008F6
:10526000002008063FF8063FF8000008000008008C
:105270000008000000000000000000000000000026
:1052800003000003002001002001002003063FFE70
:10529000063FFC00000000000000000000000004C9
:1052A000000807FFF80FFFF8000188000300002F37
:1052B000C00038F800203800200800000800000076
:1052C00000000000000004000804000804000807B3
:1052D000FFF80FFFF80000080000080000080000B9
:1052E00000000000002008003FF8003FF800100810
:1052F000002000003FF8003FF800100800200000E8
:105300003FF8003FF8000008000000002008003FC0
:10531000F8003FF8001008001000002000002008EE
:10532000003FF8001FF80000080000000000000027
:1053300007C0000FF00018300030080020080020DF
:1053400008003008001830000FF00007C00000000F
:10535000000000002001003FFF003FFF001011008F
:105360002009002008002008003038001FF0000F3E
:10537000C00000000000000007C0001FF000381847
:10538000002008002008002009001011001FFF0065
:105390003FFF00000100000000200800200800205E
:1053A00008003FF8003FF800080800100800200837
:1053B000002000003000003000000000000000006D
:1053C0000000000C78001E1800330800230800219C
:1053D000080021880021980030F0003860000000AB
:1053E00000000000200000200000200000FFF0036B
:1053F000FFF800200800200800200800003000000E
:1054000000000000000000002000003FF0007FF8D6
:10541000000018000008000008002010003FF800FD
:105420007FF00000100000000000000020000030AD
:1054300000003C00003F800023F000007800007076
:10544000002380003C00003000002000002000000D
:105450003C00003FE00023F80000E0002700003E91
:1054600000003FE00021F80001E0003E00002000C5
:10547000000000002008002008003838003E6800C6
:1054800027800003C8002CF80038380020180020BE
:1054900008000000000000002000003003003C0174
:1054A000003F830023EC000070002380003C0000DC
:1054B0002000002000000000000000000000003874
:1054C000080020380020F80023E8002F88003E085C
:1054D00000380800201800007000000000000000E4
:1054E00000000000000000000000000008000014A0
:1054F000001FF7FC30000620000200000000000042
:10550000000000000000000000000000000000009B
:105510000000FFFFFF00000000000000000000008E
:105520000000000000000000000020000230000623
:105530001FF7FC001400000800000000000000003D
:1055400000000000000000000000001800006000E3
:105550000040000040000020000010000008000093
:105560000400000400000C00001000000000000017
:10557000000000000000000000000000000000002B
:10558000000000000000000000000000000000001B
:10559000000000000000000000000000000000000B
:1055A00000000000000000000000000000000000FB
:1055B00000000000000000000000000000000000EB
:1055C00000000000000000000000000000000000DB
:1055D00000000000000000000000000000000000CB
:1055E00000000000000000000000000000000000BB
:1055F00000000000000000000000000000000000AB
:105600000000000007F000C007FFE1E007F001E044
:10561000000000C0000000000000000000000000CA
:10562000000000000000000000000000000000007A
:10563000000000000000000000000000000000006A
:10564000000000000000000000000000000000005A
:10565000000000000000000000000000000000004A
:10566000000000000000000000000000000000003A
:10567000000000000020000001C0000007800000C2
:105680001F0000001E0000001C20000001C00000E0
:10569000078000001F0000001E0000001C0000002A
:1056A00000000000000000000000000000000000FA
:1056B00000000000000000000000000000000000EA
:1056C00000000000000000000000000000000000DA
:1056D00000000000000000000000000000000000CA
:1056E00000000000000000000000000000000000BA
:1056F00000180C0000180C0000180FE0001FFC0040
:1057000003F80C0000180C0000180C0000180C0026
:1057100000180C0000180FE0001FFC0003F80C003C
:1057200000180C0000180C00000000000000000031
:105730000000000000000000000000000000000069
:105740000000000000000000000000000000000059
:105750000000000000000000000000000000000049
:105760000000000000000000000000000000000039
:105770000000000000000780007807C000FC064021
:10578000010E002003070020020380200FFFFFFC12
:105790000201C0200200E0600130704001F03F8053
:1057A00000F01F00000000000000000000000000EA
:1057B00000000000000000000000000000000000E9
:1057C00000000000000000000000000000000000D9
:1057D00000000000000000000000000000000000C9
:1057E00000000000000000000000000000FE0000BB
:1057F00001FF00000301800002008060030181C0FE
:1058000001FF070000FE18000000E0000003BF00D9
:10581000000CFFC00071806001C1002003018060A6
:105820000000FFC000003F0000000000000000007A
:105830000000000000000000000000000000000068
:105840000000000000000000000000000000000058
:105850000000000000000000000000000000000048
:1058600000000000000000000000000000001F0019
:1058700000007FC000FCC0C001FF80600303E02087
:105880000202782002061E2003FC074001F003807C
:10589000000103C000011C600001E02000010020A5
:1058A0000001004000000180000000000000000036
:1058B00000000000000000000000000000000000E8
:1058C00000000000000000000000000000000000D8
:1058D00000000000000000000000000000000000C8
:1058E00000000000000000000000000000000000B8
:1058F000002000001C6000001C4000001F80000011
:105900000F00000000000000000000000000000088
:105910000000000000000000000000000000000087
:105920000000000000000000000000000000000077
:105930000000000000000000000000000000000067
:105940000000000000000000000000000000000057
:105950000000000000000000000000000000000047
:105960000000000000000000000000000000000037
:105970000000000000000000000000000000000027
:1059800000000000000000000007F800003FFF00DA
:10599000007807C001C000E00300003004000008E8
:1059A00008000004100000020000000000000000D9
:1059B00000000000000000000000000000000000E7
:1059C00000000000000000000000000000000000D7
:1059D00000000000000000000000000000000000C7
:1059E00000000000000000000000000000000000B7
:1059F000100000020800000404000008030000304A
:105A000001C000E0007807C0003FFF000007F80079
:105A10000000000000000000000000000000000086
:105A20000000000000000000000000000000000076
:105A30000000000000000000000000000000000066
:105A40000000000000000000000000000000000056
:105A50000000000000000000000000000000000046
:105A60000000000000000000000000000000000036
:105A700000000000000C1800000E3800000E380076
:105A800000063000000360000061438000FFFF80DB
:105A9000006143000003600000063000000E380083
:105AA000000E3800000C180000000000000000008C
:105AB00000000000000000000000000000000000E6
:105AC00000000000000000000000000000000000D6
:105AD00000000000000000000000000000000000C6
:105AE00000000000000000000000000000000000B6
:105AF0000000000000008000000080000000800026
:105B0000000080000000800000008000007FFF0097
:105B10000000800000008000000080000000800085
:105B20000000800000008000000000000000000075
:105B30000000000000000000000000000000000065
:105B40000000000000000000000000000000000055
:105B50000000000000000000000000000000000045
:105B60000000000000000000000000000000000035
:105B700000000001000000E3000000E2000000FC63
:105B8000000000780000000000000000000000009D
:105B90000000000000000000000000000000000005
:105BA00000000000000000000000000000000000F5
:105BB00000000000000000000000000000000000E5
:105BC00000000000000000000000000000000000D5
:105BD00000000000000000000000000000000000C5
:105BE00000000000000000000000000000000000B5
:105BF00000008000000080000000800000008000A5
:105C00000000800000008000000080000000800094
:105C10000000800000008000000080000000800084
:105C20000000800000008000000000000000000074
:105C30000000000000000000000000000000000064
:105C40000000000000000000000000000000000054
:105C50000000000000000000000000000000000044
:105C60000000000000000000000000000000000034
:105C700000000000000000C0000001E0000001E0A2
:105C8000000000C000000000000000000000000054
:105C90000000000000000000000000000000000004
:105CA00000000000000000000000000000000000F4
:105CB00000000000000000000000000000000000E4
:105CC00000000000000000000000000000000000D4
:105CD00000000000000000000000000000000000C4
:105CE00000000000000000000000000000000000B4
:105CF0000000000C00000038000000E000000380FD
:105D000000000E00000038000000E00000038000EA
:105D1000000E00000038000000E0000003800000DA
:105D20000E0000001800000000000000000000004D
:105D30000000000000000000000000000000000063
:105D40000000000000000000000000000000000053
:105D50000000000000000000000000000000000043
:105D60000000000000000000000000000000000033
:105D700000000000000FF800007FFF0000F0078027
:105D8000018000C00300006002000020020000202B
:105D90000200002003000060018000C000E00380DA
:105DA000007FFF00000FF80000000000000000006E
:105DB00000000000000000000000000000000000E3
:105DC00000000000000000000000000000000000D3
:105DD00000000000000000000000000000000000C3
:105DE00000000000000000000000000000000000B3
:105DF0000000000000000000008000200080002063
:105E0000008000200080006001FFFFE003FFFFE052
:105E100000000060000000200000002000000020C2
:105E20000000000000000000000000000000000072
:105E30000000000000000000000000000000000062
:105E40000000000000000000000000000000000052
:105E50000000000000000000000000000000000042
:105E60000000000000000000000000000000000032
:105E700000000000007800E000980160010002606E
:105E8000020004600200086002001060020020604E
:105E900002004060030080600183006001FE00E0BA
:105EA000007C0780000000000000000000000000EF
:105EB00000000000000000000000000000000000E2
:105EC00000000000000000000000000000000000D2
:105ED00000000000000000000000000000000000C2
:105EE00000000000000000000000000000000000B2
:105EF0000000000000F0078001F007C00100004032
:105F00000200002002010020020100200201002006
:105F1000030380200186804001FCC0C000787F80A0
:105F200000001E0000000000000000000000000053
:105F30000000000000000000000000000000000061
:105F40000000000000000000000000000000000051
:105F50000000000000000000000000000000000041
:105F60000000000000000000000000000000000031
:105F70000000080000003800000048000001880010
:105F800000060800000C081000300810004008103F
:105F900001FFFFF003FFFFF003FFFFF00000081018
:105FA00000000810000008100000000000000000C1
:105FB00000000000000000000000000000000000E1
:105FC00000000000000000000000000000000000D1
:105FD00000000000000000000000000000000000C1
:105FE00000000000000000000000000000000000B1
:105FF0000000000000000780001F864003E1002031
:1060000003020020030400200304002003040020F6
:106010000304002003060040030301C00301FF80C6
:1060200003007E00000000000000000000000000EF
:106030000000000000000000000000000000000060
:106040000000000000000000000000000000000050
:106050000000000000000000000000000000000040
:106060000000000000000000000000000000000030
:10607000000000000007FC00003FFF000070C3802C
:10608000008180C0010100600302002002020020A4
:1060900002020020020200200203004001C180C071
:1060A00000C0FF8000007E00000000000000000033
:1060B00000000000000000000000000000000000E0
:1060C00000000000000000000000000000000000D0
:1060D00000000000000000000000000000000000C0
:1060E00000000000000000000000000000000000B0
:1060F0000000000000F0000003C00000038000006A
:1061000003000000030007E003003FE00301C000BC
:106110000306000003180000036000000380000075
:10612000030000000000000000000000000000006C
:10613000000000000000000000000000000000005F
:10614000000000000000000000000000000000004F
:10615000000000000000000000000000000000003F
:10616000000000000000000000000000000000002F
:1061700000001F0000783F8000FC60C0018EC0401E
:1061800003078020020300200201802002018020FA
:106190000201C0200301E040018670C000FC3F8086
:1061A00000781F0000000000000000000000000058
:1061B00000000000000000000000000000000000DF
:1061C00000000000000000000000000000000000CF
:1061D00000000000000000000000000000000000BF
:1061E00000000000000000000000000000000000AF
:1061F000003F000000FF81C001C0C1C0010060205D
:106200000200202002002020020020200200206046
:10621000020040C00100C18000C18F00007FFE006D
:10622000001FF0000000000000000000000000005F
:10623000000000000000000000000000000000005E
:10624000000000000000000000000000000000004E
:10625000000000000000000000000000000000003E
:10626000000000000000000000000000000000002E
:10627000000000000000000000000000000000001E
:1062800000000000000300C0000781E0000781E07B
:10629000000300C00000000000000000000000003B
:1062A00000000000000000000000000000000000EE
:1062B00000000000000000000000000000000000DE
:1062C00000000000000000000000000000000000CE
:1062D00000000000000000000000000000000000BE
:1062E00000000000000000000000000000000000AE
:1062F000000000000000000000000000000000009E
:1063000000000000000600660006007800000000A3
:10631000000000000000000000000000000000007D
:10632000000000000000000000000000000000006D
:10633000000000000000000000000000000000005D
:10634000000000000000000000000000000000004D
:10635000000000000000000000000000000000003D
:10636000000000000000000000000000000000002D
:1063700000000000000080000001C0000003600079
:1063800000063000000C180000180C000030060059
:106390000060030000C001800100004002000020F6
:1063A00004000010000000000000000000000000D9
:1063B00000000000000000000000000000000000DD
:1063C00000000000000000000000000000000000CD
:1063D00000000000000000000000000000000000BD
:1063E00000000000000000000000000000000000AD
:1063F000000410000004100000041000000410004D
:10640000000410000004100000041000000410003C
:10641000000410000004100000041000000410002C
:106420000004100000041000000000000000000044
:10643000000000000000000000000000000000005C
:10644000000000000000000000000000000000004C
:10645000000000000000000000000000000000003C
:10646000000000000000000000000000000000002C
:1064700000000000040000100200002001000040A5
:1064800000C00180006003000030060000180C000E
:10649000000C180000063000000360000001C0007E
:1064A000000080000000000000000000000000006C
:1064B00000000000000000000000000000000000DC
:1064C00000000000000000000000000000000000CC
:1064D00000000000000000000000000000000000BC
:1064E00000000000000000000000000000000000AC
:1064F000000000000078000001F8000002380000F1
:1065000002000000040000C0040079E0040081E003
:10651000040100C0040300000202000003060000A2
:1065200001FC000000F80000000000000000000076
:10653000000000000000000000000000000000005B
:10654000000000000000000000000000000000004B
:10655000000000000000000000000000000000003B
:10656000000000000000000000000000000000002B
:10657000000FF800003FFE000070078000C000C060
:106580000101F8400307FC20021E0420023008200D
:1065900002203020023FFC20013F044001800CC05B
:1065A00000E03180001FC200000000000000000079
:1065B00000000000000000000000000000000000DB
:1065C00000000000000000000000000000000000CB
:1065D00000000000000000000000000000000000BB
:1065E000000000000000000000000000000000208B
:1065F00000000060000003E000003E200003E020F7
:10660000003E200003E020000380200007FC200063
:10661000003FE0000003FE2000003FE0000001E03A
:10662000000000200000002000000000000000002A
:10663000000000000000000000000000000000005A
:10664000000000000000000000000000000000004A
:10665000000000000000000000000000000000003A
:10666000000000000000000000000000000000002A
:10667000020000200200002003FFFFE003FFFFE014
:10668000020100200201002002010020020100207E
:1066900002010020030300200186806001FCC0C0CD
:1066A00000F87F8000001F000000000000000000D4
:1066B00000000000000000000000000000000000DA
:1066C00000000000000000000000000000000000CA
:1066D00000000000000000000000000000000000BA
:1066E00000000000000000000000000000000000AA
:1066F0000007F800003FFF000070078000C000C0E6
:1067000001000040030000200200002002000020E1
:10671000020000200200002001000040018000C0B3
:1067200003C00180003006000000000000000000EF
:106730000000000000000000000000000000000059
:106740000000000000000000000000000000000049
:106750000000000000000000000000000000000039
:106760000000000000000000000000000000000029
:10677000020000200200002003FFFFE003FFFFE013
:106780000200002002000020020000200200002081
:106790000300006001000040018000C000F007809D
:1067A000007FFE00000FF800000000000000000065
:1067B00000000000000000000000000000000000D9
:1067C00000000000000000000000000000000000C9
:1067D00000000000000000000000000000000000B9
:1067E00000000000000000000000000000000000A9
:1067F000020000200200002003FFFFE003FFFFE093
:1068000002010020020100200201002002010020FC
:106810000201002002038020020FE020030000603C
:1068200003C000E000600300000000000000000062
:106830000000000000000000000000000000000058
:106840000000000000000000000000000000000048
:106850000000000000000000000000000000000038
:106860000000000000000000000000000000000028
:10687000020000200200002003FFFFE003FFFFE012
:1068800002010020020100200201000002010000BC
:10689000020100000201000002038000030FE0007B
:1068A0000300000003C000000060000000000000C2
:1068B00000000000000000000000000000000000D8
:1068C00000000000000000000000000000000000C8
:1068D00000000000000000000000000000000000B8
:1068E00000000000000000000000000000000000A8
:1068F0000007F800003FFE000070078001C001C0E3
:1069000001000040030000200200002002000020DF
:1069100002000020010020200100204003C03F8031
:1069200000303F8000002000000020000000000038
:106930000000000000000000000000000000000057
:106940000000000000000000000000000000000047
:106950000000000000000000000000000000000037
:106960000000000000000000000000000200002005
:106970000200002003FFFFE003FFFFE00200802091
:1069800002008020000080000000800000008000E5
:10699000020080200200802003FFFFE003FFFFE0F1
:1069A00002000020020000200000000000000000A3
:1069B00000000000000000000000000000000000D7
:1069C00000000000000000000000000000000000C7
:1069D00000000000000000000000000000000000B7
:1069E00000000000000000000000000000000000A7
:1069F0000000000000000000020000200200002053
:106A0000020000200200002003FFFFE003FFFFE080
:106A100002000020020000200200002002000020EE
:106A20000000000000000000000000000000000066
:106A30000000000000000000000000000000000056
:106A40000000000000000000000000000000000046
:106A50000000000000000000000000000000000036
:106A60000000000000000000000000000000000026
:106A70000000000E0000000F0000000F00000001E9
:106A800002000001020000010200000302000006F3
:106A900003FFFFFC03FFFFF80200000002000000FC
:106AA00002000000020000000000000000000000E2
:106AB00000000000000000000000000000000000D6
:106AC00000000000000000000000000000000000C6
:106AD00000000000000000000000000000000000B6
:106AE00000000000000000000000000000000000A6
:106AF000020000200200002003FFFFE003FFFFE090
:106B00000200C0200201002000078000000FE0000A
:106B10000030F80002603E2003800F20030003E0F5
:106B2000020000E002000020000000200000000041
:106B30000000000000000000000000000000000055
:106B40000000000000000000000000000000000045
:106B50000000000000000000000000000000000035
:106B60000000000000000000000000000000000025
:106B7000020000200200002003FFFFE003FFFFE00F
:106B80000200002002000020000000200000002081
:106B90000000002000000020000000200000006035
:106BA000000000E000000300000000000000000002
:106BB00000000000000000000000000000000000D5
:106BC00000000000000000000000000000000000C5
:106BD00000000000000000000000000000000000B5
:106BE0000000000000000000000000000200002083
:106BF0000200002003FFFFE003E0002003FF00206D
:106C0000001FF0000001FF8000000FE000001E00E8
:106C10000003E000003E002003E0002003FFFFE04F
:106C200003FFFFE00200002002000020000000003F
:106C30000000000000000000000000000000000054
:106C40000000000000000000000000000000000044
:106C50000000000000000000000000000000000034
:106C60000000000000000000000000000200002002
:106C70000200002003FFFFE00380002003F000205B
:106C800000FC0000001F00000007C0000001F00031
:106C900000007C0002001F80020007E003FFFFE00D
:106CA00002000000020000000000000000000000E0
:106CB00000000000000000000000000000000000D4
:106CC00000000000000000000000000000000000C4
:106CD00000000000000000000000000000000000B4
:106CE00000000000000000000000000000000000A4
:106CF000000FF800003FFE0000F00780018000C098
:106D000001000040020000200200002002000020DC
:106D10000200002001000040018000C000F003805C
:106D2000003FFE00000FF80000000000000000001F
:106D30000000000000000000000000000000000053
:106D40000000000000000000000000000000000043
:106D50000000000000000000000000000000000033
:106D60000000000000000000000000000000000023
:106D7000020000200200002003FFFFE003FFFFE00D
:106D800002008020020080200200800002008000BB
:106D900002008000020080000301800001830000E7
:106DA00000FE0000007C0000000000000000000069
:106DB00000000000000000000000000000000000D3
:106DC00000000000000000000000000000000000C3
:106DD00000000000000000000000000000000000B3
:106DE00000000000000000000000000000000000A3
:106DF000000FF800007FFF0000F00380018001C059
:106E000001000640020004200200042002000620C7
:106E1000020003E0010000F80180005C00E0038C48
:106E2000003FFF0C000FFC180000000000000000F5
:106E30000000000000000000000000000000000052
:106E40000000000000000000000000000000000042
:106E50000000000000000000000000000000000032
:106E60000000000000000000000000000000000022
:106E7000020000200200002003FFFFE003FFFFE00C
:106E80000201002002010020020180000201E00056
:106E90000201FC0003033F80018607E001FC00E0E3
:106EA00000F80020000000200000000000000000AA
:106EB00000000000000000000000000000000000D2
:106EC00000000000000000000000000000000000C2
:106ED00000000000000000000000000000000000B2
:106EE00000000000000000000000000000000000A2
:106EF000000000000078060000FE01E0018600C0EE
:106F000003030040020300200201802002018020D0
:106F10000201C0200200C0200100E060018070C0BA
:106F200003E03F8000001F000000000000000000A0
:106F30000000000000000000000000000000000051
:106F40000000000000000000000000000000000041
:106F50000000000000000000000000000000000031
:106F60000000000000000000000000000000000021
:106F70000060000003800000030000000200000029
:106F8000020000200200002003FFFFE003FFFFE0FB
:106F900002000020020000200200000002000000A9
:106FA0000380000000E0000000000000000000007E
:106FB00000000000000000000000000000000000D1
:106FC00000000000000000000000000000000000C1
:106FD00000000000000000000000000000000000B1
:106FE000000000000000000000000000020000009F
:106FF0000200000003FFFF0003FFFFC0020000408B
:1070000002000060000000200000002000000020BE
:1070100000000020020000400200008003FFFF008B
:10702000020000000200000000000000000000005C
:107030000000000000000000000000000000000050
:107040000000000000000000000000000000000040
:107050000000000000000000000000000000000030
:107060000000000000000000000000000000000020
:10707000020000000200000003C0000003FC00004A
:10708000023FC0000003F80000007F80000007E01E
:1070900000000780000078000203C000023C0000EE
:1070A00003C0000002000000020000000000000019
:1070B00000000000000000000000000000000000D0
:1070C00000000000000000000000000000000000C0
:1070D00000000000000000000000000000000000B0
:1070E000000000000000000000000000020000009E
:1070F00003C0000003FF8000023FFE0002007FE0AB
:1071000000000F000200F00003EF000003FF80000A
:10711000020FFE0000003FE000001F000207E00039
:1071200003F800000300000002000000000000005F
:10713000000000000000000000000000000000004F
:10714000000000000000000000000000000000003F
:10715000000000000000000000000000000000002F
:10716000000000000000000000000000000000001F
:107170000200002002000020038000E003F0032052
:1071800002FC0C20021F30000007C0000007F000C6
:1071900002187C0002601F20038003E0020000E070
:1071A000020000200000002000000000000000009D
:1071B00000000000000000000000000000000000CF
:1071C00000000000000000000000000000000000BF
:1071D00000000000000000000000000000000000AF
:1071E000000000000000000000000000000000009F
:1071F000020000000300000003C0000003F80000CC
:10720000023E0020020FC0200001FFE000007FE0EE
:1072100000038020021C0020027000000380000098
:10722000020000000200000000000000000000005A
:10723000000000000000000000000000000000004E
:10724000000000000000000000000000000000003E
:10725000000000000000000000000000000000002E
:10726000000000000000000000000000000000001E
:1072700000000020006000E0038003E003000FA096
:1072800002003E200200F8200203E020020F8020CE
:10729000023E00200278002003E00060038000E04E
:1072A00002000300000000000000000000000000D9
:1072B00000000000000000000000000000000000CE
:1072C00000000000000000000000000000000000BE
:1072D00000000000000000000000000000000000AE
:1072E000000000000000000000000000000000009E
:1072F000000000000000000000000000000000008E
:10730000000000001FFFFFFC10000004100000043C
:10731000100000041000000410000004100000041D
:107320001000000400000000000000000000000049
:10733000000000000000000000000000000000004D
:10734000000000000000000000000000000000003D
:10735000000000000000000000000000000000002D
:10736000000000000000000000000000000000001D
:1073700000000000000000000700000003C0000043
:1073800000780000001E00000003C0000000F000B4
:1073900000001E0000000780000000F00000003C1C
:1073A00000000006000000000000000000000000D7
:1073B00000000000000000000000000000000000CD
:1073C00000000000000000000000000000000000BD
:1073D00000000000000000000000000000000000AD
:1073E000000000000000000000000000000000009D
:1073F0000000000010000004100000041000000451
:10740000100000041000000410000004100000042C
:107410001FFFFFFC00000000000000000000000053
:10742000000000000000000000000000000000005C
:10743000000000000000000000000000000000004C
:10744000000000000000000000000000000000003C
:10745000000000000000000000000000000000002C
:10746000000000000000000000000000000000001C
:10747000000000000000000000000000020000000A
:1074800004000000080000001800000010000000C8
:1074900018000000180000000400000002000000B6
:1074A00000000000000000000000000000000000DC
:1074B00000000000000000000000000000000000CC
:1074C00000000000000000000000000000000000BC
:1074D00000000000000000000000000000000000AC
:1074E000000000000000000000000000000000019B
:1074F0000000000100000001000000010000000188
:107500000000000100000001000000010000000177
:107510000000000100000001000000010000000167
:107520000000000100000001000000010000000058
:10753000000000000000000000000000000000004B
:10754000000000000000000000000000000000003B
:10755000000000000000000000000000000000002B
:10756000000000000000000000000000000000001B
:1075700000000000000000001000000010000000EB
:1075800010000000180000000800000004000000C7
:1075900000000000000000000000000000000000EB
:1075A00000000000000000000000000000000000DB
:1075B00000000000000000000000000000000000CB
:1075C00000000000000000000000000000000000BB
:1075D00000000000000000000000000000000000AB
:1075E000000000000000000000000000000000009B
:1075F0000000038000018FC000038C60000618208B
:10760000000410200004102000042020000420406A
:10761000000620400003FFC00001FFE00000002042
:1076200000000020000000C000000000000000007A
:10763000000000000000000000000000000000004A
:10764000000000000000000000000000000000003A
:10765000000000000000000000000000000000002A
:10766000000000000000000000000000000000001A
:10767000020000000200000003FFFFE007FFFFC060
:10768000000180C000020060000200200004002011
:10769000000400200004002000060040000300C099
:1076A0000001FF800000FE0000000000000000005C
:1076B00000000000000000000000000000000000CA
:1076C00000000000000000000000000000000000BA
:1076D00000000000000000000000000000000000AA
:1076E000000000000000000000000000000000009A
:1076F0000000000000007E000001FF80000381C048
:1077000000020040000600200004002000040020C9
:1077100000040020000600200003C0400001C080DB
:107720000000030000000000000000000000000056
:107730000000000000000000000000000000000049
:107740000000000000000000000000000000000039
:107750000000000000000000000000000000000029
:107760000000000000000000000000000000000019
:107770000000000000007E000001FF80000380C0C8
:107780000006006000040020000400200004002027
:10779000020400400202008003FFFFE007FFFFC079
:1077A0000000004000000040000000000000000059
:1077B00000000000000000000000000000000000C9
:1077C00000000000000000000000000000000000B9
:1077D00000000000000000000000000000000000A9
:1077E0000000000000000000000000000000000099
:1077F0000000000000007E000001FF80000311C0B7
:10780000000210400004106000041020000410204A
:107810000004102000061020000310400001F0C0FA
:1078200000007100000000000000000000000000E7
:107830000000000000000000000000000000000048
:107840000000000000000000000000000000000038
:107850000000000000000000000000000000000028
:107860000000000000000000000000000000000018
:1078700000000000000400000004002000040020BC
:1078800000040020007FFFE001FFFFE00104002072
:10789000030400200204002002040020020400006F
:1078A0000200000001C0000001C000000000000054
:1078B00000000000000000000000000000000000C8
:1078C00000000000000000000000000000000000B8
:1078D00000000000000000000000000000000000A8
:1078E0000000000000000000000000000000000098
:1078F000000000000000001C0000E33E0003FFC287
:1079000000020CC3000404C1000404C1000404C14B
:10791000000404C100060CC10003F8C30005F062B6
:107920000006007E0006003C000000000000000091
:107930000000000000000000000000000000000047
:107940000000000000000000000000000000000037
:107950000000000000000000000000000000000027
:107960000000000000000000000000000000000017
:10797000020000200200002003FFFFE007FFFFE0FD
:1079800000010020000200200006000000040000AA
:107990000004000000040020000600200003FFE0B7
:1079A0000001FFE0000000200000002000000000B7
:1079B00000000000000000000000000000000000C7
:1079C00000000000000000000000000000000000B7
:1079D00000000000000000000000000000000000A7
:1079E0000000000000000000000000000000000097
:1079F000000000000000000000040020000400203F
:107A000000040020000400200387FFE0038FFFE054
:107A10000380002000000020000000200000002063
:107A20000000000000000000000000000000000056
:107A30000000000000000000000000000000000046
:107A40000000000000000000000000000000000036
:107A50000000000000000000000000000000000026
:107A60000000000000000000000000000000000016
:107A700000000000000000000000000600000007F9
:107A800000000001000000010004000100040001EA
:107A900000040003000400060387FFFC038FFFF8C7
:107AA0000380000000000000000000000000000053
:107AB00000000000000000000000000000000000C6
:107AC00000000000000000000000000000000000B6
:107AD00000000000000000000000000000000000A6
:107AE0000000000000000000000000000000000096
:107AF000020000200200002003FFFFE007FFFFE07C
:107B00000000082000001020000030000000FC00F1
:107B100000058E00000707A0000601E0000400E059
:107B20000004002000000020000000000000000011
:107B30000000000000000000000000000000000045
:107B40000000000000000000000000000000000035
:107B50000000000000000000000000000000000025
:107B60000000000000000000000000000000000015
:107B700000000000000000000200002002000020C1
:107B8000020000200200002003FFFFE007FFFFE0EB
:107B90000000002000000020000000200000002065
:107BA00000000000000000000000000000000000D5
:107BB00000000000000000000000000000000000C5
:107BC00000000000000000000000000000000000B5
:107BD00000000000000000000000000000000000A5
:107BE0000000000000000000000000000000000095
:107BF000000400200007FFE0000FFFE0000200206B
:107C000000040000000400200007FFE00003FFE084
:107C10000002002000040000000400200007FFE034
:107C20000003FFE000000020000000000000000052
:107C30000000000000000000000000000000000044
:107C40000000000000000000000000000000000034
:107C50000000000000000000000000000000000024
:107C60000000000000000000000000000000000014
:107C700000040020000400200007FFE0000FFFE0E8
:107C800000010020000200200002000000040000AB
:107C90000004000000040020000600200003FFE0B4
:107CA0000001FFE0000000200000002000000000B4
:107CB00000000000000000000000000000000000C4
:107CC00000000000000000000000000000000000B4
:107CD00000000000000000000000000000000000A4
:107CE0000000000000000000000000000000000094
:107CF0000000000000007E000000FF80000381C043
:107D000000020040000600200004002000040020C3
:107D1000000400200006002000020040000381C093
:107D20000001FF8000007E00000000000000000055
:107D30000000000000000000000000000000000043
:107D40000000000000000000000000000000000033
:107D50000000000000000000000000000000000023
:107D60000000000000000000000000000000000013
:107D700000040001000400010007FFFF000FFFFFE7
:107D8000000100C1000200410004002000040020A6
:107D9000000400200004002000060040000301C091
:107DA0000001FF8000007E000000000000000000D5
:107DB00000000000000000000000000000000000C3
:107DC00000000000000000000000000000000000B3
:107DD00000000000000000000000000000000000A3
:107DE0000000000000000000000000000000000093
:107DF0000000000000007E000001FF80000380C042
:107E000000020060000400200004002000040020A4
:107E10000004002000020041000300C10003FFFF36
:107E20000007FFFF0000000100000001000000004B
:107E30000000000000000000000000000000000042
:107E40000000000000000000000000000000000032
:107E50000000000000000000000000000000000022
:107E60000000000000000000000000000000000012
:107E70000004002000040020000400200004002072
:107E8000000FFFE0000FFFE00000C0200001002015
:107E90000002002000060020000400000004000092
:107EA00000070000000300000000000000000000C8
:107EB00000000000000000000000000000000000C2
:107EC00000000000000000000000000000000000B2
:107ED00000000000000000000000000000000000A2
:107EE0000000000000000000000000000000000092
:107EF00000000000000003E00001C0E00003E040DB
:107F0000000630200004302000041820000418204F
:107F10000004182000040C2000020C60000307C0BD
:107F20000007838000000000000000000000000047
:107F30000000000000000000000000000000000041
:107F40000000000000000000000000000000000031
:107F50000000000000000000000000000000000021
:107F60000000000000000000000000000000000011
:107F700000000000000400000004000000040000F5
:107F8000000C0000001FFF8000FFFFC00004006025
:107F90000004002000040020000400200004004031
:107FA0000000018000000000000000000000000050
:107FB00000000000000000000000000000000000C1
:107FC00000000000000000000000000000000000B1
:107FD00000000000000000000000000000000000A1
:107FE0000000000000000000000000000000000091
:107FF00000040000000400000007FF80000FFFC025
:1080000000000060000000200000002000000020B0
:108010000000002000040040000400800007FFE092
:10802000000FFFC000000040000000400000000002
:108030000000000000000000000000000000000040
:108040000000000000000000000000000000000030
:108050000000000000000000000000000000000020
:108060000000000000000000000000000000000010
:108070000004000000040000000780000007F0007A
:108080000004FE0000041FC0000003E000000380A5
:1080900000001C00000460000007800000060000D3
:1080A00000040000000000000000000000000000CC
:1080B00000000000000000000000000000000000C0
:1080C00000000000000000000000000000000000B0
:1080D00000000000000000000000000000000000A0
:1080E000000000000000000000000000000400008C
:1080F000000600000007C0000007FC0000043F80ED
:10810000000003E000040F800006F0000007F0000C
:108110000007FF8000040FE00000038000043C0023
:108120000007C0000006000000040000000000007E
:10813000000000000000000000000000000000003F
:10814000000000000000000000000000000000002F
:10815000000000000000000000000000000000001F
:10816000000000000000000000000000000000000F
:10817000000000200004002000040060000700E070
:10818000000783200007E6000004F80000003C0020
:1081900000045E20000587A0000601E000040060E6
:1081A000000400200000002000000000000000008B
:1081B00000000000000000000000000000000000BF
:1081C00000000000000000000000000000000000AF
:1081D000000000000000000000000000000000009F
:1081E000000000000000000000000000000000008F
:1081F0000004000000040003000700030007E00182
:108200000004F80100041F02000007FC000000E069
:1082100000000700000438000007C000000600004E
:108220000004000000040000000000000000000046
:10823000000000000000000000000000000000003E
:10824000000000000000000000000000000000002E
:10825000000000000000000000000000000000001E
:10826000000000000000000000000000000000000E
:108270000000000000078060000600E0000403E04A
:10828000000407A000040E2000043C20000470201D
:108290000005E0200007802000070060000400E0E7
:1082A000000003800000000000000000000000004B
:1082B00000000000000000000000000000000000BE
:1082C00000000000000000000000000000000000AE
:1082D000000000000000000000000000000000009E
:1082E000000000000000000000000000000000008E
:1082F000000000000000000000000000000000007E
:10830000000000000000000000008000000080006D
:108310000001400007FE3FF80800000410000002C2
:10832000100000020000000000000000000000003B
:10833000000000000000000000000000000000003D
:10834000000000000000000000000000000000002D
:10835000000000000000000000000000000000001D
:10836000000000000000000000000000000000000D
:1083700000000000000000000000000000000000FD
:10838000000000000000000000000000FFFFFFFFF1
:1083900000000000000000000000000000000000DD
:1083A00000000000000000000000000000000000CD
:1083B00000000000000000000000000000000000BD
:1083C00000000000000000000000000000000000AD
:1083D000000000000000000000000000000000009D
:1083E000000000000000000000000000000000008D
:1083F000000000001000000210000002080000044D
:1084000007FE3FF8000140000000800000008000EF
:10841000000000000000000000000000000000005C
:10842000000000000000000000000000000000004C
:10843000000000000000000000000000000000003C
:10844000000000000000000000000000000000002C
:10845000000000000000000000000000000000001C
:10846000000000000000000000000000000000000C
:108470001800000030000000400000004000000034
:108480004000000020000000300000000800000054
:1084900004000000020000000200000002000000D2
:1084A0000C000000180000000000000000000000A8
:1084B00000000000000000000000000000000000BC
:1084C00000000000000000000000000000000000AC
:1084D000000000000000000000000000000000009C
:1084E0000000000000000000000000000C850008F3
:1084F000000000201C0000006C0100082885000816
:108500001C000020BC0600008801000800000000DC
:10851000000000000100000010000000000000004A
:088520000024F4000000FFFF3D
:0400000508000131BD
:00000001FF
