:020000040800F2
:1000000078130020DD0100081B1900084B180008B8
:100010001919000865060008A12400080000000066
:100020000000000000000000000000001D23000888
:1000300067060008000000001D1900081F230008C3
:10004000F7010008F7010008F7010008F7010008B0
:10005000F7010008F7010008F7010008F7010008A0
:10006000F7010008F7010008F7010008F701000890
:10007000F7010008F7010008F7010008F701000880
:10008000F7010008F7010008F7010008F701000870
:10009000F7010008F7010008F7010008F701000860
:1000A000F7010008F7010008F7010008F701000850
:1000B000F7010008F7010008F7010008F701000840
:1000C000F7010008F7010008F7010008F701000830
:1000D000F7010008F7010008F7010008F701000820
:1000E000F7010008F7010008F7010008F701000810
:1000F000F7010008F7010008F7010008F701000800
:10010000F7010008F7010008F7010008F7010008EF
:10011000F7010008F7010008F7010008F7010008DF
:10012000F7010008F7010008F7010008F7010008CF
:1001300000F002F800F042F80AA090E8000C8244B7
:100140008344AAF10107DA4501D100F037F8AFF294
:10015000090EBAE80F0013F0010F18BFFB1A43F0A5
:1001600001031847004B0000204B0000103A24BF49
:1001700078C878C1FAD8520724BF30C830C144BF0C
:1001800004680C607047000000230024002500264E
:10019000103A28BF78C1FBD8520728BF30C148BFEA
:1001A0000B607047642900F0A580732900F0A681D8
:1001B000002070471FB51FBD10B510BD00F0D0F96D
:1001C0001146FFF7F7FF03F0C5FE00F0EEF903B4A8
:1001D000FFF7F2FF03BC02F074F900000948804702
:1001E00009480047FEE7FEE7FEE7FEE7FEE7FEE719
:1001F000FEE7FEE7FEE7FEE704480549054A064B31
:1002000070470000812300083101000878010020B8
:100210007813002078030020780300207047000046
:100220000FB4044910B503AA029800F06BF910BC92
:100230005DF814FB000000202DE9F0410E46044655
:10024000002020622046E168884730B3252805D089
:10025000D4E901219047206A401CF2E7E16820467A
:1002600000278847050018D0A5F14100192802D8B9
:1002700020354FF400673246294620462760FFF7B5
:1002800091FF40B1012804D0F61D26F0070608367C
:10029000D8E7361DD6E72846DAE7206ABDE8F081C0
:1002A00070B50C460546012A05D02878800600D591
:1002B000EA69002302E0012305E05B1C934202D2BD
:1002C000E05C0028F9D1A869E618C01AA861286A7C
:1002D000184428622846AFF3008004E0D5E90121E4
:1002E00014F8010B9047B442F8D32846AFF30080CE
:1002F00070BD00002DE9F041064600241068752904
:10030000314616A510D0AFF30080002802DA404233
:1003100013A507E031688A0701D512A502E0490755
:1003200004D511A5012401E0AFF3008000210A22C9
:1003300006F1240709E0B0FBF2FCB0FBF2F302FB8C
:100340001C00303078541846491C0028F3D123464D
:100350002A463046BDE8F04100F065B800000000D4
:100360002D0000002B0000002000000010B5203AF6
:10037000C0F00B80B1E81850203AA0E81850B1E85E
:100380001850A0E81850BFF4F5AF5FEA027C24BF14
:10039000B1E81850A0E8185044BF18C918C0BDE80B
:1003A00010405FEA827C24BF51F8043B40F8043BD4
:1003B00008BF7047D20728BF31F8023B48BF11F889
:1003C000012B28BF20F8023B48BF00F8012B7047E3
:1003D0004FF0000200B5134694469646203922BFDE
:1003E000A0E80C50A0E80C50B1F12001BFF4F7AF29
:1003F000090728BFA0E80C5048BF0CC05DF804EB0B
:10040000890028BF40F8042B08BF704748BF20F878
:10041000022B11F0804F18BF00F8012B7047704776
:100420007047704770472DE9F0470D469946924650
:10043000044600F124080168880604D5E06921F02B
:100440001001216000E00120A84201DD471B00E00F
:100450000027A1697A1902EB0900081AA061207827
:10046000C00602D42046AFF30080002608E0D4E99D
:1004700001211AF806009047206A401C761C206271
:100480004E45F4DB2078C0060AD52046AFF3008045
:1004900006E0D4E9012130209047206A401C206208
:1004A000381EA7F10107F4DC07E0D4E9012118F8B0
:1004B00005009047206A401C2062281EA5F1010516
:1004C000F3DC2046AFF300802078000602D502203E
:1004D000BDE8F0870120FBE710B5436913B1AFF326
:1004E000008001E0FFF7DCFE012010BD127800F172
:1004F00024010A7000224A700122EDE711684FF0D2
:10050000FF32E9E7074B70B50D467B4400F011F868
:100510000446284600F020F810B14FF0FF3070BDBF
:10052000204670BDF737000001694A1C0261087857
:10053000704700B58FB0CDE9013100210591054923
:100540007944CDE9031011466846FFF775FE0FB0F8
:1005500000BD0000E5FFFFFF007B00F0800070475A
:10056000754600F029F8AE4605006946534620F06E
:100570000700854618B020B5FFF73EFEBDE82040D5
:100580004FF000064FF000074FF000084FF0000B4F
:1005900021F00701AC46ACE8C009ACE8C009ACE802
:1005A000C009ACE8C0098D4670470446AFF300802F
:1005B0002046FFF70CFE00000048704714010020A1
:1005C0000146014800F0E8BD2800002010B50448AD
:1005D00000F0F4FD042801D0012010BD002010BD62
:1005E0002800002010B500F015F8012801D00120E6
:1005F00010BD074800F0F8FD040006D14FF400617B
:10060000034800F071FC00B10124204610BD000039
:100610002800002008B501208DF800009DF800009A
:1006200008BD000038B50024009313460A46014671
:10063000034800F071FE00B10124204638BD0000DF
:100640002800002038B50024009313460A460146CE
:10065000034800F04DFF00B10124204638BD0000E2
:1006600028000020FEE7704772B6FEE7002200F087
:1006700001B8000030B50E4B054601205C7A012C14
:1006800015D8587A00241C54587A03EB8000456032
:100690005D7A03F108002A54587A421C5A723030AD
:1006A00008703A2048702F208870CC70002030BD30
:1006B0000801002070B5044600F00AF90546601CE8
:1006C00002D004480078044400F002F9401BA04224
:1006D000FAD370BD040000202DE9F84FDFF8C8916F
:1006E000002409F1040A0AF1040B23460F270BF139
:1006F000040ED1E00125A54006EA0502AA4276D102
:10070000DFF8A8C14E68A6EB0C0866452BD00DDCBF
:10071000032E34D005DC36B3012E19D0022E2FD192
:100720001BE0112E16D0122E2AD119E0B8F5881F21
:1007300019D006DCB8F5803F15D0B8F5801F1FD161
:1007400011E0B8F5001F0ED0B8F5041F18D10AE06B
:10075000CB6815E0CB681B1D12E0CB6808330FE0B7
:10076000CB680C330CE08B682BB1012B4FF00803E6
:1007700003D0456104E0042302E0056100E00023AA
:10078000FF2A01D8064601E000F104064FEA84057D
:1007900001D9A5F12005D6F8008007FA05FC28EA62
:1007A0000C0803FA05F548EA0508C6F800804D680C
:1007B000ED0070D53E4DAE6946F00106AE61AD6903
:1007C00024F0030605F0010500953A4D06EB050CF3
:1007D000DCF80850A607360F07FA06F825EA0805E0
:1007E000DFF8D480404503D14FF0000825E052E007
:1007F000DFF8C880404502D14FF001081DE0DFF866
:10080000C080404502D14FF0020816E0DFF8B48006
:10081000404502D14FF003080FE0DFF8AC804045BF
:1008200002D14FF0040808E0DFF8A080404502D173
:100830004FF0050801E04FF0060808FA06F848EA0C
:100840000508CCF808804D68D9F80060ED034D46E6
:1008500001D5164300E096432E604D68DAF800603B
:10086000AD03554601D5164300E096432E604D6812
:10087000DBF80060ED025D4601D5164300E09643CB
:100880002E604D68DEF80060AD02754601D5164356
:1008900000E096432E60641C0A681646E2407FF42E
:1008A00029AFBDE8F88F00000004014000001110DE
:1008B000001002400000014000080140000C01400F
:1008C000001001400014014000180140001C0140CC
:1008D00001488068704700000400002002488168D9
:1008E000027811448160704704000020074810B569
:1008F000016841F010010160032000F067F80F204B
:1009000000F006F800F024F8002010BD002002409E
:1009100070B50D4D04464FF47A712878B1FBF0F0B4
:100920000A490968B1FBF0F000F0B8FE48B9102C94
:1009300007D200222146501E00F028F800206C60EB
:1009400070BD012070BD00000400002010000020D8
:100950000C4808B5816941F001018161816901F0AC
:1009600001010091C16941F08051C161C06900F08D
:10097000805000900448416821F0E06141F000712E
:10098000416008BD0010024000000140F0B40E4B71
:100990001B680C46C3F30223C3F10705042D00D9DD
:1009A0000425191D072901D2002300E0DB1E0126C2
:1009B00006FA05F1491E214099409E40761E1640D8
:1009C0003143F0BC01F06DBD0CED00E0064900F0D4
:1009D000070208684FF6FF03184040EA0220034A66
:1009E00010430860704700000CED00E00000FA05BD
:1009F0002DE9F0470F46050061D0434E306800F006
:100A00000700B84209D2306820F007003843306050
:100A1000306800F00700B84251D128683B4C81078C
:100A200012D5400703D5606840F4E0606060287824
:100A3000000703D5606840F4605060606068A96892
:100A400020F0F000084360602878C00728D068686C
:100A5000012810D02168022810D0890700292EDA39
:100A6000616821F0030101436160FFF731FF8046B7
:100A700041F288390DE021688903EFE78901EDE74C
:100A8000FFF726FFA0EB0801494502D90320BDE886
:100A9000F0876068696800F00C00B0EB810FEFD15F
:100AA000306800F00700B8420BD9306820F007002A
:100AB00038433060306800F00700B84201D00120B0
:100AC000E5E72878400705D56068E96820F4E0602C
:100AD000084360602878000706D56068296920F41B
:100AE000605040EAC100606000F038F86168084A70
:100AF000C1F30311515CC84006490860064800680C
:100B0000FFF706FF0020C2E700200240001002406D
:100B1000D8450008100000200800002004480549BE
:100B200000684968044AC1F30221515CC84070471B
:100B30001000002000100240E84500080448054964
:100B400000684968044AC1F3C221515CC84070473B
:100B50001000002000100240E845000812A185B0F6
:100B60000FC98DE80F0014A0144A00680490516862
:100B7000134801F00C03042B10D0082B0ED1C1F345
:100B80008343C9031DF803000AD5516804AAC1F3C1
:100B90004041515C0A4A5043B0FBF1F005B0704748
:100BA00008494843FAE7000002030405060708095C
:100BB0000A0B0C0D0E0F1010010200000010024075
:100BC00000127A0000093D002DE9F84F040070D0B2
:100BD0002078C04DC00749D06868C0F38100012863
:100BE00007D06868C0F38100022809D16868C00393
:100BF00006D52868800339D560680028E7D035E03D
:100C00006068B0F5803F0BD010B1B0F5A02F11D0C7
:100C1000286820F480302860286820F4802002E0D2
:100C2000286840F480302860606890B1FFF750FE7B
:100C300006460AE0286840F480202860F0E700BFFC
:100C4000FFF746FE801B642873D828688003F7D519
:100C50000CE0FFF73DFE064605E000BFFFF738FE5B
:100C6000801B6428F0D828688003F7D420789A4E37
:100C700080074FF001094FF0000839D5686810F07F
:100C80000C0F07D06868C0F38100022809D168689A
:100C9000C00306D42868800714D52069012808D12C
:100CA00010E02069B0B1C6F80090FFF711FE0746CA
:100CB00005E00AE1FFF70CFEC01B0228C4D8286833
:100CC0008007F7D52868616920F0F80040EAC10084
:100CD00028600DE0C6F80080FFF7FAFD074604E043
:100CE000FFF7F6FDC01B022823D828688007F7D439
:100CF000207800072CD57948A169D9B1C0F80090B7
:100D0000FFF7E6FD074604E0FFF7E2FDC01B0228FF
:100D10000FD8686A8007F7D571484FF4FA51006818
:100D2000B0FBF1F0009000BF0098411E0091FAD294
:100D30000EE080E0C0F80080FFF7CAFD074604E03F
:100D4000FFF7C6FDC01B022875D8686A8007F7D474
:100D50002078400760D5E8690027C00008D4E8691A
:100D600040F08050E861E869012700F08050009071
:100D70005C480168C90513D40168834641F4807159
:100D80000160FFF7A5FD824606E000BFFFF7A0FD6A
:100D9000A0EB0A0064284ED8DBF80000C005F5D5AA
:100DA000E06801280AD008B1052813D0286A20F08D
:100DB00001002862286A20F0040002E0286A40F05E
:100DC00001002862E06841F2883B98B1FFF780FD9E
:100DD00082460BE0286A40F004002862EEE700BF7C
:100DE000FFF776FDA0EB0A0159455AD8286A80071B
:100DF000F6D50CE0FFF76CFD824605E0FFF768FDD5
:100E0000A0EB0A0159454CD8286A8007F6D41FB1D7
:100E1000E86920F08050E861E06988B36968C1F34F
:100E20008101022944D00228C6F8608004D0FFF76F
:100E30004FFD044638E034E0FFF74AFD074604E082
:100E4000FFF746FDC01B02282BD828688001F7D485
:100E5000206AB0F5803F05D16868A16820F40030B1
:100E600008436860D4E908010843696821F47411F3
:100E700008436860C6F86090FFF72AFD044606E064
:100E800025E000BFFFF724FD001B022809D82868D1
:100E90008001F7D51BE000BFFFF71AFD001B0228F9
:100EA00002D90320BDE8F88F28688001F4D40EE051
:100EB0000128F7D06868226A00F48031914204D199
:100EC000616A00F47010884201D00120EAE7002036
:100ED000E8E7000000100240000042428004424265
:100EE00010000020007000402DE9FE43044600265B
:100EF00003200D4684F83400606C03285ED0B5F5FD
:100F0000805F5BD04FF4006700204FF08068BD42E7
:100F10001FD18146009001900021206800F015FD4E
:100F2000800113D46946204601F036F807000DD140
:100F30000198400334D5B4F850000104206800F053
:100F400039FD070002D10221206823E0A06B38435D
:100F500028E01DB1A06B40F0006023E081460090C6
:100F600001900021206800F0F0FC8001EED4694679
:100F7000204601F011F80700E8D10198C0030FD511
:100F8000B4F850000104206800F014FD0700DDD122
:100F90000021206800F05BFD0700D7D14F46D5E760
:100FA0004746D3E7A063A06B144F4FF0010848B148
:100FB0002068876384F8348001260EE0A06B40F03F
:100FC0008050EFE7211DD4E9050C0EC9CDE9005092
:100FD000CDF808C0206800F0BBFC4FF40071206819
:100FE00000F01CFD28B121688F63A16B0143A16350
:100FF000012684F834803046BDE8FE83FF054000BA
:10100000F0B5426E920F0A70426EC2F383624A706C
:10101000426EC2F301628A70426E120CCA70B0F85E
:101020006420120A0A7190F864204A71826E120DCF
:10103000CA80826EC2F303420A72B0F86820C2F31B
:10104000C0324A72B0F86820C2F380328A72B0F8B7
:101050006820C2F34032CA72B0F86820C2F300328E
:101060000A7300264E73426C4FF40075012462B17E
:10107000012A3AD0026847499163816B41F080515F
:10108000816380F834400120F0BDB0F86820C36E61
:101090009205120D42EA93720A61C26EC2F3C262F5
:1010A0000A75C26EC2F302624A75C26EC2F3425240
:1010B0008A75C26EC2F38242CA75C26EC2F3C23270
:1010C0000A760A69521C42650B7E03F007039B1CDB
:1010D0009A4042650B7A03F00F0704FA07F3836521
:1010E0005B0A5A43C0E917250EE090F86820C36EEA
:1010F0009206920A42EA13420A610A69521C92025B
:101100004265C0E91652056630F86C2FC2F3803292
:1011100001F8192F0288C2F3C6124A70027802F051
:101120007F028A704268D20FCA704268C2F341726D
:101130000A714268C2F382624A714268C2F3835202
:101140008A714268C2F34052CA710E724268C2F399
:1011500000424A728288C2F3C0328A728288C2F325
:101160008032CA728288C2F340320A738288C2F324
:1011700000324A738288C2F381228A738288C2F362
:101180000122CA730079C0F3460008744C74002031
:10119000F0BD0000FF054000426C0A60826C4A60AE
:1011A000C26C8A60026DCA60426D0A61826D4A61DA
:1011B000C26D8A61006EC8610020704770B5044638
:1011C000B0F8500000250104206800F04AFD18B175
:1011D000A16B0143A16304E00021206800F0B5FB8E
:1011E0000546C5F3432070BD70B504000ED094F8D9
:1011F0003400002518B92577204600F04BF803206D
:1012000084F83400204600F00BF808B1012070BDCE
:10121000A5632563012084F83400002070BD000020
:10122000FEB50025044676200095CDE901502946FB
:101230000B460A46206800F08BFB28BB134E46F88D
:10124000A05F206800F096FB01253560204600F085
:1012500087FF28B184F83450A16B0143A16313E0E8
:10126000204600F006FF0028F4D14FF400712068FA
:1012700000F0D4FB002808D0226805499163A16BD7
:101280000143A16384F834500120FEBD00003042C8
:10129000FF05400030B585B0002100910191029119
:1012A00003910068184988422BD11848416941F4DC
:1012B00080614161416901F480610491816941F07B
:1012C00010018161816901F010010491816941F08F
:1012D000200181618069022400F0200004904FF415
:1012E000F850CDE900040325694603950848FFF747
:1012F000F3F90420CDE90004694603950548FFF79A
:10130000EBF905B030BD0000008001400010024044
:1013100000100140001401402DE9F04F87B09B46BA
:1013200016460D460446FFF7D3FA00903DB194F8F7
:101330003400012807D0A06B40F000500DE0A06BF6
:1013400040F0006009E00020A063E26D06EB0B01B5
:10135000914204D9A06B40F00070A06386E00321A5
:1013600084F834102168C862616C012900D07602CB
:101370004FF0FF3101914FEA4B2102914FF00108EC
:1013800003AA902102278146CDF8188082E88202C4
:1013900001A9206800F0C3FABBF1010F05D927634A
:1013A0003146206800F0CEFB05E0C4F830803146BD
:1013B000206800F0E0FBDFF834A130B12268C2F809
:1013C00038A0A16B0143A1634CE0029E1EE0406B7C
:1013D000000413D596B10027206800F0D3FA05F871
:1013E000010B010A05F8011B010C05F8021B000E98
:1013F000361F7F1C05F8010C082FEDD3FFF768FAA4
:101400000099411A109881421DD2E0B12068426BC8
:1014100040F22A310A42DAD0416BC90509D5BBF145
:10142000010F06D9616C032903D000F04BFC0028A2
:10143000C4D12068416B09071AD5C0F838A0A06B49
:1014400040F0080050E02168C1F838A0A06B40F0DF
:101450000040A06384F83480C4F83090032007B0C3
:10146000BDE8F08F84F83480C4F830900120F6E7AE
:10147000416B890705D5C0F838A0A06B40F0020089
:1014800032E0416B89061BD5C0F838A0A06B40F054
:10149000200029E000F076FA05F8010B010A05F8B2
:1014A000011B010C05F8021B000E05F8010C361F8C
:1014B000FFF70EFA0099411A109881420ED268B1D6
:1014C0002068416B890201D5002EE3D1216840F2EA
:1014D0003A50886384F834800020C0E72168C1F85E
:1014E00038A0A06B40F00040A063BBE7FF054000C0
:1014F0002DE9F04F8DB09B4616460D460446FFF78A
:10150000E7F90A903DB194F83400012807D0A06BA8
:1015100040F000500DE0A06B40F0006009E00020BA
:10152000A063E26D06EB0B01914204D9A06B40F081
:101530000070A0637AE0032184F834102168C86247
:10154000616C012900D076024FF0FF3103914FEA20
:101550004B2104919021CDE905104FF00109CDE90F
:101560000709824603A9206800F0D9F9BBF1010FF1
:1015700006D9202020633146206800F0BDFB05E03D
:10158000102020633146206800F0CFFB5FEA00089E
:1015900006D0216840488863A06B40EA080071E0EB
:1015A000049E27E0406B40041CD5DEB15FF00007CD
:1015B00015F8010B009015F8011B361F40EA0120B9
:1015C000009015F8021B40EA0140009015F8011C3C
:1015D00040EA016000906946206800F0E6F97F1C4F
:1015E000082FE5D3FFF774F90A99411A169881423A
:1015F00020D2F8B12068416B40F21A321142D1D0AA
:10160000416BC90523D5BBF1010F20D9616C0329BA
:101610001DD000F057FBD0B122681F499163A16B28
:101620000143A16384F83490C4F830A001200DB0C8
:10163000BDE8F08F216818488863A06B40EA080075
:10164000A06384F83490C4F830A00320EFE720684A
:10165000416B090705D510498163A06B40F0080074
:1016600010E0416B890705D50B498163A06B40F001
:10167000020007E0416BC90606D507498163A06BEC
:1016800040F01000A063CDE740F23A51816384F846
:1016900034900020CBE70000FF05400010B5401E4D
:1016A000B0F1807F01D3012010BD4FF0E0246061D4
:1016B0000F21601700F0F5FE0020A06107202061D7
:1016C000002010BD70B5040004D094F83D00002542
:1016D00010B106E0012070BD84F83C50204600F0B7
:1016E00023F8242084F83D002068C16821F40051CB
:1016F000C160204600F046FE2068016921F4904157
:1017000001612068416921F02A0141612068C168B6
:1017100041F40051C1602564202084F83D0084F824
:101720003E00002070BD000030B585B0002400945C
:1017300001940294039400681449884224D1144807
:10174000816941F480418161816901F480410491A2
:10175000816941F00401816180690E4D00F004004F
:1017600004904FF400700090022001900320039039
:1017700069462846FEF7B0FF2815CDE90004694602
:1017800028460294FEF7A8FF05B030BD003801409E
:1017900000100240000801402DE9F843044690F88B
:1017A0003D001F4616460D4620284CD1C5B1BEB19E
:1017B00094F83C00012846D0012084F83C004FF00A
:1017C0000008C4F84080212084F83D00FFF780F82D
:1017D000A6848146E684A068B0F5805F03D004E06B
:1017E0000120BDE8F883206928B12E465FF000058E
:1017F00084F83C800EE00026FAE78021204600F0C5
:101800001DFEA0B9AEB116F8010B21684860E08C4E
:10181000401EE084E08C4B464FF000020097002809
:10182000EBD14FF04001204600F008FE30B103201C
:10183000D7E735F8020BC0F30800E6E7202084F86C
:101840003D000020CDE70220CBE7FEE710B50449BC
:101850000448FEF70BFF0249491E087010BD000046
:10186000150000206C4B000800B585B000200190E9
:1018700003901148816941F010018161816901F093
:1018800010010491816941F004018161816901F0D5
:1018900004010491816941F02001816180696946F8
:1018A00000F0200004900120009002900348FEF711
:1018B00013FF05B000BD0000001002400008014009
:1018C000064805490160002141608160C1600161F5
:1018D0004161222181617047008001402800002081
:1018E0000C4810B50A4901604FF4E1314160002114
:1018F00081600C22C160C0E904128161C161FFF7FF
:10190000E1FE002803D0BDE81040FEF7ADBE10BDDB
:1019100000380140AC000020FEE7FEE770470A688F
:1019200042624A688262D1E902231A43D1E9043152
:101930000B43C16A1A4321F0F7011143C162002031
:101940007047006800F00300704708444069704722
:1019500070B50DF1100C11439CE87000234319433E
:1019600029434268314347F6FF639A430A43426082
:10197000002070BD10B5032101600220FEF79AFE21
:10198000002010BDD0F8800070470A688260D1E95D
:1019900001231A43D1E903310B43C1681A436FF3A2
:1019A0000B011143C160002070470968C0F8801026
:1019B0000020704710B586B004463720CDE90010EE
:1019C00040200290002003904FF48060049069460C
:1019D0002046FFF7DAFF41F288323721204600F037
:1019E000BDF906B010BD000010B504460A4886B027
:1019F00001432920CDE900104020029000200390EF
:101A00004FF48060049069462046FFF7BEFF2046F1
:101A100000F05CFA06B010BD0000108010B586B072
:101A200004461020CDE900104020029000200390D1
:101A30004FF48060049069462046FFF7A6FF41F20C
:101A400088321021204600F089F906B010BD10B58B
:101A500086B004460620CDE9001040200290002008
:101A600003904FF48060049069462046FFF78DFF95
:101A700041F288320621204600F070F906B010BD10
:101A800030B585B000240546009401944FF4806081
:101A90000294CDE9034069462846FFF776FF0B48DC
:101AA0004FF4FA510068B0FBF1F041F2883148433D
:101AB000401E03D24FF0004005B030BD696B0906EF
:101AC000F6D5C520A8632046F6E7000010000020E8
:101AD00070B585B004464FF4D570009001A9082078
:101AE0004025002681E86100C00104906946204637
:101AF000FFF74BFF12484FF4FA510068B0FBF1F0CA
:101B000041F288314843401E03D24FF0004005B0F7
:101B100070BD616B11F0450FF5D00905F3D4606B12
:101B2000400701D5042003E0606BC00702D001200C
:101B3000A063ECE7606B400600D5A5633046E6E79E
:101B40001000002010B586B004461220CDE9001028
:101B500040200290002003904FF48060049069467A
:101B60002046FFF712FF41F288321221204600F092
:101B7000F5F806B010BD10B586B004461120CDE9C9
:101B8000001040200290002003904FF480600490E9
:101B900069462046FFF7F9FE41F2883211212046BE
:101BA00000F0DCF806B010BD10B586B00446072082
:101BB000CDE9002040200290002003904FF4806087
:101BC000049069462046FFF7E0FE41F28832072183
:101BD000204600F0C3F806B010BD10B586B004462C
:101BE00000210220CDE90010C020CDE902014FF410
:101BF0008060049069462046FFF7C7FE204600F04B
:101C00003DF906B010BD10B586B004460920CDE9F7
:101C10000010C0200290002003904FF480600490D8
:101C200069462046FFF7B1FE204600F027F906B0CE
:101C300010BD10B586B0044600213320CDE9001058
:101C40004020CDE902010001049069462046FFF7DB
:101C50009CFE41F288323321204600F07FF806B026
:101C600010BD10B586B004460D20CDE9001040200F
:101C70000290002003904FF4806004906946204653
:101C8000FFF783FE41F288320D21204600F066F80E
:101C900006B010BD30B585B00C46054600210320C6
:101CA000CDE900104020CDE9020100010490694611
:101CB0002846FFF76AFE22460321284600F028F94D
:101CC00005B030BD10B586B0044600210C20CDE92A
:101CD00000104020CDE90201000104906946204631
:101CE000FFF753FE034A0C21204600F037F806B0F8
:101CF00010BD000000E1F50510B586B004461920BE
:101D0000CDE9001040200290002003904FF4806045
:101D1000049069462046FFF738FE41F288321921C7
:101D2000204600F01BF806B010BD10B586B0044682
:101D30001820CDE9001040200290002003904FF4BD
:101D40008060049069462046FFF71FFE41F288320A
:101D50001821204600F002F806B010BD454B10B522
:101D60001B684FF4FA54B3FBF4F353435B1E02D2E7
:101D70004FF0004010BD426B12F0450FF6D0120537
:101D8000F4D4426B520703D504218163084610BD89
:101D9000426BD20702D00121816305E0C522826334
:101DA0000269D2B28A4201D0012010BD0021FFF7A2
:101DB000CCFD3149084201D1002010BD002802DAD3
:101DC0004FF0007010BD410001D5402010BD8100D2
:101DD00001D5802010BDC10002D54FF4807010BD28
:101DE000010102D54FF4007010BD410102D54FF43E
:101DF000806010BDC10102D54FF4006010BD01022A
:101E000002D54FF4805010BD410202D54FF400506E
:101E100010BD810202D54FF4804010BDC10202D531
:101E20004FF4004010BD410302D54FF4003010BD07
:101E3000810302D54FF4802010BDC10302D54FF4B9
:101E4000002010BD010402D54FF4801010BD4104E4
:101E500002D54FF4001010BD810402D54FF480006C
:101E600010BD000702D54FF4000010BD4FF48030C4
:101E700010BD00001000002008E0FFFD12494FF4E3
:101E8000FA520968B1FBF2F141F288325143491E1E
:101E900002D24FF000407047426B12F0450FF6D06F
:101EA0001205F4D4416B490703D504218163084628
:101EB0007047416BC90703D0012181630846704711
:101EC000C521816300207047100000200F494FF4A6
:101ED000FA520968B1FBF2F141F288325143491ECE
:101EE00002D24FF000407047426B12F0450FF6D01F
:101EF0001205F4D4416B490703D5042181630846D8
:101F00007047C52181630020704700001000002049
:101F100030B5204B4FF4FA541B68B3FBF4F341F295
:101F2000883463435B1E02D24FF0004030BD446BE7
:101F300014F0450FF6D02405F4D4436B5B0703D5AA
:101F400004218163084630BD436BDB0702D00121C9
:101F5000816303E00369DBB28B4201D0012030BD15
:101F6000C52181630021FFF7F0FC10F4604F04D01D
:101F7000410406D54FF4005030BD000C1080002005
:101F800030BD000402D54FF4805030BD4FF4803096
:101F900030BD0000100000202DE9F04788B00D464C
:101FA0000446FEF795FC00268246009601963746C9
:101FB00008212068FFF732FD002829D1B4F850002D
:101FC00001042068FFF7F6FC002821D1401E4FF0E5
:101FD0000808CDE9020830204FF00209CDE90409D4
:101FE0000120CDE9067002A92068FFF798FC20685F
:101FF000FFF71FFE00280BD16F462068416B11F0E0
:102000002A0F08D0416B09071AD5C0F8388008207C
:1020100008B0BDE8F087416B890205D5FFF7B2FC37
:1020200047F82600761C02E0416B8904EAD5FEF7EA
:102030004FFCA0EB0A00401CDFD14FF00040E7E767
:10204000416B890703D5C0F838900220E0E7416B67
:10205000890603D5202181630846D9E740F23A5129
:102060008163019800BA2860009800BA6860002077
:10207000CEE710B590B004460120ADF838002068D6
:10208000FFF75FFC002854D0606C032842D0206822
:10209000FFF7A3FD00284AD100212068FFF755FC77
:1020A000606704212068FFF750FCA06708212068C2
:1020B000FFF74BFCE0670C212068FFF746FCC4F8F3
:1020C0008000606C032825D00EA92068FFF7E2FD90
:1020D00000282CD1606C03281CD0BDF83800206586
:1020E00001042068FFF78FFD002820D1002120681F
:1020F000FFF72BFC606604212068FFF726FCA06632
:1021000008212068FFF721FCE0660C212068FFF71A
:102110001CFC206704212068FFF717FC000DE06419
:1021200003A92046FEF76CFF30B14FF0805010B08D
:1021300010BD4FF08060FAE7B4F8500000230204AD
:102140002068FFF731FD0028F1D104F1100007C825
:102150008DE8070094E80F00FFF7FAFB0020E6E7A0
:102160002DE9F84F0026044600963546B046006833
:10217000FFF786FC002827D12068FFF7A9FC4FF065
:10218000805B4FF001094FF6FF7748B1A6642068E5
:10219000FFF776FC002817D1A06C012802D020E0C0
:1021A000C4F8489000212068FFF704FC58B918E0F3
:1021B00000212068FFF7FEFB002805D1514620686A
:1021C000FFF712FC10B15846BDE8F88F00212068D7
:1021D000FFF7BBFB05464FEAD0780098401C009003
:1021E00002E0DFF82CA00098B84202D2B8F1000F4C
:1021F000DED00098B84202D34FF08070E4E7680068
:1022000002D5C4F8449000E066640020DCE70000DA
:10221000000010C110B5064C01202070FEF7E2F955
:1022200018B9207820F001002070207810BD00003F
:102230002400002010B5124888B014460078C0076A
:1022400002D0032008B010BDB9B1012905D0022980
:1022500008D003290CD00420F4E76846FEF7B0F953
:10226000069809E06846FEF7ABF90798208004E07D
:102270006846FEF7A5F9079820600020E2E7000015
:10228000240000202DE9F0411E461746084601258E
:10229000094C0A4B32463946FEF7C4F928B109E029
:1022A000641E02D20120BDE8F081FEF78FF90028FC
:1022B000F6D100252846F6E7A086010000E1F505E5
:1022C00010B5064C01202070FEF780F918B920786F
:1022D00020F001002070207810BD000024000020B4
:1022E0002DE9F0411E46174608460125094C0A4BC8
:1022F00032463946FEF7A6F928B109E0641E02D23B
:102300000120BDE8F081FEF761F90028F6D1002533
:102310002846F6E7A086010000E1F5057047FEF7C4
:10232000DDBA30B58FB028216846FEF751F8142188
:102330000AA8FEF74DF801210804CDE90010002499
:10234000029402250491CDE907504FF4E010099062
:102350006846FEF739FC08B172B6FEE70F20CDE9FA
:102360000A054FF48060CDE90C4002210AA80E94C2
:10237000FEF73EFB002801D072B6FEE70FB030BD7D
:102380007047000070B5044600680169E26821F4F6
:102390004051114301612169A06808436169084304
:1023A0002168CA6841F20C639A430243CA602068FC
:1023B0004169A26921F44071114341611E492068BD
:1023C000884202D1FEF7BAFB01E0FEF7A7FB00EB63
:1023D000C00101EB0012606864218000B2FBF0F3E1
:1023E000B3FBF1F36FF018067343B2FBF0F5B2FBE9
:1023F000F0F605EB8305322303EB0515B5FBF1F58C
:10240000B6FBF1F605F0F00505EB0615B2FBF0F6AC
:10241000B2FBF0F0B0FBF1F06FF01802504306EBA6
:10242000800003EB0010B0FBF1F0216800F00F001A
:102430002844886070BD0000003801402DE9F0415B
:10244000984617460E460446069D1DE0681C1BD0A4
:102450002DB1FEF73DFAA0EB0800A84214D9206880
:10246000C16821F4D071C1602068416921F0010187
:102470004161202084F83D0084F83E00002084F86B
:102480003C000320BDE8F0812068006836EA0000C7
:1024900004D00020B842D9D00020F3E70120F9E7AA
:1024A000FEE70907090E002804DB00F1E02080F8B0
:1024B0000014704700F00F0000F1E02080F8141DB8
:1024C0007047704710B50446002084F80402401E8F
:1024D000C4F82C02204601F0FBFE08B1032010BD19
:1024E000B4F8FE01A0F52A41553901D0022010BDF3
:1024F00094F83600B4F8371040EA01210848B0EBF0
:10250000012F08D094F85210B4F8532041EA022168
:10251000B0EB012F01D1002010BD012010BD000043
:102520000046415400E0401C02780AB18A42FAD1C8
:10253000D0B27047F0B50022184B144602EB4206A9
:1025400053F8265085B1D0F80072BD420DD103EB8F
:102550008605D0F808626F68B74206D12D89B0F8B9
:102560000662B54204D000E00124521C022AE5D3E1
:10257000022A01D079B904E05CB9022909D01220FD
:10258000F0BD02EB420003EB80004089B0F5807F94
:1025900001D00020F0BD1020F0BD0000F0000020B0
:1025A00030B50021064A0C4601EB410352F8235096
:1025B000854201D142F82340491C0229F4D330BDA1
:1025C000F0000020D0F82422D0F80002490A90F848
:1025D0000202B1FBF0F0121D02CA19B1884203D306
:1025E000401AF8E700207047116808447047D0F897
:1025F0001422891E921E8A4201D800207047D0F80A
:10260000282290F8020201FB002070472DE9F041DA
:102610000F00054606D001F0C1FB02280BD20120B5
:10262000BDE8F081D5F80C621EB1D5F81402B042B5
:1026300008D8012606E0411CF2D0D5F814128142D8
:10264000EED83E463446D5F81402641CA04202D8A7
:102650000224022E0AD32146284601F09FFB38B1FE
:10266000411CDDD00128DBD0B442ECD10020D7E7FB
:102670006FF070422146284601F045FE30B957B14F
:1026800022463946284601F03EFE20B1012812D0EC
:1026900001242046C4E7C5F80C42D5F81002411CBD
:1026A000F7D0401EC5F8100295F8050240F0010071
:1026B00085F80502EDE74FF0FF34EAE72DE9F84F22
:1026C000884682460D6800E06D1C28782F28FBD0D4
:1026D0005C28F9D00024DAF820722646A85D761C22
:1026E000202817D32F2815D05C2813D0402C32D2A5
:1026F000012101F073F95FEA00092CD0B9F1800FD4
:1027000004D2014668A0FFF70DFF20BB27F8149004
:10271000641CE3E7AA19C8F80020202801D2042588
:1027200017E0002515E000BF07EB440030F8020C6D
:1027300020280DD02E280BD06CB1002027F81400D3
:102740000B222021DAF8180201F0BBFD002606E07A
:10275000641E002CE8D10620BDE8F88F761C37F8FF
:1027600016002028FAD02E28F8D01EB145F0030517
:1027700000E0641E2CB107EB440030F8020C2E2858
:10278000F7D1002081464FF0080B009037F8160073
:1027900006F101065FEA000824D0B8F1200F04D04A
:1027A000B8F12E0F04D1A64202D045F00305EDE7A3
:1027B0000098584501D2A6421AD1BBF10B0F0FD099
:1027C000A64201D045F003050CD84FF00800009058
:1027D0004FEA896026464FF00B0B4FEA1069D5E7A8
:1027E00045F00305DAF818020178E52938D039E018
:1027F0004046B8F1800F10D3002101F0EFF85FEAF6
:10280000000805D02B4901EB080010F8800C804629
:1028100045F00205B8F1000F04D0014626A0FFF7ED
:1028200081FE20B14FF05F0845F003050FE0A8F1ED
:102830004100192802D849F0020908E0A8F1610016
:10284000192804D8413049F001091FFA80F8DAF854
:102850001822009902F801800098401C009095E72A
:1028600005210170BBF1080F03D14FEA89604FEADF
:102870001069C9F38100032803D06FEA09018907B1
:1028800001D145F00205A90709D409F00301012986
:1028900001D145F01005012801D145F00805DAF80D
:1028A0001802C572002057E7222A3A3C3E3F7C7F3F
:1028B00000000000F04500082B2C3B3D5B5D000054
:1028C000401E022815D20C4B00EB400203EB8201A4
:1028D0004889B0F5807F05D008B1401E80B248819C
:1028E00010B104E00020FAE7002043F822000020A5
:1028F0007047022070470000F00000202DE9FC5FC7
:102900000546002100F014FA00286ED1FF204FF692
:10291000FF7A00908146A5F824A200BFD5F81012D6
:10292000D5F8000201F0D4FC06000ED1D5F814420F
:10293000207848B1E17AE52801F03F0170D00A071C
:1029400004D50F296CD107E0042674E00F2903D0C9
:10295000B9F1000F4DD052E0D5F8201291B34206E4
:1029600008D5627B009220F04000B5F8062281462F
:10297000A5F82422484534D1627B0098824230D1A8
:1029800001912078A04620F04000401E00EB80011D
:102990000027DFF8A8B001EBC00601241BF80710E0
:1029A00001EB0800008874B101F034F80446402EB1
:1029B00017D2019830F81600761C01F02BF8A042CF
:1029C0000FD102E030E050450BD17F1C0D2FE5D335
:1029D00098F80000400609D544B1019830F8160077
:1029E00020B1FF2000F0FF091EE025E0A9F1010061
:1029F000F8E7204601F042FD009988421BD0D5F847
:102A00001802C17AC9070BD10A2101E0491E06D379
:102A100014F8012B10F8013BD21AF7D000E052B1A4
:102A20004FF0FF09A5F824A20021284600F008F87D
:102A300006003FF473AF3046BDE8FC9F70460008C7
:102A40002DE9F041B0F806620446761C30040F46CA
:102A5000000C37D0D4F8100298B3310773D1401C62
:102A6000C4F81002D4F80C12D4F8000231B190F876
:102A70000222521E12EA161F05D064E0B0F80802C6
:102A8000B0421FD95FE001F089F9054601281ED93F
:102A9000681C3AD0D4F80002D0F81412A94249D8E0
:102AA0007FB1D4F80C12FFF7B1FD05000DD0012D58
:102AB0000DD0681C29D0D4F8000201F047FD20BBDE
:102AC00007E0FFE70420BDE8F0810720FBE70220D4
:102AD000F9E74FF400720021D4F8000201F0F1FB95
:102AE0002946D4F80002FFF782FDD4F8001200272F
:102AF0004FF00108C1F82C0211E000BF80F80482F9
:102B0000D4F8000201F022FD08B10120DBE7D4F87F
:102B10000002D0F82C12491C7F1CC0F82C12D4F8EB
:102B2000000290F80212B942E8D8D0F82C12C91B62
:102B3000C0F82C12C4F80C522946D4F80002FFF752
:102B400056FDC4F81002A4F80662D4F8000206F09C
:102B50000F0100EB4110C4F814020020B3E700009D
:102B60002DE9FF5FD0F818720446D0F820620C22DD
:102B70003946684601F09CFB9DF80B00C0071AD04F
:102B80000020F8720125C4F820022B46324669461F
:102B9000384601F0C3F82046FFF7B0FE10B96D1CAF
:102BA000642DF2D3642D0CD004280BD19DF80B00BA
:102BB000F872C4F820629DF80B0080070FD5002042
:102BC00004E0072004B0BDE8F09F401C36F8101068
:102BD0000029FAD10D211930B0FBF1F600E00126F1
:102BE0000021204600F0A4F8A0B90027D4F8101264
:102BF000D4F8000201F06CFB60B9D4F8140200783C
:102C0000E5280AD048B1002701212046FFF718FF28
:102C10000028EBD0042812D012E07F1C3046B742C7
:102C2000F2D1461E5FEA060A5FD0B4F806122046CB
:102C3000A1EB0A0100F07CF8050003D074E0072046
:102C4000054671E0D4F8180201F018FCCDF80C002C
:102C5000D4F81012D4F8000201F03AFB050063D159
:102C6000D4F81412D4F82092039848730F20C87235
:102C70000020087388760AF0FF0BC876ABF10100DC
:102C800000EB800202EBC00500234FF6FF7E274ECB
:102C90004A1C01E0604503D039F81500F4466D1C6C
:102CA000F75CC85516F80380070A08F8027000B9E7
:102CB00060465B1C0D2BEDD3704502D039F8150032
:102CC00008B94BF0400B81F800B0D4F80012012095
:102CD00081F8040200212046FFF7B2FE050023D14F
:102CE000AAF101005FEA000AB2D1D4F81012D4F8B8
:102CF000000201F0EDFA050016D1D4F814022022EA
:102D0000002104F5007401F0DCFAD4E905010B227E
:102D100001F0CEFAA0696169C07A00F0180008736A
:102D20002168012081F8040228464BE7704600081C
:102D300070B5A0F80612D0F808320D460446012BF3
:102D400040D0D4F80002D0F8141299423AD933B9DD
:102D500090F80012032906D1D0F824321BB190F864
:102D60000202060114E0B0F80812A9422AD9D0F8EC
:102D7000240214E001F012F80346401C20D0022B7C
:102D800020D3D4F80002D0F8140298421AD9AD1B0F
:102D9000D4F80002B5421946ECD2FFF728FCC4F87B
:102DA0000C3278B100EB1510C4F81002D4F8000210
:102DB00005F00F0100EB4110C4F81402002070BDB3
:102DC000012070BD022070BD084910B50B5C0022C7
:102DD00053B901220A540A1801EB8000127A4068A4
:102DE0000168104688470246104610BD08010020C1
:102DF00030B4054C231804EB80001B7A406804694A
:102E00001846A44630BC60470801002030B4054D88
:102E10002C1805EB8000247A406885682046AC4673
:102E200030BC604708010020044A111802EB800002
:102E3000097A4068426808461047000008010020EF
:102E400030B4054D2C1805EB8000247A4068C56825
:102E50002046AC4630BC60470801002010B504464F
:102E600000F074FC00280DD1204601F09FFB0028E3
:102E700008D1D4F82802FFF723FD002802D1002151
:102E8000C4F8001210BD00002DE9F74F8EB01546B2
:102E90000F98012803D9132011B0BDE8F08F0EA8B8
:102EA00000F0DFFF002801DA0B20F5E7FE4951F8BA
:102EB000204054B1002184F80012C0B20390FFF703
:102EC00083FFC10703D00320E6E70C20E4E74007B7
:102ED00001D50A20E0E708AA01210398FFF788FF3F
:102EE00000287DD1089980297AD30F9808B1002055
:102EF00000E03F208046A1EB0801681E05420891D2
:102F000000D17DB94FF4FA60B1FBF0F20020E74B3D
:102F100000E0401C33F810509542FAD8E34A1632CC
:102F200032F81050B5F5007F00D36D0A85B1802DC1
:102F300000D98025B1FBF5F0012640F6F6729042EB
:102F400000D302264FF6F672904203D3032620E008
:102F50000125EFE7032E1CD0012E23D04000001DD9
:102F600000F2FF10470A4FF001092020834608EBCA
:102F7000090A0AEB0700584442190090A2EB080026
:102F8000884247D809AA03210398FFF731FFA0B967
:102F90000EE040F2072202EB8000470A4FF02009C2
:102FA0000020E3E700EB4000401C4008C01CD7E7CE
:102FB000099810B1B0F5004F01D901200990099985
:102FC00000980844401E491E88430099401A099001
:102FD000032E12D007440898A0EB0901CA1B00E099
:102FE000DDE0A2EB0B01B1FBF5F10D91022E07D054
:102FF000032E0AD0012E15D019E081448244EAE75D
:1030000040F6F672914205D311E008464FF6F6718C
:10301000884201D20E203FE70C2002900F9868B141
:10302000F02045E0B0F5803F06D20120F5E7B0F58D
:10303000803F01D20420F0E70620EEE74FF4007253
:103040000021204601F03DF904F5DF7001214170B7
:1030500081700021C170029A0271FE224271089BA8
:1030600008EB030243F6C163B2FBF3F23F2343EAEA
:10307000920C099280F806C0C2710372417281728B
:10308000C172089901730A0A42730A0C8273090E0D
:10309000C173552084F8FE01AA2084F8FF010123A2
:1030A000002221460398FFF7CBFE002877D1F820B5
:1030B00002904FF400720021204601F002F90B2229
:1030C0007BA1204601F0F4F80021E1720220207378
:1030D000657384F80E904FEA1920E0730120207484
:1030E000032E0BD040026074000AA0740898B0F55B
:1030F000803F05D2E074000A20750CE00020F2E762
:1031000084F82000020A84F82120020C84F822208E
:10311000000E84F82300029860753F20207600207E
:1031200060764FF0FF0984F81A90E07684F81C80EE
:103130004FEA182060774FEA1840A0774FEA1860EE
:10314000E07700F08CFE802129220990032E27D001
:1031500084F82700030A84F82830030C84F8293007
:10316000000E84F82A00A775380AE07584F8241048
:1031700084F82620132251A104F12B0001F098F8C5
:10318000552084F8FE01AA2084F8FF01012342465D
:1031900021460398FFF754FE002800D133E0BDE03C
:1031A00084F84300030A84F84430030C84F8453063
:1031B000000E84F8460084F82470380A84F825004C
:1031C000380C84F82600380E84F82700022084F892
:1031D0002C00002084F82D0084F82E0084F82F00A5
:1031E000012384F8303084F83100062384F832302B
:1031F00084F8330084F8401084F84220132234A16C
:1032000004F14700BAE7032E06D1012308F10602B4
:1032100021460398FFF714FE4FF400720021204668
:1032200001F04FF802990991032E12D0012E0ED011
:103230006FF0FF000843099020700998000A607041
:103240000998000CA0700998000EE0701EE0254857
:10325000F0E761F0FF00099020700998000A6070A3
:103260000998000CA0700998000EE07084F8049092
:1032700084F8059084F8069084F8079084F8089004
:1032800084F8099084F80A900F20E07252460AF1FF
:103290000109012321460398FFF7D2FDF0BB4FF44B
:1032A0000072002120461FE0200000207E4600081A
:1032B000EBFE904D53444F53352E30004E4F204E71
:1032C000414D452020202046415420202020200030
:1032D0004E4F204E414D4520202020464154333250
:1032E0002020200000FFFF0000F0EBFF01200AE09B
:1032F0004A4609F10109012321460398FFF7A0FD81
:1033000060B90998401C0990B842F1D3032E00D04F
:103310005D464A4609F10109012300E042E02146E9
:103320000398FFF78DFDE8BB6D1EF2D1032E3CD153
:103330005220207060706120A0704121E1707222E3
:1033400084F8E42184F8E52184F8E61184F8E701A3
:103350000D980123401E84F8E801010A84F8E91160
:10336000010C84F8EA11000E84F8EB01022084F8C5
:10337000EC01002084F8ED0184F8EE0184F8EF01FF
:10338000552084F8FE01AA2084F8FF0108F101020B
:1033900021460398FFF754FD012308F10702214657
:1033A000039800E009E0FFF74BFD00221146039867
:1033B000FFF71EFD00283FF478AD01206CE500000A
:1033C0002DE9F74181B0904602980090684600F0E0
:1033D00048FD040003D50B2004B0BDE8F0810E4E7B
:1033E000002756F8245025B12846FFF7D9F885F86C
:1033F00000720198002801D080F8007246F824007D
:1034000002D0B8F1010F01D00020E5E7002202A9A7
:1034100001A800F011FBDFE7200000202DE9F747AD
:10342000ADF52F7D06000ED04FF0000802F01F070B
:1034300027F00102B0A980A8C6F8008200F0FCFACB
:10344000040005D0B6E009200DF5327DBDE8F08717
:10345000ABA886908AA888906846B09900F018FCBE
:10346000859D04000BD11DB1780803D0012102E035
:10347000062404E000216846FFF75CF8044617F0D4
:103480001C0F5FD04FF0010AD4B1042C13D10020DF
:103490004A4902E0401C022805D200EB400251F8E4
:1034A0002220002AF6D1022804D06846FFF758FBF4
:1034B000044600E01224859D47F0080754B179E0E6
:1034C000E87A10F0110F01D0072473E0780701D5D6
:1034D00008246FE0380743D500F0C1FCA873010A47
:1034E000E973010C2974000E687485F80B8085F867
:1034F0001C8085F81D8085F81E8085F81F80294670
:10350000809800F01DFD81460021284600F0AEFFA6
:103510008099B9F1000F81F804A21FD08098494624
:10352000D0F82CA200F06BFF040043D18099A9F1E0
:103530000100C1F80C025146809800F0C9FE040059
:103540000AD037E0B4BBE87AC10601D5042431E0E3
:10355000B90701D5C007B7D1380701D547F0200713
:103560008098D0F82C02C6E98705780801D001219F
:1035700000E00021684600F093FCC6F82802D8B1AC
:1035800086F8067286F807824746294606F50076D1
:10359000809800F0D5FC3061287FD5F81D1040EAF6
:1035A0000120C6E90270B761776280983060B0F898
:1035B0000602B080204647E70224FBE7F000002027
:1035C0002DE9F84F884600219946154604461960B2
:1035D00000F0ECFF002812D194F8070200280ED169
:1035E00094F80602C00709D0D4E98201081A01271D
:1035F0004FF0020A854200D90546A2E00720BDE847
:10360000F88F00BFD4F80812C8057CD1D4F80002A6
:1036100090F80222521E02EA512212F0FF0614D143
:1036200031B1D4F8242232B12046FEF7CBFF06E0B8
:10363000D4F8100203E0D4F8141200F0AFFB022813
:1036400023D3411C5BD0C4F81402D4F81412D4F86C
:103650000002FEF7CCFFC0B130440090680A5FEA78
:10366000000B2AD0D4F8001206EB0B0291F80202EC
:10367000824201D9A0EB060B91F801025B4641465C
:10368000009AFFF7C3FBD0BB03E084F807A2022037
:10369000B5E794F8060240060CD5D4F81812009845
:1036A000081A584506D208EB40204FF40072214614
:1036B00000F0FEFD4FEA4B2637E0D4F818220098C0
:1036C000824221D094F8060240060ED5D4F80002BA
:1036D0000123214690F80102FFF7B2FB78B994F874
:1036E000060220F0400084F80602D4F8000201230C
:1036F000214690F80102009AFFF788FB20B184F878
:10370000077201207BE702E00098C4F81802B4F8C1
:103710000802C0F30800C0F50076AE4200D92E467C
:1037200001193246404600F0C3FDD4F80802B04407
:103730003044C4F80802D9F800008119AD1BC9F85B
:103740000010002D7FF45EAF002058E770B50446EE
:1037500000F02CFF002811D194F806128A060DD52E
:10376000480612D5D4F800020123214690F8010240
:10377000D4F81822FFF764FB08B1012070BD94F85B
:10378000060220F0400084F80602D4F81C12D4F897
:10379000000200F09DFD0028F0D1D4F82052E87A14
:1037A00040F02000E87294F80C022877B4F80C027C
:1037B000000A6877D4F80C02000CA877D4F80C0241
:1037C000000EE877D4F81012284604F5007400F0D3
:1037D0004DFE00F044FBA875010AE975010C29763D
:1037E000000E68760020A874E874A07920F020000C
:1037F000A0712168012081F804022068BDE87040B2
:1038000000F049BE2DE9F84F88460021994615463B
:103810000446196000F0CAFE002808D194F8070297
:10382000002804D194F80602800702D40720BDE8DE
:10383000F88FD4F80802012741194FF0020A81429B
:103840007BD3B9E0D4F80812C80577D1D4F80022A8
:1038500092F80202401E00EA512010F0FF061ED12D
:1038600031B1D4F8240240B12046FEF7ABFE09E0A6
:10387000D4F8100240B9002101E0D4F81412104627
:10388000FEF7C4FE002858D001283DD0411C6CD062
:10389000C4F81402D4F8101209B9C4F8100294F84C
:1038A0000602400610D5D4F800020123214690F804
:1038B0000102D4F81822FFF7C3FAE8BB94F8060215
:1038C00020F0400084F80602D4F81412D4F8000264
:1038D000FEF78DFEC0B130440090680A5FEA000B2D
:1038E00030D0D4F8000206EB0B0290F802128A42A4
:1038F00001D9A1EB060B90F801025B464146009A04
:10390000FFF79EFAC0B903E084F807A202208EE711
:10391000D4F818120098081A58450CD208EB402128
:103920004FF40072204600F0C3FC94F8060220F029
:10393000400084F8060202E017E040E01CE04FEA95
:103940004B262DE0D4F818120098814211D0D4E90A
:10395000820188420DD2D4F800020123214690F85A
:103960000102009AFFF752FA18B184F80772012099
:103970005DE70098C4F81802B4F80802C0F3080024
:10398000C0F50076AE4200D92E462044324641466C
:1039900000F08EFC94F8060240F0400084F8060225
:1039A000D4F80802B0443044C4F80802D9F8000042
:1039B0008119AD1BC9F80010002D7FF443AFD4E985
:1039C0008201884201D9C4F80C0294F8060240F042
:1039D000200084F80602002029E70000802804D394
:1039E0000B4A51B1FF2801D90020704702EB40007B
:1039F000A0F58050B0F8000F704732F811308342C4
:103A000003D0491C89B28029F7D38031C8B27047EE
:103A1000AA4600080021064B00E0491C33F811209B
:103A2000002A04D08242F8D1024830F811007047D1
:103A3000AA4700088A4900082DE9FF474FF000090E
:103A40000746C0F800901646084600F00AFA05003E
:103A500003D50B2004B0BDE8F0878A4850F8254014
:103A6000A4B13C6094F8000228B194F80102FFF779
:103A7000DBF9C1070CD084F80092E8B284F80102A7
:103A8000FFF7A2F9C10708D00320E3E70C20E1E724
:103A90000EB1400704D40020DCE71EB1400701D579
:103AA0000A20D7E7002529462046FEF70BFD01280E
:103AB00023D100204FEA0D0704EB001191F8C22139
:103AC00001F5DF712AB10A7AD1F8091042EA012121
:103AD00000E0002147F82010401C0428ECD3002609
:103AE00057F826502DB129462046FEF7EBFC08B9C1
:103AF00009E00220761C042EF2D3032801D0E0BB9B
:103B000001E00120A6E7B4F80B00B0F5007F60D11A
:103B1000E28A2AB994F82400D4F8251040EA012258
:103B2000C4F81822217C84F80312012901D002294B
:103B30004FD1607B514384F80202F0B1431E18421A
:103B400047D1B4F81130A4F808321E0741D1B4F8B7
:103B500013602EB994F82060D4F8217046EA072645
:103B6000B4F80EC0BCF1000F33D00CEB010707EB2B
:103B70001317BE422DD3F61B00E02AE0B6FBF0F08F
:103B800038B3012640F6F678404500D302264FF6BA
:103B9000F678404500D30326801C2F44C4F82872D1
:103BA000AC44C4F81402C4E9875C032E13D083B17B
:103BB0006144C4F82412022E19D000F0010100EB78
:103BC000400001EB500000BF00F2FF10B2EB502F9D
:103BD0000FD20D203EE7002BFBD194F82C10D4F827
:103BE0002D30800041EA0321C4F82412ECE74000A4
:103BF000EAE74FF0FF30C4F81002C4F80C0280204E
:103C000084F80502032E30D1208E01282DD12046C4
:103C1000691C00F05DFB40BB84F80592B4F8FE011E
:103C2000A0F52A41553920D12078D4F8011040EA76
:103C300001201549884218D194F8E401D4F8E5111F
:103C400040EA0120114988420FD194F8E801D4F8E4
:103C5000E91140EA0120C4F8100294F8EC01D4F80C
:103C6000ED1140EA0120C4F80C02064984F8006214
:103C7000091F0888401C0880A4F806022046FEF7A9
:103C80008FFC08E7200000205252614172724161AE
:103C900073B50446019801782F2901D05C2901D120
:103CA000401C01900025C4F8085201980078202893
:103CB00006D200212046FFF73BF8C4F814527CBD21
:103CC00001A92046FEF7FAFC0028F8D12046FEF7AD
:103CD00015FED4F81812C97A28B10428EFD1490783
:103CE000EDD405207CBD4907FCD4D4F81412C87A61
:103CF000C006F6D5D4F8000200F022F9C4F8080294
:103D0000DEE7000013B54FF6FF7301226946024853
:103D1000FDF742FD00981CBDAC0000207CB51646A6
:103D20001C4605460B2200F0C3FA052C11D91A4A8D
:103D30000CE00021B61C2346044663F35F044008F0
:103D4000E30300D55440491C1029F4D330880028DF
:103D5000EFD107214FEA0D0204F00F00303039286F
:103D600000D9C01D5054491E2409F5D17E2050545D
:103D7000002000E0401C884202D22B5C202BF9D1AD
:103D8000082902D2535C491C00E020232B54401C1C
:103D90000828F5D37CBD0000211001002DE9F04179
:103DA0000D46044602290DD3D4F81402A84209D9BD
:103DB00094F800024FF0FF36012807D002282AD0DD
:103DC000032836D001263046BDE8F081D4F8200221
:103DD00005EB550700EB5721204600F079FA002843
:103DE000F1D1C7F308007F1C14F80080D4F820023A
:103DF00000EB5721204600F06BFA0028E3D1C7F30F
:103E00000800215C48EA0120E90701D00609DAE749
:103E1000C0F30B06D7E7D4F8200200EB15212046AB
:103E200000F056FA0028CED1E8B204EB4000068834
:103E3000C9E7D4F8200200EBD511204600F048FA7B
:103E40000028C0D140F2FF1000EA8500204401782C
:103E5000D0F8010041EA002020F07046B3E70020CE
:103E6000704710B504464FF0FF302268002A13D087
:103E7000114600E0491C0B78202B0ED33A2BF9D1C8
:103E800012F8013B303B0A2B06D28A4204D1002BA8
:103E900002D1491C1846216010BD002010BD000051
:103EA000F0B50346254AD3F80042002000EB400558
:103EB00052F82560A6420BD102EB8505D3F80862C3
:103EC0006F68B74204D12D89B3F80662B54202D0BB
:103ED000401C0228EAD302281AD1002002E0401C2C
:103EE000022805D200EB400552F82550002DF6D1EE
:103EF000022815D000EB400542F8254002EB85046E
:103F0000D3F808626660B3F8063223810023638128
:103F1000002900EB400102EB8101498902D019B16F
:103F20000020F0BD491C01E04FF4807100EB40031C
:103F300002EB8302401C5181F0BD0000F000002024
:103F40000246488B92F80022032A02D1898A40EA6D
:103F500001407047ADF6880DFCF7C8FCFEF7E1F9AB
:103F6000FDF782FCFDF7ACFCFDF7BAFCFDF76EFC3B
:103F70004FF4806529468BA8FCF72AFA24224AA12F
:103F80000DF65C00FCF7F2F950A0FCF749F90122AC
:103F900058A10DF22C60FFF713FA04465648FCF7BF
:103FA0003FF90D2C06D0002C20D0214653A0FCF761
:103FB00037F9FEE75748FCF733F9002211464DA0C8
:103FC000FEF762FF18B154A0FCF72AF9FEE757A0EC
:103FD000FCF726F9012247A10020FFF7F1F90122A1
:103FE00044A10DF22C60FFF7EBF902E05DA0FCF7B5
:103FF00017F96148FCF714F90A2260A16846FFF737
:104000000DFA01000ED063A0FCF70AF967A0FCF7D7
:1040100007F9012259A16846FFF700FA010022D0F2
:104020005CA02DE06DA0FCF7FBF872A0FCF7F8F89F
:104030000DF5086324220DF65C016846FFF7E2FBEC
:10404000010007D077A000BFFCF7EAF86846FEF74A
:1040500005FFDBE77AA0DDF88018FCF7E1F80DF644
:104060005C017EA0F0E75DA0FCF7DAF80DF50863CF
:104070002A468BA96846FFF7A3FA01000BD07CA063
:10408000FCF7CEF86846FEF7E9FE012219A10020F0
:10409000FFF796F9FEE77BA0DDF88018FCF7C0F883
:1040A0008BA97EA0ECE70000546869732069732037
:1040B00053544D333220776F726B696E6720776986
:1040C0007468204661744673200D0A000D0A202A88
:1040D0002A2A2A2A2A204661744673204578616D6F
:1040E000706C65202A2A2A2A2A2A200D0A200D0A05
:1040F00000000000303A0000804B0008206D6F7512
:104100006E74206572726F72203A202564200D0A49
:1041100000000000144C000854686520666F726D42
:104120006174206661696C65640D0A0054686520DD
:1041300053442063617264207375636365737366AF
:10414000756C6C7920666F726D617474656420742F
:1041500068652066696C652073797374656D0D0AF6
:1041600000000000206D6F756E74207375636573B9
:1041700073212121200D0A00C84B0008303A466106
:104180007446732053544D3332637562652E7478D0
:1041900074000000206F70656E2066696C65206594
:1041A00072726F72203A2025640D0A000D0A2A2AC5
:1041B0002A2A2A2A2052656164206461746120667B
:1041C000726F6D2074686520746578742066696C00
:1041D0006573202A2A2A2A2A2A0D0A00206F706570
:1041E0006E2066696C652073756365737321212188
:1041F000200D0A000D0A2A2A2A2A2A2A2057726923
:104200007465206461746120746F20746865207423
:104210006578742066696C6573202A2A2A2A2A2AFE
:104220000D0A00002077726974652066696C65204C
:104230006572726F72203A2025640D0A000000003A
:104240002077726974652066696C65207375636593
:10425000737321212120282564290A00207772699F
:1042600074652044617461203A2025730D0A0000B2
:104270002072656164206572726F72212121202590
:10428000640D0A0072656164207375636573732140
:10429000212120282564290A00000000726561643C
:1042A0002044617461203A2025730D0A000000004B
:1042B00004E000BF11F8013B00F8013B521EF9D2A7
:1042C0007047C9B201E000F8011B521EFBD27047D3
:1042D00070B50546D0F82C020C460026A04210D03E
:1042E000284600F033F906000BD195F801020123AE
:1042F00022462946FEF78AFD08B1741E0126C5F83C
:104300002C42304670BD2DE9F04717460D46044655
:10431000022903D3D4F81402A84202D80220BDE82F
:10432000F08794F8001207F0FF084FF00109012907
:1043300020D0022950D00329F0D1D4F8200200EB7C
:10434000D5112046FFF7C4FF0028E8D140F2FF1145
:1043500001EA85010A194FF07043D2F8011003EA0F
:104360000121394311700B0A53700B0C9370090E25
:10437000D17041E0D4F8200205EB550600EB562140
:104380002046FFF7A5FF0028C9D1C6F30800761C18
:104390002044E90703D0017868F31F1100E0394693
:1043A000017084F80492D4F8200200EB56212046D4
:1043B000FFF78EFF0028B2D1C6F308012144EA07B7
:1043C00002D0C7F3071205E00A78C7F3032302F00F
:1043D000F0021A430A700FE0D4F8200200EB152116
:1043E0002046FFF775FF002899D1E9B204EB41019F
:1043F0003A0A81F800804A7084F804928FE72DE928
:10440000F0410F460646022917D3D6F81402B842E7
:1044100013D9002523E039463046FFF7BFFC0400DE
:1044200021D0012C09D0601C09D000223946304629
:10443000FFF769FF050016D103E0022513E001250F
:1044400011E0D6F81002411C08D0401CC6F810023A
:1044500096F8050240F0010086F805022746D6F8D6
:104460001402B842D7D82846BDE8F08181760A0AFE
:10447000C2760A0C0275090E41757047014600208C
:104480000B22430803EBC01011F8013B521E1844E5
:10449000C0B2F6D1704770B5044600F057F8050079
:1044A00052D194F80002032846D194F8050201285D
:1044B00042D1420200212046FFF703FF552084F835
:1044C000FE01AA2084F8FF01522020706070612054
:1044D000A0704121E170722284F8E42184F8E52182
:1044E00084F8E61184F8E701D4F8100284F8E801B2
:1044F000010A84F8E911010C84F8EA11000E84F82D
:10450000EB01D4F80C0284F8EC01010A84F8ED11F7
:10451000010C84F8EE11000E84F8EF01D4F81C228F
:104520000123521CC4F82C2294F801022146FEF704
:1045300087FC002084F80502002294F8010211464D
:10454000FEF756FC00B10125284670BD2DE9F0416B
:10455000044690F80402002728B3D4F82C5294F8AB
:10456000010201232A462146FEF76AFC08B1012711
:1045700019E0002084F80402D4F82002D4F81812BC
:10458000281A88420FD294F803620AE0D4F818027D
:104590000123054494F801022A462146FEF750FC07
:1045A000761E022EF2D23846BDE8F08110B588B1F1
:1045B000D0F8001271B191F800225AB1B1F8062278
:1045C000B0F80402824205D191F80102FEF72CFCFA
:1045D000C00700D0092010BD00000000000000004E
:1045E0000102030406070809000000000102030499
:1045F000809A90418E418F804545454949498E8F2B
:104600009092924F994F555559999A9B9C9D9E9F78
:1046100041494F55A5A5A6A7A8A9AAABAC21AEAF05
:10462000B0B1B2B3B4B5B6B7B8B9BABBBCBDBEBF12
:10463000C0C1C2C3C4C5C6C7C8C9CACBCCCDCECF02
:10464000D0D1D2D3D4D5D6D7D8D9DADBDCDDDEDFF2
:10465000E0E1E2E3E4E5E6E7E8E9EAEBECEDEEEFE2
:10466000F0F1F2F3F4F5F6F7F8F9FAFBFCFDFEFFD2
:1046700001030507090E10121416181C1E00000471
:10468000000200018000400020001000080004002B
:1046900002000000008000400020001000080040E0
:1046A00000200010000800040002C700FC00E90020
:1046B000E200E400E000E500E700EA00EB00E800CB
:1046C000EF00EE00EC00C400C500C900E600C60023
:1046D000F400F600F200FB00F900FF00D600DC0059
:1046E000A200A300A500A7209201E100ED00F300C5
:1046F000FA00F100D100AA00BA00BF001023AC00FC
:10470000BD00BC00A100AB00BB0091259225932504
:104710000225242561256225562555256325512529
:1047200057255D255C255B251025142534252C2572
:104730001C2500253C255E255F255A255425692525
:104740006625602550256C25672568256425652527
:1047500059255825522553256B256A2518250C25E2
:10476000882584258C2590258025B103DF009303BF
:10477000C003A303C303B500C403A6039803A9039E
:10478000B4031E22C603B50329226122B1006522AB
:10479000642220232123F7004822B0001922B70009
:1047A0001A227F20B200A025A000610062006300F1
:1047B0006400650066006700680069006A006B00BD
:1047C0006C006D006E006F0070007100720073006D
:1047D0007400750076007700780079007A00A100F7
:1047E000A200A300A500AC00AF00E000E100E200E1
:1047F000E300E400E500E600E700E800E900EA0085
:10480000EB00EC00ED00EE00EF00F000F100F20034
:10481000F300F400F500F600F800F900FA00FB00E0
:10482000FC00FD00FE00FF0001010301050107017E
:1048300009010B010D010F011101130115011701F0
:1048400019011B011D011F01210123012501270160
:1048500029012B012D012F013101330135013701D0
:104860003A013C013E014001420144014601480138
:104870004B014D014F0151015301550157015901A0
:104880005B015D015F016101630165016701690110
:104890006B016D016F0171017301750177017A017F
:1048A0007C017E019201B103B203B303B403B503EB
:1048B000B603B703B803B903BA03BB03BC03BD0314
:1048C000BE03BF03C003C103C303C403C503C603C0
:1048D000C703C803C903CA033004310432043304D4
:1048E0003404350436043704380439043A043B04EC
:1048F0003C043D043E043F0440044104420443049C
:104900004404450446044704480449044A044B044B
:104910004C044D044E044F045104520453045404F7
:10492000550456045704580459045A045B045C04A3
:104930005E045F047021712172217321742175213D
:1049400076217721782179217A217B217C217D2193
:104950007E217F2141FF42FF43FF44FF45FF46FF89
:1049600047FF48FF49FF4AFF4BFF4CFF4DFF4EFFFB
:104970004FFF50FF51FF52FF53FF54FF55FF56FFAB
:1049800057FF58FF59FF5AFF000041004200430003
:104990004400450046004700480049004A004B00DB
:1049A0004C004D004E004F0050005100520053008B
:1049B0005400550056005700580059005A00210075
:1049C000E0FFE1FFE5FFE2FFE3FFC000C100C2003E
:1049D000C300C400C500C600C700C800C900CA00A3
:1049E000CB00CC00CD00CE00CF00D000D100D20053
:1049F000D300D400D500D600D800D900DA00DB00FF
:104A0000DC00DD00DE007801000102010401060186
:104A100008010A010C010E01100112011401160116
:104A200018011A011C011E01200122012401260186
:104A300028012A012C012E013001320134013601F6
:104A400039013B013D013F0141014301450147015E
:104A50004A014C014E0150015201540156015801C6
:104A60005A015C015E016001620164016601680136
:104A70006A016C016E0170017201740176017901A5
:104A80007B017D01910191039203930394039503AC
:104A900096039703980399039A039B039C039D0332
:104AA0009E039F03A003A103A303A403A503A603DE
:104AB000A703A803A903AA031004110412041304F2
:104AC0001404150416041704180419041A041B040A
:104AD0001C041D041E041F042004210422042304BA
:104AE0002404250426042704280429042A042B046A
:104AF0002C042D042E042F040104020403040404D6
:104B0000050406040704080409040A040B040C0441
:104B10000E040F046021612162216321642165215B
:104B200066216721682169216A216B216C216D2131
:104B30006E216F2121FF22FF23FF24FF25FF26FF87
:104B400027FF28FF29FF2AFF2BFF2CFF2DFF2EFF19
:104B50002FFF30FF31FF32FF33FF34FF35FF36FFC9
:104B600037FF38FF39FF3AFF000000001522000828
:104B7000C122000885220008E12200083522000831
:104B80000D0A202A2A2A2A2A2A2052656769737464
:104B90006572207468652066696C6520737973742A
:104BA000656D206F626A65637420746F2074686538
:104BB000204661744673206D6F64756C65202A2AE7
:104BC0002A2A2A2A200D0A000D0A202A2A2A2A2AFD
:104BD0002A2043726561746520616E64204F7065A0
:104BE0006E206E657720746578742066696C652028
:104BF0006F626A656374732077697468207772697D
:104C0000746520616363657373202A2A2A2A2A2A1D
:104C1000200D0A00546865205344206361726420AB
:104C2000646F6573206E6F74207965742068617697
:104C30006520612066696C652073797374656D20E9
:104C4000616E642069732061626F757420746F20D7
:104C5000626520666F726D61747465642E2E2E20FD
:104C60000D0A0000844C000800000020280000000D
:104C70006C010008AC4C0008280000205013000014
:104C80008801000800000000010000001000000082
:104C9000000000000024F4000000000000000000FC
:0C4CA00000000000000000000100000007
:0400000508000131BD
:00000001FF
