:020000040800F2
:1000000040070020ED010008071B00084B1A0008FC
:10001000051B0008BD0700081926000800000000A5
:10002000000000000000000000000000952400080F
:10003000BF07000800000000091B00089724000803
:10004000070200080702000807020008070200086C
:10005000070200080702000807020008070200085C
:10006000070200080702000807020008070200084C
:10007000070200080702000807020008070200083C
:10008000070200080702000807020008070200082C
:10009000070200080702000807020008070200081C
:1000A000070200080702000807020008070200080C
:1000B00007020008070200080702000807020008FC
:1000C00007020008070200080702000807020008EC
:1000D00007020008070200080702000807020008DC
:1000E00007020008070200080702000807020008CC
:1000F00007020008070200080702000807020008BC
:1001000007020008070200080702000807020008AB
:10011000070200080702000807020008070200089B
:10012000070200080702000807020008070200088B
:1001300000F002F800F04AF80AA090E8000C8244AF
:100140008344AAF10107DA4501D100F03FF8AFF28C
:10015000090EBAE80F0013F0010F18BFFB1A43F0A5
:1001600001031847202B0000402B0000103A24BF49
:1001700078C878C1FAD8520724BF30C830C144BF0C
:1001800004680C607047000000230024002500264E
:10019000103A28BF78C1FBD8520728BF30C148BFEA
:1001A0000B60704703681B0A28BF41F08001642977
:1001B00000F07280782900F0E980F52900F0A8802D
:1001C000002070471FB51FBD10B510BD00F0C6FA66
:1001D0001146FFF7F7FF02F045FA00F0E4FA03B426
:1001E000FFF7F2FF03BC02F02FFA00000948804736
:1001F00009480047FEE7FEE7FEE7FEE7FEE7FEE709
:10020000FEE7FEE7FEE7FEE704480549054A064B20
:1002100070470000F9240008310100084001002067
:1002200040070020400300204003002070470000EA
:100230000FB4044910B503AA029800F061FA10BC8B
:100240005DF814FB0000002070B504468569006865
:10025000C10601D5302600E02026C00707D070BDBA
:10026000D4E9012130469047206A401C20626D1E6F
:10027000F6D570BD70B5044685690078C00707D112
:1002800070BDD4E9012120209047206A401C2062E3
:100290006D1EF6D570BD00002DE9F0410646002424
:1002A00010687529314616A510D0AFF300800028DC
:1002B00002DA404213A507E031688A0701D512A58A
:1002C00002E0490704D511A5012401E0AFF3008045
:1002D00000210A2206F1240709E0B0FBF2FCB0FB82
:1002E000F2F302FB1C00303078541846491C0028F9
:1002F000F3D123462A463046BDE8F04100F0A6B9C6
:10030000000000002D0000002B0000002000000075
:100310002DE9F0418046D21D22F007020025D2E9E6
:100320000002F52915A614D0011E72F1000106DAAB
:100330000023D0EB030063EB020211A608E0D8F81B
:1003400000108B0701D50FA602E0490701D50EA6C4
:1003500001251146002408F1240704E000F031F9DA
:1003600030323A55641C50EA0102F7D12B4632462E
:1003700021464046BDE8F04100F068B900000000A9
:100380002D0000002B0000002000000070B5044686
:100390000D4621461068AFF300802188090502D57B
:1003A0000F4A7A4402E00E4A7A440E32002104F1E8
:1003B000240305E000F00F060009965D5E54491C19
:1003C0000028F7D120780023000704D5702D02D033
:1003D00009B1022311322046BDE8704000F036B961
:1003E0002E2700002DE9F05F894604464FF0000AF1
:1003F000DFF874B1FB44C0F820A02046E1688847CC
:10040000002874D0252806D0D4E901219047206A1D
:10041000401C2062F1E700265F462046E1688847DD
:100420002028054607DB312D05D2781910F8200C5D
:1004300008B10643F1E7B00701D526F00406C4F879
:100440001CA00027C4F818A02A2D09D0284602F0C5
:10045000F4F838B304EB8708303DC8F8185019E0B9
:1004600059F8041B204604EB87029161E168884734
:10047000012F054618D1E069002820DA26F0200671
:100480001DE0D8F8180000EB800005EB4000303884
:10049000C8F818002046E1688847054602F0CDF804
:1004A0000028EED1012F0AD02E2D08D12046E16878
:1004B00088477F1C0546022F46F02006C4DBA06952
:1004C000002803DA404246F00106A061F00701D09F
:1004D00026F010066C2D0BD0682D09D04C2D39D08C
:1004E0006A2D35D0742D35D07A2D33D016E038E012
:1004F000E1682F4620468847B842054609D16C2F4F
:1005000026D04FF48060E1680643204688470546C0
:1005100004E06C2F1AD04FF4807006430DB3A5F1A0
:100520004100192802D8203546F400664A4629467B
:10053000204626604E46FFF735FE80B101280BD0DD
:10054000F61D26F0070000F1080956E74020E4E711
:100550008020D8E70020D6E706F104094DE72846B9
:1005600052E7206ABDE8F09F042700004FF0000228
:1005700000B5134694469646203922BFA0E80C5099
:10058000A0E80C50B1F12001BFF4F7AF090728BF74
:10059000A0E80C5048BF0CC05DF804EB890028BFF0
:1005A00040F8042B08BF704748BF20F8022B11F019
:1005B000804F18BF00F8012B704770477047704795
:1005C000704730B5B0F10A024FEA900E71F10003A6
:1005D0004EEA817EB0EB0E0061EB91014FEA101EF6
:1005E0004EEA017E10EB0E0041EB11114FEA102E86
:1005F0004EEA016E10EB0E0041EB11214FEA104E56
:100600004EEA014E10EB0E0041EB1141401841F152
:1006100000014FEAD00040EA41704FEAD10110EBEF
:1006200080054FEA810444EA907444EB01046D199B
:1006300044EB0404521BA3414FF0000348BF0A32AD
:1006400000D530BD401C41F1000130BD2DE9F0471F
:100650000D4699469246044600F124080168880632
:1006600004D5E06921F01001216000E00120A842DA
:1006700001DD471B00E00027A1697A1902EB0900A0
:10068000081AA0612078C00602D42046FFF7DCFDDE
:10069000002608E0D4E901211AF806009047206AF4
:1006A000401C761C20624E45F4DB2078C0060AD53B
:1006B0002046FFF7C9FD06E0D4E90121302090472C
:1006C000206A401C2062381EA7F10107F4DC07E015
:1006D000D4E9012118F805009047206A401C2062E7
:1006E000281EA5F10105F3DC2046FFF7C3FD2078A5
:1006F000000602D50220BDE8F0870120FBE70000DC
:10070000074B70B50D467B4400F011F804462846AF
:1007100000F020F810B14FF0FF3070BD204670BDE2
:10072000431F000001694A1C02610878704700B548
:100730008FB0CDE901310021059105497944CDE91A
:10074000031011466846FFF74DFE0FB000BD0000D4
:10075000E5FFFFFF007B00F080007047754600F06A
:1007600029F8AE4605006946534620F00700854645
:1007700018B020B5FFF748FDBDE820404FF0000657
:100780004FF000074FF000084FF0000B21F0070179
:10079000AC46ACE8C009ACE8C009ACE8C009ACE8BC
:1007A000C0098D4670470446AFF300802046FFF72E
:1007B00016FD000000487047DC000020FEE770478F
:1007C00072B6FEE770B5044600F00AF90546601CF3
:1007D00002D004480078044400F002F9401BA04213
:1007E000FAD370BD040000202DE9F84FDFF8C8915E
:1007F000002409F1040A0AF1040B23460F270BF128
:10080000040ED1E00125A54006EA0502AA4276D1F0
:10081000DFF8A8C14E68A6EB0C0866452BD00DDCAE
:10082000032E34D005DC36B3012E19D0022E2FD181
:100830001BE0112E16D0122E2AD119E0B8F5881F10
:1008400019D006DCB8F5803F15D0B8F5801F1FD150
:1008500011E0B8F5001F0ED0B8F5041F18D10AE05A
:10086000CB6815E0CB681B1D12E0CB6808330FE0A6
:10087000CB680C330CE08B682BB1012B4FF00803D5
:1008800003D0456104E0042302E0056100E0002399
:10089000FF2A01D8064601E000F104064FEA84056C
:1008A00001D9A5F12005D6F8008007FA05FC28EA51
:1008B0000C0803FA05F548EA0508C6F800804D68FB
:1008C000ED0070D53E4DAE6946F00106AE61AD69F2
:1008D00024F0030605F0010500953A4D06EB050CE2
:1008E000DCF80850A607360F07FA06F825EA0805CF
:1008F000DFF8D480404503D14FF0000825E052E0F6
:10090000DFF8C880404502D14FF001081DE0DFF854
:10091000C080404502D14FF0020816E0DFF8B480F5
:10092000404502D14FF003080FE0DFF8AC804045AE
:1009300002D14FF0040808E0DFF8A080404502D162
:100940004FF0050801E04FF0060808FA06F848EAFB
:100950000508CCF808804D68D9F80060ED034D46D5
:1009600001D5164300E096432E604D68DAF800602A
:10097000AD03554601D5164300E096432E604D6801
:10098000DBF80060ED025D4601D5164300E09643BA
:100990002E604D68DEF80060AD02754601D5164345
:1009A00000E096432E60641C0A681646E2407FF41D
:1009B00029AFBDE8F88F00000004014000001110CD
:1009C000001002400000014000080140000C0140FE
:1009D000001001400014014000180140001C0140BB
:1009E00001488068704700000400002002488168C8
:1009F000027811448160704704000020074810B558
:100A0000016841F010010160032000F067F80F2039
:100A100000F006F800F024F8002010BD002002408D
:100A200070B50D4D04464FF47A712878B1FBF0F0A3
:100A30000A490968B1FBF0F000F030FF48B9102C0A
:100A400007D200222146501E00F028F800206C60DA
:100A500070BD012070BD00000400002010000020C7
:100A60000C4808B5816941F001018161816901F09B
:100A700001010091C16941F08051C161C06900F07C
:100A8000805000900448416821F0E06141F000711D
:100A9000416008BD0010024000000140F0B40E4B60
:100AA0001B680C46C3F30223C3F10705042D00D9CC
:100AB0000425191D072901D2002300E0DB1E0126B1
:100AC00006FA05F1491E214099409E40761E1640C7
:100AD0003143F0BC01F0A1BD0CED00E0064900F08F
:100AE000070208684FF6FF03184040EA0220034A55
:100AF00010430860704700000CED00E00000FA05AC
:100B00002DE9F0470F46050061D0434E306800F0F4
:100B10000700B84209D2306820F00700384330603F
:100B2000306800F00700B84251D128683B4C81077B
:100B300012D5400703D5606840F4E0606060287813
:100B4000000703D5606840F4605060606068A96881
:100B500020F0F000084360602878C00728D068685B
:100B6000012810D02168022810D0890700292EDA28
:100B7000616821F0030101436160FFF731FF8046A6
:100B800041F288390DE021688903EFE78901EDE73B
:100B9000FFF726FFA0EB0801494502D90320BDE875
:100BA000F0876068696800F00C00B0EB810FEFD14E
:100BB000306800F00700B8420BD9306820F0070019
:100BC00038433060306800F00700B84201D001209F
:100BD000E5E72878400705D56068E96820F4E0601B
:100BE000084360602878000706D56068296920F40A
:100BF000605040EAC100606000F038F86168084A5F
:100C0000C1F30311515CC8400649086006480068FA
:100C1000FFF706FF0020C2E700200240001002405C
:100C2000BC2A0008100000200800002004480549E4
:100C300000684968044AC1F30221515CC84070470A
:100C40001000002000100240CC2A0008044805498A
:100C500000684968044AC1F3C221515CC84070472A
:100C60001000002000100240CC2A000812A185B01C
:100C70000FC98DE80F0014A0144A00680490516851
:100C8000134801F00C03042B10D0082B0ED1C1F334
:100C90008343C9031DF803000AD5516804AAC1F3B0
:100CA0004041515C0A4A5043B0FBF1F005B0704737
:100CB00008494843FAE7000002030405060708094B
:100CC0000A0B0C0D0E0F1010010200000010024064
:100CD00000127A0000093D002DE9F84F040070D0A1
:100CE0002078C04DC00749D06868C0F38100012852
:100CF00007D06868C0F38100022809D16868C00382
:100D000006D52868800339D560680028E7D035E02B
:100D10006068B0F5803F0BD010B1B0F5A02F11D0B6
:100D2000286820F480302860286820F4802002E0C1
:100D3000286840F480302860606890B1FFF750FE6A
:100D400006460AE0286840F480202860F0E700BFEB
:100D5000FFF746FE801B642873D828688003F7D508
:100D60000CE0FFF73DFE064605E000BFFFF738FE4A
:100D7000801B6428F0D828688003F7D420789A4E26
:100D800080074FF001094FF0000839D5686810F06E
:100D90000C0F07D06868C0F38100022809D1686889
:100DA000C00306D42868800714D52069012808D11B
:100DB00010E02069B0B1C6F80090FFF711FE0746B9
:100DC00005E00AE1FFF70CFEC01B0228C4D8286822
:100DD0008007F7D52868616920F0F80040EAC10073
:100DE00028600DE0C6F80080FFF7FAFD074604E032
:100DF000FFF7F6FDC01B022823D828688007F7D428
:100E0000207800072CD57948A169D9B1C0F80090A5
:100E1000FFF7E6FD074604E0FFF7E2FDC01B0228EE
:100E20000FD8686A8007F7D571484FF4FA51006807
:100E3000B0FBF1F0009000BF0098411E0091FAD283
:100E40000EE080E0C0F80080FFF7CAFD074604E02E
:100E5000FFF7C6FDC01B022875D8686A8007F7D463
:100E60002078400760D5E8690027C00008D4E86909
:100E700040F08050E861E869012700F08050009060
:100E80005C480168C90513D40168834641F4807148
:100E90000160FFF7A5FD824606E000BFFFF7A0FD59
:100EA000A0EB0A0064284ED8DBF80000C005F5D599
:100EB000E06801280AD008B1052813D0286A20F07C
:100EC00001002862286A20F0040002E0286A40F04D
:100ED00001002862E06841F2883B98B1FFF780FD8D
:100EE00082460BE0286A40F004002862EEE700BF6B
:100EF000FFF776FDA0EB0A0159455AD8286A80070A
:100F0000F6D50CE0FFF76CFD824605E0FFF768FDC3
:100F1000A0EB0A0159454CD8286A8007F6D41FB1C6
:100F2000E86920F08050E861E06988B36968C1F33E
:100F30008101022944D00228C6F8608004D0FFF75E
:100F40004FFD044638E034E0FFF74AFD074604E071
:100F5000FFF746FDC01B02282BD828688001F7D474
:100F6000206AB0F5803F05D16868A16820F40030A0
:100F700008436860D4E908010843696821F47411E2
:100F800008436860C6F86090FFF72AFD044606E053
:100F900025E000BFFFF724FD001B022809D82868C0
:100FA0008001F7D51BE000BFFFF71AFD001B0228E8
:100FB00002D90320BDE8F88F28688001F4D40EE040
:100FC0000128F7D06868226A00F48031914204D188
:100FD000616A00F47010884201D00120EAE7002025
:100FE000E8E7000000100240000042428004424254
:100FF00010000020007000402DE9FE43044600264A
:1010000003200D4684F83400606C03285ED0B5F5EB
:10101000805F5BD04FF4006700204FF08068BD42D6
:101020001FD18146009001900021206800F083FDCF
:10103000800113D46946204601F0EEF807000DD177
:101040000198400334D5B4F850000104206800F042
:10105000A7FD070002D10221206823E0A06B3843DE
:1010600028E01DB1A06B40F0006023E081460090B5
:1010700001900021206800F05EFD8001EED46946F9
:10108000204601F0C9F80700E8D10198C0030FD548
:10109000B4F850000104206800F082FD0700DDD1A3
:1010A0000021206800F0C9FD0700D7D14F46D5E7E1
:1010B0004746D3E7A063A06B144F4FF0010848B137
:1010C0002068876384F8348001260EE0A06B40F02E
:1010D0008050EFE7211DD4E9050C0EC9CDE9005081
:1010E000CDF808C0206800F029FD4FF40071206899
:1010F00000F08AFD28B121688F63A16B0143A163D1
:10110000012684F834803046BDE8FE83FF054000A8
:101110002DE9F041044690F834000E4615460128AA
:1011200002D00220BDE8F0810020A063B54203D2C6
:10113000A06B40F0006005E0E06DA84204D2A06B17
:1011400040F00070A0633CE0032084F8340094F881
:101150004C00DFF87C8080064FF0010706D4216840
:10116000C1F83880A06B40F080600BE0002120685F
:1011700000F0E1FC800107D52168C1F83880A06B40
:1011800040F40060A0631AE0606C012803D076028E
:101190006D02032809D03146206800F02CFE40B9CA
:1011A0002946206800F00EFE18B9206800F05EFDA8
:1011B00048B12268C2F83880A16B0143A16384F86A
:1011C00034700120AEE784F834700020AAE70000F4
:1011D000FF05400050F8742F120E0A700268120AC0
:1011E0004A8002784368120642EA13224A60027972
:1011F0000A728268120E4A728268C368120242EA58
:101200001362CA60C268C2F303520A74C268C2F3AE
:101210000B224A82007BC0F3460008750120487506
:1012200000207047F0B5426E920F0A70426EC2F312
:1012300083624A70426EC2F301628A70426E120C7F
:10124000CA70B0F86420120A0A7190F864204A71DA
:10125000826E120DCA80826EC2F303420A72B0F827
:101260006820C2F3C0324A72B0F86820C2F38032FC
:101270008A72B0F86820C2F34032CA72B0F86820AF
:10128000C2F300320A7300264E73426C4FF40075AD
:10129000012462B1012A3AD0026847499163816B07
:1012A00041F08051816380F834400120F0BDB0F8F6
:1012B0006820C36E9205120D42EA93720A61C26EF3
:1012C000C2F3C2620A75C26EC2F302624A75C26E8E
:1012D000C2F342528A75C26EC2F38242CA75C26EAE
:1012E000C2F3C2320A760A69521C42650B7E03F0D1
:1012F00007039B1C9A4042650B7A03F00F0704FA20
:1013000007F383655B0A5A43C0E917250EE090F89E
:101310006820C36E9206920A42EA13420A610A6981
:10132000521C92024265C0E91652056630F86C2FD5
:10133000C2F3803201F8192F0288C2F3C6124A7034
:10134000027802F07F028A704268D20FCA70426847
:10135000C2F341720A714268C2F382624A71426802
:10136000C2F383528A714268C2F34052CA710E724C
:101370004268C2F300424A728288C2F3C0328A7263
:101380008288C2F38032CA728288C2F340320A7302
:101390008288C2F300324A738288C2F381228A7340
:1013A0008288C2F30122CA730079C0F34600087430
:1013B0004C740020F0BD0000FF05400070B50446ED
:1013C000B0F8500000250104206800F08AFD18B133
:1013D000A16B0143A16304E00021206800F0ABFB96
:1013E0000546C5F3432070BD70B504000ED094F8D7
:1013F0003400002518B92577204600F04BF803206B
:1014000084F83400204600F00BF808B1012070BDCC
:10141000A5632563012084F83400002070BD00001E
:10142000FEB50025044676200095CDE901502946F9
:101430000B460A46206800F081FB28BB134E46F895
:10144000A05F206800F08CFB01253560204600F08D
:10145000C7FF28B184F83450A16B0143A16313E0A6
:10146000204600F046FF0028F4D14FF400712068B8
:1014700000F0CAFB002808D0226805499163A16BDF
:101480000143A16384F834500120FEBD00003042C6
:10149000FF05400030B585B0002100910191029117
:1014A00003910068184988422BD11848416941F4DA
:1014B00080614161416901F480610491816941F079
:1014C00010018161816901F010010491816941F08D
:1014D000200181618069022400F0200004904FF413
:1014E000F850CDE900040325694603950848FFF745
:1014F0007BF90420CDE90004694603950548FFF710
:1015000073F905B030BD00000080014000100240BA
:1015100000100140001401402DE9F04F87B09B46B8
:1015200016460D460446FFF75BFA00903DB194F86D
:101530003400012807D0A06B40F000500DE0A06BF4
:1015400040F0006009E00020A063E26D06EB0B01B3
:10155000914204D9A06B40F00070A06386E00321A3
:1015600084F834102168C862616C012900D07602C9
:101570004FF0FF3101914FEA4B2102914FF00108EA
:1015800003AA902102278146CDF8188082E88202C2
:1015900001A9206800F0B9FABBF1010F05D9276352
:1015A0003146206800F0DCFB05E0C4F830803146AD
:1015B000206800F0EEFBDFF834A130B12268C2F8F9
:1015C00038A0A16B0143A1634CE0029E1EE0406B7A
:1015D000000413D596B10027206800F0C9FA05F879
:1015E000010B010A05F8011B010C05F8021B000E96
:1015F000361F7F1C05F8010C082FEDD3FFF7F0F91B
:101600000099411A109881421DD2E0B12068426BC6
:1016100040F22A310A42DAD0416BC90509D5BBF143
:10162000010F06D9616C032903D000F08BFC002860
:10163000C4D12068416B09071AD5C0F838A0A06B47
:1016400040F0080050E02168C1F838A0A06B40F0DD
:101650000040A06384F83480C4F83090032007B0C1
:10166000BDE8F08F84F83480C4F830900120F6E7AC
:10167000416B890705D5C0F838A0A06B40F0020087
:1016800032E0416B89061BD5C0F838A0A06B40F052
:10169000200029E000F06CFA05F8010B010A05F8BA
:1016A000011B010C05F8021B000E05F8010C361F8A
:1016B000FFF796F90099411A109881420ED268B14D
:1016C0002068416B890201D5002EE3D1216840F2E8
:1016D0003A50886384F834800020C0E72168C1F85C
:1016E00038A0A06B40F00040A063BBE7FF054000BE
:1016F0002DE9F04F8DB09B4616460D460446FFF788
:101700006FF90A903DB194F83400012807D0A06B1E
:1017100040F000500DE0A06B40F0006009E00020B8
:10172000A063E26D06EB0B01914204D9A06B40F07F
:101730000070A0637AE0032184F834102168C86245
:10174000616C012900D076024FF0FF3103914FEA1E
:101750004B2104919021CDE905104FF00109CDE90D
:101760000709824603A9206800F0CFF9BBF1010FF9
:1017700006D9202020633146206800F0FDFB05E0FB
:10178000102020633146206800F00FFC5FEA00085B
:1017900006D0216840488863A06B40EA080071E0E9
:1017A000049E27E0406B40041CD5DEB15FF00007CB
:1017B00015F8010B009015F8011B361F40EA0120B7
:1017C000009015F8021B40EA0140009015F8011C3A
:1017D00040EA016000906946206800F0DCF97F1C57
:1017E000082FE5D3FFF7FCF80A99411A16988142B1
:1017F00020D2F8B12068416B40F21A321142D1D0A8
:10180000416BC90523D5BBF1010F20D9616C0329B8
:101810001DD000F097FBD0B122681F499163A16BE6
:101820000143A16384F83490C4F830A001200DB0C6
:10183000BDE8F08F216818488863A06B40EA080073
:10184000A06384F83490C4F830A00320EFE7206848
:10185000416B090705D510498163A06B40F0080072
:1018600010E0416B890705D50B498163A06B40F0FF
:10187000020007E0416BC90606D507498163A06BEA
:1018800040F01000A063CDE740F23A51816384F844
:1018900034900020CBE70000FF05400010B5401E4B
:1018A000B0F1807F01D3012010BD4FF0E0246061D2
:1018B0000F21601700F0B1FE0020A0610720206119
:1018C000002010BD70B5040004D094F83D00002540
:1018D00010B106E0012070BD84F83C50204600F0B5
:1018E00023F8242084F83D002068C16821F40051C9
:1018F000C160204600F002FE2068016921F4904199
:1019000001612068416921F02A0141612068C168B4
:1019100041F40051C1602564202084F83D0084F822
:101920003E00002070BD000030B585B0002400945A
:1019300001940294039400681449884224D1144805
:10194000816941F480418161816901F480410491A0
:10195000816941F00401816180690E4D00F004004D
:1019600004904FF400700090022001900320039037
:1019700069462846FEF738FF2815CDE90004694678
:1019800028460294FEF730FF05B030BD0038014014
:1019900000100240000801402DE9F843044690F889
:1019A0003D001F4616460D4620284CD1C5B1BEB19C
:1019B00094F83C00012846D0012084F83C004FF008
:1019C0000008C4F84080212084F83D00FFF708F8A3
:1019D000A6848146E684A068B0F5805F03D004E069
:1019E0000120BDE8F883206928B12E465FF000058C
:1019F00084F83C800EE00026FAE78021204600F0C3
:101A0000D9FDA0B9AEB116F8010B21684860E08C91
:101A1000401EE084E08C4B464FF000020097002807
:101A2000EBD14FF04001204600F0C4FD30B103205F
:101A3000D7E735F8020BC0F30800E6E7202084F86A
:101A40003D000020CDE70220CBE7FEE70D4808B5BA
:101A5000816941F010018161816901F010010091FB
:101A6000816941F004018161816901F00401009103
:101A7000816941F020018161806900F020000090BF
:101A800008BD0000001002400F4810B50D4901606C
:101A9000002141608160C160016141612221816159
:101AA000FFF7A2FC08B1FEF78BFE4FF40061064879
:101AB000FFF7A2FA002803D0BDE81040FEF780BE71
:101AC00010BD000000800140140000200C4810B53B
:101AD0000A4901604FF4E1314160002181600C222C
:101AE000C160C0E904128161C161FFF7EBFE00280B
:101AF00003D0BDE81040FEF763BE10BD00380140C2
:101B000098000020FEE7FEE770470A6842624A68D4
:101B10008262D1E902231A43D1E904310B43C16A3D
:101B20001A4321F0F7011143C16200207047006899
:101B300000F00300704708444069704770B50DF12C
:101B4000100C11439CE87000234319432943426859
:101B5000314347F6FF639A430A434260002070BD59
:101B600010B5032101600220FEF72CFE002010BDFD
:101B7000D0F8800070470A688260D1E901231A43D7
:101B8000D1E903310B43C1681A436FF30B011143D1
:101B9000C160002070470968C0F8801000207047BD
:101BA00010B586B004463720CDE9001040200290E1
:101BB000002003904FF48060049069462046FFF7B0
:101BC000DAFF41F288323721204600F007FA06B0EA
:101BD00010BD000010B504460A4886B00143292014
:101BE000CDE9001040200290002003904FF4806067
:101BF000049069462046FFF7BEFF204600F0A6FA93
:101C000006B010BD0000108010B586B0044610204C
:101C1000CDE9001040200290002003904FF4806036
:101C2000049069462046FFF7A6FF41F28832102152
:101C3000204600F0D3F906B010BD10B586B00446BA
:101C40000620CDE9001040200290002003904FF4C0
:101C50008060049069462046FFF78DFF41F288328C
:101C60000621204600F0BAF906B010BD10B586B0C6
:101C7000044600212620CDE900104020CDE90201D4
:101C80000001049069462046FFF775FF4FF2186285
:101C90002621204600F0A2F906B010BD30B585B06F
:101CA00000240546009401944FF480600294CDE92D
:101CB000034069462846FFF75EFF0B484FF4FA5190
:101CC0000068B0FBF1F041F288314843401E03D276
:101CD0004FF0004005B030BD696B0906F6D5C52050
:101CE000A8632046F6E700001000002070B585B01C
:101CF00004464FF4D570009001A908204025002625
:101D000081E86100C001049069462046FFF733FF77
:101D100012484FF4FA510068B0FBF1F041F28831FB
:101D20004843401E03D24FF0004005B070BD616BC8
:101D300011F0450FF5D00905F3D4606B400701D5CC
:101D4000042003E0606BC00702D00120A063ECE731
:101D5000606B400600D5A5633046E6E71000002022
:101D600010B586B004461220CDE900104020029044
:101D7000002003904FF48060049069462046FFF7EE
:101D8000FAFE41F288321221204600F027F906B00F
:101D900010BD10B586B004461120CDE900104020DA
:101DA0000290002003904FF4806004906946204622
:101DB000FFF7E1FE41F288321121204600F00EF9D2
:101DC00006B010BD10B586B004462120CDE9001044
:101DD00040200290002003904FF4806004906946F8
:101DE0002046FFF7C8FE41F288322121204600F04C
:101DF000F5F806B010BD10B586B004462020CDE938
:101E0000001040200290002003904FF48060049066
:101E100069462046FFF7AFFE41F288322021204676
:101E200000F0DCF806B010BD10B586B004460720FF
:101E3000CDE9002040200290002003904FF4806004
:101E4000049069462046FFF796FE41F2883207214A
:101E5000204600F0C3F806B010BD10B586B00446A9
:101E600000210220CDE90010C020CDE902014FF48D
:101E70008060049069462046FFF77DFE204600F012
:101E80003DF906B010BD10B586B004460920CDE975
:101E90000010C0200290002003904FF48060049056
:101EA00069462046FFF767FE204600F027F906B096
:101EB00010BD10B586B0044600213320CDE90010D6
:101EC0004020CDE902010001049069462046FFF759
:101ED00052FE41F288323321204600F07FF806B0EE
:101EE00010BD10B586B004460D20CDE9001040208D
:101EF0000290002003904FF48060049069462046D1
:101F0000FFF739FE41F288320D21204600F066F8D5
:101F100006B010BD30B585B00C4605460021032043
:101F2000CDE900104020CDE902010001049069468E
:101F30002846FFF720FE22460321284600F028F914
:101F400005B030BD10B586B0044600210C20CDE9A7
:101F500000104020CDE902010001049069462046AE
:101F6000FFF709FE034A0C21204600F037F806B0BF
:101F700010BD000000E1F50510B586B0044619203B
:101F8000CDE9001040200290002003904FF48060C3
:101F9000049069462046FFF7EEFD41F28832192190
:101FA000204600F01BF806B010BD10B586B0044600
:101FB0001820CDE9001040200290002003904FF43B
:101FC0008060049069462046FFF7D5FD41F28832D3
:101FD0001821204600F002F806B010BD454B10B5A0
:101FE0001B684FF4FA54B3FBF4F353435B1E02D265
:101FF0004FF0004010BD426B12F0450FF6D01205B5
:10200000F4D4426B520703D504218163084610BD06
:10201000426BD20702D00121816305E0C5228263B1
:102020000269D2B28A4201D0012010BD0021FFF71F
:1020300082FD3149084201D1002010BD002802DA9A
:102040004FF0007010BD410001D5402010BD81004F
:1020500001D5802010BDC10002D54FF4807010BDA5
:10206000010102D54FF4007010BD410102D54FF4BB
:10207000806010BDC10102D54FF4006010BD0102A7
:1020800002D54FF4805010BD410202D54FF40050EC
:1020900010BD810202D54FF4804010BDC10202D5AF
:1020A0004FF4004010BD410302D54FF4003010BD85
:1020B000810302D54FF4802010BDC10302D54FF437
:1020C000002010BD010402D54FF4801010BD410462
:1020D00002D54FF4001010BD810402D54FF48000EA
:1020E00010BD000702D54FF4000010BD4FF4803042
:1020F00010BD00001000002008E0FFFD12494FF461
:10210000FA520968B1FBF2F141F288325143491E9B
:1021100002D24FF000407047426B12F0450FF6D0EC
:102120001205F4D4416B490703D5042181630846A5
:102130007047416BC90703D001218163084670478E
:10214000C521816300207047100000200F494FF423
:10215000FA520968B1FBF2F141F288325143491E4B
:1021600002D24FF000407047426B12F0450FF6D09C
:102170001205F4D4416B490703D504218163084655
:102180007047C521816300207047000010000020C7
:1021900030B5204B4FF4FA541B68B3FBF4F341F213
:1021A000883463435B1E02D24FF0004030BD446B65
:1021B00014F0450FF6D02405F4D4436B5B0703D528
:1021C00004218163084630BD436BDB0702D0012147
:1021D000816303E00369DBB28B4201D0012030BD93
:1021E000C52181630021FFF7A6FC10F4604F04D0E5
:1021F000410406D54FF4005030BD000C1080002083
:1022000030BD000402D54FF4805030BD4FF4803013
:1022100030BD0000100000202DE9F04788B00D46C9
:102220000446FEF7DDFB00268246009601963746FF
:1022300008212068FFF7E8FC002829D1B4F85000F5
:1022400001042068FFF7ACFC002821D1401E4FF0AC
:102250000808CDE9020830204FF00209CDE9040951
:102260000120CDE9067002A92068FFF74EFC206826
:10227000FFF71FFE00280BD16F462068416B11F05D
:102280002A0F08D0416B09071AD5C0F838800820FA
:1022900008B0BDE8F087416B890205D5FFF768FCFF
:1022A00047F82600761C02E0416B8904EAD5FEF768
:1022B00097FBA0EB0A00401CDFD14FF00040E7E79E
:1022C000416B890703D5C0F838900220E0E7416BE5
:1022D000890603D5202181630846D9E740F23A51A7
:1022E0008163019800BA2860009800BA68600020F5
:1022F000CEE710B590B004460120ADF83800206854
:10230000FFF715FC002854D0606C032842D02068E9
:10231000FFF7A3FD00284AD100212068FFF70BFC3E
:10232000606704212068FFF706FCA0670821206889
:10233000FFF701FCE0670C212068FFF7FCFBC4F805
:102340008000606C032825D00EA92068FFF7E2FD0D
:1023500000282CD1606C03281CD0BDF83800206503
:1023600001042068FFF78FFD002820D1002120689C
:10237000FFF7E1FB606604212068FFF7DCFBA06645
:1023800008212068FFF7D7FBE0660C212068FFF7E3
:10239000D2FB206704212068FFF7CDFB000DE0642D
:1023A00003A92046FEF73EFF30B14FF0805010B039
:1023B00010BD4FF08060FAE7B4F85000002302042B
:1023C0002068FFF731FD0028F1D104F1100007C8A3
:1023D0008DE8070094E80F00FFF7B0FB0020E6E768
:1023E0002DE9F84F0026044600963546B0460068B1
:1023F000FFF754FC002827D12068FFF777FC4FF047
:10240000805B4FF001094FF6FF7748B1A664206862
:10241000FFF744FC002817D1A06C012802D020E06F
:10242000C4F8489000212068FFF7BAFB58B918E0BB
:1024300000212068FFF7B4FB002805D15146206831
:10244000FFF7C8FB10B15846BDE8F88F002120689F
:10245000FFF771FB05464FEAD0780098401C0090CA
:1024600002E0DFF82CA00098B84202D2B8F1000FC9
:10247000DED00098B84202D34FF08070E4E76800E5
:1024800002D5C4F8449000E066640020DCE7000058
:10249000000010C17047FEF7A9BA30B58FB02821EF
:1024A0006846FEF763F814210AA8FEF75FF80121D9
:1024B0000804CDE900100024029402250491CDE91E
:1024C00007504FF4E01009906846FEF705FC08B18C
:1024D00072B6FEE70F20CDE90A054FF48060CDE922
:1024E0000C4002210AA80E94FEF70AFB002801D036
:1024F00072B6FEE70FB030BD7047000070B50446FD
:1025000000680169E26821F44051114301612169C9
:10251000A0680843616908432168CA6841F20C63F6
:102520009A430243CA6020684169A26921F440715C
:10253000114341611E492068884202D1FEF786FBA3
:1025400001E0FEF773FB00EBC00101EB00126068D5
:1025500064218000B2FBF0F3B3FBF1F36FF01806D7
:102560007343B2FBF0F5B2FBF0F605EB83053223C3
:1025700003EB0515B5FBF1F5B6FBF1F605F0F0053B
:1025800005EB0615B2FBF0F6B2FBF0F0B0FBF1F094
:102590006FF01802504306EB800003EB0010B0FB15
:1025A000F1F0216800F00F002844886070BD000041
:1025B000003801402DE9F041984617460E46044682
:1025C000069D1DE0681C1BD02DB1FEF709FAA0EB9B
:1025D0000800A84214D92068C16821F4D071C160F4
:1025E0002068416921F001014161202084F83D000B
:1025F00084F83E00002084F83C000320BDE8F08110
:102600002068006836EA000004D00020B842D9D023
:102610000020F3E70120F9E7FEE70907090E00288B
:1026200004DB00F1E02080F80014704700F00F0098
:1026300000F1E02080F8141D704730380A2801D2DC
:1026400001207047002070477047000013B54FF617
:10265000FF73012269460248FFF79EF900981CBDEE
:1026600098000020F0B5ADF21C4DFEF7C7F9FFF75A
:1026700014FFFFF7EBF9FFF707FAFFF727FA76A049
:10268000FDF7D6FD7B48FEF799FE042806D07AA018
:10269000FDF7CEFD0DF21C4D0020F0BD7CA0FDF736
:1026A000C7FD81A0FDF7C4FD724CD4E91501A1FB63
:1026B000002383A0FDF7BCFD88A0A16DFDF7B8FD48
:1026C0008DA0616DFDF7B4FD91A0216DFDF7B0FD0A
:1026D00092A0616CFDF7ACFD0DF204412046FEF7BF
:1026E00079FD9DF8041491A0FDF7A2FD9548FDF732
:1026F0009FFD4FF6FF770123002201A92046009796
:10270000FEF70AFF010001AE4FF4007516D08EA04F
:10271000FDF78EFD9648FDF78BFD002081A902464E
:102720000A54401CA842FADB0123002251480097BA
:10273000FEF7DEFF010014D08EA023E097A0FDF786
:1027400077FD00249BA0315DFDF772FD2007B0F1FD
:10275000704F02D167A0FDF76BFD641CAC42F1DB4A
:10276000D8E74448FEF72AFE014694A0FDF760FD35
:102770004048FEF723FE0728FAD03E48FEF71EFE2B
:10278000014697A0FDF754FD9E48FDF751FD01233A
:10279000002201A937480097FEF7BEFE01000ED0C7
:1027A00069A0FDF745FD9848FDF742FD2A46002146
:1027B0003048FEF7ADFC010014D094A023E077A0D0
:1027C000FDF736FD00247BA0315DFDF731FD2007CC
:1027D000B0F1704F02D147A0FDF72AFD641CAC4256
:1027E000F1DBE0E72348FEF7E9FD014690A0FDF7A5
:1027F0001FFD2048FEF7E2FD0728FAD01D48FEF72E
:10280000DDFD014692A0FDF713FD9948FDF710FD8F
:102810000123002201A917480097FEF77DFE010061
:1028200006D049A0FDF704FD92A0FDF701FDFEE7EB
:102830009CA0FDF7FDFC00245EA0315DFDF7F8FCD7
:102840002007B0F1704F02D12AA0FDF7F1FC641C03
:10285000AC42F1DBE8E700004D6963726F2053443E
:10286000204361726420546573742E2E2E200D0A4D
:1028700000000000140000205344206361726420B3
:10288000696E6974206661696C21200D0A00000080
:102890005344206361726420696E6974206F6B21F8
:1028A0000D0A0D0A00000000534420636172642089
:1028B000696E666F726D6174696F6E21200D0A001A
:1028C0004361726443617061636974792842797409
:1028D00065293A20256C6C75200D0A0043617264ED
:1028E000426C6F636B53697A652842797465293A43
:1028F000202564200D0A000043617264426C6F63FE
:102900006B4E756D6265723A202564200D0A0000D9
:102910005243413A202564200D0A0000436172644D
:10292000547970653A202564200D0A004D616E755A
:10293000666163747572657249443A202564200D9E
:102940000A000000B02B00085265616420626C6FC1
:10295000636B2064617461206661696C212073740B
:1029600061747573203D202564200D0A000000006D
:10297000F82B0008577269746520626C6F636B20D6
:1029800064617461206661696C212073746174757F
:1029900073203D202564200D0A000000526561640B
:1029A00020626C6F636B2064617461206F6B212007
:1029B0000D0A000030782530327820005772697493
:1029C000696E6720626C6F636B20646174612E2096
:1029D0007374617465203D202564200D0A00000099
:1029E000577269746520626C6F636B2064617461F7
:1029F000206F6BA3AC7374617465203D2025642047
:102A00000D0A0000602B0008402C0008457261731D
:102A10006520626C6F636B206661696C2120737442
:102A200061747573203D202564200D0A00000000AC
:102A300045726173696E6720626C6F636B2E2073E1
:102A400074617465203D202564200D0A000000009B
:102A5000457261736520626C6F636B206F6B2073CE
:102A600074617465203D202564200D0A000000007B
:102A7000102B00082D2D2D2D2D2D2D2D2D2D2D2DF7
:102A80002D2D2D2D2D2D2D204F766572202D2D2DA8
:102A90002D2D2D2D2D2D2D2D2D2D2D2D2D2D2D0D86
:102AA0000A0000005265616420626C6F636B2064F1
:102AB000617461206F6B200D0A00000000000000AF
:102AC00000000000010203040607080900000000DE
:102AD000010203043031323334353637383941425C
:102AE0004344454640305800303132333435363770
:102AF000383961626364656640307800040000081C
:102B000000000000000000020001000010000000B2
:102B10002D2D2D2D2D2D2D2D2D2D2D2D2D2D2D2DE5
:102B20002D2D2D2052656164205344206361726411
:102B300020626C6F636B20646174612061667465F0
:102B400072204572617365202D2D2D2D2D2D2D2D7B
:102B50002D2D2D2D2D2D2D2D2D2D0D0A000000009C
:102B60002D2D2D2D2D2D2D2D2D2D2D2D2D2D2D2D95
:102B70002D2D2D20526561642053442063617264C1
:102B800020626C6F636B20646174612061667465A0
:102B900072205772697465202D2D2D2D2D2D2D2D10
:102BA0002D2D2D2D2D2D2D2D2D2D0D0A000000004C
:102BB0002D2D2D2D2D2D2D2D2D2D2D2D2D2D2D2D45
:102BC0002D2D2D2052656164205344206361726471
:102BD00020626C6F636B2064617461205465737450
:102BE000202D2D2D2D2D2D2D2D2D2D2D2D2D2D2D22
:102BF0002D2D2D0D0A0000002D2D2D2D2D2D2D2DCF
:102C00002D2D2D2D2D2D2D2D2D2D2D20577269740F
:102C100065205344206361726420626C6F636B2093
:102C2000646174612054657374202D2D2D2D2D2D1C
:102C30002D2D2D2D2D2D2D2D2D2D2D2D0D0A000061
:102C40002D2D2D2D2D2D2D2D2D2D2D2D2D2D2D2DB4
:102C50002D2D2D20426C6F636B20457261736520B2
:102C60002D2D2D2D2D2D2D2D2D2D2D2D2D2D2D2D94
:102C70002D2D2D2D2D2D2D2D2D2D2D2D2D2D2D0DA4
:102C80000A000000A42C000800000020140000002E
:102C90006C010008B82C0008140000202C0700006C
:102CA0008801000800000000010000001000000082
:082CB000000000000024F40004
:0400000508000131BD
:00000001FF
