:020000040800F2
:1000000010070020DD010008871300085F120008B8
:10001000851300085D05000869190008000000004C
:10002000000000000000000000000000E5170008CC
:100030005F0500080000000009170008E717000826
:10004000F7010008F7010008F7010008F7010008B0
:10005000F7010008F7010008F7010008F7010008A0
:10006000F7010008F7010008F7010008F701000890
:10007000F7010008F7010008F7010008F701000880
:10008000F7010008F7010008F7010008F701000870
:10009000F7010008F7010008F7010008F701000860
:1000A000F7010008F7010008F7010008F701000850
:1000B000F7010008F7010008F7010008F701000840
:1000C000F7010008F7010008F7010008F701000830
:1000D000F7010008F7010008F7010008F701000820
:1000E000F7010008F7010008F7010008F701000810
:1000F000F7010008F7010008F7010008F701000800
:10010000F7010008F7010008F7010008F7010008EF
:10011000F7010008F7010008F7010008F7010008DF
:10012000F7010008F7010008F7010008F7010008CF
:1001300000F002F800F042F80AA090E8000C8244B7
:100140008344AAF10107DA4501D100F037F8AFF294
:10015000090EBAE80F0013F0010F18BFFB1A43F0A5
:1001600001031847D8180000F8180000103A24BFFF
:1001700078C878C1FAD8520724BF30C830C144BF0C
:1001800004680C607047000000230024002500264E
:10019000103A28BF78C1FBD8520728BF30C148BFEA
:1001A0000B607047642900F0A580732900F074810A
:1001B000002070471FB51FBD10B510BD00F09EF99F
:1001C0001146FFF7F7FF01F0EDFB00F0BCF903B4B7
:1001D000FFF7F2FF03BC01F0D8FB0000094880479D
:1001E00009480047FEE7FEE7FEE7FEE7FEE7FEE719
:1001F000FEE7FEE7FEE7FEE704480549054A064B31
:100200007047000049180008310100081001002063
:10021000100700201003002010030020704700008A
:100220000FB4044910B503AA029800F039F910BCC4
:100230005DF814FB000000202DE9F0410E46044655
:10024000002020622046E168884730B3252805D089
:10025000D4E901219047206A401CF2E7E16820467A
:1002600000278847050018D0A5F14100192802D8B9
:1002700020354FF400673246294620462760FFF7B5
:1002800091FF40B1012804D0F61D26F0070608367C
:10029000D8E7361DD6E72846DAE7206ABDE8F081C0
:1002A00070B50C460546012A05D02878800600D591
:1002B000EA69002302E0012305E05B1C934202D2BD
:1002C000E05C0028F9D1A869E618C01AA861286A7C
:1002D000184428622846AFF3008004E0D5E90121E4
:1002E00014F8010B9047B442F8D32846AFF30080CE
:1002F00070BD00002DE9F041064600241068752904
:10030000314616A510D0AFF30080002802DA404233
:1003100013A507E031688A0701D512A502E0490755
:1003200004D511A5012401E0AFF3008000210A22C9
:1003300006F1240709E0B0FBF2FCB0FBF2F302FB8C
:100340001C00303078541846491C0028F3D123464D
:100350002A463046BDE8F04100F033B80000000006
:100360002D0000002B000000200000004FF00002D4
:1003700000B5134694469646203922BFA0E80C509B
:10038000A0E80C50B1F12001BFF4F7AF090728BF76
:10039000A0E80C5048BF0CC05DF804EB890028BFF2
:1003A00040F8042B08BF704748BF20F8022B11F01B
:1003B000804F18BF00F8012B704770477047704797
:1003C00070472DE9F0470D4699469246044600F1E4
:1003D00024080168880604D5E06921F01001216035
:1003E00000E00120A84201DD471B00E00027A169D1
:1003F0007A1902EB0900081AA0612078C00602D41D
:100400002046AFF30080002608E0D4E901211AF865
:1004100006009047206A401C761C20624E45F4DBA3
:100420002078C0060AD52046AFF3008006E0D4E964
:10043000012130209047206A401C2062381EA7F11D
:100440000107F4DC07E0D4E9012118F80500904722
:10045000206A401C2062281EA5F10105F3DC20461D
:10046000AFF300802078000602D50220BDE8F087B7
:100470000120FBE710B5436913B1AFF3008001E041
:10048000FFF70EFF012010BD127800F124010A7061
:1004900000224A700122EDE711684FF0FF32E9E7D0
:1004A000074B70B50D467B4400F011F80446284612
:1004B00000F020F810B14FF0FF3070BD204670BD45
:1004C000E314000001694A1C02610878704700B516
:1004D0008FB0CDE901310021059105497944CDE97D
:1004E000031011466846FFF7A7FE0FB000BD0000DD
:1004F000E5FFFFFF007B00F080007047754600F0CD
:1005000029F8AE4605006946534620F007008546A7
:1005100018B020B5FFF770FEBDE820404FF0000690
:100520004FF000074FF000084FF0000B21F00701DB
:10053000AC46ACE8C009ACE8C009ACE8C009ACE81E
:10054000C0098D4670470446AFF300802046FFF790
:100550003EFE000000487047B0000020FEE77047F4
:1005600072B6FEE770B5044600F014F90546601C4B
:1005700002D004480078044400F00CF9401BA0426B
:10058000FAD370BD040000202DE9F84FDFF8C891C0
:10059000002409F1040A0AF1040B23460F270BF18A
:1005A000040ED1E00125A54006EA0502AA4276D153
:1005B000DFF8A8C14E68A6EB0C0866452BD00DDC11
:1005C000032E34D005DC36B3012E19D0022E2FD1E4
:1005D0001BE0112E16D0122E2AD119E0B8F5881F73
:1005E00019D006DCB8F5803F15D0B8F5801F1FD1B3
:1005F00011E0B8F5001F0ED0B8F5041F18D10AE0BD
:10060000CB6815E0CB681B1D12E0CB6808330FE008
:10061000CB680C330CE08B682BB1012B4FF0080337
:1006200003D0456104E0042302E0056100E00023FB
:10063000FF2A01D8064601E000F104064FEA8405CE
:1006400001D9A5F12005D6F8008007FA05FC28EAB3
:100650000C0803FA05F548EA0508C6F800804D685D
:10066000ED0070D53E4DAE6946F00106AE61AD6954
:1006700024F0030605F0010500953A4D06EB050C44
:10068000DCF80850A607360F07FA06F825EA080531
:10069000DFF8D480404503D14FF0000825E052E058
:1006A000DFF8C880404502D14FF001081DE0DFF8B7
:1006B000C080404502D14FF0020816E0DFF8B48058
:1006C000404502D14FF003080FE0DFF8AC80404511
:1006D00002D14FF0040808E0DFF8A080404502D1C5
:1006E0004FF0050801E04FF0060808FA06F848EA5E
:1006F0000508CCF808804D68D9F80060ED034D4638
:1007000001D5164300E096432E604D68DAF800608C
:10071000AD03554601D5164300E096432E604D6863
:10072000DBF80060ED025D4601D5164300E096431C
:100730002E604D68DEF80060AD02754601D51643A7
:1007400000E096432E60641C0A681646E2407FF47F
:1007500029AFBDE8F88F000000040140000011102F
:10076000001002400000014000080140000C014060
:10077000001001400014014000180140001C01401D
:100780008068084000D0012070470AB101617047BD
:100790000904FBE70148806870470000040000205E
:1007A000024881680278114481607047040000208B
:1007B000074810B5016841F010010160032000F006
:1007C00067F80F2000F006F800F024F8002010BDB4
:1007D0000020024070B50D4D04464FF47A71287820
:1007E000B1FBF0F00A490968B1FBF0F000F061FCE0
:1007F00048B9102C07D200222146501E00F028F8DC
:1008000000206C6070BD012070BD0000040000205D
:10081000100000200C4808B5816941F00101816198
:10082000816901F001010091C16941F08051C1610C
:10083000C06900F0805000900448416821F0E061F8
:1008400041F00071416008BD00100240000001400D
:10085000F0B40E4B1B680C46C3F30223C3F107052B
:10086000042D00D90425191D072901D2002300E019
:10087000DB1E012606FA05F1491E214099409E40E3
:10088000761E16403143F0BC01F06FB80CED00E06D
:10089000064900F0070208684FF6FF03184040EAD7
:1008A0000220034A10430860704700000CED00E08E
:1008B0000000FA052DE9F0470F46050061D0434ED0
:1008C000306800F00700B84209D2306820F0070015
:1008D00038433060306800F00700B84251D12868D2
:1008E0003B4C810712D5400703D5606840F4E060B7
:1008F00060602878000703D5606840F4605060604D
:100900006068A96820F0F000084360602878C0079C
:1009100028D06868012810D02168022810D08907E3
:1009200000292EDA616821F0030101436160FFF7BD
:1009300031FF804641F288390DE021688903EFE7F5
:100940008901EDE7FFF726FFA0EB0801494502D931
:100950000320BDE8F0876068696800F00C00B0EB28
:10096000810FEFD1306800F00700B8420BD9306832
:1009700020F0070038433060306800F00700B842CC
:1009800001D00120E5E72878400705D56068E968CF
:1009900020F4E060084360602878000706D56068AE
:1009A000296920F4605040EAC100606000F038F826
:1009B0006168084AC1F30311515CC84006490860E8
:1009C00006480068FFF706FF0020C2E7002002404B
:1009D00000100240241A0008100000200800002027
:1009E0000448054900684968044AC1F30221515C82
:1009F000C84070471000002000100240341A000860
:100A00000448054900684968044AC1F3C221515CA1
:100A1000C84070471000002000100240341A00083F
:100A200012A185B00FC98DE80F0014A0144A006808
:100A300004905168134801F00C03042B10D0082BCC
:100A40000ED1C1F38343C9031DF803000AD55168D1
:100A500004AAC1F34041515C0A4A5043B0FBF1F093
:100A600005B0704708494843FAE70000020304054F
:100A7000060708090A0B0C0D0E0F101001020000EA
:100A80000010024000127A0000093D002DE9F84FE5
:100A9000040070D02078C04DC00749D06868C0F30A
:100AA0008100012807D06868C0F38100022809D1BD
:100AB0006868C00306D52868800339D560680028B7
:100AC000E7D035E06068B0F5803F0BD010B1B0F5ED
:100AD000A02F11D0286820F480302860286820F4E6
:100AE000802002E0286840F480302860606890B17F
:100AF000FFF750FE06460AE0286840F48020286090
:100B0000F0E700BFFFF746FE801B642873D8286813
:100B10008003F7D50CE0FFF73DFE064605E000BF79
:100B2000FFF738FE801B6428F0D828688003F7D4CC
:100B300020789A4E80074FF001094FF0000839D510
:100B4000686810F00C0F07D06868C0F381000228B5
:100B500009D16868C00306D42868800714D52069C5
:100B6000012808D110E02069B0B1C6F80090FFF765
:100B700011FE074605E00AE1FFF70CFEC01B022844
:100B8000C4D828688007F7D52868616920F0F80084
:100B900040EAC10028600DE0C6F80080FFF7FAFDCA
:100BA000074604E0FFF7F6FDC01B022823D828689B
:100BB0008007F7D4207800072CD57948A169D9B1EE
:100BC000C0F80090FFF7E6FD074604E0FFF7E2FDFE
:100BD000C01B02280FD8686A8007F7D571484FF408
:100BE000FA510068B0FBF1F0009000BF0098411E80
:100BF0000091FAD20EE080E0C0F80080FFF7CAFD55
:100C0000074604E0FFF7C6FDC01B022875D8686AD6
:100C10008007F7D42078400760D5E8690027C00036
:100C200008D4E86940F08050E861E869012700F0E5
:100C3000805000905C480168C90513D40168834660
:100C400041F480710160FFF7A5FD824606E000BF18
:100C5000FFF7A0FDA0EB0A0064284ED8DBF80000E7
:100C6000C005F5D5E06801280AD008B1052813D0E1
:100C7000286A20F001002862286A20F0040002E0BF
:100C8000286A40F001002862E06841F2883B98B190
:100C9000FFF780FD82460BE0286A40F004002862DE
:100CA000EEE700BFFFF776FDA0EB0A0159455AD8E1
:100CB000286A8007F6D50CE0FFF76CFD824605E058
:100CC000FFF768FDA0EB0A0159454CD8286A800758
:100CD000F6D41FB1E86920F08050E861E06988B37C
:100CE0006968C1F38101022944D00228C6F86080F6
:100CF00004D0FFF74FFD044638E034E0FFF74AFD2B
:100D0000074604E0FFF746FDC01B02282BD82868E1
:100D10008001F7D4206AB0F5803F05D16868A168EA
:100D200020F4003008436860D4E90801084369688A
:100D300021F4741108436860C6F86090FFF72AFD3B
:100D4000044606E025E000BFFFF724FD001B022853
:100D500009D828688001F7D51BE000BFFFF71AFD0E
:100D6000001B022802D90320BDE8F88F2868800103
:100D7000F4D40EE00128F7D06868226A00F48031CC
:100D8000914204D1616A00F47010884201D00120C0
:100D9000EAE70020E8E700000010024000004242BD
:100DA00080044242100000200070004070B5040032
:100DB00009D0606A002540B125616561A56294F89B
:100DC000510040B10CE0012070BD6068B0F5827F39
:100DD000F4D0E561F2E784F85050204600F040F886
:100DE000022084F851002068016821F04001016070
:100DF000A088218900F4827001F404410843A1898C
:100E000001F400610843217C01F002010843217DC7
:100E100001F001010843218B01F400710843217F97
:100E200001F03801084394F8201001F080010843D4
:100E3000218D01F40051084321680860A069042154
:100E400001EA1040216848602068C16921F400610E
:100E5000C1616565012084F85100002070BD00006B
:100E600030B585B000240094019402940394006886
:100E70001449884223D11448816941F48051816129
:100E8000816901F480510491816941F0040181611B
:100E900080690E4D00F004000490A0200090022014
:100EA00001900320039069462846FFF76DFB402020
:100EB000CDE90004694628460294FFF765FB05B0BA
:100EC00030BD000000300140001002400008014029
:100ED0002DE9F84F044690F8500000270A9E1D4661
:100EE00092468B464FF0010901280ED0012084F86C
:100EF0005000FFF74FFC804694F8510061680128CC
:100F00000CD0B1F5827F07D102E00220BDE8F88F56
:100F1000A16809B9042801D00227C2E0BBF1000F83
:100F200027D0BAF1000F24D01DB394F85100042843
:100F300002D0052084F8510000206065C4F838A074
:100F4000E587A587C4F830B0E586A586206460648F
:100F500020680168490603D4016841F0400101603E
:100F6000E068B0F5006F606805D0E8B3012D46D0A9
:100F70007FE0012795E008B1012D39D1206B216870
:100F80000088C860206B801C2063E08E401EE086D5
:100F90002EE02068816889070FD5E18E69B1B9F12B
:100FA000010F0AD1216B0988C160206B801C20636E
:100FB000E08E401EE0864FF0000920688168C90776
:100FC0000CD0E18F51B1C068A16B0880A06B801C70
:100FD000A063E08F401EE0874FF00109FFF7DAFBC6
:100FE000A0EB0800B04200E009E001D3701C50D132
:100FF000E08E0028CDD1E08F0028CAD13FE0206BE1
:10100000216800780873206B401C2063E08E401E2E
:10101000E0862EE02068816889070FD5E18E69B1EE
:10102000B9F1010F0AD1216B09780173206B401CC3
:101030002063E08E401EE0864FF000092068816842
:10104000C9070CD0E18F51B1C068A16B0870A06BCB
:10105000401CA063E08F401EE0874FF00109FFF7BE
:1010600099FBA0EB0800B04202D3701C01D010E045
:101070007EB1E08E0028CDD1E08F0028CAD1424653
:101080003146204600F041FB28B101272020606551
:1010900007E0032705E0A06818B92068C1688068E8
:1010A0000090012084F85100002084F85000384658
:1010B0002CE710B5401EB0F1807F01D3012010BD98
:1010C0004FF0E02460610F21601700F04EFC00201B
:1010D000A06107202061002010BD70B5040004D07D
:1010E00094F83D00002510B106E0012070BD84F8A1
:1010F0003C50204600F022F8242084F83D0020686F
:10110000C16821F40051C160204600F09FFB2068B7
:10111000016921F4904101612068416921F02A01AF
:1011200041612068C16841F40051C16025642020FC
:1011300084F83D0084F83E00002070BD30B585B0D5
:101140000024009401940294039400681449884296
:1011500024D11448816941F480418161816901F49D
:1011600080410491816941F00401816180690E4DE3
:1011700000F0040004904FF40070009002200190F1
:101180000320039069462846FFF7FEF92815CDE9AC
:101190000004694628460294FFF7F6F905B030BD11
:1011A0000038014000100240000801402DE9F843DA
:1011B000044690F83D001F4616460D4620284CD1A7
:1011C000C5B1BEB194F83C00012846D0012084F896
:1011D0003C004FF00008C4F84080212084F83D0016
:1011E000FFF7D8FAA6848146E684A068B0F5805F50
:1011F00003D004E00120BDE8F883206928B12E4621
:101200005FF0000584F83C800EE00026FAE78021BC
:10121000204600F077FBA0B9AEB116F8010B2168AB
:101220004860E08C401EE084E08C4B464FF00002AA
:1012300000970028EBD14FF04001204600F062FB00
:1012400030B10320D7E735F8020BC0F30800E6E71A
:10125000202084F83D000020CDE70220CBE7FEE708
:101260002DE9F04385B000242348009401940294B2
:101270000394816941F010018161816901F01001DD
:101280000491816941F020018161816901F02001AF
:101290000491816941F0040181618069DFF85C801B
:1012A00000F004000490002210214046FFF76DFA80
:1012B000DFF84C90002210214846FFF766FA022022
:1012C00001258DE8310069464046FFF75DF910269B
:1012D000032703970096CDE9015469464046FFF77E
:1012E00053F903970096CDE9015469464846FFF744
:1012F0004BF905B0BDE8F083001002400008014042
:1013000000100140104810B50E4901604FF4827181
:10131000416000218160C1604FF400720161C0E949
:1013200005121822C0E90721416281620A21C162C7
:10133000FFF73CFD002803D0BDE81040FFF710B9CF
:1013400010BD000000300140140000200C4810B512
:101350000A4901604FF4E1314160002181600C22B3
:10136000C160C0E904128161C161FFF7B6FE0028C7
:1013700003D0BDE81040FFF7F3B810BD00380140BE
:101380006C000020FEE7FEE770B500F0700400F08E
:10139000ADF80B4D0646002210212846FFF7F5F95F
:1013A000272000F02FFB44EA060000F02BFB01226F
:1013B00010212846FFF7E9F9BDE8704000F096B823
:1013C0000010014010B5002210210548FFF7DDF99B
:1013D0000122BDE8104010210248FFF7D6B90000F5
:1013E00000080140001001401CB520A10122D1E9F4
:1013F0000001CDE9000110211E48FFF7C6F9702059
:10140000FFF7C2FF01211C2000F014F907211D2065
:1014100000F010F91C2000F051F81D2000F04EF8EB
:101420000A21002000F006F90121084600F002F927
:101430000121022000F0FEF80321084600F0FAF82E
:10144000FF21042000F0F6F83C21052000F0F2F81E
:101450002621062000F0EEF80521684600F0C0F8CD
:1014600005226946002000F0B1F81CBD344310107D
:1014700001000000000801402DE9F0410E4F154623
:101480000E460446002210213846FFF77EF920461A
:1014900000F0B8FA002405E0FF2000F0B3FA305560
:1014A000641CE4B2AC42F7D33846BDE8F0410122F7
:1014B0001021FFF76AB900000010014070B50A4D15
:1014C0000446002210212846FFF75FF9204600F06D
:1014D00099FAFF2000F096FA0446012210212846CE
:1014E000FFF753F9204670BD0010014070B5084D5C
:1014F000002210212846FFF748F9072000F082FA61
:101500000446012210212846FFF73FF9204670BD0E
:101510000010014070B5214E0546002422461021DE
:101520003046FFF732F9E22000F06CFA0122102178
:101530003046FFF72AF91A4E07E06420FFF712F849
:101540002046641CE4B21E281ED002213046FFF75C
:1015500017F90028F1D10720FFF7B0FF0446014634
:10156000072000F067F8600616D56020FFF7A6FF99
:101570000446024629466120FFF77EFFFF21E22054
:1015800000F058F8204670BDFFF71CFFFFF72CFF56
:10159000012000F007F8DEE7002070BD00100140D8
:1015A0000008014010B504460020FFF787FF014600
:1015B00014B1012C03D004E020F0010101E040F05F
:1015C0000101BDE81040002000F034B8052A00D920
:1015D0000522052800D905200A30C0B200F008B85D
:1015E000052900D905210A4601461020AFF30080E5
:1015F0002DE9F0410E4F15460E46044600221021FB
:101600003846FFF7C2F844F0200000F0FBF9002450
:1016100004E0305D00F0F6F9641CE4B2AC42F8D3AB
:101620003846BDE8F04101221021FFF7AEB80000B6
:101630000010014070B50B4D0E46044600221021EB
:101640002846FFF7A2F844F0200000F0DBF930460E
:1016500000F0D8F92846BDE8704001221021FFF7BC
:1016600094B80000001001407FB516A16D46D1E985
:101670000001CDE900010020029002AC4FF4FA66AF
:101680000390052269461020FFF7B2FF052202A948
:101690001020FFF7F1FE0021685C625C904203D1EC
:1016A000491CC9B20529F7D3052906D007A0FEF7C2
:1016B000B7FD3046FEF756FFE3E70CA0FEF7B0FD9E
:1016C0007FBD0000A5A5A5A5A50000004E5246328D
:1016D000344C3031206973206E6F742066696E64FB
:1016E00020212E2E2E200D0A000000004E524632E0
:1016F000344C30312069732066696E6420212E2EAF
:101700002E200D0A00000000704738B50B460092ED
:1017100004460022802100F009F8002804D0606D02
:1017200040F020006065032038BD00002DE9F8433B
:101730001E46914688460446089DFFF72BF8401B3D
:10174000351AFFF727F8074625480068C0F3CB3065
:10175000684338E0701C37D0FFF71CF8C01BA84264
:1017600003D215B1009860B32CE02068416821F0E5
:10177000E00141606068B0F5827F0BD1A068B0F5F0
:10178000004F02D0B0F5806F04D12068016821F0CD
:1017900040010160A06AB0F5005F09D120680168CE
:1017A00021F4005101602068016841F4005101609A
:1017B000012084F85100002084F850000320BDE887
:1017C000F8830025401E00902068816838EA0100F7
:1017D00004D000214945BDD10020F0E70121F9E7FF
:1017E000100000207047FEF7DBBF30B58FB0282116
:1017F0006846FEF7BBFD14210AA8FEF7B7FD0121DC
:101800000804CDE900100024029402250491CDE9DA
:1018100007504FF4E01009906846FFF737F908B118
:1018200072B6FEE70F20CDE90A054FF48060CDE9DE
:101830000C4002210AA80E94FFF73CF8002801D0C2
:1018400072B6FEE70FB030BD7047000070B50446B9
:1018500000680169E26821F4405111430161216986
:10186000A0680843616908432168CA6841F20C63B3
:101870009A430243CA6020684169A26921F4407119
:10188000114341611E492068884202D1FFF7B8F830
:1018900001E0FFF7A5F800EBC00101EB0012606862
:1018A00064218000B2FBF0F3B3FBF1F36FF0180694
:1018B0007343B2FBF0F5B2FBF0F605EB8305322380
:1018C00003EB0515B5FBF1F5B6FBF1F605F0F005F8
:1018D00005EB0615B2FBF0F6B2FBF0F0B0FBF1F051
:1018E0006FF01802504306EB800003EB0010B0FBD2
:1018F000F1F0216800F00F002844886070BD0000FE
:10190000003801402DE9F041984617460E4604463E
:10191000069D1DE0681C1BD02DB1FEF73BFFA0EB20
:101920000800A84214D92068C16821F4D071C160B0
:101930002068416921F001014161202084F83D00C7
:1019400084F83E00002084F83C000320BDE8F081CC
:101950002068006836EA000004D00020B842D9D0E0
:101960000020F3E70120F9E7FEE70907090E002848
:1019700004DB00F1E02080F80014704700F00F0055
:1019800000F1E02080F8141D7047704713B54FF642
:10199000FF73012269460248FFF708FC00981CBD4E
:1019A0006C00002088B0FEF703FFFFF71EFFFFF773
:1019B00057FCFFF7A7FCFFF7C9FCFFF703FDFFF794
:1019C00053FEFFF711FD0120FFF7ECFD20216846D3
:1019D000FEF7CCFC6C466846FFF79CFD0028FAD069
:1019E0009DF80010621C02A0FEF71AFCF3E700004D
:1019F0007278446174612069733A202564257320EC
:101A00000D0A000001B582B04FF6FF70009001236F
:101A100001AA02A90248FFF75BFA9DF804000EBD77
:101A20001400002000000000000000000102030478
:101A30000607080900000000010203045C1A000800
:101A400000000020140000006C010008701A00085B
:101A500014000020FC0600008801000800000000BF
:101A60000100000010000000000000000024F4004D
:0400000508000131BD
:00000001FF
