:020000040800F2
:1000000018080020ED0100085F1B0008C11A000855
:100010005D1B0008D90C0008291E00080000000024
:10002000000000000000000000000000631B00084A
:10003000DB0C000800000000611B0008651B0008C5
:10004000070200080702000807020008070200086C
:10005000070200080702000807020008070200085C
:10006000070200080702000807020008070200084C
:10007000070200080702000807020008070200083C
:10008000070200080702000807020008070200082C
:10009000070200080702000807020008070200081C
:1000A000070200080702000807020008070200080C
:1000B00007020008070200080702000807020008FC
:1000C00007020008070200080702000807020008EC
:1000D00007020008151E00080702000807020008B2
:1000E00007020008070200080702000807020008CC
:1000F00007020008070200080702000807020008BC
:1001000007020008070200080702000807020008AB
:10011000070200080702000807020008070200089B
:10012000070200080702000807020008070200088B
:1001300000F002F800F04BF80AA090E8000C8244AE
:100140008344AAF10107DA4501D100F040F8AFF28B
:10015000090EBAE80F0013F0010F18BFFB1A43F0A5
:1001600001031847C81F0000E81F0000103A24BF11
:1001700078C878C1FAD8520724BF30C830C144BF0C
:1001800004680C607047000000230024002500264E
:10019000103A28BF78C1FBD8520728BF30C148BFEA
:1001A0000B607047642900F0AD80732900F0DE8297
:1001B000002070471FB500F04BFD04000020002117
:1001C00001F08EFF401C60601FBD10B510BD00F037
:1001D00007FD1146FFF7EEFF01F02EFF00F02EFDA8
:1001E00003B4FFF7F2FF03BC01F02FFE094880477C
:1001F00009480047FEE7FEE7FEE7FEE7FEE7FEE709
:10020000FEE7FEE7FEE7FEE704480549054A064B20
:1002100070470000C71B00083101000818020020C9
:10022000180800201804002018040020704700005F
:100230000FB4044910B503AA029800F09BFA10BC51
:100240005DF814FB000000202DE9F0410E46044645
:10025000002020622046E168884730B3252805D079
:10026000D4E901219047206A401CF2E7E16820466A
:1002700000278847050018D0A5F14100192802D8A9
:1002800020354FF400673246294620462760FFF7A5
:1002900089FF40B1012804D0F61D26F00706083674
:1002A000D8E7361DD6E72846DAE7206ABDE8F081B0
:1002B00070B50C460546012A05D02878800600D581
:1002C000EA69002302E0012305E05B1C934202D2AD
:1002D000E05C0028F9D1A869E618C01AA861286A6C
:1002E000184428622846AFF3008004E0D5E90121D4
:1002F00014F8010B9047B442F8D32846AFF30080BE
:1003000070BD00002DE9F0410646002410687529F3
:10031000314616A510D0AFF30080002802DA404223
:1003200013A507E031688A0701D512A502E0490745
:1003300004D511A5012401E0AFF3008000210A22B9
:1003400006F1240709E0B0FBF2FCB0FBF2F302FB7C
:100350001C00303078541846491C0028F3D123463D
:100360002A463046BDE8F04100F095B90000000093
:100370002D0000002B000000200000000FB400B58D
:100380008DB010A9099000910B904FF0FF300A90AA
:1003900000200C90064878440690064878446A4647
:1003A00007900F9909A800F00BFA0DB05DF814FB47
:1003B000470400005F0400002DE9FF5F1D464FF079
:1003C000FF3B91464FF000085F46D5E90146A96919
:1003D00001987F1C8847296A824688470028F6D101
:1003E000BAF1FF3F0CD0002E24F4C06419DD600682
:1003F00014D5BAF12B0F09D0BAF12D0F0ED103E0AD
:10040000584604B0BDE8F09F44F48064A96901989F
:100410007F1C8847761E8246002E02DDBAF1300F1F
:1004200003D0B9F1000F26D032E0A969761E0198F9
:100430007F1C44F400748847002E824605DDBAF123
:10044000780F06D0BAF1580F03D0B9F1000F10D0D1
:100450001EE0B9F1000F02D0B9F1100F18D1A9694F
:10046000761E01987F1C24F4007488478246102071
:1004700002E0082000E00A20814609E0A96908FBA3
:100480000908761E01987F1C44F400748847824650
:10049000002E05DD4946504600F07EF90028EDDAD1
:1004A000E96901988847A00502D46FF00100A8E728
:1004B000E00725D1600613D5600502D5C8F100001C
:1004C00000E0404629680A1D2A600968220501D516
:1004D000087015E0220701D5088011E008600FE0E0
:1004E0002868011D29600068210502D580F8008078
:1004F00006E0210702D5A0F8008001E0C0F80080E6
:1005000038467EE730B505460B462A4613F8014BC0
:1005100012F8010B08B1A042F8D01CB1002802D09B
:100520006D1CF1E7284630BD10B5431C02E010F801
:10053000011B71B18107FAD14FF0013202C88C1A48
:100540008C4314EAC211F9D0C01A0A0603D0C01EA7
:1005500010BDC01A10BD0A0401D0801E10BD0902D2
:10056000FCD0401E10BD40EA010370B59B072ED1A0
:100570004FF00136042A2AD308C810C99D1B9D4399
:10058000121F15EAC61517D0D8B2E1B2401A50EAC8
:10059000056110D198B2A1B2401A50EA05410AD1C2
:1005A00023F07F4024F07F41401A50EA052102D118
:1005B000180EA0EB146070BDA342DBD018BA21BAAC
:1005C000884201D9012070BD4FF0FF3070BD0AB9DB
:1005D000002070BD10F8013B11F8014B63B1A3423C
:1005E0000AD1521E08D010F8013B11F8014B1BB183
:1005F000A34201D1521EEDD1181B70BD4FF0000275
:100600000429C0F0128010F0030C00F01B80CCF124
:10061000040CBCF1020F18BF00F8012BA8BF20F892
:10062000022BA1EB0C0100F00DB85FEAC17C24BFE6
:1006300000F8012B00F8012B48BF00F8012B704790
:100640004FF0000200B5134694469646203922BF6B
:10065000A0E80C50A0E80C50B1F12001BFF4F7AFB6
:10066000090728BFA0E80C5048BF0CC05DF804EB98
:10067000890028BF40F8042B08BF704748BF20F806
:10068000022B11F0804F18BF00F8012B7047704704
:100690007047704770472DE9F0470D4699469246DE
:1006A000044600F124080168880604D5E06921F0B9
:1006B0001001216000E00120A84201DD471B00E09D
:1006C0000027A1697A1902EB0900081AA0612078B5
:1006D000C00602D42046AFF30080002608E0D4E92B
:1006E00001211AF806009047206A401C761C2062FF
:1006F0004E45F4DB2078C0060AD52046AFF30080D3
:1007000006E0D4E9012130209047206A401C206295
:10071000381EA7F10107F4DC07E0D4E9012118F83D
:1007200005009047206A401C2062281EA5F10105A3
:10073000F3DC2046AFF300802078000602D50220CB
:10074000BDE8F0870120FBE710B5436913B1AFF3B3
:10075000008001E0FFF7ACFD012010BD127800F130
:1007600024010A7000224A700122EDE711684FF05F
:10077000FF32E9E7074B70B50D467B4400F05FF8A8
:100780000446284600F028FA10B14FF0FF3070BD43
:10079000204670BD771700003A2800D2303820F08C
:1007A0002002412A01D3A2F13700884201D34FF041
:1007B000FF30704702681144137801601846704793
:1007C000D16005497944516104497944116200219D
:1007D0001161114600F046B8EDFFFFFF5300000025
:1007E000426842B1016811F8013B23B1521EC0E9D1
:1007F0000012184670470121C160881E7047426888
:100800005AB1C368016843B983688B4205D0491E59
:10081000521CC0E90012002070474FF0FF307047B3
:1008200010B5044600F002FA0068005D00F0010017
:1008300010BD000001694A1C02610878704700B5CC
:100840008FB0CDE901310021059105497944CDE909
:10085000031011466846FFF7F7FC0FB000BD00001B
:10086000E5FFFFFF2DE9F34F4FF0000A0C46564617
:100870008DB001200C9001F10C000B9062690B9877
:100880000121904705002DD0252D2CD0216A8847C5
:10089000C0B162690B9801219047216A88470028FE
:1008A000F7D16269411E0B98904700E0761CA16960
:1008B0000D988847216A88470028F7D1E1690D988B
:1008C0008847DBE7A1690D988847A842074601D110
:1008D000761CD3E7E1690D9888477F1C02D1BAF1F5
:1008E000000F6FD06BE162690B9800273D463946D7
:1008F00090472A2804D162690B980121904701256D
:10090000DFF8D08262690B9801219047A0F1300195
:100910000A290AD24745E5DC07EB870100EB4107CE
:10092000303FDFD445F01005ECE7E90601D46FF065
:1009300000476C280AD04C2814D0682815D06A28A3
:100940000DD074281CD07A281AD01DE062690B984B
:10095000012190476C2802D045F0040514E045F0D1
:1009600002050DE045F020050AE062690B980121BF
:100970009047682802D045F0080505E045F4006579
:1009800062690B9801219047C4E9015765283DD061
:1009900019DC58287AD00CDC452837D004DC25280F
:1009A00026D041289ED131E046282FD0472899D122
:1009B0002CE05B2877D0612828D063287CD064287D
:1009C00023D15AE0F6E06F2848D008DC66281DD015
:1009D00067281BD0692821D06E2816D127E07028FF
:1009E00045D0732868D0752847D078280DD14DE0C0
:1009F000A1690D988847252805463FF469AFE1694C
:100A00000D9888476D1C3FF46AAFD8E00D992346D6
:100A10006A466FF00100AFF30080C5E045F040008A
:100A200023464FF000026060A80736D43EE0E80796
:100A30007FF447AF2068011D21600068290501D5BA
:100A400006701BE7290701D5068017E7A90703D51C
:100A5000F117C0E9006111E706600FE745F04000BB
:100A600023464FF008026060A80716D41EE040F647
:100A70000E0125EA0100606016E045F040002346C3
:100A80004FF00A026060A80707D40FE045F040006D
:100A90006060A80708D5234610220D996FF0010069
:100AA000AFF3008080E007E0102223460D996FF03D
:100AB0000100FFF781FC77E04FF0000963284F4603
:100AC000C8464B46CB4602D05B2806D038E0E80645
:100AD00001D40120A060012732E06269D4F80CB093
:100AE0000B98012190475E2807D14FF00109494634
:100AF0006269D4F80CB00B989047216939B900218C
:100B00000A4603AB43F82120491C0829FADBD8B375
:100B1000216949B308F1010862690B9801219047E6
:100B20005D28F4D1B9F1000F09D0002003A951F8D4
:100B30002020D24341F82020401C0828F7DB03ABDB
:100B40002069002820794FEA40701ED05B4622467B
:100B5000CDF80080CDE901970D9900286FF00100D4
:100B600020DAAFF300801FE0C11703AA00EBD161C8
:100B70004B1121F01F0102EB8302411A136801207F
:100B8000884003431360C7E719E00D992246002807
:100B90006FF00100009702DAAFF3008004E0AFF3DA
:100BA000008001E0AFF3008000280ADA401C06D183
:100BB0000C9820B14FF0FF300FB0BDE8F08F5046D9
:100BC000FAE7E90701D10AF1010A064400200C9076
:100BD00054E60000CCCCCC0C007B00F080007047C9
:100BE000754600F031F8AE4605006946534620F0E0
:100BF0000700854618B020B5FFF706FBBDE820408A
:100C00004FF000064FF000074FF000084FF0000BC8
:100C100021F00701AC46ACE8C009ACE8C009ACE87B
:100C2000C009ACE8C0098D467047000010B500F05F
:100C30000FF8001D10BD00BFA91400000446AFF35B
:100C400000802046FFF7CCFA00487047B40100202E
:100C500000487047D40100204FF0013C50F8042BAD
:100C600051F8043B9A4221D1A2EB0C03934313EABF
:100C7000CC1317D150F8042B51F8043B9A4215D1EC
:100C8000A2EB0C03934313EACC130BD150F8042BC3
:100C900051F8043B9A4209D1A2EB0C03934313EAA7
:100CA000CC13DBD04FF00000704700BFD01A01BA60
:100CB000B1FA81F101F0180122FA01F0CB40C1F143
:100CC0002001DBB2C0B2C01A2CFA01F3D11A914351
:100CD00011EAC311E6D17047FEE7704772B6FEE72E
:100CE00010B590F821100022022905D0042181635B
:100CF00080F82020012010BD01680B6823F00E034E
:100D00000B6001680B6823F001030B6090F8403022
:100D1000C46B012101FA03F3636080F8211080F8AD
:100D20002020104610BD00002DE9F05F90F8211042
:100D30000024022903D004218163012485E0016895
:100D40000A6822F00E020A6001680A6822F00102B5
:100D50000A603F4E3E4FB215DFF8F4C0DFF8F09066
:100D6000DFF8ECA0DFF8E8B0DFF8E4E00168783FF6
:100D700013011502ACF1640CA9F15009AAF13C0A67
:100D8000ABF1280BAEF1140E4FF48018B14227D905
:100D9000B9420ED0614512D049451DD0514518D0F9
:100DA000594518D0714501D1424615E0294EB1424E
:100DB00001D1012210E0274E1436B14201D1102298
:100DC0000AE0244E2836B14206D0224A3C329142F3
:100DD00001D11A4600E02A461E49091F0A602BE08D
:100DE000B94213D0614517D0494522D051451DD095
:100DF00059451DD0714501D142461AE0B14202D198
:100E00004FF0807215E0134EB14201D1012210E083
:100E1000104E1436B14201D110220AE00D4E283690
:100E2000B14206D00B4A3C32914201D11A4600E051
:100E30002A46074980394A60012180F821100021A3
:100E400080F82010416B01B188472046BDE8F09F33
:100E5000800002400804024070B5044600F018F912
:100E60000546601C02D004480078044400F010F9E4
:100E7000401BA042FAD370BD040000202DE9F84FBA
:100E8000DFF8C891002409F1040A0AF1040B234693
:100E90000F270BF1040ED1E00125A54006EA05025B
:100EA000AA4276D1DFF8A8C14E68A6EB0C086645C9
:100EB0002BD00DDC032E34D005DC36B3012E19D037
:100EC000022E2FD11BE0112E16D0122E2AD119E09E
:100ED000B8F5881F19D006DCB8F5803F15D0B8F5F5
:100EE000801F1FD111E0B8F5001F0ED0B8F5041F08
:100EF00018D10AE0CB6815E0CB681B1D12E0CB6867
:100F000008330FE0CB680C330CE08B682BB1012B5E
:100F10004FF0080303D0456104E0042302E00561BB
:100F200000E00023FF2A01D8064601E000F1040694
:100F30004FEA840501D9A5F12005D6F8008007FA0B
:100F400005FC28EA0C0803FA05F548EA0508C6F886
:100F500000804D68ED0070D53E4DAE6946F001064B
:100F6000AE61AD6924F0030605F0010500953A4D28
:100F700006EB050CDCF80850A607360F07FA06F852
:100F800025EA0805DFF8D480404503D14FF000087A
:100F900025E052E0DFF8C880404502D14FF001085B
:100FA0001DE0DFF8C080404502D14FF0020816E096
:100FB000DFF8B480404502D14FF003080FE0DFF8BE
:100FC000AC80404502D14FF0040808E0DFF8A08073
:100FD000404502D14FF0050801E04FF0060808FA3D
:100FE00006F848EA0508CCF808804D68D9F8006092
:100FF000ED034D4601D5164300E096432E604D6843
:10100000DAF80060AD03554601D5164300E096437B
:101010002E604D68DBF80060ED025D4601D5164399
:1010200000E096432E604D68DEF80060AD02754624
:1010300001D5164300E096432E60641C0A681646EC
:10104000E2407FF429AFBDE8F88F000000040140C2
:101050000000111000100240000001400008014093
:10106000000C014000100140001401400018014034
:10107000001C0140C26821EA02030A4043EA02411F
:10108000016170470AB1016170470904FBE7000084
:101090000148806870470000040000200248816811
:1010A000027811448160704704000020074810B5A1
:1010B000016841F010010160032000F075F80F2075
:1010C00000F006F800F024F8002010BD00200240D7
:1010D00070B50D4D04464FF47A712878B1FBF0F0ED
:1010E0000A490968B1FBF0F000F0ECFA48B9102C9D
:1010F00007D200222146501E00F036F800206C6016
:1011000070BD012070BD0000040000201000002010
:101110000C4808B5816941F001018161816901F0E4
:1011200001010091C16941F08051C161C06900F0C5
:10113000805000900448416821F0E06141F0007166
:10114000416008BD0010024000000140002809DB9A
:1011500000F01F02012191404009800000F1E020D1
:10116000C0F8001170470000F0B40E4B1B680C462D
:10117000C3F30223C3F10705042D00D90425191D6B
:10118000072901D2002300E0DB1E012606FA05F143
:10119000491E214099409E40761E16403143F0BCC6
:1011A00000F043BE0CED00E0064900F007020868BD
:1011B0004FF6FF03184040EA0220034A104308603C
:1011C000704700000CED00E00000FA052DE9F04743
:1011D0000F46050061D0434E306800F00700B8426A
:1011E00009D2306820F0070038433060306800F0E2
:1011F0000700B84251D128683B4C810712D54007FF
:1012000003D5606840F4E06060602878000703D58B
:10121000606840F4605060606068A96820F0F00089
:10122000084360602878C00728D06868012810D07B
:101230002168022810D0890700292EDA616821F080
:10124000030101436160FFF723FF804641F28839C3
:101250000DE021688903EFE78901EDE7FFF718FF4B
:10126000A0EB0801494502D90320BDE8F08760687A
:10127000696800F00C00B0EB810FEFD1306800F02E
:101280000700B8420BD9306820F0070038433060BF
:10129000306800F00700B84201D00120E5E7287867
:1012A000400705D56068E96820F4E06008436060A5
:1012B0002878000706D56068296920F4605040EA64
:1012C000C100606000F038F86168084AC1F303119A
:1012D000515CC8400649086006480068FFF7F8FE00
:1012E0000020C2E700200240001002400C2100084C
:1012F00010000020080000200448054900684968E3
:10130000044AC1F30221515CC8407047100000201C
:10131000001002401C210008044805490068496883
:10132000044AC1F3C221515CC8407047100000203C
:10133000001002401C21000812A185B00FC98DE8E1
:101340000F0014A0144A006804905168134801F07B
:101350000C03042B10D0082B0ED1C1F38343C90317
:101360001DF803000AD5516804AAC1F34041515C3D
:101370000A4A5043B0FBF1F005B0704708494843B2
:10138000FAE7000002030405060708090A0B0C0D22
:101390000E0F1010010200000010024000127A002F
:1013A00000093D002DE9F84F040070D02078C04DB1
:1013B000C00749D06868C0F38100012807D0686879
:1013C000C0F38100022809D16868C00306D52868E7
:1013D000800339D560680028E7D035E06068B0F553
:1013E000803F0BD010B1B0F5A02F11D0286820F4A9
:1013F00080302860286820F4802002E0286840F4CB
:1014000080302860606890B1FFF742FE06460AE02F
:10141000286840F480202860F0E700BFFFF738FE1E
:10142000801B642873D828688003F7D50CE0FFF789
:101430002FFE064605E000BFFFF72AFE801B64284A
:10144000F0D828688003F7D420789A4E80074FF0B0
:1014500001094FF0000839D5686810F00C0F07D06B
:101460006868C0F38100022809D16868C00306D407
:101470002868800714D52069012808D110E0206968
:10148000B0B1C6F80090FFF703FE074605E00AE199
:10149000FFF7FEFDC01B0228C4D828688007F7D5D7
:1014A0002868616920F0F80040EAC10028600DE07A
:1014B000C6F80080FFF7ECFD074604E0FFF7E8FD03
:1014C000C01B022823D828688007F7D4207800079B
:1014D0002CD57948A169D9B1C0F80090FFF7D8FDA3
:1014E000074604E0FFF7D4FDC01B02280FD8686A46
:1014F0008007F7D571484FF4FA510068B0FBF1F05E
:10150000009000BF0098411E0091FAD20EE080E0EA
:10151000C0F80080FFF7BCFD074604E0FFF7B8FD08
:10152000C01B022875D8686A8007F7D42078400766
:1015300060D5E8690027C00008D4E86940F0805011
:10154000E861E869012700F0805000905C4801687C
:10155000C90513D40168834641F480710160FFF727
:1015600097FD824606E000BFFFF792FDA0EB0A0060
:1015700064284ED8DBF80000C005F5D5E0680128E6
:101580000AD008B1052813D0286A20F0010028628B
:10159000286A20F0040002E0286A40F00100286276
:1015A000E06841F2883B98B1FFF772FD82460BE09C
:1015B000286A40F004002862EEE700BFFFF768FDEC
:1015C000A0EB0A0159455AD8286A8007F6D50CE0E5
:1015D000FFF75EFD824605E0FFF75AFDA0EB0A012A
:1015E00059454CD8286A8007F6D41FB1E86920F025
:1015F0008050E861E06988B36968C1F3810102291C
:1016000044D00228C6F8608004D0FFF741FD0446AC
:1016100038E034E0FFF73CFD074604E0FFF738FD13
:10162000C01B02282BD828688001F7D4206AB0F5A7
:10163000803F05D16868A16820F4003008436860E5
:10164000D4E908010843696821F47411084368600B
:10165000C6F86090FFF71CFD044606E025E000BFD9
:10166000FFF716FD001B022809D828688001F7D56E
:101670001BE000BFFFF70CFD001B022802D903206E
:10168000BDE8F88F28688001F4D40EE00128F7D077
:101690006868226A00F48031914204D1616A00F4E2
:1016A0007010884201D00120EAE70020E8E700003E
:1016B000001002400000424280044242100000201C
:1016C0000070004010B5401EB0F1807F01D30120B2
:1016D00010BD4FF0E02460610F21601700F0A5FB02
:1016E0000020A06107202061002010BD70477047D6
:1016F000F8B5026804461068D168536910F00F0FFE
:101700004FF0000554D003F0010601F49077374301
:101710005FD0C20705D0CA0503D5226C42F0010292
:101720002264420705D5DA0703D0226C42F0020298
:101730002264820705D5DA0703D0226C42F0040246
:101740002264020707D501F02002324303D0226C45
:1017500042F008022264226C002A35D0800604D5AB
:10176000880602D5204600F04FFA20684069216CB7
:10177000C0F3801001F008010143204625D000F09D
:101780002BFA2068416949061BD5416921F04001C7
:101790004161A06BA8B158494163A06BFFF7C4FA3F
:1017A000002811D0A06B416B01B0BDE8F0400847A4
:1017B00083060ED58B060CD52046BDE8F84000F018
:1017C00023BA2046FFF793FFF8BDFFF790FF25648B
:1017D000F8BD266B2023012E52D1C60650D5CE0669
:1017E0004ED5106850680090506940062AD5A16B0C
:1017F000086840680004000CEAD0A68D8642E7D94C
:10180000E0858869202818D0D06820F48070D060E6
:101810002068416921F0010141612068416921F09E
:101820004001416184F83E3025632068C16821F0A1
:101830001001C160A06BFFF753FAA08DE18D401A33
:1018400081B219E0A08DE18D401A81B2E08D0028AF
:10185000BED00029BCD0D06820F49070D060206841
:10186000426922F00102426184F83E30256320681B
:10187000C26822F01002C2602046FFF737FFF8BDB1
:1018800005062BD50D0629D594F83D002128F6D163
:10189000A068B0F5805F01D12069B0B1206A411C19
:1018A0002162216800784860E08C401E0004000C32
:1018B000E084E4D12068C16821F08001C160206823
:1018C000C16841F04001C160F8BD206A0088C0F3E2
:1018D00008005060206A801C2062E5E74006F3D5CE
:1018E0004806F1D5D168204621F04001D16084F846
:1018F0003D3000F0E4F8F8BDC91B000870B50400E5
:1019000004D094F83D00002510B106E0012070BD20
:1019100084F83C50204600F023F8242084F83D0051
:101920002068C16821F40051C160204600F0C8F968
:101930002068016921F4904101612068416921F02A
:101940002A0141612068C16841F40051C1602564E9
:10195000202084F83D0084F83E00002070BD000087
:1019600030B585B00024009401940294039400687B
:10197000184988422CD11848816941F4804181611D
:10198000816901F480410491816941F00401816120
:101990008069124D00F0040004904FF40070009034
:1019A000022001900320039069462846FFF766FA5B
:1019B0002815CDE90004694628460294FFF75EFA2F
:1019C000002211462520FFF7CFFB2520FFF7BEFBA5
:1019D00005B030BD00380140001002400008014051
:1019E00090F83E30202B0ED159B152B190F83C30D6
:1019F000012B08D0012380F83C300023036300F062
:101A0000BBB9012070470220704770472DE9F843A9
:101A1000044690F83D001F4616460D4620284CD13E
:101A2000C5B1BEB194F83C00012846D0012084F82D
:101A30003C004FF00008C4F84080212084F83D00AD
:101A4000FFF726FBA6848146E684A068B0F5805F98
:101A500003D004E00120BDE8F883206928B12E46B8
:101A60005FF0000584F83C800EE00026FAE7802154
:101A7000204600F09CF9A0B9AEB116F8010B216820
:101A80004860E08C401EE084E08C4B464FF0000242
:101A900000970028EBD14FF04001204600F087F975
:101AA00030B10320D7E735F8020BC0F30800E6E7B2
:101AB000202084F83D000020CDE70220CBE77047CE
:101AC000FEE7000070B586B000241448009401942D
:101AD00002940394816941F020018161816901F0E0
:101AE00020010491816941F0040181618069012232
:101AF00000F004000A4E1502049029463046FFF714
:101B0000C1FA01200095CDE9010402200390694645
:101B10003046FFF7B3F906B070BD00000010024078
:101B2000000801400C4810B50A4901604FF4E1314A
:101B30004160002181600C22C160C0E90412816112
:101B4000C161FFF7DBFE002803D0BDE81040FFF7BE
:101B5000C5B810BD003801402C000020FEE7FEE7AC
:101B600070477047FFF79ABA30B58FB028216846A2
:101B7000FEF766FD14210AA8FEF762FD01210804A4
:101B8000CDE900100024029402250491CDE907500C
:101B90004FF4E01009906846FFF704FC08B172B6F4
:101BA000FEE70F20CDE90A054FF48060CDE90C4037
:101BB00002210AA80E94FFF709FB002801D072B693
:101BC000FEE70FB030BD704710B5406A0021C185F7
:101BD000C184FFF78CFD10BD0168CA6822F49072C1
:101BE000CA6001684A6922F001024A61016B012959
:101BF00004D10168CA6822F01002CA60202180F86E
:101C00003E1000210163704708B590F83E1022296C
:101C100001D0022008BD82684FF480539A4201D15E
:101C2000016921B1816A9A421BD04AB10AE0026877
:101C3000816A5268C2F308020A80816A891C08E03E
:101C4000026972B10268526802F07F020A70816A0A
:101C5000491C8162C18D491E0904090CC18503D04C
:101C600019E002685268F1E70168CA6822F02002B0
:101C7000CA600168CA6822F48072CA6001684A6951
:101C800022F001024A61202180F83E10016B0129F7
:101C900003D0FFF7BAFE002008BD002101630168F0
:101CA000CA6822F01002CA6001680A68D20602D52A
:101CB0000A6849680091818DFFF718FDEBE7000085
:101CC00070B5044600680169E26821F4405111438F
:101CD00001612169A0680843616908432168CA68F5
:101CE00041F20C639A430243CA6020684169A269C9
:101CF00021F44071114341611E492068884202D19C
:101D0000FFF70AFB01E0FFF7F7FA00EBC00101EB78
:101D10000012606864218000B2FBF0F3B3FBF1F3C2
:101D20006FF018067343B2FBF0F5B2FBF0F605EB6B
:101D30008305322303EB0515B5FBF1F5B6FBF1F690
:101D400005F0F00505EB0615B2FBF0F6B2FBF0F07E
:101D5000B0FBF1F06FF01802504306EB800003EB8C
:101D60000010B0FBF1F0216800F00F0028448860FB
:101D700070BD00000038014081628285C28500216B
:101D80000164222280F83E2080F83C100168CA6875
:101D900042F48072CA6001684A6942F001024A61F5
:101DA0000068C16841F02001C160002070472DE942
:101DB000F041984617460E460446069D1DE0681CF5
:101DC0001BD02DB1FFF764F9A0EB0800A84214D98D
:101DD0002068C16821F4D071C1602068416921F098
:101DE00001014161202084F83D0084F83E0000207C
:101DF00084F83C000320BDE8F0812068006836EAE2
:101E0000000004D00020B842D9D00020F3E7012020
:101E1000F9E7000010B50348FFF76AFCBDE8104081
:101E200000F048B92C000020FEE70907090E002841
:101E300004DB00F1E02080F80014704700F00F0090
:101E400000F1E02080F8141D7047704770B57E28BF
:101E50001DD80F4C0025202821780AD2002916D041
:101E600025700C4800F018F840210A48FEF7C6FB20
:101E700003E0084A5054491C21702078402806D3BA
:101E80002570BDE8704040210248FEF7B7BB70BD29
:101E900018000020740100202DE9F04102260E4DAB
:101EA0000746002455F83400FEF73EFB8046024604
:101EB00055F834103846FEF756FB38B907EB0800E2
:101EC00000F0C7F805EBC40149688847641CB442B8
:101ED000E8DBBDE8F08100001C00002008B5684682
:101EE00000F0BEF8002803D09DF80000FFF7AEFF19
:101EF00008BD000013B54FF6FF7301226946024882
:101F0000FFF784FD00981CBD2C00002070B5022551
:101F100007A0FEF78DF90B4E002400BF56F83410D1
:101F200009A0FEF785F9641CAC42F7DB70BD000028
:101F3000746869732069732068656C7065727E0DC2
:101F40000A0000001C0000202573200D0A0000007C
:101F5000F8B504461FA1FEF7D5FA20B1BDE8F84058
:101F60001DA0FEF765B925A12046FEF7CBFA244E49
:101F70004FF4807508B1002205E022A12046FEF74B
:101F8000C1FA30B1012229463046BDE8F840FFF7DA
:101F900079B81DA12046FEF7B5FA002818D06A4688
:101FA0001BA12046FEF7EAF9012811D11BA00099D8
:101FB000FEF73EF9002407E029463046FFF75AF8BD
:101FC0006420FEF749FF641C0098B4EB400FF3DB7C
:101FD000F8BD00002D680000796F752063616E20E8
:101FE000757365205B6F6E2F6F66665D206374721C
:101FF0006C206C6564200D0A000000006F6E00000C
:10200000000801406F666600626C696E6B0000003C
:10201000626C696E6B202564000000006C656420B2
:10202000626567696E20626C696E6B20256420743E
:10203000696D65200D0A0000FFF738F8FFF794FD81
:10204000FFF740FDFFF76EFD00F032F8FFF746FFA7
:10205000FCE700E0401C01782029FBD0704700001D
:102060000A490B884A8893420DD00B1DD25C02703E
:102070004888401C80B24880B0F5807F01D10020A4
:102080004880012070470020704700007000002049
:1020900006490A1D0B8898540888401C80B20880A5
:1020A000B0F5807F01D100200880704770000020CB
:1020B00000F00CB8044810B50078FFF7E9FFBDE860
:1020C000104000F003B80000140000200122024973
:1020D0000248FFF785BC0000140000202C000020FF
:1020E00010B500290AD00878002807D005487844A0
:1020F000FEF7B2FD002801D0002010BD0248784450
:1021000010BD00005E00000056000000000000004E
:102110000000000001020304060708090000000097
:10212000010203043F0000006C6564005C220008AB
:10213000000000202C0000006C010008882200082C
:102140002C000020EC0700008801000810010000AE
:1021500043000000F8FFFFFF004040404040404087
:10216000404041414141414040404040404040406A
:10217000404040404040404040050202020202020E
:10218000020202020202020202202020202020205D
:102190002020200202020202020290909090909071
:1021A000101010101010101010101010101010102F
:1021B00010101010020202020202888888888888A3
:1021C000080808080808080808080808080808088F
:1021D0000808080802020202400000000000000097
:1021E00000000000000000000000000000000000EF
:1021F00000000000000000000000000000000000DF
:1022000000000000000000000000000000000000CE
:1022100000000000000000000000000000000000BE
:1022200000000000000000000000000000000000AE
:10223000000000000000000000000000000000009E
:10224000000000000000000000000000000000008E
:10225000000000000000000000000000000000007E
:102260000100000010000000000000000024F40045
:102270000000000000000000242100080D1F0008DD
:0822800028210008511F00088D
:0400000508000131BD
:00000001FF
