:020000040800F2
:1000000088060020CD0100080F4C0008FD0A0008FA
:100010000D4C0008CF020008794C000800000000D9
:10002000000000000000000000000000134C000869
:10003000D102000800000000114C0008154C000817
:10004000E7010008E7010008E7010008E7010008F0
:10005000E7010008E7010008E7010008E7010008E0
:10006000E7010008E7010008E7010008E7010008D0
:10007000E7010008E7010008E7010008E7010008C0
:10008000E7010008E7010008E7010008E7010008B0
:10009000E7010008E7010008E7010008E7010008A0
:1000A000E7010008E7010008E7010008E701000890
:1000B000E7010008E7010008E7010008E701000880
:1000C000E7010008E7010008E7010008E701000870
:1000D000E7010008E7010008E7010008E701000860
:1000E000E7010008E7010008E7010008E701000850
:1000F000E7010008E7010008E7010008E701000840
:10010000E7010008E7010008E7010008E70100082F
:10011000E7010008E7010008E7010008E70100081F
:10012000E7010008E7010008E7010008E70100080F
:1001300000F002F800F03AF80AA090E8000C8244BF
:100140008344AAF10107DA4501D100F02FF8AFF29C
:10015000090EBAE80F0013F0010F18BFFB1A43F0A5
:100160000103184784950000A4950000103A24BFAD
:1001700078C878C1FAD8520724BF30C830C144BF0C
:1001800004680C607047000000230024002500264E
:10019000103A28BF78C1FBD8520728BF30C148BFEA
:1001A0000B6070471FB51FBD10B510BD00F058F8AB
:1001B0001146FFF7F7FF04F071FD00F076F803B485
:1001C000FFF7F2FF03BC00F07BF80000094880470E
:1001D00009480047FEE7FEE7FEE7FEE7FEE7FEE729
:1001E000FEE7FEE7FEE7FEE704480549054A064B41
:1001F00070470000774C000831010008880000209B
:100200008806002088020020880200204FF00002AB
:1002100000B5134694469646203922BFA0E80C50FC
:10022000A0E80C50B1F12001BFF4F7AF090728BFD7
:10023000A0E80C5048BF0CC05DF804EB890028BF53
:1002400040F8042B08BF704748BF20F8022B11F07C
:10025000804F18BF00F8012B7047704770477047F8
:10026000754600F029F8AE4605006946534620F071
:100270000700854618B020B5FFF7B6FFBDE820405F
:100280004FF000064FF000074FF000084FF0000B52
:1002900021F00701AC46ACE8C009ACE8C009ACE805
:1002A000C009ACE8C0098D4670470446AFF3008032
:1002B0002046FFF784FF000000487047240000201C
:1002C00001491820ABBEFEE7260002007047FEE79A
:1002D0007047000070B5044600F010F90546601C38
:1002E00002D004480078044400F008F9401BA04202
:1002F000FAD370BD000000202DE9F84FDFF8C89157
:10030000002409F1040A0AF1040B23460F270BF11C
:10031000040ED1E00125A54006EA0502AA4276D1E5
:10032000DFF8A8C14E68A6EB0C0866452BD00DDCA3
:10033000032E34D005DC36B3012E19D0022E2FD176
:100340001BE0112E16D0122E2AD119E0B8F5881F05
:1003500019D006DCB8F5803F15D0B8F5801F1FD145
:1003600011E0B8F5001F0ED0B8F5041F18D10AE04F
:10037000CB6815E0CB681B1D12E0CB6808330FE09B
:10038000CB680C330CE08B682BB1012B4FF00803CA
:1003900003D0456104E0042302E0056100E000238E
:1003A000FF2A01D8064601E000F104064FEA840561
:1003B00001D9A5F12005D6F8008007FA05FC28EA46
:1003C0000C0803FA05F548EA0508C6F800804D68F0
:1003D000ED0070D53E4DAE6946F00106AE61AD69E7
:1003E00024F0030605F0010500953A4D06EB050CD7
:1003F000DCF80850A607360F07FA06F825EA0805C4
:10040000DFF8D480404503D14FF0000825E052E0EA
:10041000DFF8C880404502D14FF001081DE0DFF849
:10042000C080404502D14FF0020816E0DFF8B480EA
:10043000404502D14FF003080FE0DFF8AC804045A3
:1004400002D14FF0040808E0DFF8A080404502D157
:100450004FF0050801E04FF0060808FA06F848EAF0
:100460000508CCF808804D68D9F80060ED034D46CA
:1004700001D5164300E096432E604D68DAF800601F
:10048000AD03554601D5164300E096432E604D68F6
:10049000DBF80060ED025D4601D5164300E09643AF
:1004A0002E604D68DEF80060AD02754601D516433A
:1004B00000E096432E60641C0A681646E2407FF412
:1004C00029AFBDE8F88F00000004014000001110C2
:1004D000001002400000014000080140000C0140F3
:1004E000001001400014014000180140001C0140B0
:1004F0000AB1016170470904FBE700000148806808
:100500007047000000000020024881680278114412
:100510008160704700000020074810B5016841F075
:1005200010010160032000F067F80F2000F006F8CA
:1005300000F024F8002010BD0020024070B50D4DE1
:1005400004464FF47A712878B1FBF0F00A49096843
:10055000B1FBF0F000F0BEFA48B9102C07D200222F
:100560002146501E00F028F800206C6070BD01206C
:1005700070BD0000000000200C0000200C4808B5F1
:10058000816941F001018161816901F001010091FE
:10059000C16941F08051C161C06900F08050009094
:1005A0000448416821F0E06141F00071416008BDFC
:1005B0000010024000000140F0B40E4B1B680C46D6
:1005C000C3F30223C3F10705042D00D90425191D27
:1005D000072901D2002300E0DB1E012606FA05F1FF
:1005E000491E214099409E40761E16403143F0BC82
:1005F00004F043BB0CED00E0064900F00702086878
:100600004FF6FF03184040EA0220034A10430860F7
:10061000704700000CED00E00000FA052DE9F047FE
:100620000F46050061D0434E306800F00700B84225
:1006300009D2306820F0070038433060306800F09D
:100640000700B84251D128683B4C810712D54007BA
:1006500003D5606840F4E06060602878000703D547
:10066000606840F4605060606068A96820F0F00045
:10067000084360602878C00728D06868012810D037
:100680002168022810D0890700292EDA616821F03C
:10069000030101436160FFF731FF804641F2883971
:1006A0000DE021688903EFE78901EDE7FFF726FFF9
:1006B000A0EB0801494502D90320BDE8F087606836
:1006C000696800F00C00B0EB810FEFD1306800F0EA
:1006D0000700B8420BD9306820F00700384330607B
:1006E000306800F00700B84201D00120E5E7287823
:1006F000400705D56068E96820F4E0600843606061
:100700002878000706D56068296920F4605040EA1F
:10071000C100606000F018F86168084AC1F3031175
:10072000515CC8400649086006480068FFF706FFAC
:100730000020C2E70020024000100240984F00084D
:100740000C0000200400002012A185B00FC98DE824
:100750000F0014A0144A006804905168134801F077
:100760000C03042B10D0082B0ED1C1F38343C90313
:100770001DF803000AD5516804AAC1F34041515C39
:100780000A4A5043B0FBF1F005B0704708494843AE
:10079000FAE7000002030405060708090A0B0C0D1E
:1007A0000E0F1010010200000010024000127A002B
:1007B00000093D002DE9F84F040070D02078C04DAD
:1007C000C00749D06868C0F38100012807D0686875
:1007D000C0F38100022809D16868C00306D52868E3
:1007E000800339D560680028E7D035E06068B0F54F
:1007F000803F0BD010B1B0F5A02F11D0286820F4A5
:1008000080302860286820F4802002E0286840F4C6
:1008100080302860606890B1FFF770FE06460AE0FD
:10082000286840F480202860F0E700BFFFF766FEEC
:10083000801B642873D828688003F7D50CE0FFF785
:100840005DFE064605E000BFFFF758FE801B6428EA
:10085000F0D828688003F7D420789A4E80074FF0AC
:1008600001094FF0000839D5686810F00C0F07D067
:100870006868C0F38100022809D16868C00306D403
:100880002868800714D52069012808D110E0206964
:10089000B0B1C6F80090FFF731FE074605E00AE167
:1008A000FFF72CFEC01B0228C4D828688007F7D5A4
:1008B0002868616920F0F80040EAC10028600DE076
:1008C000C6F80080FFF71AFE074604E0FFF716FEA1
:1008D000C01B022823D828688007F7D42078000797
:1008E0002CD57948A169D9B1C0F80090FFF706FE70
:1008F000074604E0FFF702FEC01B02280FD8686A13
:100900008007F7D571484FF4FA510068B0FBF1F059
:10091000009000BF0098411E0091FAD20EE080E0E6
:10092000C0F80080FFF7EAFD074604E0FFF7E6FDA8
:10093000C01B022875D8686A8007F7D42078400762
:1009400060D5E8690027C00008D4E86940F080500D
:10095000E861E869012700F0805000905C48016878
:10096000C90513D40168834641F480710160FFF723
:10097000C5FD824606E000BFFFF7C0FDA0EB0A0000
:1009800064284ED8DBF80000C005F5D5E0680128E2
:100990000AD008B1052813D0286A20F00100286287
:1009A000286A20F0040002E0286A40F00100286272
:1009B000E06841F2883B98B1FFF7A0FD82460BE06A
:1009C000286A40F004002862EEE700BFFFF796FDBA
:1009D000A0EB0A0159455AD8286A8007F6D50CE0E1
:1009E000FFF78CFD824605E0FFF788FDA0EB0A01CA
:1009F00059454CD8286A8007F6D41FB1E86920F021
:100A00008050E861E06988B36968C1F38101022917
:100A100044D00228C6F8608004D0FFF76FFD04467A
:100A200038E034E0FFF76AFD074604E0FFF766FDB3
:100A3000C01B02282BD828688001F7D4206AB0F5A3
:100A4000803F05D16868A16820F4003008436860E1
:100A5000D4E908010843696821F474110843686007
:100A6000C6F86090FFF74AFD044606E025E000BFA7
:100A7000FFF744FD001B022809D828688001F7D53C
:100A80001BE000BFFFF73AFD001B022802D903203C
:100A9000BDE8F88F28688001F4D40EE00128F7D073
:100AA0006868226A00F48031914204D1616A00F4DE
:100AB0007010884201D00120EAE70020E8E700003A
:100AC0000010024000004242800442420C0000201C
:100AD0000070004010B5401EB0F1807F01D30120AE
:100AE00010BD4FF0E02460610F21601704F0C5F8DD
:100AF0000020A06107202061002010BDFEE700005B
:100B00002DE9F043164C814600252088668846432F
:100B1000A088A0F5D041043902D1A079012806D0DF
:100B20000021084603F06CFE04F00AF814E00020EF
:100B3000A0712A2767814FF02B08A4F80C8001468A
:100B400003F05EFE0120A071A4F80A80A781EBE704
:100B5000484603F0D1FF6D1CB542F9D3BDE8F083E0
:100B6000140000202DE9F04F4A492A242B258988BA
:100B700045F2105A4FF4305B4FF4285E4FF448763C
:100B80004FF0F00C49F241394FF4A07345F21037A1
:100B90004FF4F07280B13F484FF00108494580F8AA
:100BA00006800380A0F802C001D0B9423ED12C26B5
:100BB00006814481858157E036484FF00008494559
:100BC00080F80680A0F800C0438006D0A1F5D04C84
:100BD000BCF1040C01D0B9420CD12C260681448111
:100BE000A1F5D0448581043C01D0B94244D10380B1
:100BF000428041E0514507D1A0F808B0A0F80AE0D2
:100C00004FF42C5181810EE0A1F5C853633B06D00F
:100C10002221018120214181212181812CE02C216F
:100C20000181458184810280468025E0A1F5D04C78
:100C3000BCF1040C09D051450BD1A0F808B0A0F8C4
:100C40000AE04FF42C54848121E02C260681458152
:100C500009E0A1F5C85CBCF1630C12D02224048128
:100C60002124448120248481A1F5D044043C01D076
:100C7000B94201D102804380BDE8F04F002003F06B
:100C8000BDBC4FF02C0CA0F808C0448185810680C3
:100C90004280E9E7140000202DE9FE4F161ACDE945
:100CA00000104FF000085D1A47464FF0FF30002E4D
:100CB00002DD4FF0010102E003D14FF000018B464D
:100CC00002E08346C6F10006002D02DD4FF0010070
:100CD00002E003D14FF00000824602E08246C5F1F7
:100CE0000005AE4201DD344600E02C46601C4FF0AA
:100CF0000009029018E0009881B2019880B200F0DB
:100D000019F8B0442F44A04504DD0198A8EB04086D
:100D100058440190A74203DD00983F1B50440090C7
:100D200009F101001FFA80F902998945E3DDBDE868
:100D3000FE8F000000B503F063FD03F001FF0348E0
:100D400000885DF804EB03F0D7BE0000100000201F
:100D5000F0B51C4615460E4607460B46FFF79CFFAE
:100D60003A46234631461046FFF796FF23462A4669
:100D700019463846FFF790FF2A4623463146BDE81C
:100D8000F0401046FFF788BF2DE9FC4F8046002554
:100D9000144603200F46A0EB440649E0381B81B2FD
:100DA00008EB050A01901FFA8AF0FFF7C3FF781BD2
:100DB00081B208EB040900901FFA89F0FFF7BAFF2F
:100DC00007EB050B1FFA8BF11FFA89F0FFF7B2FF53
:100DD00007EB04091FFA89F11FFA8AF0FFF7AAFF4F
:100DE000A8EB050A1FFA89F11FFA8AF0FFF7A2FFA4
:100DF000A8EB04091FFA8BF11FFA89F0FFF79AFF9D
:100E0000019881B21FFA8AF0FFF794FF009881B22F
:100E10001FFA89F0FFF78EFF6D1C002E03DA06EB38
:100E20008506B61D04E0281B06EB8006641E0A3604
:100E3000A542B3DDBDE8FC8F2DE9F043484D0E46D9
:100E400004464FEA1128A88829469146270A4A896C
:100E5000A0F51343413B16D0A0F5A641103912D09E
:100E6000B1F5007114D02B46A0F5C85799791B88AD
:100E70001B1B5B1E633F25D0A0F5D047043F3DD030
:100E8000012951D051E0104603F048FE38463CE0BD
:100E9000104603F043FE384603F02EFE6889401CDE
:100EA00080B203F03BFEE0B203F026FEA88903F017
:100EB00035FE404603F020FEA889401C80B203F0B6
:100EC0002DFE2DE001B99CB2104603F027FE270A43
:100ED000384603F011FEE0B203F00EFE384603F090
:100EE0000BFEE0B203F008FEA88903F017FE4046AF
:100EF00003F002FEF0B203F0FFFD0EE0012900D185
:100F00009CB2104603F00AFE200A03F0F5FDE0B2A1
:100F100003F0F2FDA88903F001FE404603F0ECFD6A
:100F2000F0B203F0E9FD08E09CB22146104603F060
:100F30000DFEA889314603F009FE0A484FF480717E
:100F4000416141154161084B2A891A608022426142
:100F5000026101614846BDE8F04303F0CDBD0000E9
:100F600014000020001001400C0C01402DE9F05F3E
:100F70003220FFF7AFF90121002003F0E7FD322016
:100F8000FFF7A8F9002003F00BFBFE4C49F24137B4
:100F900046F60408A08045F2103945F210564FF687
:100FA000FF75FF2804D3A84202D0B0F5134F6BD1D0
:100FB000D32003F0B3FD03F0BBFA03F0B9FA03F05A
:100FC000B7FA05EA0020A08003F0B2FAA18808432E
:100FD000A080B84258D0BF2003F0A0FD03F0A8FACB
:100FE00003F0A6FA03F0A4FA03F0A2FA05EA00203F
:100FF000A08003F09DFAA1880843A080404543D01B
:10100000D42003F08BFD03F093FA03F091FA03F080
:101010008FFA05EA0020A08003F08AFAA18808432D
:10102000A080484530D04FF45A4003F077FD03F0DC
:101030007FFA4FF45B4003F071FD03F079FA05EAA3
:101040000020A0804FF45C4003F068FD03F070FACC
:10105000A1880843A080B0F5004F7DD0B04213D0E6
:10106000A12003F05BFD03F063FAA08003F060FAB7
:1010700005EA0020A08003F05BFAA1880843A0F5F0
:10108000AE41A080613968D080B2B84266D1CF202D
:1010900003F044FD002003F02FFDC12003F02CFDE0
:1010A000302003F029FDED2003F038FD642003F02B
:1010B00023FD032003F020FD122003F01DFD8120FD
:1010C00003F01AFDE82003F029FD852003F014FD4C
:1010D000102003F011FD7A2003F00EFDCB2003F069
:1010E0001DFD392003F008FD2C2003F005FD002034
:1010F00003F002FD342003F0FFFC022003F0FCFCAF
:10110000F72003F00BFD202003F0F6FCEA2003F0AB
:1011100005FD002003F0F0FC002003F0EDFCC020F2
:1011200003F0FCFC1B2003F0E7FCC12003F0F6FCFD
:10113000012003F0E1FCC52003F0F0FC302003F0B7
:10114000DBFC302003F0D8FCC72003F0E7FCB7201D
:1011500003F0D2FC362002E0B1E0ABE0B2E003F0F5
:10116000DDFC482003F0C8FC3A2003F0D7FC5520F2
:1011700003F0C2FCB12003F0D1FC002003F0BCFC62
:101180001A2003F0B9FCB62003F0C8FC0A2003F0D3
:10119000B3FCA22003F0B0FCF22003F0BFFC00205F
:1011A00003F0AAFC262003F0B9FC012003F0A4FC04
:1011B000E02003F0B3FC0F2003F09EFC2A2003F094
:1011C0009BFC282003F098FC082003F095FC0E20DF
:1011D00003F092FC082003F08FFC542003F08CFCF9
:1011E000A92003F089FC432003F086FC0A2003F0C9
:1011F00083FC0F2003F080FC002003F07DFC002026
:1012000003F07AFC002003F077FC002003F074FC6C
:10121000E12003F083FC002003F06EFC152003F0B6
:101220006BFC172003F068FC072003F065FC11201D
:1012300003F062FC062003F05FFC2B2003F05CFC53
:10124000562003F059FC3C2003F056FC052003F027
:1012500053FC102003F050FC0F2003F04DFC3F2006
:1012600003F04AFC3F2003F047FC0F2003F044FC4E
:101270002B2003F053FC002003F03EFC002003F081
:101280003BFC012003F038FC3F2003F035FC2A2012
:1012900003F044FC002003F02FFC002003F02CFCA2
:1012A000002003F029FCEF2003F026FC112003F0BE
:1012B00035FCB0E041F66310A08003F069B8A68069
:1012C00001F02DB840457CD1112003F027FC1420FB
:1012D000FFF700F8D02003F021FC072003F00CFCFE
:1012E000422003F009FC1D2003F006FCD12003F08E
:1012F00015FC002003F000FC1A2003F0FDFB092080
:1013000003F0FAFBD22003F009FC012003F0F4FB08
:10131000222003F0F1FBC02003F000FC102003F0BA
:10132000EBFB3B2003F0E8FB002003F0E5FB022091
:1013300003F0E2FB112003F0DFFBC52003F0EEFB1E
:10134000032003F0D9FBC82003F0E8FB002003F0E2
:10135000D3FB252003F0D0FB212003F0CDFB05209B
:1013600003F0CAFB002003F0C7FB0A2003F0C4FB14
:10137000652003F0C1FB252003F0BEFB772003F0BE
:10138000BBFB01E014000020502003F0B5FB0F2050
:1013900003F0B2FB002003F0AFFBF82003F0BEFB2C
:1013A000012003F0A9FBFE2003F0B8FB002003F0AE
:1013B000A3FB022003F0A0FB202003F0AFFB3620AC
:1013C00000E02EE003F0AAFB082003F095FB3A2092
:1013D00003F0A4FB552003F08FFB2B2003F09EFBB2
:1013E000002003F089FB002003F086FB012003F0BE
:1013F00083FB3F2003F080FB2A2003F08FFB0020BB
:1014000003F07AFB002003F077FB012003F074FB6C
:10141000DF2003F071FB7820FEF75CFF292001F04C
:10142000FCBE48457ED1ED2003F078FB012003F09F
:1014300063FBFE2003F060FBEE2003F06FFBDE2079
:1014400003F05AFB212003F057FBF12003F066FB69
:10145000012003F051FBDF2003F060FB102003F0BC
:101460004BFBC42003F05AFB8F2003F045FBC62042
:1014700003F054FB002003F03FFBE22003F03CFBB1
:10148000E22003F039FBE22003F036FBBF2003F03B
:1014900045FBAA2003F030FBB02003F03FFB0D20FA
:1014A00003F02AFB002003F027FB0D2003F024FBB0
:1014B000002003F021FB112003F01EFB002003F0AD
:1014C0001BFB192003F018FB002003F015FB212063
:1014D00003F012FB002003F00FFB2D2003F00CFBA8
:1014E000002003F009FB3D2003F006FB002003F081
:1014F00003FB5D2003F000FB002003F0FDFA5D20FC
:1015000003F0FAFA002003F0F7FAB12003F006FB2B
:10151000802003F0F1FA002003F0EEFA8B2003F0B4
:10152000EBFA00E0FDE3002003F0E6FA962003F07A
:10153000E3FA002003F0E0FAB22003F0EFFA002013
:1015400003F0DAFA002003F0D7FA022003F0D4FA0D
:10155000002003F0D1FA032003F0CEFA002003F0BC
:10156000CBFAB32003F0DAFA002003F0C5FA00202A
:1015700003F0C2FA002003F0BFFA002003F0BCFA27
:10158000002003F0B9FA002003F0B6FA002003F0BF
:10159000B3FA002003F0B0FA002003F0ADFA002007
:1015A00003F0AAFA002003F0A7FA002003F0A4FA3F
:1015B000002003F0A1FA002003F09EFA002003F0BF
:1015C0009BFA002003F098FA002003F095FA00201F
:1015D00003F092FA002003F08FFA002003F08CFA57
:1015E000002003F089FA002003F086FA002003F0BF
:1015F00083FA002003F080FAB42003F08FFA8B20E6
:1016000003F07AFA002003F077FA962003F074FAD8
:10161000002003F071FAA12003F06EFA002003F01D
:101620006BFAB52003F07AFA022003F065FA002085
:1016300003F062FA032003F05FFA002003F05CFA83
:10164000042003F059FA002003F056FAB62003F004
:1016500065FA002003F050FA002003F04DFAB7209D
:1016600003F05CFA002003F047FA002003F044FA8C
:101670003F2003F041FA002003F03EFA5E2003F021
:101680003BFA002003F038FA642003F035FA00201A
:1016900003F032FA8C2003F02FFA002003F02CFA2A
:1016A000AC2003F029FA002003F026FADC2003F036
:1016B00023FA002003F020FA702003F01DFA002026
:1016C00003F01AFA902003F017FA002003F014FA3E
:1016D000EB2003F011FA002003F00EFADC2003F0F7
:1016E0000BFA002003F008FAB82003F017FA0020E4
:1016F00003F002FA002003F0FFF9002003F0FCF9E8
:10170000002003F0F9F9002003F0F6F9002003F0BF
:10171000F3F9002003F0F0F9002003F0EDF9BA200E
:1017200003F0FCF9242003F0E7F9002003F0E4F9CA
:10173000002003F0E1F9002003F0DEF9C12003F0FE
:10174000EDF9202003F0D8F9002003F0D5F954205A
:1017500003F0D2F9002003F0CFF9FF2003F0CCF919
:10176000002003F0C9F9C22003F0D8F90A2003F0E1
:10177000C3F9002003F0C0F9042003F0BDF90020F4
:1017800003F0BAF9C32003F0C9F93C2003F0B4F91F
:10179000002003F0B1F93A2003F0AEF9002003F085
:1017A000ABF9392003F0A8F9002003F0A5F93720A0
:1017B00003F0A2F9002003F09FF93C2003F09CF90C
:1017C000002003F099F9362003F096F9002003F089
:1017D00093F9322003F090F9002003F08DF92F20C7
:1017E00003F08AF9002003F087F92C2003F084F934
:1017F000002003F081F9292003F07EF9002003F096
:101800007BF9262003F078F9002003F075F92420F5
:1018100003F072F9002003F06FF9242003F06CF953
:10182000002003F069F9232003F066F9002003F09B
:1018300063F93C2003F060F9002003F05DF93620E5
:1018400003F05AF9002003F057F9322003F054F95D
:10185000002003F051F92F2003F04EF9002003F08F
:101860004BF92C2003F048F9002003F045F929201A
:1018700003F042F9002003F03FF9262003F03CF981
:10188000002003F039F9242003F036F9002003F09A
:1018900033F9242003F030F9002003F02DF9232040
:1018A00003F02AF9002003F027F9C42003F036F9E9
:1018B000622003F021F9002003F01EF9052003F057
:1018C0001BF9002003F018F9842003F015F900201B
:1018D00003F012F9F02003F00FF9002003F00CF9E7
:1018E000182003F009F9002003F006F9A42003F002
:1018F00003F9002003F000F9182003F0FDF80020A0
:1019000003F0FAF8502003F0F7F8002003F0F4F8A1
:101910000C2003F0F1F8002003F0EEF8172003F09C
:10192000EBF8002003F0E8F8952003F0E5F800203C
:1019300003F0E2F8F32003F0DFF8002003F0DCF816
:10194000E62003F0D9F8002003F0D6F8C52003F014
:10195000E5F8322003F0D0F8002003F0CDF8442061
:1019600003F0CAF8002003F0C7F8652003F0C4F8BC
:10197000002003F0C1F8762003F0BEF8002003F049
:10198000BBF8882003F0B8F8002003F0B5F8C620B3
:1019900003F0C4F8202003F0AFF8002003F0ACF807
:1019A000172003F0A9F8002003F0A6F8012003F0A7
:1019B000A3F8002003F0A0F8C72003F0AFF8002040
:1019C00003F09AF8002003F097F8002003F094F851
:1019D000002003F091F8C82003F0A0F8002003F0E5
:1019E0008BF8002003F088F8002003F085F8002031
:1019F00003F082F8C92003F091F8002003F07CF88E
:101A0000002003F079F8002003F076F8002003F0BE
:101A100073F8002003F070F8002003F06DF8002048
:101A200003F06AF8002003F067F8002003F064F880
:101A3000002003F061F8002003F05EF8002003F0BE
:101A40005BF8002003F058F8002003F055F8002060
:101A500003F052F8002003F04FF8E02003F05EF8A6
:101A6000162003F049F8002003F046F81C2003F08C
:101A700043F8002003F040F8212003F03DF8002057
:101A800003F03AF8362003F037F8002003F034F87A
:101A9000462003F031F8002003F02EF8522003F026
:101AA0002BF8002003F028F8642003F025F800202C
:101AB00003F022F87A2003F01FF8002003F01CF84E
:101AC0008B2003F019F8002003F016F8992003F09A
:101AD00013F8002003F010F8A82003F00DF8002000
:101AE00003F00AF8B92003F007F8002003F004F827
:101AF000C42003F001F8002002F0FEFFCA2002F02B
:101B0000FBFF002002F0F8FFD22002F0F5FF0020DA
:101B100002F0F2FFD92002F0EFFF002002F0ECFF0C
:101B2000E02002F0E9FF002002F0E6FFF32002F0DF
:101B3000E3FF002002F0E0FFE12002F0EFFF1620BB
:101B400002F0DAFF002002F0D7FF1C2002F0D4FFE1
:101B5000002002F0D1FF222002F0CEFF002002F090
:101B6000CBFF362002F0C8FF002002F0C5FF452061
:101B700002F0C2FF002002F0BFFF522002F0BCFFC3
:101B8000002002F0B9FF642002F0B6FF002002F04E
:101B9000B3FF7A2002F0B0FF002002F0ADFF8B20EF
:101BA00002F0AAFF002002F0A7FF992002F0A4FF94
:101BB000002002F0A1FFA82002F09EFF002002F00A
:101BC0009BFFB92002F098FF002002F095FFC4208F
:101BD00002F092FF002002F08FFFCA2002F08CFF7B
:101BE000002002F089FFD22002F086FF002002F0E0
:101BF00083FFD82002F080FF002002F07DFFE0206C
:101C000002F07AFF002002F077FFF32002F074FF69
:101C1000002002F071FFE22002F080FF052002F0B8
:101C20006BFF002002F068FF0B2002F065FF002030
:101C300002F062FF1B2002F05FFF002002F05CFF59
:101C4000342002F059FF002002F056FF442002F039
:101C500053FF002002F050FF4F2002F04DFF002004
:101C600002F04AFF612002F047FF002002F044FF2B
:101C7000792002F041FF002002F03EFF882002F0B0
:101C80003BFF002002F038FF972002F035FF0020D4
:101C900002F032FFA62002F02FFF002002F02CFFFE
:101CA000B72002F029FF002002F026FFC22002F038
:101CB00023FF002002F020FFC72002F01DFF0020BC
:101CC00002F01AFFD12002F017FF002002F014FFEB
:101CD000D62002F011FF002002F00EFFDD2002F0FE
:101CE0000BFF002002F008FFF32002F005FF0020A8
:101CF00002F002FFE32002F011FF052002F0FCFEDB
:101D0000002002F0F9FE0A2002F0F6FE002002F0A8
:101D1000F3FE1C2002F0F0FE002002F0EDFE332066
:101D200000E0FAE202F0E8FE002002F0E5FE4420C6
:101D300002F0E2FE002002F0DFFE502002F0DCFEA6
:101D4000002002F0D9FE622002F0D6FE002002F050
:101D5000D3FE782002F0D0FE002002F0CDFE8820D5
:101D600002F0CAFE002002F0C7FE972002F0C4FE77
:101D7000002002F0C1FEA62002F0BEFE002002F00C
:101D8000BBFEB72002F0B8FE002002F0B5FEC22074
:101D900002F0B2FE002002F0AFFEC72002F0ACFE5F
:101DA000002002F0A9FED12002F0A6FE002002F0E1
:101DB000A3FED52002F0A0FE002002F09DFEDD2053
:101DC00002F09AFE002002F097FEF32002F094FE4B
:101DD000002002F091FEE42002F0A0FE012002F0BB
:101DE0008BFE002002F088FE012002F085FE00201C
:101DF00002F082FE022002F07FFE002002F07CFE54
:101E00002A2002F079FE002002F076FE3C2002F04B
:101E100073FE002002F070FE4B2002F06DFE0020E9
:101E200002F06AFE5D2002F067FE002002F064FE10
:101E3000742002F061FE002002F05EFE842002F0B9
:101E40005BFE002002F058FE932002F055FE0020B9
:101E500002F052FEA22002F04FFE002002F04CFEE3
:101E6000B32002F049FE002002F046FEBE2002F040
:101E700043FE002002F040FEC42002F03DFE0020A0
:101E800002F03AFECD2002F037FE002002F034FED0
:101E9000D32002F031FE002002F02EFEDD2002F001
:101EA0002BFE002002F028FEF32002F025FE002089
:101EB00002F022FEE52002F031FE002002F01CFEBE
:101EC000002002F019FE002002F016FE002002F0B1
:101ED00013FE022002F010FE002002F00DFE292069
:101EE00002F00AFE002002F007FE3C2002F004FE91
:101EF000002002F001FE4B2002F0FEFD002002F067
:101F0000FBFD5D2002F0F8FD002002F0F5FD7420DD
:101F100002F0F2FD002002F0EFFD842002F0ECFD63
:101F2000002002F0E9FD932002F0E6FD002002F01F
:101F3000E3FDA22002F0E0FD002002F0DDFDB32071
:101F400002F0DAFD002002F0D7FDBE2002F0D4FD41
:101F5000002002F0D1FDC42002F0CEFD002002F0EE
:101F6000CBFDCD2002F0C8FD002002F0C5FDD3203E
:101F700002F0C2FD002002F0BFFDDC2002F0BCFD3B
:101F8000002002F0B9FDF32002F0B6FD002002F0BF
:101F9000B3FDE62002F0C2FD112002F0ADFD0020ED
:101FA00002F0AAFD342002F0A7FD002002F0A4FDFB
:101FB000562002F0A1FD002002F09EFD762002F0E6
:101FC0009BFD002002F098FD772002F095FD002097
:101FD00002F092FD662002F08FFD002002F08CFDE1
:101FE000882002F089FD002002F086FD992002F091
:101FF00083FD002002F080FDBB2002F07DFD00206B
:1020000002F07AFD992002F077FD002002F074FDC5
:10201000662002F071FD002002F06EFD552002F0F6
:102020006BFD002002F068FD552002F065FD0020E8
:1020300002F062FD452002F05FFD002002F05CFD31
:10204000432002F059FD002002F056FD442002F02A
:1020500053FD002002F050FDE72002F05FFD32202A
:1020600002F04AFD002002F047FD552002F044FD39
:10207000002002F041FD762002F03EFD002002F03B
:102080003BFD662002F038FD002002F035FD6720A0
:1020900002F032FD002002F02FFD672002F02CFD3F
:1020A000002002F029FD872002F026FD002002F02A
:1020B00023FD992002F020FD002002F01DFDBB2031
:1020C00002F01AFD002002F017FD992002F014FD25
:1020D000002002F011FD772002F00EFD002002F03A
:1020E0000BFD442002F008FD002002F005FD562003
:1020F00002F002FD002002F0FFFC232002F0FCFCB5
:10210000002002F0F9FC332002F0F6FC002002F07F
:10211000F3FC452002F0F0FC002002F0EDFCE8208A
:1021200002F0FCFC002002F0E7FC002002F0E4FCDE
:10213000992002F0E1FC002002F0DEFC872002F092
:10214000DBFC002002F0D8FC882002F0D5FC002047
:1021500002F0D2FC772002F0CFFC002002F0CCFC91
:10216000662002F0C9FC002002F0C6FC882002F0C4
:10217000C3FC002002F0C0FCAA2002F0BDFC00203D
:1021800002F0BAFCBB2002F0B7FC002002F0B4FC65
:10219000992002F0B1FC002002F0AEFC662002F0B3
:1021A000ABFC002002F0A8FC552002F0A5FC0020AA
:1021B00002F0A2FC552002F09FFC002002F09CFCE3
:1021C000442002F099FC002002F096FC442002F02A
:1021D00093FC002002F090FC552002F08DFC0020C2
:1021E00002F08AFCE92002F099FCAA2002F084FCAB
:1021F000002002F081FC002002F07EFC002002F0B2
:102200007BFC002002F08AFCAA2002F075FCCF20A3
:1022100002F084FC002002F06FFC002002F06CFC55
:10222000002002F069FC002002F066FC002002F0B1
:1022300063FC002002F060FC002002F05DFC002046
:1022400002F05AFC002002F057FC002002F054FC7F
:10225000002002F051FC002002F04EFC002002F0B1
:102260004BFC002002F048FC002002F045FC00205E
:1022700002F042FC002002F03FFCF02002F04EFC95
:10228000002002F039FC502002F036FC002002F061
:1022900033FC002002F030FC002002F02DFCF32083
:1022A00002F03CFC002002F027FCF92002F036FC92
:1022B000062002F021FC102002F01EFC292002F072
:1022C0001BFC002002F018FC3A2002F027FC5520ED
:1022D00002F012FC112002F021FC6420FDF7FAFF4D
:1022E000292002F01BFC352002F018FC002002F02F
:1022F00003FC512002F012FCFF2002F0FDFB5320F2
:1023000002F00CFC2C2002F0F7FB552002F006FC3A
:10231000822002F0F1FB2C20FEE3B0427ED14FF48C
:1023200070445521204602F011FC661CAA2130465B
:1023300002F00CFCA71C5221384602F007FC4FF2B9
:1023400003080821404602F001FC4FF20409012174
:10235000484602F0FBFB0D214FF4304002F0F6FB43
:102360000D214BF2010002F0F1FB0D214BF20200B6
:1023700002F0ECFB4FF4364A3421504602F0E6FB03
:1023800034214BF2016002F0E1FB34214BF2026098
:1023900002F0DCFB4FF4314B0D21584602F0D6FB26
:1023A0000D214BF2011002F0D1FB0D214BF2021076
:1023B00002F0CCFB34214FF4374002F0C7FB34214C
:1023C0004BF2017002F0C2FB34214BF2027002F0BA
:1023D000BDFB00214FF4324002F0B8FB00214BF26C
:1023E000012002F0B3FB00214BF2022002F0AEFB11
:1023F00024214FF4384002F0A9FB24214BF60100C0
:1024000002F0A4FB24214BF6020002F09FFB012105
:102410004FF43F4002F09AFB0F2100E0FEE34FF43F
:10242000334002F093FB0F214BF2013002F08EFBA0
:102430000F214BF2023002F089FB34214FF4394076
:1024400002F084FB34214BF6011002F07FFB3421B3
:102450004BF6021002F07AFB08214FF4354002F0EF
:1024600075FB08214BF2015002F070FB08214BF282
:10247000025002F06BFB03214FF4424002F066FB76
:1024800024214FF43A4002F061FB24214BF6012055
:1024900002F05CFB24214BF6022002F057FB0021E6
:1024A0004FF43C4002F052FB78214BF6014002F021
:1024B0004DFB00214BF6024002F048FB00214FF497
:1024C0003D4002F043FB78214BF6015002F03EFB09
:1024D00000214BF6025002F039FB00214FF43E4040
:1024E00002F034FB64214BF6016002F02FFB002167
:1024F0004FF4514002F02AFB33214DF2011002F05B
:1025000025FB00214DF2021002F020FB34214DF298
:10251000031002F01BFB00214DF2041002F016FB29
:102520003A214DF2051002F011FB00214DF2061088
:1025300002F00CFB4A214DF2071002F007FB0021CC
:102540004DF2081002F002FB5C214DF2091002F07E
:10255000FDFA00214DF20A1002F0F8FA81214DF245
:102560000B1002F0F3FA00214DF20C1002F0EEFA1B
:10257000A6214DF20D1002F0E9FA00214DF20E10E5
:1025800002F0E4FAE5214DF20F1002F0DFFA01212A
:102590004DF2101002F0DAFA13214DF2111002F090
:1025A000D5FA01214DF2121002F0D0FA54214DF269
:1025B000131002F0CBFA01214DF2141002F0C6FA0A
:1025C00082214DF2151002F0C1FA01214DF21610D0
:1025D00002F0BCFACA214DF2171002F0B7FA02213C
:1025E0004DF2181002F0B2FA00214DF2191002F06B
:1025F000ADFA02214DF21A1002F0A8FA01214DF2B3
:102600001B1002F0A3FA02214DF21C1002F09EFAF8
:1026100034214DF21D1002F099FA02214DF21E10E4
:1026200002F094FA67214DF21F1002F08FFA022196
:102630004DF2201002F08AFA84214DF2211002F0AE
:1026400085FA02214DF2221002F080FAA4214DF207
:10265000231002F07BFA02214DF2241002F076FAE8
:10266000B7214DF2251002F071FA02214DF2261029
:1026700002F06CFACF214DF2271002F067FA022126
:102680004DF2281002F062FADE214DF2291002F01C
:102690005DFA02214DF22A1002F058FAF2214DF2B1
:1026A0002B1002F053FA02214DF22C1002F04EFAD8
:1026B000FE214DF22D1002F049FA03214DF22E10A9
:1026C00002F044FA10214DF22F1002F03FFA0321DC
:1026D0004DF2301002F03AFA33214DF2311002F08F
:1026E00035FA03214DF2321002F030FA6D214DF22D
:1026F000331002F02BFA00214FF4524002F026FA78
:1027000033214DF2012002F021FA00214DF2022086
:1027100002F01CFA34214DF2032002F017FA0021D6
:102720004DF2042002F012FA3A214DF2052002F097
:102730000DFA00214DF2062002F008FA4A214DF26E
:10274000072002F003FA00214DF2082002F0FEF902
:102750005C214DF2092002F0F9F900214DF20A2026
:1027600002F0F4F981214DF20B2002F0EFF9002183
:102770004DF20C2002F0EAF9A6214DF20D2002F0F4
:10278000E5F900214DF20E2002F0E0F9E5214DF2CD
:102790000F2002F0DBF901214DF2102002F0D6F9F2
:1027A00013214DF2112002F0D1F901214DF2122036
:1027B00002F0CCF954214DF2132002F0C7F90121A7
:1027C0004DF2142002F0C2F982214DF2152002F0E0
:1027D000BDF901214DF2162002F0B8F9CA214DF2DF
:1027E000172002F0B3F902214DF2182002F0AEF9E1
:1027F00000214DF2192002F0A9F902214DF21A2010
:1028000002F0A4F901214DF21B2002F09FF90221F0
:102810004DF21C2002F09AF934214DF21D2002F0F5
:1028200095F902214DF21E2002F090F967214DF238
:102830001F2002F08BF902214DF2202002F086F9D0
:1028400084214DF2212002F081F902214DF2222053
:1028500002F07CF9A4214DF2232002F077F9022145
:102860004DF2242002F072F9B7214DF2252002F03A
:102870006DF902214DF2262002F068F9CF214DF2C8
:10288000272002F063F902214DF2282002F05EF9C0
:10289000DE214DF2292002F059F902214DF22A20C1
:1028A00002F054F9F2214DF22B2002F04FF90221EF
:1028B0004DF22C2002F04AF9FE214DF22D2002F0BB
:1028C00045F903214DF22E2002F040F910214DF27E
:1028D0002F2002F03BF903214DF2302002F036F9AF
:1028E00033214DF2312002F031F903214DF2322033
:1028F00002F02CF96D214DF2332002F027F900216E
:102900004FF4534002F022F933214DF2013002F02E
:102910001DF900214DF2023002F018F934214DF278
:10292000033002F013F900214DF2043002F00EF9E9
:102930003A214DF2053002F009F900214DF206303E
:1029400002F004F94A214DF2073002F0FFF80021AD
:102950004DF2083002F0FAF85C214DF2093002F035
:10296000F5F800214DF20A3002F0F0F881214DF225
:102970000B3002F0EBF800214DF20C3002F0E6F8DB
:10298000A6214DF20D3002F0E1F800214DF20E309B
:1029900002F0DCF8E5214DF20F3002F0D7F801210A
:1029A0004DF2103002F0D2F813214DF2113002F046
:1029B000CDF801214DF2123002F0C8F854214DF249
:1029C000133002F0C3F801214DF2143002F0BEF8CA
:1029D00082214DF2153002F0B9F801214DF2163086
:1029E00002F0B4F8CA214DF2173002F0AFF802211C
:1029F0004DF2183002F0AAF800214DF2193002F021
:102A0000A5F802214DF21A3002F0A0F801214DF292
:102A10001B3002F09BF802214DF21C3002F096F8B8
:102A200034214DF21D3002F091F802214DF21E309A
:102A300002F08CF867214DF21F3002F087F8022176
:102A40004DF2203002F082F884214DF2213002F064
:102A50007DF802214DF2223002F078F8A4214DF2E7
:102A6000233002F073F802214DF2243002F06EF8A8
:102A7000B7214DF2253002F069F802214DF22630DF
:102A800002F064F8CF214DF2273002F05FF8022106
:102A90004DF2283002F05AF8DE214DF2293002F0D2
:102AA00055F802214DF22A3002F050F8F2214DF291
:102AB0002B3002F04BF802214DF22C3002F046F898
:102AC000FE214DF22D3002F041F803214DF22E305F
:102AD00002F03CF810214DF22F3002F037F80321BC
:102AE0004DF2303002F032F833214DF2313002F045
:102AF0002DF803214DF2323002F028F86D214DF20D
:102B0000333002F023F800214FF4544002F01EF855
:102B100033214DF2014000E07FE302F017F800217D
:102B20004DF2024002F012F834214DF2034002F05F
:102B30000DF800214DF2044002F008F83A214DF260
:102B4000054002F003F800214DF2064001F0FEFFBF
:102B50004A214DF2074001F0F9FF00214DF20840F3
:102B600001F0F4FF5C214DF2094001F0EFFF00217C
:102B70004DF20A4001F0EAFF81214DF20B4001F0D5
:102B8000E5FF00214DF20C4001F0E0FFA6214DF2DF
:102B90000D4001F0DBFF00214DF20E4001F0D6FFA9
:102BA000E5214DF20F4001F0D1FF01214DF210401F
:102BB00001F0CCFF13214DF2114001F0C7FF0121BC
:102BC0004DF2124001F0C2FF54214DF2134001F0CA
:102BD000BDFF01214DF2144001F0B8FF82214DF2FA
:102BE000154001F0B3FF01214DF2164001F0AEFF98
:102BF000CA214DF2174001F0A9FF02214DF2184001
:102C000001F0A4FF00214DF2194001F09FFF0221C5
:102C10004DF21A4001F09AFF012100E001E34DF26C
:102C20001B4001F093FF02214DF21C4001F08EFF8A
:102C300034214DF21D4001F089FF02214DF21E406A
:102C400001F084FF67214DF21F4001F07FFF022158
:102C50004DF2204001F07AFF84214DF2214001F035
:102C600075FF02214DF2224001F070FFA4214DF2C8
:102C7000234001F06BFF02214DF2244001F066FF7A
:102C8000B7214DF2254001F061FF02214DF22640AF
:102C900001F05CFFCF214DF2274001F057FF0221E8
:102CA0004DF2284001F052FFDE214DF2294001F0A3
:102CB0004DFF02214DF22A4001F048FFF2214DF272
:102CC0002B4001F043FF02214DF22C4001F03EFF6A
:102CD000FE214DF22D4001F039FF03214DF22E402F
:102CE00001F034FF10214DF22F4001F02FFF03219E
:102CF0004DF2304001F02AFF33214DF2314001F016
:102D000025FF03214DF2324001F020FF6D214DF2ED
:102D1000334001F01BFF00214FF4554001F016FF36
:102D200033214DF2015001F011FF00214DF202500C
:102D300001F00CFF34214DF2035001F007FF002198
:102D40004DF2045001F002FF3A214DF2055001F01E
:102D5000FDFE00214DF2065001F0F8FE4A214DF231
:102D6000075001F0F3FE00214DF2085001F0EEFE95
:102D70005C214DF2095001F0E9FE00214DF20A50AC
:102D800001F0E4FE81214DF20B5001F0DFFE002145
:102D90004DF20C5001F0DAFEA6214DF20D5001F07B
:102DA000D5FE00214DF20E5001F0D0FEE5214DF28E
:102DB0000F5001F0CBFE01214DF2105001F0C6FE84
:102DC00013214DF2115001F0C1FE01214DF21250BC
:102DD00001F0BCFE54214DF2135001F0B7FE012169
:102DE0004DF2145001F0B2FE82214DF2155001F067
:102DF000ADFE01214DF2165001F0A8FECA214DF2A0
:102E0000175001F0A3FE02214DF2185001F09EFE72
:102E100000214DF2195001F099FE02214DF21A5095
:102E200001F094FE01214DF21B5001F08FFE0221B2
:102E30004DF21C5001F08AFE34214DF21D5001F07C
:102E400085FE02214DF21E5001F080FE67214DF2F9
:102E50001F5001F07BFE02214DF2205001F076FE62
:102E600084214DF2215001F071FE02214DF22250D9
:102E700001F06CFEA4214DF2235001F067FE022107
:102E80004DF2245001F062FEB7214DF2255001F0C1
:102E90005DFE02214DF2265001F058FECF214DF289
:102EA000275001F053FE02214DF2285001F04EFE52
:102EB000DE214DF2295001F049FE02214DF22A5047
:102EC00001F044FEF2214DF22B5001F03FFE0221B1
:102ED0004DF22C5001F03AFEFE214DF22D5001F042
:102EE00035FE03214DF22E5001F030FE10214DF23F
:102EF0002F5001F02BFE03214DF2305001F026FE41
:102F000033214DF2315001F021FE03214DF23250B8
:102F100001F01CFE6D214DF2335001F017FE00212F
:102F20004FF4564001F012FE33214DF2016001F0E2
:102F30000DFE00214DF2026001F008FE34214DF239
:102F4000036001F003FE00214DF2046001F0FEFD7C
:102F50003A214DF2056001F0F9FD00214DF20660C5
:102F600001F0F4FD4A214DF2076001F0EFFD002170
:102F70004DF2086001F0EAFD5C214DF2096001F0BC
:102F8000E5FD00214DF20A6001F0E0FD81214DF2E6
:102F90000B6001F0DBFD00214DF20C6001F0D6FD6D
:102FA000A6214DF20D6001F0D1FD00214DF20E6021
:102FB00001F0CCFDE5214DF20F6001F0C7FD0121CC
:102FC0004DF2106001F0C2FD13214DF2116001F0CD
:102FD000BDFD01214DF2126001F0B8FD54214DF20A
:102FE000136001F0B3FD01214DF2146001F0AEFD5C
:102FF00082214DF2156001F0A9FD01214DF216600C
:1030000001F0A4FDCA214DF2176001F09FFD0221DD
:103010004DF2186001F09AFD00214DF2196001F0A7
:1030200095FD02214DF21A6001F090FD01214DF253
:103030001B6001F08BFD02214DF21C6001F086FD4A
:1030400034214DF21D6001F081FD02214DF21E6020
:1030500001F07CFD67214DF21F6001F077FD022138
:103060004DF2206001F072FD84214DF2216001F0EB
:103070006DFD02214DF2226001F068FDA4214DF2A8
:10308000236001F063FD02214DF2246001F05EFD3A
:10309000B7214DF2256001F059FD02214DF2266065
:1030A00001F054FDCF214DF2276001F04FFD0221C8
:1030B0004DF2286001F04AFDDE214DF2296001F059
:1030C00045FD02214DF22A6001F040FDF2214DF252
:1030D0002B6001F03BFD02214DF22C6001F036FD2A
:1030E000FE214DF22D6001F031FD03214DF22E60E5
:1030F00001F02CFD10214DF22F6001F027FD03217E
:103100004DF2306001F022FD33214DF2316001F0CB
:103110001DFD03214DF2326001F018FD6D214DF2CD
:10312000336001F013FD5521204601F00FFDAA2167
:10313000304601F00BFD5221384601F007FD082111
:10314000404601F003FD0021484601F0FFFCCC2180
:10315000584601F0FBFC00214BF2011001F0F6FC97
:103160000521504601F0F2FC70214FF4374001F088
:10317000EDFC70214BF2017001F0E8FC01214FF4ED
:10318000384001F0E3FC03214BF6010001F0DEFCC6
:1031900003214BF6020001F0D9FC03214BF603009A
:1031A00001F0D4FC02214FF43C4001F0CFFC00219F
:1031B0004BF6014001F0CAFC00214BF6024001F041
:1031C000C5FCD0214FF4494001F0C0FC02214CF66F
:1031D000011001F0BBFC50214CF6021001F0B6FCCE
:1031E00050214CF6031001F0B1FC50214CF60410B4
:1031F00001F0ACFC00214FF4545001F0A7FC552124
:103200004FF4685001F0A2FC4FF4885001F086FCA6
:103210000120FDF75FF84FF4245001F07FFC01F02E
:103220006FB9A0F513414FF480744FF4E06840F299
:10323000022940F23F164FF4274B253928D04FF48E
:10324000017A40F20777C91E7ED04FF41C5B08312B
:103250007BD011397AD0A0F5A841083977D0A0F5F4
:10326000A851053974D0B1F5204172D0B1F5805123
:1032700070D0A0F5094189396DD0A0F58A41313966
:103280006AD0091F69D0A0F5C851633966D0C6E776
:1032900047F6F001E52001F059FC2146012001F03C
:1032A00055FC4146022001F051FC41F2300103205F
:1032B00001F04CFC0021042001F048FC49460820A4
:1032C00001F044FC0021092001F040FC00210A200B
:1032D00001F03CFC00210C2001F038FC00210D2005
:1032E00001F034FC00210F2001F030FC00211020FF
:1032F00001F02CFC0721112001F028FC00211220F4
:1033000001F024FC0021132001F020FC0021072003
:1033100001F01CFC41F29061102001F017FC40F21A
:103320002721112001F012FC9D21122001F00EFC3A
:103330004FF4C851132001F009FC2521292001F088
:1033400005FC0D212B200AE079E022E1C6E198E29C
:1033500033E3FDE3FDE3FDE3FDE3FDE3FDE301F026
:10336000F5FB0721302001F0F1FB40F20331312061
:1033700001F0ECFB0321322001F0E8FB40F20621D2
:10338000352001F0E3FB0821362001F0DFFB40F29D
:103390000641372001F0DAFB4FF44171382001F08B
:1033A000D5FB0721392001F0D1FB40F202613C201E
:1033B00001F0CCFB08213D2001F0C8FB002150208A
:1033C00001F0C4FBEF21512001F0C0FB002152208D
:1033D00001F0BCFB3146532001F0B8FB5946602098
:1033E00001F0B4FB0121612001F0B0FB00216A2053
:1033F00001F0ACFB0021802001F0A8FB002181201E
:1034000001F0A4FB0021822001F0A0FB0021832019
:1034100001F09CFB0021842001F098FB0021852015
:1034200001F094FB1021902001F090FB4FF4C0615B
:10343000922001F08BFB40F233110720FEE341F2B2
:103440008F01EC2001F082FB41F23421EF2001F0EA
:103450007DFB2146012001F079FB4146022001F06D
:1034600075FB41F23001032001F070FB00210420C4
:1034700001F06CFB4946082001F068FB002109209F
:1034800001F064FB00210A2001F060FB01210C2007
:1034900001F05CFB00210D2001F058FB00210F2002
:1034A00001F054FB0021102001F050FB07211120F6
:1034B00001F04CFB0021122001F048FB00211320F9
:1034C00001F044FB0121072001F040FB3220FCF712
:1034D00001FF41F29041102001F038FB40F227211A
:1034E000112001F033FB3220FCF7F4FE8A21122078
:1034F00001F02CFB3220FCF7EDFE4FF4D0511320ED
:1035000001F024FB0621292001F020FB0D212B20B6
:1035100001F01CFB3220FCF7DDFE0021202001F031
:1035200015FB0021212001F011FB3220FCF7D2FE17
:103530000021302001F00AFB40F20461312001F04B
:1035400005FB40F20531322001F000FB002135205F
:1035500001F0FCFA40F60941362001F0F7FA514635
:10356000372001F0F3FA40F20131382001F0EEFA91
:103570003946392001F0EAFA00213C2001F0E6FA50
:1035800040F60A213D2001F0E1FA3220FCF7A2FECC
:103590003BE10021084601F0D9FA2146012001F063
:1035A000D5FA4146022001F0D1FA41F23001032060
:1035B00001F0CCFA0021042001F0C8FA49460820A5
:1035C00001F0C4FA0021092001F0C0FA00210A200C
:1035D00001F0BCFA01210C2001F0B8FA00210D2005
:1035E00001F0B4FA00210F2001F0B0FA3220FCF70C
:1035F00071FE40F20111072001F0A8FA3220FCF719
:1036000069FE4FF48651102001F0A0FA0721112025
:1036100001F09CFA4FF488742146122001F096FACA
:103620004FF43061132001F091FA0021292001F0BC
:103630008DFA44F210012B2001F088FA002150206D
:1036400001F084FAEF21512001F080FA002152208C
:1036500001F07CFA3146532001F078FA5946602097
:1036600001F074FA0121612001F070FA00216A2052
:1036700001F06CFA0021802001F068FA002181201D
:1036800001F064FA0021822001F060FA0021832019
:1036900001F05CFA0021842001F058FA0021852015
:1036A00001F054FA1021902001F050FA00219220EC
:1036B00001F04CFA0121932001F048FA21469520AF
:1036C00001F044FA0021972001F040FA00219820EF
:1036D00001F03CFA40F2731107207CE341F214013F
:1036E000E72001F033FA2146012001F02FFA4FF4D0
:1036F0000071022001F02AFA41F23801032001F0A2
:1037000025FA4946082001F021FA0021092001F09C
:103710001DFA00210A2001F019FA00210C2001F005
:1037200015FA00210D2001F011FA00210F2001F0FF
:103730000DFA0021102001F009FA0721112001F0F3
:1037400005FA0021122001F001FA0021132001F0F6
:10375000FDF9C820FCF7BEFD41F29061102001F098
:10376000F5F940F22721112001F0F0F93220FCF7A1
:10377000B1FD0C21122001F0E9F93220FCF7AAFD7D
:103780004FF40061132001F0E1F91121292001F02B
:10379000DDF90B212B2001F0D9F93220FCF79AFD3D
:1037A0000021202001F0D2F93146212001F0CEF98C
:1037B0000021302001F0CAF94FF4837421463120F2
:1037C00001F0C4F90021322001F0C0F95146352042
:1037D00001F0BCF941F20A61362001F0B7F939462F
:1037E000372001F0B3F92146382001F0AFF939460E
:1037F000392001F0ABF940F202413C2001F0A6F97A
:1038000040F60F413D2001F0A1F90021502001F0C8
:103810009DF9EF21512001F099F90021522001F08A
:1038200095F93146532001F091F95946602001F095
:103830008DF90121612001F089F900216A2001F050
:1038400085F90021802001F081F90021812001F01B
:103850007DF90021822001F079F90021832001F017
:1038600075F90021842001F071F90021852001F013
:103870006DF91021902001F069F94FF4C061922098
:10388000FEE32146012001F061F94146022001F0EA
:103890005DF941F23001032001F058F900210420C4
:1038A00001F054F940F20721082001F04FF90021FE
:1038B000092001F04BF900210A2001F047F900210D
:1038C0000C2001F043F900210D2001F03FF9002107
:1038D0000F2001F03BF91420FCF7FCFC41F2B06131
:1038E000102001F033F90121112001F02FF90121FD
:1038F000172001F02BF94FF49C71122001F026F9EA
:103900004FF40061132001F021F90921292001F071
:103910001DF909212A2001F019F90021A42001F044
:1039200015F90021502001F011F9EF21512001F08B
:103930000DF90021522001F009F93146532001F020
:1039400005F95946602001F001F90121612001F0DB
:10395000FDF800216A2001F0F9F80021802001F033
:10396000F5F80021812001F0F1F80021822001F01A
:10397000EDF80021832001F0E9F80021842001F016
:10398000E5F80021852001F0E1F81321902001F0F5
:10399000DDF80021922001F0D9F80321932001F0F5
:1039A000D5F84FF48871952001F0D0F840F27311EA
:1039B000072001F0CBF832200FE10021072001F0B1
:1039C000C5F83220FCF786FC4FF48E71122001F00E
:1039D000BDF80121A42001F0B9F80F21082001F061
:1039E000B5F808210A2001F0B1F808210D2001F0F6
:1039F000ADF8BA463946302001F0A8F80721312049
:103A000001F0A4F840F20361322001F09FF847462C
:103A10004146332001F09AF84946342001F096F8E7
:103A20000221352001F092F841F60F71362001F0A5
:103A30008DF85146372001F089F80021382001F037
:103A400085F80021392001F081F851463A2001F033
:103A50007DF800213B2001F079F807213C2001F09E
:103A600075F800213D2001F071F83220FCF732FC9E
:103A70000121072001F06AF80121172001F066F802
:103A80003220FCF727FC4FF4BD51102001F05EF806
:103A900040F21721112001F059F84FF48F711220D4
:103AA00001F054F84FF47061132001F04FF8002139
:103AB0002A2001F04BF80A21292001F047F84FF4A1
:103AC0009F71122001F042F80021502001F03EF8D1
:103AD000EF21512001F03AF80021522001F036F890
:103AE0003146532001F032F85946602001F02EF89B
:103AF0000121612001F02AF800216A2001F026F856
:103B00000021802001F022F80021812001F01EF820
:103B10000021822001F01AF80021832001F016F81C
:103B20000021842001F012F80021852001F00EF818
:103B30001321902001F00AF84FF44071922001F017
:103B400005F80521932001F001F80021952005E0FA
:103B500046E041E109E2BCE270E3FCE300F0F6FF7D
:103B60000021972000F0F2FF0021982000F0EEFFE6
:103B70002146012000F0EAFF3946022000F0E6FF6E
:103B800041F23801032000F0E1FF0021042000F0A1
:103B9000DDFF00210C2000F0D9FF00210F2000F0F4
:103BA000D5FF0021202000F0D1FF0021212000F0CE
:103BB000CDFF2121072000F0C9FF1420FCF78AFB6C
:103BC0006121072000F0C2FF1420FCF783FB40F2C4
:103BD0007311072000F0BAFF1420FCF77BFB2CE3E5
:103BE0000021084600F0B2FF0021084600F0AEFFB9
:103BF0000021084600F0AAFF0021084600F0A6FFB9
:103C00000121A42000F0A2FF1420FCF763FB594619
:103C1000602000F09BFF4F464946082000F096FFC9
:103C20004FF40571302000F091FF43F215713120FF
:103C300000F08CFF40F20461322000E0C7E000F0A9
:103C400085FF40F61661332000F080FF42F211211B
:103C5000342000F07BFF4FF4A851352000F076FFB0
:103C600048F20751362000F071FF41F2074137203A
:103C700000F06CFF41F20341382000F067FF202183
:103C8000392000F063FF1A21902000F05FFF00212F
:103C9000102000F05BFF0721112000F057FF0021EA
:103CA000122000F053FF0021132000F04FFF1420DA
:103CB000FCF710FB4FF4E661102000F047FF40F2E4
:103CC0003711112000F042FF1420FCF703FB4FF4E2
:103CD000DC71122000F03AFF1420FCF7FBFA4FF4DD
:103CE0007061132000F032FF80212A2000F02EFFA7
:103CF0004821292000F02AFF1420FCF7EBFA214686
:103D0000012000F023FF4146022000F01FFF41F296
:103D10003801032000F01AFF3946082000F016FF92
:103D200000210A2000F012FF00210C2000F00EFFFD
:103D300000210D2000F00AFF30210E2000F006FFC8
:103D40000021502000F002FFEF21512000F0FEFE84
:103D50000021522000F0FAFE3146532000F0F6FE1A
:103D60005946602000F0F2FE0121612000F0EEFED5
:103D700000216A2000F0EAFE1121902000F0E6FE0A
:103D80004FF4C061922000F0E1FE40F20241932026
:103D900000F0DCFE0221942000F0D8FE1420FCF795
:103DA00099FA0121072000F0D1FE1420FCF792FAC5
:103DB0006121072000F0CAFE40F27311072000F0D5
:103DC000C5FE0021202000F0C1FE0021212000F0CE
:103DD000BDFE222100202EE20021084600F0B6FEA2
:103DE0000021084600F0B2FE1420FCF773FA00210F
:103DF000084600F0ABFE0021084600F0A7FE0021B7
:103E0000084600F0A3FE0021084600F09FFE0121B5
:103E1000A42000F09BFE1420FCF75CFA59466020B9
:103E200000F094FE40F60601082000F08FFE40F2FC
:103E300003784146302000F089FE0121312000F056
:103E400085FE0421322000F081FE4FF48171332081
:103E500000F07CFE4FF440773946342000F076FEC7
:103E600040F20311352000F071FE1F21362000F0D2
:103E70006DFE4146372000F069FE0121382000F038
:103E800065FE0421392000F061FE1521902000F02C
:103E90005DFE4FF48261102000F058FE40F2472191
:103EA000112000F053FE4FF4DE71122000F04EFEA0
:103EB0004FF46061132000F049FE7820FCF70AFA05
:103EC0002146012000F042FE4FF40071022000F074
:103ED0003DFE41F23001032000F038FE08210A20A7
:103EE00000F034FE00210C2000F030FE20210E20D6
:103EF00000F02CFE00210F2000F028FE00212020E1
:103F000000F024FE0021212000F020FE3D212A2087
:103F100000F01CFE1420FCF7DDF92D21292000F013
:103F200015FE0021502000F011FE4DF2EF0151204E
:103F300000F00CFE0021522000F008FE3146532014
:103F400000F004FE0021612000F000FE00216A2044
:103F500000F0FCFD3946922000F0F8FD0521932089
:103F600000F0F4FD2146FFF7B7BB0121002000F06F
:103F7000EDFD4AF6A401032000F0E8FD00210C202D
:103F800000F0E4FD40F60C010D2000F0DFFD4FF4E1
:103F90002C510E2000F0DAFDB0211E2000F0D6FDDD
:103FA00042F63F31012000F0D1FD4FF4C061022004
:103FB00000F0CCFD0021102000F0C8FD46F2780191
:103FC000112000F0C3FD0021052000F0BFFD0021FD
:103FD000062000F0BBFD4EF61C71162000F0B6FD69
:103FE0000321172000F0B2FD40F23321072000F03A
:103FF000ADFD00210B2000F0A9FD00210F2000F0F5
:10400000A5FD0021412000F0A1FD0021422000F08B
:104010009DFD0021482000F099FD3146492000F027
:1040200095FD00214A2000F091FD00214B2000F079
:104030008DFD4FF46F41442000F088FD00214520A4
:1040400000F084FD3146462000F080FD39463020E6
:1040500000F07CFD54465146312000F077FD2146AA
:10406000322000F073FD40F202563146332000F05A
:104070006DFD711D342000F069FD2146352000E002
:1040800081E100F063FD2146362000F05FFD3146FE
:10409000372000F05BFD40F2023421463A2000F068
:1040A00055FD21463B2000F051FD0021232000F06A
:1040B0004DFD0021242000F049FD4FF40041252052
:1040C00000F044FD00214F2000F040FD00214E2073
:1040D000B1E00121002000F039FD0A20FCF7FAF8D8
:1040E00041F22861102000F031FD0E21122000F075
:1040F0002DFD40F63921132000F028FD0A20FCF7A1
:10410000E9F84021112000F021FD5021152000F098
:104110001DFD0A20FCF7DEF81E21122000F016FD1E
:104120000A20FCF7D7F84FF4B151102000F00EFD33
:1041300042F63921132000F009FD0A20FCF7CAF8E5
:104140002146012000F002FD4FF44071022000F0F2
:10415000FDFC41F23801032000F0F8FC494608203C
:1041600000F0F4FC08210A2000F0F0FC00213020CF
:1041700000F0ECFC40F20241312000F0E7FC4FF48B
:104180008371322000F0E2FC40F20351332000F052
:10419000DDFC4FF48271342000F0D8FC40F2013194
:1041A000352000F0D3FC3946362000F0CFFC40F239
:1041B0000531372000F0CAFC4FF40271382000F0BE
:1041C000C5FC40F60B71392000F0C0FC02214120F3
:1041D00000F0BCFC5946602000F0B8FC01216120D1
:1041E00000F0B4FC4FF40471902000F0AFFC4FF4E9
:1041F0008571922000F0AAFC0421932000F0A6FC17
:104200002146A02000F0A2FC0121072000F09EFC26
:104210002121072000F09AFC2321072000F096FCC2
:104220003321072000F092FC40F23311072000F008
:104230008DFC0021A02000F089FC61E130211520D7
:1042400000F084FC10219A2000F080FC2021112035
:1042500000F07CFC43F22841102000F077FC0221A2
:10426000122000F073FC41F23801132000F06EFCC4
:104270002820FCF72FF81221084600F067FC2820C0
:10428000FCF728F843F22041102000F05FFC43F2D5
:104290003801132000F05AFC4620FCF71BF80021DF
:1042A000302000F053FC40F20241312000F04EFC7F
:1042B00040F20731322000F049FC4FF441713320C5
:1042C00000F044FC0421342000F040FC40F20141A5
:1042D000352000F03BFC3946362000F037FC40F238
:1042E0000531372000F032FC4FF4C26631463820E9
:1042F00000F02CFC3146392000F028FC214601203A
:1043000000F024FC4FF44071022000F01FFC41F249
:104310003001032000F01AFC40F60801082000F0EC
:1043200015FC08210A2000F011FC5946602000F01D
:104330000DFC0121612000F009FC4FF49F719020D9
:1043400000F004FC2146922000F000FC214693205E
:1043500000F0FCFB00E01BE04FF44051A02000F017
:10436000F5FB1021A32000F0F1FB0121072000F054
:10437000EDFB2121072000F0E9FB2321072000F0BD
:10438000E5FB3321072000F0E1FB40F23311EAE5C1
:10439000E22000F0C3FB1D2000F0AEFB022000F085
:1043A000ABFB042000F0A8FB0120FBF793FFE0200B
:1043B00000F0B4FB012000F09FFB0A20FBF78AFF0E
:1043C000E02000F0ABFB032000F096FB0C20FBF795
:1043D00081FF012000F0A2FB0A20FBF77BFFE62013
:1043E00000F09CFB2F2000F087FBFF2000F084FBF7
:1043F000FF2000F081FBB02000F090FB202000F0B7
:104400007BFB002000F078FB032000F075FB40F2FE
:104410001F3000F071FB012000F06EFB40F2DF1056
:1044200000F06AFB002000F067FBB42000F076FB90
:10443000042000F061FB40F21F4000F05DFB002013
:1044400000F05AFB2E2000F057FB002000F054FB38
:10445000002000F051FB002000F04EFB002000F097
:104460004BFBB62000F05AFB022000F045FB4FF456
:10447000037000F041FB002000F03EFB172000F02D
:104480003BFB152000F038FB002000F035FB00203E
:1044900000F032FBF02000F041FB032000F02CFB89
:1044A000292000F03BFBD02000F038FB002000F07A
:1044B00023FBBE2000F032FB052000F01DFBFE2098
:1044C00000F01AFB012000F017FB002000F014FBA5
:1044D000002000F011FB002000F00EFBB82000F0DF
:1044E0001DFB032000F008FB012000F005FBBA20B3
:1044F00000F014FB012000F0FFFA642000F058F8EF
:104500000020FCF72FFB012291020448FBF7F0FF8B
:104510002846BDE8F05FFCF7F3BA00000010014048
:104520000246012000E05043491EC9B2FBD2704749
:104530002DE9F047DFF85C904FF08830C9F80000B3
:1045400009F104052860134E00200C363060124C2F
:10455000A8152061470067614FF04008C4F8148037
:104560000E488088A0F50941893902D10120FBF766
:10457000B1FE084808300068C4F8108080B2276196
:104580004FF03331C9F8001029604FF6FF713160E8
:10459000BDE8F087000C014000100140140000202D
:1045A00010B500F0BBFABDE81040FFF7C1BF000036
:1045B00010B50446BE2000F0B1FA052000F09CFAC8
:1045C000204600F0D8FB4FF066320B4B00F0E6FBC4
:1045D00000F0A4FB80B200F08FFA012000F08CFA0A
:1045E000FF2000F089FA002000F086FABDE81040B4
:1045F000002000F081BA000066660440F0B57F4DEF
:1046000000242946AB79898846F6040241F66317EF
:10461000012B01D02BB11DE091421BD0B94202D138
:1046200018E0B94216D1082814D2DFE800F00406D9
:10463000080A0C0E101206200CE007200AE00420E5
:1046400008E0052006E0012004E0002002E003204D
:1046500000E00220A1F5134C45F2103345F210564C
:10466000BCF1410C07D0914205D0994203D0B14230
:1046700001D0B9427BD1082812D2DFE800F0110442
:1046800006080A0C0E1080240AE0402408E0C0242A
:1046900006E0202404E0602402E0A02400E0E024FE
:1046A000B14202D14FF4585000E03620994205D073
:1046B000B14203D0B94201D044F00804914201D183
:1046C00044F00204214600F041FAA988B9420AD018
:1046D000A00628886A8802D5904202D303E090425F
:1046E00001D92A8068806889B14241D100F016FA68
:1046F000002000F001FA6889401C80B200F00EFA38
:10470000002000F0F9F96889801C80B200F006FAF8
:104710002888401EC0F30F2000F0EEF96889C01C05
:1047200080B200F0FBF92878401EC0B200F0E4F936
:10473000A88900F0F3F9002000F0DEF9A889401CF8
:1047400080B200F0EBF9002000F0D6F9A889801CB7
:1047500080B200F0E3F96888401EC0F30F2000F03B
:10476000CBF9A889C01C80B200F0D8F922E028E07B
:1047700000F0D4F9002000F0BFF9002000F0BCF9EF
:104780002888401EC0F30F2000F0B6F92878401E9C
:10479000C0B200F0B1F9A88900F0C0F9002000F023
:1047A000ABF9002000F0A8F96888401EC0F30F2084
:1047B00000F0A2F9A878BDE8F040401EC0B200F0B9
:1047C0009BB9082812D2DFE800F0040608110A0C91
:1047D0000E1030240AE0102408E0202406E03824DB
:1047E00004E0282402E0182400E0082444F4805166
:1047F000BDE8F040032000F0A9B90000140000203B
:104800002DE9F0414F4C0E4605464FEA1128A0888D
:1048100021462F0A4A89A0F51343413B1AD0A0F53F
:10482000A641103916D02346A0F5D04C99791B88A3
:104830005B1B5B1EBCF1040C11D0A0F5C85CBCF185
:10484000630C20D0A0F5A04CBCF5A26C55D001297A
:104850006DD06DE0104600F061F9384606E00129A0
:1048600000D19DB2104600F059F9280A00F044F931
:10487000E8B200F041F9A08900F050F9404600F09C
:104880003BF9F0B226E049B3104600F047F938464C
:1048900000F032F9E8B200F02FF92088401EC0F392
:1048A0000F2000F029F92078401EC0B200F024F952
:1048B000A08900F033F9404600F01EF9F0B200F094
:1048C0001BF96088401EC0F30F2000F015F9A07896
:1048D000401EC0B2BDE8F04100F00EB99DB21046D6
:1048E00000F01CF9002000F007F9002000F004F9A6
:1048F000280A00F001F9E8B2D8E7104600F00EF9F6
:10490000384600F0F9F86089401C80B200F006F9E2
:10491000E8B200F0F1F8A08900F000F9404600F09C
:10492000EBF8A089401C80B200F0F8F8A9E79DB22E
:104930002946104600F00AF9A0893146BDE8F04149
:1049400000F004B9140000202DE9FF4F1D460C466D
:104950008A46580700D0012000EBD500690848437B
:10496000203A00F0FF09D0B20026DFF8A8B002908C
:104970004BE00C2D11D0102D14D0182D17D0202D58
:1049800045D12549029801EBC0104FF00008875D22
:10499000380613D52148028814E00298204900EB1C
:1049A000400008E01F49029801EB0010EDE7029873
:1049B0001D4900EBC00001EB8000E6E70D9828B927
:1049C0001648428821460098FCF736FA7806070E0A
:1049D000641CBBF80200A4B2A04218D9A4EB0A00E0
:1049E000A84209D100985446401C80B20090BBF800
:1049F000001081420BD906E008F1010000F0FF0829
:104A0000B8F1080FC4D3761CF6B24E45B1D3BDE859
:104A1000FF8F0000140000206867000810000020CD
:104A2000A84F00081C5400080C5A00082DE9FF4F3D
:104A300081B00026DDF838A01D46934681463446F5
:104A4000B0464FEA5A0727E0281B401EC1B20A2091
:104A5000FFF766FDBBFBF0F00A21B0FBF1F201FBB2
:104A6000120026B9691E8C4201DA48B101263030A5
:104A7000C2B207FB049080B25346CDF8008006E036
:104A800007FB049080B253462022CDF800800299A3
:104A9000FFF75AFF641CE4B2AC42D5D305B0BDE8C1
:104AA000F08F2DE9F84F044600F0FF0910190D466C
:104AB000DDE90AB61FFA80F8581987B24FF0000AEC
:104AC00012E0444503D305EB0B004C4685B2BD42D2
:104AD0000FD25B4629462046CDF800A0FFF734FFF1
:104AE00004EB5B0084B2761C3278A2F120005E28D1
:104AF000E7D9BDE8F88F000006494FF480720A61DB
:104B00004A154A61044B18608020486108610A61B7
:104B100070470000001001400C0C014006494FF4A2
:104B200080724A614A154A61044B186080204861CE
:104B300008610A6170470000001001400C0C014040
:104B400001480089FFF7EABF1400002010B50C46A9
:104B5000FFF7E4FF2046BDE81040FFF7CDBF00009F
:104B60002DE9F04186B00020009001900290039062
:104B70002348816941F010018161816901F01001D0
:104B80000491816941F020018161816901F0200176
:104B90000491816941F008018161816901F0080196
:104BA0000491816941F0040181618069154F00F031
:104BB00004004FF6FF740490012221463846FBF7AB
:104BC00097FCDFF844804FF4F866012231464046F6
:104BD000FBF78EFC009401240325694638460194B6
:104BE000CDE90245FBF788FBCDE900646946404604
:104BF000CDE90245FBF780FB06B0BDE8F08100007F
:104C000000100240000C014000100140FEE7FEE7EA
:104C100070477047FBF778BC30B58FB028216846E5
:104C2000FBF7F4FA14210AA8FBF7F0FA01210804B3
:104C3000CDE900100024029402250491CDE907502B
:104C40004FF4E01009906846FBF7B4FD08B172B666
:104C5000FEE70F20CDE90A054FF48060CDE90C4056
:104C600002210AA80E94FBF7D9FC002801D072B6E5
:104C7000FEE70FB030BD7047FEE70907090E0028B8
:104C800004DB00F1E02080F80014704700F00F0012
:104C900000F1E02080F8141D704700001CB5FBF700
:104CA0003BFCFFF7B9FFFFF75BFFFCF75FF9174924
:104CB0004FF478401824088015A0CDE90040002169
:104CC000142378220846FFF7ECFE0723124A182126
:104CD00000200094FFF7AAFE002018234122302173
:104CE0000090FFF731FE642114220846FCF74CF8CF
:104CF000282350211A460846FCF72AF846233C216F
:104D00001A460846FBF7C8FFFEE700001000002027
:104D100048616F7A6900000087D612004FEA11538C
:104D2000A3F58063D3F11E03A8BFD3F1200C08DBE9
:104D30004FF0004242EAC12252EA505232FA03F0E6
:104D4000704709420BD4102BC4BF0020704703F5F5
:104D5000787CBCF1FF3F05D04FF0FF3070474FF03B
:104D60000000704770B500F0C3F800BF499224807E
:104D700000207047F0E7B0FA80F310FA03F10AD090
:104D8000C3F11D0303F580634FEA41504FEA03521C
:104D900002EBD12170474FF000007047DFF848C1A7
:104DA00070B51CEA111E1EBF1CEA13159EEA0C0FFB
:104DB00095EA0C0F00F06F8081EA030423EA4C139C
:104DC0004EEAD47E21EA4C1141F4801143F4801361
:104DD000AE44A1FB024CA0FB0365AEF17F7E361909
:104DE00055EB0C05A1FB034C4CF10003A0FB021C8E
:104DF00016EB0C06654153F10003094218BF46F05B
:104E0000010613F4007F0BD14FEA03314FEA05305E
:104E1000340341EA155140EA16506FF003020AE0EC
:104E20004FEAC3214FEAC520F40241EA555140EA56
:104E300056506FF0020202EB2E4201EB025585EA5A
:104E4000CE710AD05FEA440C18BF24F0004450F140
:104E5000000041F1000120EAD47040F2FE7C62457E
:104E600000D270BDA84214BF4FF080444FF04044C0
:104E7000002E08BF0024BEF1806FA8BFA1F1C04181
:104E8000BDE8704080F282804FF0000001F1C04127
:104E900001F0004170479EEA0C0F0CEA131518BF91
:104EA00095EA0C0F06D04FF0000081EA030E0EF0D9
:104EB000004170BD00F01CF88900013E00F007B809
:104EC00000F009B84FEA430C5FEA5C5C08D081EA65
:104ED000030100F05BB84FEA410C5FEA5C5CF6D17D
:104EE0004FF00000014970470000FF070000F87F05
:104EF0000EF1020E2EF0030E5EF8046B364205D45E
:104F0000012A43EB030515F5001F12D8012841EBD8
:104F1000010C1CF5001F0CD80ED14FEAD17C15F501
:104F2000001F0CEB4C0C0CF1020C08BF4CEBD37CBB
:104F300004E04FF0080C01E04FEAD37C0CEB4C0589
:104F400026FA05F606F00706B6F1040C06D20EEBBB
:104F5000860CBDE870404CF0010C6047DFE80CF0B7
:104F6000090B02024FF000414FF00000A1F50021B3
:104F700070BD19461046012851EB010418BFD4F545
:104F8000001484BF002001F0004170BD0808A0F5A6
:104F900000114FEA310170470000000000000000DE
:104FA00001020304060708090000000000000000D9
:104FB00000000000000000003F4000000000000072
:104FC00000003000400030004000000009000BC02D
:104FD0003D000BC03D00090018C024407FE0224086
:104FE00031800000180024C01B000D803240018079
:104FF00003801C4027401C800740004010006000D8
:1050000000000000000000000000000000001F8001
:10501000204040200000402020401F800000000071
:10502000090006001F8006000900000004000400BB
:105030003F80040004000000001000600000000039
:10504000000000000400040004000400040000004C
:10505000000000400000000000000000002001C02F
:1050600006003800400000001F8020402040204003
:105070001F800000000010403FC000400000000002
:1050800018C02140224024401840000010802040D9
:10509000244024401B80000002000D0011003FC08E
:1050A000014000003C802440244024402380000034
:1050B0001F80244024403440038000003000200042
:1050C00027C03800200000001B80244024402440DA
:1050D0001B8000001C0022C0224022401F800000D4
:1050E0000000000008400000000000000000000078
:1050F0000460000000000000000004000A0011002D
:105100002080404009000900090009000900000052
:1051100000004040208011000A0004001800200018
:1051200023402400180000001F8020402740294011
:105130001F400000004007C039000F0001C00040C0
:1051400020403FC0244024401B8000001F8020409E
:10515000204020403080000020403FC020402040C0
:105160001F80000020403FC024402E4030C000007F
:1051700020403FC024402E00300000000F0010806F
:10518000204022403380020020403FC00400040041
:105190003FC02040204020403FC020402040000031
:1051A0000060202020203FC02000200020403FC081
:1051B00024400B0030C0204020403FC02040004031
:1051C000004000C03FC03C0003C03C003FC00000A6
:1051D00020403FC00C4023003FC020001F802040E3
:1051E000204020401F80000020403FC02440240079
:1051F000180000001F802140214020E01FA0000077
:1052000020403FC02440260019C0004018C0244060
:105210002440224031800000300020403FC0204028
:105220003000000020003F80004000403F80200010
:1052300020003E0001C0070038002000380007C0F1
:105240003C0007C038000000204039C0060039C0CB
:10525000204000002000384007C0384020000000F7
:10526000304021C02640384020C00000000000002F
:105270007FE0402040200000000070000C00038010
:10528000004000000000402040207FE000000000BF
:10529000000020004000200000000000001000106E
:1052A000001000100010001000000000400000007E
:1052B00000000000000002800540054003C00040DF
:1052C00020003FC004400440038000000000038031
:1052D00004400440064000000000038004402440D5
:1052E0003FC000400000038005400540034000002F
:1052F000000004401FC0244024402000000002E0C1
:10530000055005500650042020403FC004400400D2
:1053100003C000400000044027C00040000000001F
:1053200000100010041027E00000000020403FC0E3
:105330000140070004C00440204020403FC000401E
:105340000040000007C0040007C0040003C00000C4
:10535000044007C00440040003C000400000038074
:105360000440044003800000041007F0045004408F
:1053700003800000000003800440045007F0001088
:10538000044007C002400400040000000000064082
:105390000540054004C00000000004001F800440D8
:1053A00000400000040007800040044007C00040A7
:1053B0000400070004C0018006000400060001C0CC
:1053C000070001C006000000044006C0010006C03E
:1053D000044000000410071004E0018006000400EF
:1053E0000000044005C0064004400000000000002A
:1053F00004007BE040200000000000000000FFF0FF
:1054000000000000000040207BE0040000000000DD
:10541000400080004000200020004000000000000C
:10542000000000000000000000000000000000007C
:1054300000001FCC000C000000000000000008006D
:10544000300060000800300060000000022003FC13
:105450001E20022003FC1E200220000000000E1867
:1054600011043FFF10840C78000000000F0010842E
:105470000F3800C0077818840078000000780F8487
:1054800010C411240E9800E400840008080068008D
:10549000700000000000000000000000000000009C
:1054A000000007E01818200440020000000040023D
:1054B0002004181807E0000000000000024002402D
:1054C00001800FF001800240024000000080008057
:1054D00000800FF800800080008000000001000DB7
:1054E000000E00000000000000000000000000802E
:1054F0000080008000800080008000800000000CA0
:10550000000C000000000000000000000000000689
:10551000001800600180060018002000000007F05D
:10552000080810041004080807F000000000080430
:1055300008041FFC000400040000000000000E0C22
:1055400010141024104411840E0C000000000C18DC
:1055500010041104110412880C700000000000E017
:105560000320042408241FFC0024000000001F98CE
:10557000108411041104108810700000000007F05E
:1055800008881104110418880070000000001C0035
:10559000100010FC13001C001000000000000E386A
:1055A00011441084108411440E38000000000700DC
:1055B000088C10441044088807F000000000000028
:1055C0000000030C030C00000000000000000000BD
:1055D0000001010600000000000000000000008043
:1055E00001400220041008081004000002200220DC
:1055F00002200220022002200220000000001004ED
:1056000008080410022001400080000000000E0085
:105610001200100C106C10800F00000003E00C183A
:1056200013E4142417C4082807D000000004003C29
:1056300003C41C40074000E4001C000410041FFCCD
:105640001104110411040E880070000003E00C180E
:1056500010041004100410081C10000010041FFC9B
:10566000100410041004080807F0000010041FFCC8
:105670001104110417C410040818000010041FFCC2
:105680001104110017C010000800000003E00C18FE
:105690001004100410441C780040000010041FFC8B
:1056A00010840080008010841FFC1004000010048F
:1056B00010041FFC1004100400000000000300018F
:1056C000100110011FFE10001000000010041FFC4C
:1056D000110403801464181C1004000010041FFC43
:1056E0001004000400040004000C000010041FFC5F
:1056F0001F0000FC1F001FFC1004000010041FFC12
:105700000C04030000E010181FFC100007F008084C
:10571000100410041004080807F0000010041FFC17
:1057200010841080108010800F00000007F008180F
:1057300010241024101C080A07F2000010041FFC9B
:105740001104110011C011300E0C000400000E1CD9
:1057500011041084108410441C380000180010003C
:1057600010041FFC100410001800000010001FF8A7
:1057700010040004000410041FF8100010001E00A4
:1057800011E0001C007013801C0010001FC0103CB2
:1057900000E01F0000E0103C1FC000001004180CC7
:1057A000163401C001C01634180C100410001C007F
:1057B000130400FC13041C00100000000804101C5B
:1057C0001064108413041C04101800000000000072
:1057D00000007FFE40024002400200000000300056
:1057E0000C0003800060001C000300000000400269
:1057F000400240027FFE00000000000000000000A8
:105800002000400040004000200000000001000196
:105810000001000100010001000100010000400042
:105820004000200000000000000000000000009880
:10583000012401440144014400FC000410001FFC49
:10584000008801040104008800700000000000705E
:1058500000880104010401040088000000000070B9
:1058600000880104010411081FFC0004000000F876
:10587000014401440144014400C800000000010447
:1058800001040FFC1104110411001800000000D6DF
:1058900001290129012901C90106000010041FFC8A
:1058A000008401000100010400FC00040000010468
:1058B000190419FC000400040000000000000003AB
:1058C00000010101190119FE0000000010041FFC75
:1058D0000024004001B4010C010400000000100489
:1058E00010041FFC0004000400000000010401FC7F
:1058F0000104010001FC0104010000FC010401FCA1
:10590000008401000100010400FC0004000000F814
:10591000010401040104010400F80000010101FF79
:105920000085010401040088007000000000007080
:10593000008801040104010501FF000101040104C4
:1059400001FC00840104010001800000000000CC83
:105950000124012401240124019800000000010019
:10596000010007F80104010400000000010001F833
:10597000000400040004010801FC0004010001808F
:105980000170000C001001600180010001F0010CA9
:10599000003001C00030010C01F0010000000104E2
:1059A000018C00740170018C01040000010101816F
:1059B0000171000E001801600180010000000184E7
:1059C000010C013401440184010C000000000000BE
:1059D0000000000001003EFC400240020000000008
:1059E00000000000FFFF0000000000000000400277
:1059F00040023EFC010000000000000000006000CA
:105A000080008000400040002000200000000000D6
:105A10000000000000000000000000000000000086
:105A20000000000000000000000000000000000076
:105A30000000000000000000000000000000000F57
:105A400080380FFE380F8038000000000000000092
:105A5000000000000000000000000100000600003F
:105A60000C00003800003100000600000C00003877
:105A700000003000000000000000000061800067AE
:105A8000F807F9800061800061800061800061801A
:105A90000067F807F9800061800000000000000046
:105AA000000001C0E003E0F00630080418081FFF02
:105AB000FE040E080787F00381E0000000000000EC
:105AC00001F000060C00040408060C7001F9C00087
:105AD0000E00003BE000EC18070808040C18000357
:105AE000E00000000001E00007F003F818041C08C3
:105AF00004170807E1D003C0E00023B0003C080011
:105B0000200800001000000000000001000031002B
:105B1000003200001C000000000000000000000037
:105B20000000000000000000000000000000000075
:105B30000000000000000000000000007F0001FFE6
:105B4000C00780F00C0018100004200002000000C4
:105B50000000002000021000040C00180780F00173
:105B6000FFC0007F000000000000000000000000F7
:105B70000000000000000000420000660000660017
:105B8000003C0000180003FFC0001800003C0000AB
:105B900066000066000042000000000008000008E7
:105BA0000000080000080000080001FFC000080015
:105BB00000080000080000080000080000000000C5
:105BC000000100003100003200001C000000000055
:105BD00000000000000000000000000000000000C5
:105BE0000000000008000008000008000008000095
:105BF0000800000800000800000800000800000875
:105C00000000000000000000000000003800003824
:105C1000000038000000000000000000000000004C
:105C2000000000000000000000000000000600006E
:105C30001C000070000180000E0000380000C00051
:105C40000700001C00003000000000000000000001
:105C50007F8001FFE0038070060018040008040044
:105C60000806001803807001FFE0007F800000003C
:105C70000000000000000100080100080100080306
:105C8000FFF807FFF8000008000008000008000007
:105C90000000000000000001C03802C05804009855
:105CA000040118040218040418061C1803F818014B
:105CB000E0F800000000000000000001C0E003C0A8
:105CC000F004000804080804080806180803F4187B
:105CD00001E7F00001E0000000000000000000000B
:105CE0000300000D000011000061000081080301A5
:105CF0000807FFF80FFFF800010800010800000086
:105D00000000000000E007FCD006080806100806A6
:105D10001008061008061838060FF00607C0000025
:105D200000000000000000003F8001FFE00384301D
:105D300002081804100804100804100807181003BB
:105D40000FF00007C000000000000000000003C0CA
:105D5000000700000600000600F80607F806180015
:105D600006E000070000060000000000000000013F
:105D7000E1E003F7F0063410041808041808040CD6
:105D800008040C0806161803F3F001C1E000000037
:105D900000000000F80003FC300306380402080489
:105DA00002080402080404100308F001FFC0007F89
:105DB00000000000000000000000000000000000E3
:105DC00000000000703800703800703800000000DB
:105DD00000000000000000000000000000000000C3
:105DE0000000000000000000301A00301C0000001D
:105DF00000000000000000000000000000000000A3
:105E00000000000800001400002200004100008093
:105E1000800100400200200400100800080000007B
:105E200000000000210000210000210000210000EE
:105E3000210000210000210000210000210000219C
:105E4000000000000000000000000800080400102E
:105E5000020020010040008080004100002200007C
:105E6000140000080000000000000003C00004C08F
:105E700000040000080038080F380808380810002F
:105E80000C300007E00003C000000000000000002C
:105E90003F8000FFE0038070020F1006708804C08E
:105EA00088048308047F8802C09003012000FE401C
:105EB0000000080000180001F8003E0801C20007B9
:105EC000020007E20000FE00001FC80001F8000009
:105ED0003800000804000807FFF807FFF804080866
:105EE00004080804080804080806180803F4180140
:105EF000E7F00001E0000000000000003F8001FF2B
:105F0000E003807002001804000804000804000880
:105F10000400100600200780C000000004000807ED
:105F2000FFF807FFF8040008040008040008040054
:105F30001802001003807001FFE0007F8000000065
:105F400004000807FFF807FFF8040808040808041D
:105F50000808040808043E080400080600180100A8
:105F60006000000004000807FFF807FFF8040808B5
:105F7000040800040800040800043E0006000006AF
:105F80000000018000000000000000003F8001FFD1
:105F9000E0038070060018040008040208040208E8
:105FA0000203F00783F0000200000200040008076B
:105FB000FFF807FFF80408080008000008000008C0
:105FC0000000080004080807FFF807FFF8040008AD
:105FD0000000000000000400080400080400080796
:105FE000FFF807FFF8040008040008040008000098
:105FF0000000000000000000000600000700000193
:1060000004000104000104000307FFFE07FFFC0475
:10601000000004000004000004000807FFF807FF68
:10602000F8040C08001800003E0004C7800503C8EF
:106030000600F804003804001800000804000807EF
:10604000FFF807FFF804000800000800000800003F
:1060500008000008000008000018000060000000B0
:1060600004000807FFF807800807FC00007FC00055
:1060700003F80007C000780007800807FFF807FF53
:10608000F804000804000807FFF807000803C00030
:1060900000E000003800001E000007000001C004FE
:1060A00000F007FFF8040000000000007F8001FFFF
:1060B000E0038070060018040008040008060018B9
:1060C00003003001FFE0007F8000000004000807AB
:1060D000FFF807FFF80404080404000404000404A3
:1060E00000040400060C0003F80001F000000000AA
:1060F000000000007F8001FFE0038070060088043C
:1061000000880400C806003C03003E01FFE6007F53
:106110008400000004000807FFF807FFF8040808DF
:10612000040800040C00040F00040BC00610F00368
:10613000F03801E00800000800000001E0F803F07A
:1061400030063010041808041808040C08040C0861
:106150000206180207F00781E00000000180000637
:10616000000004000004000004000807FFF807FF17
:10617000F80400080400000400000600000180008C
:1061800004000007FFE007FFF0040018000008000B
:10619000000800000800000800000804001007FFC5
:1061A000E004000004000006000007E00007FE0015
:1061B000041FE00001F80000380001E0043E000781
:1061C000C00006000004000004000007E00007FF14
:1061D000C0041FF80007C007F80007FF80043FF85D
:1061E0000007C004F80007000004000000000004DD
:1061F000000806001807C07805F1C8003E00001F1F
:10620000800463E80780F806001804000800000016
:1062100004000006000007800007E008047C080076
:106220001FF80007F800180804E00807000006003F
:10623000000400000000000100080600380400F817
:106240000403E8040F08047C0805F00807C00807E9
:1062500000180400600000000000000000000000C2
:10626000000000000000003FFFFE200002200002AE
:1062700020000220000220000200000000000000B8
:10628000000008000007000000C000003800000601
:10629000000001C000003000000E000001000000FE
:1062A0000000000000002000022000022000022068
:1062B00000022000023FFFFE00000000000000007E
:1062C00000000000000000000000000000080000C6
:1062D0001000003000002000003000001000000816
:1062E00000000000000000000000010000010000AC
:1062F0000100000100000100000100000100000198
:106300000000010000010000010000010000000089
:10631000000000000020000020000010000010001D
:10632000000000000000000000000000000000006D
:106330000000000000F00019F8001B1800220800FF
:106340002608002408002410003FF8001FF8000071
:106350000800001800000004000007FFF80FFFF01D
:10636000001818001008002008002008003018004D
:106370001FF0000FC00000000000000007C0001F59
:10638000F0001830002008002008002008003C0819
:10639000001C100000600000000000000000000071
:1063A00007C0001FF0003818002008002008002057
:1063B0000804101007FFF80FFFF0000010000000A5
:1063C0000000000000000007C0001FF000123000B5
:1063D0002218002208002208003208001E10000EB9
:1063E000200000000000000020000020080020081D
:1063F00001FFF803FFF8062008042008042008071E
:10640000200003000000000000000000000E000E4D
:106410006E001FF30031B10020B10020B1003191B6
:10642000001F13002E1E00200E003000000000048C
:10643000000807FFF80FFFF80010080020000020F8
:1064400000002008003FF8001FF8000008000000CE
:1064500000000000000000200800200800200806BE
:106460003FF8063FF80000080000080000080000A0
:106470000000000000000000000000000300000316
:10648000002001002001002003063FFE063FFC0023
:10649000000000000000000000000004000807FFEA
:1064A000F80FFFF8000188000300002FC00038F843
:1064B0000020380020080000080000000000000054
:1064C000000004000804000804000807FFF80FFF9C
:1064D000F8000008000008000008000000000000AC
:1064E000002008003FF8003FF800100800200000DE
:1064F0003FF8003FF8001008002000003FF8003F80
:10650000F8000008000000002008003FF8003FF8F5
:10651000001008001000002000002008003FF800D4
:106520001FF80000080000000000000007C0000F76
:10653000F000183000300800200800200800300863
:10654000001830000FF00007C0000000000000003D
:106550002001003FFF003FFF001011002009002034
:1065600008002008003038001FF0000FC0000000B5
:106570000000000007C0001FF000381800200800CD
:106580002008002009001011001FFF003FFF00003D
:1065900001000000002008002008002008003FF84B
:1065A000003FF80008080010080020080020000044
:1065B0003000003000000000000000000000000C6F
:1065C00078001E18003308002308002108002188E5
:1065D0000021980030F0003860000000000000004A
:1065E000200000200000200000FFF003FFF8002042
:1065F0000800200800200800003000000000000013
:10660000000000002000003FF0007FF800001800AC
:106610000008000008002010003FF8007FF0000094
:1066200010000000000000002000003000003C00CE
:10663000003F800023F000007800007000238000FD
:106640003C00003000002000002000003C00003F23
:10665000E00023F80000E0002700003E00003FE0DB
:106660000021F80001E0003E0000200000000000D2
:106670002008002008003838003E6800278000030A
:10668000C8002CF80038380020180020080000004E
:10669000000000002000003003003C01003F8300A8
:1066A00023EC000070002380003C0000200000204C
:1066B0000000000000000000000000380800203842
:1066C0000020F80023E8002F88003E08003808006A
:1066D0002018000070000000000000000000000012
:1066E000000000000000000008000014001FF7FC7C
:1066F0003000062000020000000000000000000042
:106700000000000000000000000000000000FFFF8B
:10671000FF0000000000000000000000000000007A
:106720000000000000002000023000061FF7FC00FF
:10673000140000080000000000000000000000003D
:106740000000000000000018000060000040000091
:1067500040000020000010000008000004000004B9
:1067600000000C000010000000000000000000000D
:106770000000000000000000000000000000000019
:106780000000000000000000000000000000000009
:1067900000000000000000000000000000000000F9
:1067A00000000000000000000000000000000000E9
:1067B00000000000000000000000000000000000D9
:1067C00000000000000000000000000000000000C9
:1067D00000000000000000000000000000000000B9
:1067E00000000000000000000000000000000000A9
:1067F0000000000000000000000000000000000099
:1068000007F000C007FFE1E007F001E0000000C072
:106810000000000000000000000000000000000078
:106820000000000000000000000000000000000068
:106830000000000000000000000000000000000058
:106840000000000000000000000000000000000048
:106850000000000000000000000000000000000038
:106860000000000000000000000000000000000028
:106870000020000001C00000078000001F00000091
:106880001E0000001C20000001C000000780000066
:106890001F0000001E0000001C000000000000009F
:1068A00000000000000000000000000000000000E8
:1068B00000000000000000000000000000000000D8
:1068C00000000000000000000000000000000000C8
:1068D00000000000000000000000000000000000B8
:1068E00000000000000000000000000000180C0084
:1068F00000180C0000180FE0001FFC0003F80C004B
:1069000000180C0000180C0000180C0000180C00F7
:1069100000180FE0001FFC0003F80C0000180C002A
:1069200000180C0000000000000000000000000043
:106930000000000000000000000000000000000057
:106940000000000000000000000000000000000047
:106950000000000000000000000000000000000037
:106960000000000000000000000000000000000027
:1069700000000780007807C000FC0640010E0020E0
:1069800003070020020380200FFFFFFC0201C0204C
:106990000200E0600130704001F03F8000F01F0015
:1069A00000000000000000000000000000000000E7
:1069B00000000000000000000000000000000000D7
:1069C00000000000000000000000000000000000C7
:1069D00000000000000000000000000000000000B7
:1069E000000000000000000000FE000001FF0000A9
:1069F0000301800002008060030181C001FF0700E5
:106A000000FE18000000E0000003BF00000CFFC003
:106A10000071806001C10020030180600000FFC0A0
:106A200000003F0000000000000000000000000027
:106A30000000000000000000000000000000000056
:106A40000000000000000000000000000000000046
:106A50000000000000000000000000000000000036
:106A6000000000000000000000001F0000007FC0C8
:106A700000FCC0C001FF80600303E0200202782018
:106A800002061E2003FC074001F00380000103C042
:106A900000011C600001E020000100200001004016
:106AA0000000018000000000000000000000000065
:106AB00000000000000000000000000000000000D6
:106AC00000000000000000000000000000000000C6
:106AD00000000000000000000000000000000000B6
:106AE0000000000000000000000000000020000086
:106AF0001C6000001C4000001F8000000F00000010
:106B00000000000000000000000000000000000085
:106B10000000000000000000000000000000000075
:106B20000000000000000000000000000000000065
:106B30000000000000000000000000000000000055
:106B40000000000000000000000000000000000045
:106B50000000000000000000000000000000000035
:106B60000000000000000000000000000000000025
:106B70000000000000000000000000000000000015
:106B8000000000000007F800003FFF00007807C089
:106B900001C000E003000030040000080800000409
:106BA00010000002000000000000000000000000D3
:106BB00000000000000000000000000000000000D5
:106BC00000000000000000000000000000000000C5
:106BD00000000000000000000000000000000000B5
:106BE0000000000000000000000000001000000293
:106BF00008000004040000080300003001C000E0A9
:106C0000007807C0003FFF000007F8000000000008
:106C10000000000000000000000000000000000074
:106C20000000000000000000000000000000000064
:106C30000000000000000000000000000000000054
:106C40000000000000000000000000000000000044
:106C50000000000000000000000000000000000034
:106C60000000000000000000000000000000000024
:106C7000000C1800000E3800000E3800000630002E
:106C8000000360000061438000FFFF80006143005B
:106C90000003600000063000000E3800000E3800CF
:106CA000000C1800000000000000000000000000C0
:106CB00000000000000000000000000000000000D4
:106CC00000000000000000000000000000000000C4
:106CD00000000000000000000000000000000000B4
:106CE00000000000000000000000000000000000A4
:106CF0000000800000008000000080000000800094
:106D00000000800000008000007FFF000000800085
:106D10000000800000008000000080000000800073
:106D200000008000000000000000000000000000E3
:106D30000000000000000000000000000000000053
:106D40000000000000000000000000000000000043
:106D50000000000000000000000000000000000033
:106D60000000000000000000000000000000000122
:106D7000000000E3000000E2000000FC00000078DA
:106D80000000000000000000000000000000000003
:106D900000000000000000000000000000000000F3
:106DA00000000000000000000000000000000000E3
:106DB00000000000000000000000000000000000D3
:106DC00000000000000000000000000000000000C3
:106DD00000000000000000000000000000000000B3
:106DE0000000000000000000000000000000800023
:106DF0000000800000008000000080000000800093
:106E00000000800000008000000080000000800082
:106E10000000800000008000000080000000800072
:106E200000008000000000000000000000000000E2
:106E30000000000000000000000000000000000052
:106E40000000000000000000000000000000000042
:106E50000000000000000000000000000000000032
:106E60000000000000000000000000000000000022
:106E7000000000C0000001E0000001E0000000C0D0
:106E80000000000000000000000000000000000002
:106E900000000000000000000000000000000000F2
:106EA00000000000000000000000000000000000E2
:106EB00000000000000000000000000000000000D2
:106EC00000000000000000000000000000000000C2
:106ED00000000000000000000000000000000000B2
:106EE0000000000000000000000000000000000C96
:106EF00000000038000000E00000038000000E00E9
:106F0000000038000000E00000038000000E0000D8
:106F10000038000000E00000038000000E000000C8
:106F20001800000000000000000000000000000049
:106F30000000000000000000000000000000000051
:106F40000000000000000000000000000000000041
:106F50000000000000000000000000000000000031
:106F60000000000000000000000000000000000021
:106F7000000FF800007FFF0000F00780018000C0D4
:106F80000300006002000020020000200200002038
:106F900003000060018000C000E00380007FFF006C
:106FA000000FF800000000000000000000000000DA
:106FB00000000000000000000000000000000000D1
:106FC00000000000000000000000000000000000C1
:106FD00000000000000000000000000000000000B1
:106FE00000000000000000000000000000000000A1
:106FF00000000000008000200080002000800020B1
:107000000080006001FFFFE003FFFFE00000006080
:107010000000002000000020000000200000000010
:107020000000000000000000000000000000000060
:107030000000000000000000000000000000000050
:107040000000000000000000000000000000000040
:107050000000000000000000000000000000000030
:107060000000000000000000000000000000000020
:10707000007800E0009801600100026002000460F6
:107080000200086002001060020020600200406000
:10709000030080600183006001FE00E0007C078047
:1070A00000000000000000000000000000000000E0
:1070B00000000000000000000000000000000000D0
:1070C00000000000000000000000000000000000C0
:1070D00000000000000000000000000000000000B0
:1070E00000000000000000000000000000000000A0
:1070F00000F0078001F007C00100004002000020FE
:107100000201002002010020020100200303802070
:107110000186804001FCC0C000787F8000001E0016
:10712000000000000000000000000000000000005F
:10713000000000000000000000000000000000004F
:10714000000000000000000000000000000000003F
:10715000000000000000000000000000000000002F
:107160000000000000000000000000000000080017
:1071700000003800000048000001880000060800F8
:10718000000C0810003008100040081001FFFFF04C
:1071900003FFFFF003FFFFF00000081000000810DD
:1071A00000000810000000000000000000000000C7
:1071B00000000000000000000000000000000000CF
:1071C00000000000000000000000000000000000BF
:1071D00000000000000000000000000000000000AF
:1071E000000000000000000000000000000000009F
:1071F00000000780001F864003E1002003020020FA
:1072000003040020030400200304002003040020E2
:1072100003060040030301C00301FF8003007E005A
:10722000000000000000000000000000000000005E
:10723000000000000000000000000000000000004E
:10724000000000000000000000000000000000003E
:10725000000000000000000000000000000000002E
:10726000000000000000000000000000000000001E
:107270000007FC00003FFF000070C380008180C059
:10728000010100600302002002020020020200202F
:10729000020200200203004001C180C000C0FF8044
:1072A00000007E0000000000000000000000000060
:1072B00000000000000000000000000000000000CE
:1072C00000000000000000000000000000000000BE
:1072D00000000000000000000000000000000000AE
:1072E000000000000000000000000000000000009E
:1072F00000F0000003C00000038000000300000055
:10730000030007E003003FE00301C00003060000A4
:107310000318000003600000038000000300000069
:10732000000000000000000000000000000000005D
:10733000000000000000000000000000000000004D
:10734000000000000000000000000000000000003D
:10735000000000000000000000000000000000002D
:1073600000000000000000000000000000001F00FE
:1073700000783F8000FC60C0018EC0400307802081
:107380000203002002018020020180200201C020AF
:107390000301E040018670C000FC3F8000781F00C0
:1073A00000000000000000000000000000000000DD
:1073B00000000000000000000000000000000000CD
:1073C00000000000000000000000000000000000BD
:1073D00000000000000000000000000000000000AD
:1073E000000000000000000000000000003F00005E
:1073F00000FF81C001C0C1C0010060200200202048
:10740000020020200200202002002060020040C074
:107410000100C18000C18F00007FFE00001FF0004E
:10742000000000000000000000000000000000005C
:10743000000000000000000000000000000000004C
:10744000000000000000000000000000000000003C
:10745000000000000000000000000000000000002C
:10746000000000000000000000000000000000001C
:10747000000000000000000000000000000000000C
:10748000000300C0000781E0000781E0000300C0A6
:1074900000000000000000000000000000000000EC
:1074A00000000000000000000000000000000000DC
:1074B00000000000000000000000000000000000CC
:1074C00000000000000000000000000000000000BC
:1074D00000000000000000000000000000000000AC
:1074E000000000000000000000000000000000009C
:1074F000000000000000000000000000000000008C
:107500000006006600060078000000000000000091
:10751000000000000000000000000000000000006B
:10752000000000000000000000000000000000005B
:10753000000000000000000000000000000000004B
:10754000000000000000000000000000000000003B
:10755000000000000000000000000000000000002B
:10756000000000000000000000000000000000001B
:10757000000080000001C000000360000006300031
:10758000000C180000180C0000300600006003001A
:1075900000C0018001000040020000200400001033
:1075A00000000000000000000000000000000000DB
:1075B00000000000000000000000000000000000CB
:1075C00000000000000000000000000000000000BB
:1075D00000000000000000000000000000000000AB
:1075E0000000000000000000000000000004100087
:1075F000000410000004100000041000000410003B
:10760000000410000004100000041000000410002A
:10761000000410000004100000041000000410001A
:107620000004100000000000000000000000000046
:10763000000000000000000000000000000000004A
:10764000000000000000000000000000000000003A
:10765000000000000000000000000000000000002A
:10766000000000000000000000000000000000001A
:1076700004000010020000200100004000C0018052
:10768000006003000030060000180C00000C180019
:1076900000063000000360000001C0000000800010
:1076A00000000000000000000000000000000000DA
:1076B00000000000000000000000000000000000CA
:1076C00000000000000000000000000000000000BA
:1076D00000000000000000000000000000000000AA
:1076E000000000000000000000000000000000009A
:1076F0000078000001F800000238000002000000DD
:10770000040000C0040079E0040081E0040100C02E
:1077100004030000020200000306000001FC000058
:1077200000F8000000000000000000000000000061
:107730000000000000000000000000000000000049
:107740000000000000000000000000000000000039
:107750000000000000000000000000000000000029
:10776000000000000000000000000000000FF80012
:10777000003FFE000070078000C000C00101F8401B
:107780000307FC20021E04200230082002203020C3
:10779000023FFC20013F044001800CC000E031802A
:1077A000001FC200000000000000000000000000F8
:1077B00000000000000000000000000000000000C9
:1077C00000000000000000000000000000000000B9
:1077D00000000000000000000000000000000000A9
:1077E0000000000000000000000000200000006019
:1077F000000003E000003E200003E020003E2000E7
:1078000003E020000380200007FC2000003FE00090
:107810000003FE2000003FE0000001E00000002027
:107820000000002000000000000000000000000038
:107830000000000000000000000000000000000048
:107840000000000000000000000000000000000038
:107850000000000000000000000000000000000028
:1078600000000000000000000000000002000020F6
:107870000200002003FFFFE003FFFFE00201002001
:10788000020100200201002002010020020100206C
:10789000030300200186806001FCC0C000F87F80E7
:1078A00000001F00000000000000000000000000B9
:1078B00000000000000000000000000000000000C8
:1078C00000000000000000000000000000000000B8
:1078D00000000000000000000000000000000000A8
:1078E0000000000000000000000000000007F80099
:1078F000003FFF000070078000C000C00100004092
:1079000003000020020000200200002002000020EE
:107910000200002001000040018000C003C001807F
:107920000030060000000000000000000000000021
:107930000000000000000000000000000000000047
:107940000000000000000000000000000000000037
:107950000000000000000000000000000000000027
:1079600000000000000000000000000002000020F5
:107970000200002003FFFFE003FFFFE00200002001
:10798000020000200200002002000020030000602E
:1079900001000040018000C000F00780007FFE0071
:1079A000000FF800000000000000000000000000D0
:1079B00000000000000000000000000000000000C7
:1079C00000000000000000000000000000000000B7
:1079D00000000000000000000000000000000000A7
:1079E0000000000000000000000000000200002075
:1079F0000200002003FFFFE003FFFFE00201002080
:107A000002010020020100200201002002010020EA
:107A100002038020020FE0200300006003C000E0AA
:107A200000600300000000000000000000000000F3
:107A30000000000000000000000000000000000046
:107A40000000000000000000000000000000000036
:107A50000000000000000000000000000000000026
:107A600000000000000000000000000002000020F4
:107A70000200002003FFFFE003FFFFE002010020FF
:107A800002010020020100000201000002010000CA
:107A90000201000002038000030FE0000300000069
:107AA00003C00000006000000000000000000000B3
:107AB00000000000000000000000000000000000C6
:107AC00000000000000000000000000000000000B6
:107AD00000000000000000000000000000000000A6
:107AE0000000000000000000000000000007F80097
:107AF000003FFE000070078001C001C0010000408F
:107B000003000020020000200200002002000020EC
:107B1000010020200100204003C03F8000303F8052
:107B20000000200000002000000000000000000015
:107B30000000000000000000000000000000000045
:107B40000000000000000000000000000000000035
:107B50000000000000000000000000000000000025
:107B600000000000000000000200002002000020D1
:107B700003FFFFE003FFFFE00200802002008020FF
:107B800000008000000080000000800002008020D3
:107B90000200802003FFFFE003FFFFE0020000205F
:107BA00002000020000000000000000000000000B3
:107BB00000000000000000000000000000000000C5
:107BC00000000000000000000000000000000000B5
:107BD00000000000000000000000000000000000A5
:107BE0000000000000000000000000000000000095
:107BF000000000000200002002000020020000201F
:107C00000200002003FFFFE003FFFFE0020000206E
:107C100002000020020000200200002000000000FE
:107C20000000000000000000000000000000000054
:107C30000000000000000000000000000000000044
:107C40000000000000000000000000000000000034
:107C50000000000000000000000000000000000024
:107C60000000000000000000000000000000000E06
:107C70000000000F0000000F0000000102000001E2
:107C800002000001020000030200000603FFFFFCE7
:107C900003FFFFF8020000000200000002000000E5
:107CA00002000000000000000000000000000000D2
:107CB00000000000000000000000000000000000C4
:107CC00000000000000000000000000000000000B4
:107CD00000000000000000000000000000000000A4
:107CE0000000000000000000000000000200002072
:107CF0000200002003FFFFE003FFFFE00200C020BE
:107D00000201002000078000000FE0000030F800B2
:107D100002603E2003800F20030003E0020000E029
:107D20000200002000000020000000000000000011
:107D30000000000000000000000000000000000043
:107D40000000000000000000000000000000000033
:107D50000000000000000000000000000000000023
:107D600000000000000000000000000002000020F1
:107D70000200002003FFFFE003FFFFE002000020FD
:107D80000200002000000020000000200000002071
:107D9000000000200000002000000060000000E063
:107DA00000000300000000000000000000000000D0
:107DB00000000000000000000000000000000000C3
:107DC00000000000000000000000000000000000B3
:107DD00000000000000000000000000000000000A3
:107DE000000000000000000002000020020000204F
:107DF00003FFFFE003E0002003FF0020001FF0006E
:107E00000001FF8000000FE000001E000003E00002
:107E1000003E002003E0002003FFFFE003FFFFE03F
:107E2000020000200200002000000000000000000E
:107E30000000000000000000000000000000000042
:107E40000000000000000000000000000000000032
:107E50000000000000000000000000000000000022
:107E600000000000000000000200002002000020CE
:107E700003FFFFE00380002003F0002000FC00006F
:107E8000001F00000007C0000001F00000007C009F
:107E900002001F80020007E003FFFFE00200000075
:107EA00002000000000000000000000000000000D0
:107EB00000000000000000000000000000000000C2
:107EC00000000000000000000000000000000000B2
:107ED00000000000000000000000000000000000A2
:107EE000000000000000000000000000000FF8008B
:107EF000003FFE0000F00780018000C0010000404C
:107F000002000020020000200200002002000020E9
:107F100001000040018000C000F00380003FFE002F
:107F2000000FF8000000000000000000000000004A
:107F30000000000000000000000000000000000041
:107F40000000000000000000000000000000000031
:107F50000000000000000000000000000000000021
:107F600000000000000000000000000002000020EF
:107F70000200002003FFFFE003FFFFE0020080207B
:107F800002008020020080000200800002008000C9
:107F900002008000030180000183000000FE000059
:107FA000007C000000000000000000000000000055
:107FB00000000000000000000000000000000000C1
:107FC00000000000000000000000000000000000B1
:107FD00000000000000000000000000000000000A1
:107FE000000000000000000000000000000FF8008A
:107FF000007FFF0000F00380018001C00100064007
:10800000020004200200042002000620020003E017
:10801000010000F80180005C00E0038C003FFF0CD1
:10802000000FFC180000000000000000000000002D
:108030000000000000000000000000000000000040
:108040000000000000000000000000000000000030
:108050000000000000000000000000000000000020
:1080600000000000000000000000000002000020EE
:108070000200002003FFFFE003FFFFE002010020F9
:1080800002010020020180000201E0000201FC0068
:1080900003033F80018607E001FC00E000F80020B8
:1080A00000000020000000000000000000000000B0
:1080B00000000000000000000000000000000000C0
:1080C00000000000000000000000000000000000B0
:1080D00000000000000000000000000000000000A0
:1080E0000000000000000000000000000000000090
:1080F0000078060000FE01E0018600C00303004096
:108100000203002002018020020180200201C02021
:108110000200C0200100E060018070C003E03F80E9
:1081200000001F0000000000000000000000000030
:10813000000000000000000000000000000000003F
:10814000000000000000000000000000000000002F
:10815000000000000000000000000000000000001F
:1081600000000000000000000000000000600000AF
:108170000380000003000000020000000200002055
:108180000200002003FFFFE003FFFFE002000020E9
:108190000200002002000000020000000380000036
:1081A00000E00000000000000000000000000000EF
:1081B00000000000000000000000000000000000BF
:1081C00000000000000000000000000000000000AF
:1081D000000000000000000000000000000000009F
:1081E000000000000000000002000000020000008B
:1081F00003FFFF0003FFFFC0020000400200006019
:1082000000000020000000200000002000000020EE
:10821000020000400200008003FFFF000200000097
:10822000020000000000000000000000000000004C
:10823000000000000000000000000000000000003E
:10824000000000000000000000000000000000002E
:10825000000000000000000000000000000000001E
:10826000000000000000000000000000020000000C
:108270000200000003C0000003FC0000023FC00039
:108280000003F80000007F80000007E00000078086
:10829000000078000203C000023C000003C00000A0
:1082A00002000000020000000000000000000000CA
:1082B00000000000000000000000000000000000BE
:1082C00000000000000000000000000000000000AE
:1082D000000000000000000000000000000000009E
:1082E00000000000000000000200000003C00000C9
:1082F00003FF8000023FFE0002007FE000000F004D
:108300000200F00003EF000003FF8000020FFE00F8
:1083100000003FE000001F000207E00003F800003B
:108320000300000002000000000000000000000048
:10833000000000000000000000000000000000003D
:10834000000000000000000000000000000000002D
:10835000000000000000000000000000000000001D
:1083600000000000000000000000000002000020EB
:1083700002000020038000E003F0032002FC0C2038
:10838000021F30000007C0000007F00002187C0048
:1083900002601F20038003E0020000E002000020D2
:1083A00000000020000000000000000000000000AD
:1083B00000000000000000000000000000000000BD
:1083C00000000000000000000000000000000000AD
:1083D000000000000000000000000000000000009D
:1083E000000000000000000000000000020000008B
:1083F0000300000003C0000003F80000023E00205C
:10840000020FC0200001FFE000007FE00003802099
:10841000021C002002700000038000000200000027
:10842000020000000000000000000000000000004A
:10843000000000000000000000000000000000003C
:10844000000000000000000000000000000000002C
:10845000000000000000000000000000000000001C
:1084600000000000000000000000000000000020EC
:10847000006000E0038003E003000FA002003E2044
:108480000200F8200203E020020F8020023E0020BC
:108490000278002003E00060038000E00200030097
:1084A00000000000000000000000000000000000CC
:1084B00000000000000000000000000000000000BC
:1084C00000000000000000000000000000000000AC
:1084D000000000000000000000000000000000009C
:1084E000000000000000000000000000000000008C
:1084F000000000000000000000000000000000007C
:108500001FFFFFFC10000004100000041000000416
:10851000100000041000000410000004100000040B
:10852000000000000000000000000000000000004B
:10853000000000000000000000000000000000003B
:10854000000000000000000000000000000000002B
:10855000000000000000000000000000000000001B
:10856000000000000000000000000000000000000B
:10857000000000000700000003C0000000780000B9
:10858000001E00000003C0000000F00000001E00FC
:1085900000000780000000F00000003C0000000622
:1085A00000000000000000000000000000000000CB
:1085B00000000000000000000000000000000000BB
:1085C00000000000000000000000000000000000AB
:1085D000000000000000000000000000000000009B
:1085E000000000000000000000000000000000008B
:1085F000100000041000000410000004100000042B
:108600001000000410000004100000041FFFFFFC15
:10861000000000000000000000000000000000005A
:10862000000000000000000000000000000000004A
:10863000000000000000000000000000000000003A
:10864000000000000000000000000000000000002A
:10865000000000000000000000000000000000001A
:10866000000000000000000000000000000000000A
:1086700000000000000000000200000004000000F4
:1086800008000000180000001000000018000000A2
:1086900018000000040000000200000000000000BC
:1086A00000000000000000000000000000000000CA
:1086B00000000000000000000000000000000000BA
:1086C00000000000000000000000000000000000AA
:1086D000000000000000000000000000000000009A
:1086E0000000000000000000000000010000000188
:1086F0000000000100000001000000010000000176
:108700000000000100000001000000010000000165
:108710000000000100000001000000010000000155
:108720000000000100000001000000000000000047
:108730000000000000000000000000000000000039
:108740000000000000000000000000000000000029
:108750000000000000000000000000000000000019
:108760000000000000000000000000000000000009
:1087700000000000100000001000000010000000C9
:1087800018000000080000000400000000000000C5
:1087900000000000000000000000000000000000D9
:1087A00000000000000000000000000000000000C9
:1087B00000000000000000000000000000000000B9
:1087C00000000000000000000000000000000000A9
:1087D0000000000000000000000000000000000099
:1087E0000000000000000000000000000000038006
:1087F00000018FC000038C600006182000041020C8
:108800000004102000042020000420400006204026
:108810000003FFC00001FFE0000000200000002076
:10882000000000C000000000000000000000000088
:108830000000000000000000000000000000000038
:108840000000000000000000000000000000000028
:108850000000000000000000000000000000000018
:108860000000000000000000000000000200000006
:108870000200000003FFFFE007FFFFC0000180C00F
:10888000000200600002002000040020000400201C
:108890000004002000060040000300C00001FF802B
:1088A0000000FE00000000000000000000000000CA
:1088B00000000000000000000000000000000000B8
:1088C00000000000000000000000000000000000A8
:1088D0000000000000000000000000000000000098
:1088E0000000000000000000000000000000000088
:1088F00000007E000001FF80000381C000020040F4
:1089000000060020000400200004002000040020D5
:10891000000600200003C0400001C08000000300EA
:108920000000000000000000000000000000000047
:108930000000000000000000000000000000000037
:108940000000000000000000000000000000000027
:108950000000000000000000000000000000000017
:108960000000000000000000000000000000000007
:1089700000007E000001FF80000380C00006006050
:108980000004002000040020000400200204004035
:108990000202008003FFFFE007FFFFC0000000406D
:1089A0000000004000000000000000000000000087
:1089B00000000000000000000000000000000000B7
:1089C00000000000000000000000000000000000A7
:1089D0000000000000000000000000000000000097
:1089E0000000000000000000000000000000000087
:1089F00000007E000001FF80000311C00002104053
:108A00000004106000041020000410200004102056
:108A100000061020000310400001F0C000007100AB
:108A20000000000000000000000000000000000046
:108A30000000000000000000000000000000000036
:108A40000000000000000000000000000000000026
:108A50000000000000000000000000000000000016
:108A60000000000000000000000000000000000006
:108A70000004000000040020000400200004002086
:108A8000007FFFE001FFFFE001040020030400205D
:108A90000204002002040020020400000200000082
:108AA00001C0000001C00000000000000000000044
:108AB00000000000000000000000000000000000B6
:108AC00000000000000000000000000000000000A6
:108AD0000000000000000000000000000000000096
:108AE0000000000000000000000000000000000086
:108AF0000000001C0000E33E0003FFC200020CC3A4
:108B0000000404C1000404C1000404C1000404C141
:108B100000060CC10003F8C30005F0620006007EE9
:108B20000006003C00000000000000000000000003
:108B30000000000000000000000000000000000035
:108B40000000000000000000000000000000000025
:108B50000000000000000000000000000000000015
:108B600000000000000000000000000002000020E3
:108B70000200002003FFFFE007FFFFE000010020EC
:108B800000020020000600000004000000040000B5
:108B900000040020000600200003FFE00001FFE0C9
:108BA0000000002000000020000000000000000085
:108BB00000000000000000000000000000000000B5
:108BC00000000000000000000000000000000000A5
:108BD0000000000000000000000000000000000095
:108BE0000000000000000000000000000000000085
:108BF0000000000000040020000400200004002009
:108C0000000400200387FFE0038FFFE003800020C3
:108C100000000020000000200000002000000000F4
:108C20000000000000000000000000000000000044
:108C30000000000000000000000000000000000034
:108C40000000000000000000000000000000000024
:108C50000000000000000000000000000000000014
:108C60000000000000000000000000000000000004
:108C700000000000000000060000000700000001E6
:108C800000000001000400010004000100040003D2
:108C9000000400060387FFFC038FFFF80380000039
:108CA00000000000000000000000000000000000C4
:108CB00000000000000000000000000000000000B4
:108CC00000000000000000000000000000000000A4
:108CD0000000000000000000000000000000000094
:108CE0000000000000000000000000000200002062
:108CF0000200002003FFFFE007FFFFE00000082064
:108D000000001020000030000000FC0000058E0074
:108D1000000707A0000601E0000400E000040020B6
:108D20000000002000000000000000000000000023
:108D30000000000000000000000000000000000033
:108D40000000000000000000000000000000000023
:108D50000000000000000000000000000000000013
:108D60000000000000000000000000000000000003
:108D7000000000000200002002000020020000208D
:108D80000200002003FFFFE007FFFFE000000020DB
:108D90000000002000000020000000200000000073
:108DA00000000000000000000000000000000000C3
:108DB00000000000000000000000000000000000B3
:108DC00000000000000000000000000000000000A3
:108DD0000000000000000000000000000000000093
:108DE000000000000000000000000000000400205F
:108DF0000007FFE0000FFFE0000200200004000079
:108E0000000400200007FFE00003FFE00002002054
:108E100000040000000400200007FFE00003FFE062
:108E20000000002000000000000000000000000022
:108E30000000000000000000000000000000000032
:108E40000000000000000000000000000000000022
:108E50000000000000000000000000000000000012
:108E600000000000000000000000000000040020DE
:108E7000000400200007FFE0000FFFE000010020D9
:108E800000020020000200000004000000040000B6
:108E900000040020000600200003FFE00001FFE0C6
:108EA0000000002000000020000000000000000082
:108EB00000000000000000000000000000000000B2
:108EC00000000000000000000000000000000000A2
:108ED0000000000000000000000000000000000092
:108EE0000000000000000000000000000000000082
:108EF00000007E000000FF80000381C000020040EF
:108F000000060020000400200004002000040020CF
:108F10000006002000020040000381C00001FF8025
:108F200000007E00000000000000000000000000C3
:108F30000000000000000000000000000000000031
:108F40000000000000000000000000000000000021
:108F50000000000000000000000000000000000011
:108F600000000000000000000000000000040001FC
:108F7000000400010007FFFF000FFFFF000100C118
:108F80000002004100040020000400200004002032
:108F90000004002000060040000301C00001FF8023
:108FA00000007E0000000000000000000000000043
:108FB00000000000000000000000000000000000B1
:108FC00000000000000000000000000000000000A1
:108FD0000000000000000000000000000000000091
:108FE0000000000000000000000000000000000081
:108FF00000007E000001FF80000380C000020060CE
:1090000000040020000400200004002000040020D0
:1090100000020041000300C10003FFFF0007FFFF43
:10902000000000010000000100000000000000003E
:109030000000000000000000000000000000000030
:109040000000000000000000000000000000000020
:109050000000000000000000000000000000000010
:1090600000000000000000000000000000040020DC
:10907000000400200004002000040020000FFFE096
:10908000000FFFE00000C0200001002000020020CF
:10909000000600200004000000040000000700009B
:1090A00000030000000000000000000000000000BD
:1090B00000000000000000000000000000000000B0
:1090C00000000000000000000000000000000000A0
:1090D0000000000000000000000000000000000090
:1090E0000000000000000000000000000000000080
:1090F000000003E00001C0E00003E0400006302073
:109100000004302000041820000418200004182057
:1091100000040C2000020C60000307C000078380DD
:10912000000000000000000000000000000000003F
:10913000000000000000000000000000000000002F
:10914000000000000000000000000000000000001F
:10915000000000000000000000000000000000000F
:1091600000000000000000000000000000000000FF
:10917000000400000004000000040000000C0000D7
:10918000001FFF8000FFFFC00004006000040020FB
:1091900000040020000400200004004000000180C2
:1091A00000000000000000000000000000000000BF
:1091B00000000000000000000000000000000000AF
:1091C000000000000000000000000000000000009F
:1091D000000000000000000000000000000000008F
:1091E000000000000000000000000000000400007B
:1091F000000400000007FF80000FFFC000000060B7
:1092000000000020000000200000002000000020DE
:1092100000040040000400800007FFE0000FFFC0D2
:1092200000000040000000400000000000000000BE
:10923000000000000000000000000000000000002E
:10924000000000000000000000000000000000001E
:10925000000000000000000000000000000000000E
:1092600000000000000000000000000000040000FA
:1092700000040000000780000007F0000004FE006A
:1092800000041FC0000003E00000038000001C0079
:1092900000046000000780000006000000040000D9
:1092A00000000000000000000000000000000000BE
:1092B00000000000000000000000000000000000AE
:1092C000000000000000000000000000000000009E
:1092D000000000000000000000000000000000008E
:1092E0000000000000000000000400000006000074
:1092F0000007C0000007FC0000043F80000003E0FE
:1093000000040F800006F0000007F0000007FF8057
:1093100000040FE00000038000043C000007C000D0
:109320000006000000040000000000000000000033
:10933000000000000000000000000000000000002D
:10934000000000000000000000000000000000001D
:10935000000000000000000000000000000000000D
:1093600000000000000000000000000000000020DD
:109370000004002000040060000700E000078320D4
:109380000007E6000004F80000003C0000045E2036
:10939000000587A0000601E0000400600004002032
:1093A000000000200000000000000000000000009D
:1093B00000000000000000000000000000000000AD
:1093C000000000000000000000000000000000009D
:1093D000000000000000000000000000000000008D
:1093E0000000000000000000000000000004000079
:1093F00000040003000700030007E0010004F80177
:1094000000041F02000007FC000000E0000007004D
:10941000000438000007C00000060000000400003F
:109420000004000000000000000000000000000038
:10943000000000000000000000000000000000002C
:10944000000000000000000000000000000000001C
:10945000000000000000000000000000000000000C
:1094600000000000000000000000000000000000FC
:1094700000078060000600E0000403E0000407A08D
:1094800000040E2000043C20000470200005E020B1
:109490000007802000070060000400E00000038057
:1094A00000000000000000000000000000000000BC
:1094B00000000000000000000000000000000000AC
:1094C000000000000000000000000000000000009C
:1094D000000000000000000000000000000000008C
:1094E000000000000000000000000000000000007C
:1094F000000000000000000000000000000000006C
:10950000000000000000800000008000000140001A
:1095100007FE3FF8080000041000000210000002DF
:10952000000000000000000000000000000000003B
:10953000000000000000000000000000000000002B
:10954000000000000000000000000000000000001B
:10955000000000000000000000000000000000000B
:1095600000000000000000000000000000000000FB
:1095700000000000000000000000000000000000EB
:109580000000000000000000FFFFFFFF00000000DF
:1095900000000000000000000000000000000000CB
:1095A00000000000000000000000000000000000BB
:1095B00000000000000000000000000000000000AB
:1095C000000000000000000000000000000000009B
:1095D000000000000000000000000000000000008B
:1095E000000000000000000000000000000000007B
:1095F00010000002100000020800000407FE3FF8FF
:109600000001400000008000000080000000000019
:10961000000000000000000000000000000000004A
:10962000000000000000000000000000000000003A
:10963000000000000000000000000000000000002A
:10964000000000000000000000000000000000001A
:10965000000000000000000000000000000000000A
:1096600000000000000000000000000018000000E2
:1096700030000000400000004000000040000000FA
:10968000200000003000000008000000040000007E
:109690000200000002000000020000000C000000B8
:1096A00018000000000000000000000000000000A2
:1096B00000000000000000000000000000000000AA
:1096C000000000000000000000000000000000009A
:1096D000000000000000000000000000000000008A
:1096E00000000000000000000897000800000020B3
:1096F000140000006C0100081C97000814000020F2
:10970000740600008801000801000000100000003D
:0C971000000000000024F4000000FFFF37
:0400000508000131BD
:00000001FF
