:020000040800F2
:1000000018170020F1010008C3210008CF200008C4
:10001000C1210008F7130008452400080000000073
:10002000000000000000000000000000C1220008E5
:10003000F913000800000000C5210008C3220008D1
:100040000B0200080B0200080B0200080B0200085C
:100050000B0200080B0200080B0200080B0200084C
:100060000B0200080B0200080B0200080B0200083C
:100070000B0200080B0200080B0200080B0200082C
:100080000B0200080B0200080B0200080B0200081C
:100090000B0200080B0200080B0200080B0200080C
:1000A0000B0200080B0200080B0200080B020008FC
:1000B0000B0200080B0200080B0200080B020008EC
:1000C0000B0200080B0200080B0200080B020008DC
:1000D0000B0200080B0200080B0200080B020008CC
:1000E0000B0200080B0200080B0200080B020008BC
:1000F0000B0200080B0200080B0200080B020008AC
:100100000B0200080B0200080B0200080B0200089B
:100110000B0200080B0200080B0200080B0200088B
:100120000B0200080B0200080B0200080B0200087B
:1001300000F002F800F04DF80AA090E8000C8244AC
:100140008344AAF10107DA4501D100F042F8AFF289
:10015000090EBAE80F0013F0010F18BFFB1A43F0A5
:1001600001031847BC2A0000DC2A0000103A24BF13
:1001700078C878C1FAD8520724BF30C830C144BF0C
:1001800004680C607047000000230024002500264E
:10019000103A28BF78C1FBD8520728BF30C148BFEA
:1001A0000B607047662902F0CE84782900F07880D1
:1001B000732900F0CB83002070471FB500F0DCFBF3
:1001C00004000020002102F031FCE0601FBD10B5EA
:1001D00010BD00F0E9FC1146FFF7EFFF02F0EEFA68
:1001E00000F007FD03B4FFF7F2FF03BC02F0D9FAF9
:1001F0000948804709480047FEE7FEE7FEE7FEE7BB
:10020000FEE7FEE7FEE7FEE7FEE7FEE704480549F6
:10021000054A064B704700002523000831010008FD
:1002200018110020181700201813002018130020A0
:10023000704700000FB4044910B503AA029800F0FB
:1002400089FB10BC5DF814FB0000002070B50C4663
:100250000546012A05D02878800600D5EA690023E2
:1002600002E0012305E05B1C934202D2E05C00281F
:10027000F9D1A869E618C01AA861286A184428624A
:100280002846AFF3008004E0D5E9012114F8010B02
:100290009047B442F8D32846AFF3008070BD000009
:1002A00070B504460D4621461068AFF300802188E2
:1002B000090502D50F4A7A4402E00E4A7A440E320A
:1002C000002104F1240305E000F00F060009965D0B
:1002D0005E54491C0028F7D120780023000704D57C
:1002E000702D02D009B1022311322046BDE87040C2
:1002F00000F0B4B8A82800002DE9F0474FF0000A3C
:1003000089460446C0F820A02046E16888470028B6
:1003100076D0252806D0D4E901219047206A401CD8
:100320002062F1E7E168204600258847C4F81CA058
:1003300006460027C4F818A02A2E09D0304602F03D
:1003400029FA38B304EB8708303EC8F8186019E082
:1003500059F8041B204604EB87029161E168884745
:10036000012F064618D1E069002820DA25F0200583
:100370001DE0D8F8180000EB800006EB4000303894
:10038000C8F818002046E1688847064602F002FADD
:100390000028EED1012F0AD02E2E08D12046E16888
:1003A00088477F1C0646022F45F02005C4DBA06964
:1003B000002803DA404245F00105A061E80701D0BA
:1003C00025F01005B6B1A6F14100192802D8203653
:1003D00045F400654A463146204625604D46FFF704
:1003E000E1FE58B1012806D0ED1D25F0070000F10F
:1003F000080989E704E005F1040985E730468AE742
:10040000206ABDE8F0874FF0000200B5134694461D
:100410009646203922BFA0E80C50A0E80C50B1F15C
:100420002001BFF4F7AF090728BFA0E80C5048BF70
:100430000CC05DF804EB890028BF40F8042B08BF0E
:10044000704748BF20F8022B11F0804F18BF00F80A
:10045000012B704770477047704770472DE9F04790
:100460000D4699469246044600F124080168880624
:1004700004D5E06921F01001216000E00120A842CC
:1004800001DD471B00E00027A1697A1902EB090092
:10049000081AA0612078C00602D42046AFF300807D
:1004A000002608E0D4E901211AF806009047206AE6
:1004B000401C761C20624E45F4DB2078C0060AD52D
:1004C0002046AFF3008006E0D4E9012130209047B8
:1004D000206A401C2062381EA7F10107F4DC07E007
:1004E000D4E9012118F805009047206A401C2062D9
:1004F000281EA5F10105F3DC2046AFF3008020782B
:10050000000602D50220BDE8F0870120FBE7704716
:100510002DE9FF4F0C461E464FF0FF378BB0D2E956
:100520000001DDF860800A908A46C1F30A5505B9DA
:100530003D46002108464FF00000BAF1000F00F4DC
:10054000400005DA00EB80004FF4400101EA500062
:100550004FEA9059B9F1010F00DDB9460A9850EA07
:100560004A000ED044F61050A5F2FF3545432F1433
:10057000B8F1000F1ED07542291E1EDDC9F1000220
:100580001CE0B8F1010F4FF0000001D0302103E072
:10059000F24305E02154401CB042FBDB3046002210
:1005A000002121540B99C1F80880C1E900200FB047
:1005B000BDE8F08FBD1B6D1CDEE74A4600DA6942DC
:1005C00006A800F07BFA06AB93E8070003AB83E8CC
:1005D000070050460A9900F053FB8DE80700A0F58C
:1005E00000501F3800900398002D09DD42F21F01D2
:1005F0004A46084403A90390684600F0B2FD08E0AB
:10060000A0F500504A461F3803A90390684600F041
:10061000BCFD8DE807000004000C03D04FF0FF3054
:10062000410800E01046B8F1000F03D0002200920C
:1006300015461EE0751E05D400F0A2F93032625551
:100640006D1EF9D5B3460122084302D000227F1C5B
:1006500004E02078302801D100227F1E002A09976B
:1006600086D01DE0112D07DA00F08AF9303262558C
:100670006D1C50EA0102F5D1084302D00098C8B1C0
:100680000EE00021681E05E0235C625C6354225486
:10069000401E491C8142F7DBAB46A81B401E099057
:1006A000002004F80B000B98099AC0F80880C0E9F4
:1006B000002B7CE711264FF0000859E72DE9F04F99
:1006C00088460446D21D22F0070191B0D1E900010D
:1006D000CDE90A0102F03AF802460B98C00F01D0AA
:1006E0002D2007E02068810701D52B2002E0202182
:1006F00001EAC000032A099001D0072A05DB03465E
:100700004146204600F09AF90BE12078800601D599
:10071000E06900E00620B8F1650F814606D0B8F127
:10072000660F18D0B8F1670F70D131E00020B9F131
:10073000110F009001DB112301E009F101030AAA66
:1007400001A90CA8FFF7E4FEDDE90C70002609F111
:100750000105834647E001204B4600904FF00047DB
:100760000AAA01A90CA8FFF7D3FEDDE90DB00C9988
:100770005D46002610B909F101000D18B9EB05001E
:1007800003D4C0F1FF3609F10105A5EB09002BE008
:10079000B9F1010F01DA4FF001090020B9F1110F91
:1007A0000090484601DD112300E003460AAA01A992
:1007B0000CA8FFF7ADFEDDE90C704D460026834620
:1007C000207800070AD4AB4500DA5D4601A8012D68
:1007D00004DD411911F8011C302907D04F4502DA18
:1007E00017F1040F04DA012082460FE06D1EEEE7D8
:1007F000002F02DCED1B3E4403E0781CA84200DD24
:100800007D1CB81B00F1010A4FF00047207800075B
:1008100003D4AA4501DB4FF0FF3A0021B7F1004FA6
:100820000DF143088DF8431024D002202B23002F14
:1008300001DA7F422D230A21021EA0F1010000DC13
:100840005FB197FBF1FC97FBF1F201FB1C7C1746B3
:100850000CF1300C08F801CDEEE7A8F101000370AF
:100860002188090501D5452100E06521A0F1010895
:1008700000F8011C09980FA9A1EB0807FF1D00B1A2
:100880000120411901EBEA70A1693844081A401EA1
:10089000A0612078C00602D42046AFF300800998FA
:1008A00028B1D4E901219047206A401C20622078B9
:1008B000C00622D52046AFF300801EE0002E04DBE8
:1008C000B34502DD01A8805D00E03020D4E90121BC
:1008D0009047206A401C2062761CAAF101005FEA62
:1008E000000A0AD100F048F8C0680168405CD4E909
:1008F00001219047206A401C2062281EA5F10105B5
:10090000DCDC07E0D4E9012118F8010B9047206AEC
:10091000401C2062381EA7F10107F3DC2046AFF32C
:100920000080032011B043E610B5436913B1AFF363
:10093000008001E0FFF78AFC012010BD127800F171
:1009400024010A7000224A700122EDE711684FF07D
:10095000FF32E9E7074B70B50D467B4400F05BF8CA
:100960000446284600F018F910B14FF0FF3070BD72
:10097000204670BD471E000000487047D41000207C
:1009800030B5B0F10A024FEA900E71F100034EEA61
:10099000817EB0EB0E0061EB91014FEA101E4EEA32
:1009A000017E10EB0E0041EB11114FEA102E4EEAC2
:1009B000016E10EB0E0041EB11214FEA104E4EEA92
:1009C000014E10EB0E0041EB1141401841F10001C6
:1009D0004FEAD00040EA41704FEAD10110EB8005A8
:1009E0004FEA810444EA907444EB01046D1944EB2E
:1009F0000404521BA3414FF0000348BF0A3200D544
:100A000030BD401C41F1000130BD000001694A1CAD
:100A100002610878704700B58FB0CDE9013100213F
:100A2000059105497944CDE9031011466846FFF761
:100A300063FC0FB000BD0000E5FFFFFF2DE9F041B2
:100A40001F46044603260168072A01F4006004DB00
:100A500008B116A505E016A503E008B115A500E04C
:100A600015A521F010002060A069C01EA0610FB183
:100A7000401EA0612046AFF300804FB1D4E90121B0
:100A800038469047206A401C2062C01C206206E065
:100A9000206AFAE7D4E9012115F8010B9047761E88
:100AA000F8D22046AFF30080BDE8F0814E414E0001
:100AB0006E616E00494E4600696E66002DE9F04792
:100AC000814616468AB0334878440DC88DE80D003B
:100AD00030487844801C03AC0DC884E80D0041F612
:100AE0009B300844372190FBF1F290FBF1F5A5F122
:100AF000800501FB12041B3C02D56442012000E08A
:100B00000020DFF890A080460027FA44AAF1BE0A30
:100B10000DE0E00709D03246684607EB47010AEBD3
:100B2000810100F032FB8DE8070064107F1C002C6F
:100B3000EFD1184F7F44AC3F18E0E80714D007EB23
:100B400004100DF1180A90E80E008AE80E00C06843
:100B5000F04201D198190890324606A903A800F086
:100B600014FB03AB83E807006D10641C002DE4D177
:100B700032466946B8F1000F03A802D000F0F1FA3E
:100B800001E000F002FBC9E90001C9F808200AB041
:100B9000BDE8F0873C210000007B00F0800070473A
:100BA00000487047B41000207546FFF7F9FFAE46C5
:100BB00005006946534620F00700854618B020B569
:100BC000FFF724FBBDE820404FF000064FF0000780
:100BD0004FF000084FF0000B21F00701AC46ACE8E5
:100BE000C009ACE8C009ACE8C009ACE8C0098D4652
:100BF00070470446AFF300802046FFF7F3FA000089
:100C00004FF0013C50F8042B51F8043B9A4221D19B
:100C1000A2EB0C03934313EACC1317D150F8042B27
:100C200051F8043B9A4215D1A2EB0C03934313EA0B
:100C3000CC130BD150F8042B51F8043B9A4209D144
:100C4000A2EB0C03934313EACC13DBD04FF000006C
:100C5000704700BFD01A01BAB1FA81F101F0180152
:100C600022FA01F0CB40C1F12001DBB2C0B2C01AC0
:100C70002CFA01F3D11A914311EAC311E6D170475E
:100C80005FEA400C08BF91F0000F4FEA8C234FEA57
:100C9000C12243EA51514FEA1C5018BF00F5F04001
:100CA0004FEA300018BF41F000415FEA6C5C00F091
:100CB0002980BCF1FF3F08BF40F080407047130C13
:100CC00006BF12044FF0100C4FF0000C130E04BFBF
:100CD00012020CF1080C130F04BF12010CF1040CEA
:100CE000930F04BF92000CF1020CD30F04BF52000B
:100CF0000CF1010C11464FF00002A0F11F00A0EB17
:100D00000C00704711F0004F08BF704731F00041F0
:100D10003FF4D5AF0B0C06BF09044FF0100C4FF099
:100D2000000C0B0E04BF09020CF1080C0B0F04BFE2
:100D300009010CF1040C8B0F04BF89000CF1020CAB
:100D4000CB0F04BF49000CF1010CCCF12003A0EB48
:100D50000C0022FA03F302FA0CF241EA030100F15B
:100D60000100704720F07F4C80EA030023F07F47AA
:100D7000ACEB070303F57C5300F0004003F1FF03E5
:100D80002DE980494FEA154B09B44FEA144325EA8F
:100D90000B4E24EA03480FF2042606EB13274908FA
:100DA0003E785FEA320203FB0667C7F5000707FBE0
:100DB00006F64FEA54374FEAD64606F1020607FB1D
:100DC000066CCCF1005C4FEA1C472CEA074C07FB91
:100DD00006F40CFB06F504EB15464FEA961634BFF5
:100DE00000204FF000404FEAD13706FB07FC4FEAE6
:100DF0001C4C0CFB0BF7D21B03FB0CF761EB070140
:100E00000CFB0EF7B0EB074072EB17420CFB08F738
:100E100034BFA2EB0742B2EB074261EB17414FEA46
:100E20000C444FEA910706FB07FC4FEA1C4C0CFBF5
:100E30000BF7B0EBC74072EB573203FB0CF734BF34
:100E4000A2EBC742B2EBC74261EB57310CFB0EF786
:100E5000B0EBC70072EB57720CFB08F734BFA2EB84
:100E6000C702B2EBC70261EB5771039F4FEA816182
:100E700041EA921104EBCC044FEAD1374FEA826287
:100E800006FB07FC42EA90124FEA80604FEA1C4CD6
:100E90000CFB0BF7D21B03FB0CF761EB07010CFB00
:100EA0000EF7B0EB074072EB17420CFB08F734BFAC
:100EB000A2EB0742B2EB074261EB17414FEA8C55B8
:100EC0004FEA910704EB9C2406FB07FC4FEA1C4CFD
:100ED0000CFB0BF7B0EBC74072EB573203FB0CF780
:100EE00034BFA2EBC742B2EBC74261EB57310CFBF8
:100EF0000EF7B0EBC70072EB57720CFB08F734BF6C
:100F0000A2EBC702B2EBC70261EB577115EB4C25A0
:100F10004FEA816141EA92114FEA82624FEAD1378A
:100F200042EA901206FB07FC44F100044FEA80609D
:100F30004FEA1C4C0CFB0BF7D21B03FB0CF761EBCD
:100F400007010CFB0EF7B0EB074072EB17420CFBEE
:100F500008F734BFA2EB0742B2EB074261EB17413F
:100F600015EB1C154FEA813141EA92414FEA82327A
:100F700042EA90424FEA80304FEA0C7644F1000496
:100F800048EA03434EEA0B484FF0000EB2EB080C60
:100F900071EB030724BF624639464EEB0E0E4FF04D
:100FA000000B0018524149414BEB0B0BB2EB080C04
:100FB00071EB03077BF1000B24BF624639464EEB11
:100FC0000E0E4FF0000B0018524149414BEB0B0B3A
:100FD000B2EB080C71EB03077BF1000B24BF6246F8
:100FE00039464EEB0E0E51EA020718BF46F00106D5
:100FF00016EB0E7655F1000254F1000103D5BDE861
:101000008901BDE80088BDE88901BDE80048B6193E
:10101000524141EB0101A3F10103704780807F7EC3
:101020007D7C7B7A7978777676757473727171705E
:101030006F6E6E6D6C6C6B6A6A6968686766666510
:101040006464636362616160605F5F5E5E5D5D5C9E
:101050005C5B5B5A5A59595858575756565555550F
:101060005454535352525251515050504F4F4F4E6F
:101070004E4D4D4D4C4C4C4B4B4B4A4A4A494949BD
:1010800048484847474747464646454545444444FF
:10109000444343434342424242414141002B26D410
:1010A000770021D01CB54FEA370703B44FF010008A
:1010B0004FF010014FF000000FBCBDE810400BF1E5
:1010C000010BBBF1010F08BF5FEA170722BF12F146
:1010D000010211F101014FF0004143F1000300F062
:1010E000004043EA00007047F9D35708DAE746EAC0
:1010F000064613F1400F4FEA16461FDD13F1200F8D
:10110000DFBF16430A46002120335B42C8D0C3F13B
:10111000200746EA064602FA07F74FEA164646EA6D
:101120000706C3F1200722FA03F201FA07F721FAB2
:1011300003F14FF0000342EA0702B1E746EA020674
:1011400046EA06464FEA164646EA0106BCBF46EAAC
:101150000646360C4FF000034FF000024FF000013E
:101160009EE72DE9C048934630B491E8380007C89F
:1011700031EA400C48BF34EA430C03D5FFF7F2FDD7
:10118000FFF78CFFF0BCBDE800882DE9C04893460E
:1011900030B491E8380007C810F0804F08BF13F052
:1011A000804F03D100F005F8FFF778FFF0BCBDE8F1
:1011B000008820F07F4780EA030023F07F4C07EB94
:1011C0000C03A3F57C5300F00040A3F1FE0392F062
:1011D000000F00F0B38095F0000F00F077802DE94C
:1011E00001494FEA11404FEA144621EA004800FB4A
:1011F00006FC24EA064708FB06F607FB08F800FB96
:1012000007F718EB06484CEB164C4FEA124B18EB5D
:1012100007484FEA15464CEB174022EA0B4E0BFBF2
:1012200006FC25EA06470EFB06F607FB0EFE0BFB47
:1012300007F71EEB064E4CEB164C4FF000061EEB6C
:10124000074E4CEB174B18EB0B0840F1000018EB66
:101250000E0B58EB000840F100008F1A4FF0000110
:101260003CBFC943661B14BFB5EB040C00213CBF57
:10127000C943F61B4FEA17444EEA8E0E27EA04458F
:101280004FEA1C4704FB07622CEA074C05FB07F7F3
:101290000CFB05F604FB0CFC16EB074642EB174271
:1012A00016EB0C4642EB1C421BEB060658EB020207
:1012B000414146EA9E0601D5BDE80189B619524171
:1012C00041EB0101A3F10103BDE801894FEA144597
:1012D0004FEA114724EA054621EA074C05FB07F4CB
:1012E00006FB07F70CFB06F105FB0CFC11EB0741B5
:1012F00044EB17444FEA124711EB0C4144EB1C44FA
:1013000022EA074C05FB07F206FB07F70CFB06F683
:1013100005FB0CFC16EB074642EB174216EB0C469E
:1013200042EB1C456A1854F1000148BF7047B619DA
:10133000524141EB0101A3F10103704795F0000F09
:1013400037D04FEA11424FEA144721EA024624EA15
:10135000074C02FB07F106FB07F70CFB06F402FB48
:101360000CFC14EB074441EB17414FEA154714EB13
:101370000C4441EB1C4125EA074C02FB07F506FB38
:1013800007F70CFB06F602FB0CFC16EB074645EBD9
:10139000174516EB0C4645EB1C42121951F10001A2
:1013A00048BF7047B619524141EB0101A3F1010357
:1013B00070474FEA14454FEA114724EA054621EAEF
:1013C000074C05FB07F106FB07F70CFB06F24FF095
:1013D000000605FB0CFC12EB074241EB174112EB38
:1013E0000C4251EB1C4148BF7047921841EB010180
:1013F000A3F101037047FEE7704772B6FEE70000F5
:101400002DE9F84FDFF8C891002409F1040A0AF128
:10141000040B23460F270BF1040ED1E00125A54054
:1014200006EA0502AA4276D1DFF8A8C14E68A6EB0B
:101430000C0866452BD00DDC032E34D005DC36B30A
:10144000012E19D0022E2FD11BE0112E16D0122EF4
:101450002AD119E0B8F5881F19D006DCB8F5803F0D
:1014600015D0B8F5801F1FD111E0B8F5001F0ED0C0
:10147000B8F5041F18D10AE0CB6815E0CB681B1D36
:1014800012E0CB6808330FE0CB680C330CE08B68BC
:101490002BB1012B4FF0080303D0456104E0042376
:1014A00002E0056100E00023FF2A01D8064601E0C2
:1014B00000F104064FEA840501D9A5F12005D6F80C
:1014C000008007FA05FC28EA0C0803FA05F548EA4B
:1014D0000508C6F800804D68ED0070D53E4DAE6938
:1014E00046F00106AE61AD6924F0030605F0010582
:1014F00000953A4D06EB050CDCF80850A607360FB0
:1015000007FA06F825EA0805DFF8D480404503D13C
:101510004FF0000825E052E0DFF8C880404502D1D6
:101520004FF001081DE0DFF8C080404502D14FF0C8
:10153000020816E0DFF8B480404502D14FF00308FE
:101540000FE0DFF8AC80404502D14FF0040808E01E
:10155000DFF8A080404502D14FF0050801E04FF0D0
:10156000060808FA06F848EA0508CCF808804D682D
:10157000D9F80060ED034D4601D5164300E09643CF
:101580002E604D68DAF80060AD03554601D516436C
:1015900000E096432E604D68DBF80060ED025D468A
:1015A00001D5164300E096432E604D68DEF80060DA
:1015B000AD02754601D5164300E096432E60641CCB
:1015C0000A681646E2407FF429AFBDE8F88F0000B4
:1015D0000004014000001110001002400000014012
:1015E00000080140000C01400010014000140140BF
:1015F00000180140001C01400AB101617047090454
:10160000FBE70000014880687047000004000020EC
:10161000024881680278114481607047040000200C
:10162000074810B5016841F010010160032000F087
:1016300067F80F2000F006F800F024F8002010BD35
:101640000020024070B50D4D04464FF47A712878A1
:10165000B1FBF0F00A490968B1FBF0F000F061FC61
:1016600048B9102C07D200222146501E00F028F85D
:1016700000206C6070BD012070BD000004000020DF
:10168000100000200C4808B5816941F0010181611A
:10169000816901F001010091C16941F08051C1618E
:1016A000C06900F0805000900448416821F0E0617A
:1016B00041F00071416008BD00100240000001408F
:1016C000F0B40E4B1B680C46C3F30223C3F10705AD
:1016D000042D00D90425191D072901D2002300E09B
:1016E000DB1E012606FA05F1491E214099409E4065
:1016F000761E16403143F0BC01F03CB80CED00E022
:10170000064900F0070208684FF6FF03184040EA58
:101710000220034A10430860704700000CED00E00F
:101720000000FA052DE9F0470F46050061D0434E51
:10173000306800F00700B84209D2306820F0070096
:1017400038433060306800F00700B84251D1286853
:101750003B4C810712D5400703D5606840F4E06038
:1017600060602878000703D5606840F460506060CE
:101770006068A96820F0F000084360602878C0071E
:1017800028D06868012810D02168022810D0890765
:1017900000292EDA616821F0030101436160FFF73F
:1017A00031FF804641F288390DE021688903EFE777
:1017B0008901EDE7FFF726FFA0EB0801494502D9B3
:1017C0000320BDE8F0876068696800F00C00B0EBAA
:1017D000810FEFD1306800F00700B8420BD93068B4
:1017E00020F0070038433060306800F00700B8424E
:1017F00001D00120E5E72878400705D56068E96851
:1018000020F4E060084360602878000706D560682F
:10181000296920F4605040EAC100606000F038F8A7
:101820006168084AC1F30311515CC8400649086069
:1018300006480068FFF706FF0020C2E700200240CC
:10184000001002404A2B0008100000200800002071
:101850000448054900684968044AC1F30221515C03
:10186000C840704710000020001002405A2B0008AA
:101870000448054900684968044AC1F3C221515C23
:10188000C840704710000020001002405A2B00088A
:1018900012A185B00FC98DE80F0014A0144A00688A
:1018A00004905168134801F00C03042B10D0082B4E
:1018B0000ED1C1F38343C9031DF803000AD5516853
:1018C00004AAC1F34041515C0A4A5043B0FBF1F015
:1018D00005B0704708494843FAE7000002030405D1
:1018E000060708090A0B0C0D0E0F1010010200006C
:1018F0000010024000127A0000093D002DE9F84F67
:10190000040070D02078C04DC00749D06868C0F38B
:101910008100012807D06868C0F38100022809D13E
:101920006868C00306D52868800339D56068002838
:10193000E7D035E06068B0F5803F0BD010B1B0F56E
:10194000A02F11D0286820F480302860286820F467
:10195000802002E0286840F480302860606890B100
:10196000FFF750FE06460AE0286840F48020286011
:10197000F0E700BFFFF746FE801B642873D8286895
:101980008003F7D50CE0FFF73DFE064605E000BFFB
:10199000FFF738FE801B6428F0D828688003F7D44E
:1019A00020789A4E80074FF001094FF0000839D592
:1019B000686810F00C0F07D06868C0F38100022837
:1019C00009D16868C00306D42868800714D5206947
:1019D000012808D110E02069B0B1C6F80090FFF7E7
:1019E00011FE074605E00AE1FFF70CFEC01B0228C6
:1019F000C4D828688007F7D52868616920F0F80006
:101A000040EAC10028600DE0C6F80080FFF7FAFD4B
:101A1000074604E0FFF7F6FDC01B022823D828681C
:101A20008007F7D4207800072CD57948A169D9B16F
:101A3000C0F80090FFF7E6FD074604E0FFF7E2FD7F
:101A4000C01B02280FD8686A8007F7D571484FF489
:101A5000FA510068B0FBF1F0009000BF0098411E01
:101A60000091FAD20EE080E0C0F80080FFF7CAFDD6
:101A7000074604E0FFF7C6FDC01B022875D8686A58
:101A80008007F7D42078400760D5E8690027C000B8
:101A900008D4E86940F08050E861E869012700F067
:101AA000805000905C480168C90513D401688346E2
:101AB00041F480710160FFF7A5FD824606E000BF9A
:101AC000FFF7A0FDA0EB0A0064284ED8DBF8000069
:101AD000C005F5D5E06801280AD008B1052813D063
:101AE000286A20F001002862286A20F0040002E041
:101AF000286A40F001002862E06841F2883B98B112
:101B0000FFF780FD82460BE0286A40F0040028625F
:101B1000EEE700BFFFF776FDA0EB0A0159455AD862
:101B2000286A8007F6D50CE0FFF76CFD824605E0D9
:101B3000FFF768FDA0EB0A0159454CD8286A8007D9
:101B4000F6D41FB1E86920F08050E861E06988B3FD
:101B50006968C1F38101022944D00228C6F8608077
:101B600004D0FFF74FFD044638E034E0FFF74AFDAC
:101B7000074604E0FFF746FDC01B02282BD8286863
:101B80008001F7D4206AB0F5803F05D16868A1686C
:101B900020F4003008436860D4E90801084369680C
:101BA00021F4741108436860C6F86090FFF72AFDBD
:101BB000044606E025E000BFFFF724FD001B0228D5
:101BC00009D828688001F7D51BE000BFFFF71AFD90
:101BD000001B022802D90320BDE8F88F2868800185
:101BE000F4D40EE00128F7D06868226A00F480314E
:101BF000914204D1616A00F47010884201D0012042
:101C0000EAE70020E8E7000000100240000042423E
:101C100080044242100000200070004070B50400B3
:101C200009D0606A002540B125616561A56294F81C
:101C3000510040B10CE0012070BD6068B0F5827FBA
:101C4000F4D0E561F2E784F85050204600F040F807
:101C5000022084F851002068016821F040010160F1
:101C6000A088218900F4827001F404410843A1890D
:101C700001F400610843217C01F002010843217D49
:101C800001F001010843218B01F400710843217F19
:101C900001F03801084394F8201001F08001084356
:101CA000218D01F40051084321680860A0690421D6
:101CB00001EA1040216848602068C16921F4006190
:101CC000C1616565012084F85100002070BD0000ED
:101CD00030B585B000240094019402940394006808
:101CE0001449884223D11448816941F480518161AB
:101CF000816901F480510491816941F0040181619D
:101D000080690E4D00F004000490A0200090022095
:101D100001900320039069462846FFF771FB40209D
:101D2000CDE90004694628460294FFF769FB05B037
:101D300030BD0000003001400010024000080140AA
:101D40002DE9F84F044690F8500000270A9E1D46E2
:101D500092468B464FF0010901280ED0012084F8ED
:101D60005000FFF74FFC804694F85100616801284D
:101D70000CD0B1F5827F07D102E00220BDE8F88FD8
:101D8000A16809B9042801D00227C2E0BBF1000F05
:101D900027D0BAF1000F24D01DB394F851000428C5
:101DA00002D0052084F8510000206065C4F838A0F6
:101DB000E587A587C4F830B0E586A5862064606411
:101DC00020680168490603D4016841F040010160C0
:101DD000E068B0F5006F606805D0E8B3012D46D02B
:101DE0007FE0012795E008B1012D39D1206B2168F2
:101DF0000088C860206B801C2063E08E401EE08657
:101E00002EE02068816889070FD5E18E69B1B9F1AC
:101E1000010F0AD1216B0988C160206B801C2063EF
:101E2000E08E401EE0864FF0000920688168C907F7
:101E30000CD0E18F51B1C068A16B0880A06B801CF1
:101E4000A063E08F401EE0874FF00109FFF7DAFB47
:101E5000A0EB0800B04200E009E001D3701C50D1B3
:101E6000E08E0028CDD1E08F0028CAD13FE0206B62
:101E7000216800780873206B401C2063E08E401EB0
:101E8000E0862EE02068816889070FD5E18E69B170
:101E9000B9F1010F0AD1216B09780173206B401C45
:101EA0002063E08E401EE0864FF0000920688168C4
:101EB000C9070CD0E18F51B1C068A16B0870A06B4D
:101EC000401CA063E08F401EE0874FF00109FFF740
:101ED00099FBA0EB0800B04202D3701C01D010E0C7
:101EE0007EB1E08E0028CDD1E08F0028CAD14246D5
:101EF0003146204600F078F928B10127202060659E
:101F000007E0032705E0A06818B92068C168806869
:101F10000090012084F85100002084F850003846D9
:101F20002CE710B5401EB0F1807F01D3012010BD19
:101F30004FF0E02460610F21601700F01BFC0020CF
:101F4000A06107202061002010BD70B5040004D0FE
:101F500094F83D00002510B106E0012070BD84F822
:101F60003C50204600F022F8242084F83D002068F0
:101F7000C16821F40051C160204600F0D5F9206805
:101F8000016921F4904101612068416921F02A0131
:101F900041612068C16841F40051C160256420207E
:101FA00084F83D0084F83E00002070BD30B585B057
:101FB0000024009401940294039400681449884218
:101FC00024D11448816941F480418161816901F41F
:101FD00080410491816941F00401816180690E4D65
:101FE00000F0040004904FF4007000900220019073
:101FF0000320039069462846FFF702FA2815CDE929
:102000000004694628460294FFF7FAF905B030BD8E
:102010000038014000100240000801402DE9F8435B
:10202000044690F83D001F4616460D4620284CD128
:10203000C5B1BEB194F83C00012846D0012084F817
:102040003C004FF00008C4F84080212084F83D0097
:10205000FFF7D8FAA6848146E684A068B0F5805FD1
:1020600003D004E00120BDE8F883206928B12E46A2
:102070005FF0000584F83C800EE00026FAE780213E
:10208000204600F0ADF9A0B9AEB116F8010B2168F9
:102090004860E08C401EE084E08C4B464FF000022C
:1020A00000970028EBD14FF04001204600F098F94E
:1020B00030B10320D7E735F8020BC0F30800E6E79C
:1020C000202084F83D000020CDE70220CBE7FEE78A
:1020D00030B585B00024184800940194029403940C
:1020E000816941F010018161816901F01001049161
:1020F000816941F020018161816901F02001049131
:10210000816941F00401816180690C4D00F0040097
:102110000490002204212846FFF76EFA0420009064
:102120000120CDE901040320039069462846FFF70A
:1021300067F905B030BD0000001002400008014002
:10214000104810B50E4901604FF4827141600021C2
:1021500002228160C0E903120122426152028261BF
:102160000822C0E90721416281620A21C162FFF7AA
:1021700055FD002803D0BDE81040FFF73EB910BD63
:1021800000300140180000200C4810B50A490160D9
:102190004FF4E1314160002181600C22C160C0E94F
:1021A00004128161C161FFF7D0FE002803D0BDE8B1
:1021B0001040FFF722B910BD003801407000002028
:1021C000FEE7FEE77047000001B582B04FF47A7079
:1021D0000090012301AA02A90248FFF7B1FD9DF872
:1021E00004000EBD1800002038B50B4600920446CE
:1021F0000022802100F008F8002804D0606D40F033
:1022000020006065032038BD2DE9F8431E46914645
:1022100088460446089DFFF7F5F9401B351AFFF77D
:10222000F1F9074625480068C0F3CB30684338E031
:10223000701C37D0FFF7E6F9C01BA84203D215B1D6
:10224000009860B32CE02068416821F0E001416013
:102250006068B0F5827F0BD1A068B0F5004F02D066
:10226000B0F5806F04D12068016821F04001016061
:10227000A06AB0F5005F09D12068016821F400511F
:1022800001602068016841F400510160012084F878
:102290005100002084F850000320BDE8F883002599
:1022A000401E00902068816838EA010004D00021B7
:1022B0004945BDD10020F0E70121F9E710000020D9
:1022C0007047FFF7A5B930B58FB028216846FEF7F3
:1022D0009AF814210AA8FEF796F801210804CDE91E
:1022E00000100024029402250491CDE907504FF418
:1022F000E01009906846FFF701FB08B172B6FEE7EF
:102300000F20CDE90A054FF48060CDE90C40022191
:102310000AA80E94FFF706FA002801D072B6FEE76D
:102320000FB030BD7047000070B504460068016909
:10233000E26821F44051114301612169A06808431A
:10234000616908432168CA6841F20C639A430243F9
:10235000CA6020684169A26921F44071114341615A
:102360001E492068884202D1FFF782FA01E0FFF798
:102370006FFA00EBC00101EB00126068642180007D
:10238000B2FBF0F3B3FBF1F36FF018067343B2FB4B
:10239000F0F5B2FBF0F605EB8305322303EB0515F0
:1023A000B5FBF1F5B6FBF1F605F0F00505EB06150A
:1023B000B2FBF0F6B2FBF0F0B0FBF1F06FF01802F8
:1023C000504306EB800003EB0010B0FBF1F02168F6
:1023D00000F00F002844886070BD00000038014004
:1023E0002DE9F041984617460E460446069D1DE02D
:1023F000681C1BD02DB1FFF705F9A0EB0800A8421F
:1024000014D92068C16821F4D071C1602068416985
:1024100021F001014161202084F83D0084F83E0054
:10242000002084F83C000320BDE8F08120680068AB
:1024300036EA000004D00020B842D9D00020F3E7EB
:102440000120F9E7FEE70000044B20B1012204213E
:102450001846FFF7D1B80022F9E700000008014054
:1024600010B5040300F014F900F0BCF80020FFF7E9
:10247000EBFF2020FFF7A8FE0D480088A0F56F4174
:10248000183902D1200EFFF79FFEC4F30740FFF773
:102490009BFEC4F30720FFF797FEE0B2FFF794FE20
:1024A0000120FFF7D1FFBDE8104000F09BB800000D
:1024B0001400002070B50120FFF7C6FF00F058F8A7
:1024C000124C4EF61875A84220800CD1032000F063
:1024D0006EF8C00707D1FFF7B7FFB720FFF774FE0C
:1024E0000120FFF7B1FF2088A8420DD0A0F56F4171
:1024F000173909D0491C07D0491C05D0491C03D005
:10250000491C01D0012070BD002070BD14000020C6
:1025100070B5064615460C460020FFF795FF0320D0
:10252000FFF752FE11480088A0F56F41183902D11B
:10253000200EFFF749FEC4F30740FFF745FEC4F342
:102540000720FFF741FEE0B2FFF73EFE002405E062
:10255000FF20FFF739FE3055641CA4B2AC42F7D31C
:10256000BDE870400120FFF76FBF0000140000209D
:1025700010B500242046FFF767FF9020FFF724FEE8
:102580000020FFF721FE0020FFF71EFE0020FFF7CE
:102590001BFEFF20FFF718FE44EA0024FF20FFF790
:1025A00013FE04430120FFF74FFF204610BD10B576
:1025B000012803D0022803D0032803D0052402E019
:1025C000352400E015240020FFF73EFF2046FFF7EA
:1025D000FBFDFF20FFF7F8FD04460120FFF734FF65
:1025E000204610BD10B50120FFF7E1FFC007FAD16A
:1025F00010BD00002DE9F05FC1F30B06DFF88C8001
:102600000F0BC6F58054894682461546A24200D873
:10261000144639038B464FF480524046FFF778FF4B
:10262000002006E0321818F80210FF2903D1401CE0
:1026300080B2A042F6D3A04222D23846FFF710FF64
:10264000002006E01AF800208319401C08F8032037
:1026500080B2A042F6D359464FF480524FEA0800A8
:1026600000F022F8A5420FD0281BA244A144002666
:1026700085B24FF480547F1CA542CAD82C46C8E7C7
:10268000224649465046EBE7BDE8F09FB4000020E3
:1026900010B50020FFF7D8FE0620FFF795FDBDE836
:1026A00010400120FFF7D0BE2DE9F0410746C8B227
:1026B000C0F580740E461546A24200D814464FF469
:1026C000807822463146384600F00EF8A54208D000
:1026D000281B2744264485B24446A542F1D82C46FF
:1026E000EFE7BDE8F081000070B515460C460646E0
:1026F000FFF7CEFF0020FFF7A7FE0220FFF764FDE3
:1027000011480088A0F56F41183902D1200EFFF75B
:102710005BFDC4F30740FFF757FDC4F30720FFF745
:1027200053FDE0B2FFF750FD002404E0305DFFF7F9
:102730004BFD641CA4B2AC42F8D30120FFF784FE29
:10274000BDE87040FFF74EBF14000020490050EA7A
:10275000C12018BF04204A0D18BF40F0010040F20C
:10276000FF72B2EB515F08BF40F00200012808BFC2
:10277000052070470907090E002804DB00F1E0205E
:1027800080F80014704700F00F0000F1E02080F89E
:10279000141D704730380A2801D2012070470020EC
:1027A0007047704713B54FF6FF7301226946024820
:1027B000FFF734FC00981CBD700000208CB0FEF7C1
:1027C0002FFFFFF780FDFFF783FCFFF7B9FCFFF752
:1027D000DBFCFFF76FFE38A0FDF72CFDFFF7C8FE0E
:1027E000010059D040A0FDF725FD44A0FDF722FDD2
:1027F0004EA008AB07C883E807004FA002AB07C88C
:1028000083E807000B22002108A8FFF7F3FE0B2244
:10281000002102A8FFF77CFE9DF8080026283FD083
:1028200002A948A0FDF706FD4CA0FDF703FD58489E
:102830000690002000900422142106A8FFF7DAFE7B
:10284000042214216846FFF763FE009810F0FF4F42
:102850002AD0009800F006F902460B464DA0FDF77D
:10286000E9FC54495248CDE906010020CDE90000B9
:102870000822142106A8FFF7BDFE0822142168468D
:10288000FFF746FE009810F0FF4F11D0DDE900235E
:1028900049A0FDF7CFFCFEE74FA0FDF7CBFCA4E776
:1028A00053A0FDF7C7FCBFE756A0FDF7C3FCD8E770
:1028B00059A0FDF7BFFCEEE72D2D2D2D2D2D2D2D33
:1028C0002D2D2D2D2D20B6C1C8A1D0BEC6AC49449A
:1028D000CAB5D1E9202D2D2D2D2D2D2D2D2D2D2DB0
:1028E0002D2D2D2D200D0A00446563656976655FE9
:1028F0004944206973202558200D0A002D2D2D2DC7
:102900002D2D2D2D2D2D2D2D2D20B6C1D0B420D720
:10291000D6BDDACAB5D1E9202D2D2D2D2D2D2D2D89
:102920002D2D2D2D2D2D2D200D0A000048414F5A03
:1029300049205445535400002626262626262626BE
:10294000262600005265616420737472696E6720E8
:1029500069733A202573200D0A0000002D2D2D2DBE
:102960002D2D2D2D2D2D2D2D2D20B6C1D0B420B8DF
:10297000A1B5E3CAFDCAB5D1E9202D2D2D2D2D2DF0
:102980002D2D2D2D2D2D2D2D2D200D0A000000007B
:10299000560E49405265616420666C6F6174206414
:1029A000617461206973202566200D0A0000000013
:1029B0006F1283C0CA2109405265616420646F753B
:1029C000626C65206461746120697320252E313545
:1029D00066200D0A000000005265616420446563B2
:1029E000656976655F4944206661696C200D0A005F
:1029F0005265616420737472696E67206661696CE8
:102A0000200D0A005265616420666C6F6174206657
:102A100061696C200D0A00005265616420646F7565
:102A2000626C65206661696C200D0A0010B5002992
:102A30000AD00878002807D005487844FEF7E0F867
:102A4000002801D0002010BD0248784410BD0000CD
:102A500006020000FE0100000808A0F500114FEA80
:102A60003101704743004FEAD30C4FEA3C0C43401E
:102A70001FBF40070CF1605113F0FE4F70471CF070
:102A8000006F03D100200CF0004170470CF00043B0
:102A900043EA507010B540EACC0000F00EF800BFD9
:102AA000000000924FEA0001FFF7D6BF4FF000414F
:102AB0004FF00000A1F5002170470EF1020E2EF03C
:102AC000030E5EF8044B244204D44FEA4102B2F1F3
:102AD0007F4F11D84FEA4003B3F17F4F0CD80ED18E
:102AE0004FEAD07CB2F17F4F0CEB4C0C0CF1020C96
:102AF00008BF4CEBD17C04E04FF0080C01E04FEA3A
:102B0000D17C0CEB4C0324FA03F404F00704B4F179
:102B1000040C06D20EEB840CBDE810404CF0010C06
:102B20006047DFE80CF0070802024FF00040A0F514
:102B3000800010BD0846420018BFD2F1807288BFE5
:102B400000F0004010BDFDF7B9BD0000000000001E
:102B5000000001020304060708090000000001024A
:102B60000304303132333435363738394142434447
:102B700045464030580030313233343536373839F5
:102B800061626364656640307800000002400000C6
:102B9000000000A00000000005400000000000C888
:102BA000000000000C4000000000409C00000000FD
:102BB000194000000020BCBE0000000034400000AE
:102BC000BFC91B8E00000004B5400000504BCFD0A1
:102BD0006607E2CF010000006C4100003E8251AA6E
:102BE000DFEEA73401000000D9420000DCB5A0E20E
:102BF0003A301F97FFFFFFFFB4450000FD25A0C836
:102C0000E9A3C14FFFFFFFFFFF3F0000000000806E
:102C100000000000FF3F00000000008000000000F6
:102C20005C2C000800000020180000006C01000867
:102C3000742C00081800002000170000880100080C
:102C40001C00000043000000F8FFFFFF0C00000024
:102C50000E0000000F0000002E0000000000000029
:102C60000100000010000000000000000024F4003B
:042C700016EF00005B
:0400000508000131BD
:00000001FF
